{
	"contracts/8_loops.sol": {
		"Loops": {
			"abi": [
				{
					"inputs": [],
					"name": "counter",
					"outputs": [
						{
							"internalType": "uint256",
							"name": "",
							"type": "uint256"
						}
					],
					"stateMutability": "view",
					"type": "function"
				},
				{
					"inputs": [
						{
							"internalType": "uint256",
							"name": "",
							"type": "uint256"
						}
					],
					"name": "data",
					"outputs": [
						{
							"internalType": "int256",
							"name": "",
							"type": "int256"
						}
					],
					"stateMutability": "view",
					"type": "function"
				},
				{
					"inputs": [],
					"name": "doWhileLoop",
					"outputs": [
						{
							"internalType": "int256[]",
							"name": "",
							"type": "int256[]"
						}
					],
					"stateMutability": "nonpayable",
					"type": "function"
				},
				{
					"inputs": [],
					"name": "forLoop",
					"outputs": [
						{
							"internalType": "int256[]",
							"name": "",
							"type": "int256[]"
						}
					],
					"stateMutability": "nonpayable",
					"type": "function"
				},
				{
					"inputs": [],
					"name": "whileLoop",
					"outputs": [
						{
							"internalType": "int256[]",
							"name": "",
							"type": "int256[]"
						}
					],
					"stateMutability": "nonpayable",
					"type": "function"
				}
			],
			"devdoc": {
				"kind": "dev",
				"methods": {},
				"version": 1
			},
			"evm": {
				"assembly": "    /* \"contracts/8_loops.sol\":212:857  contract Loops {... */\n  mstore(0x40, 0x80)\n    /* \"contracts/8_loops.sol\":257:258  1 */\n  0x01\n    /* \"contracts/8_loops.sol\":235:258  uint public counter = 1 */\n  0x00\n  sstore\n    /* \"contracts/8_loops.sol\":212:857  contract Loops {... */\n  callvalue\n  dup1\n  iszero\n  tag_1\n  jumpi\n  0x00\n  dup1\n  revert\ntag_1:\n  pop\n  dataSize(sub_0)\n  dup1\n  dataOffset(sub_0)\n  0x00\n  codecopy\n  0x00\n  return\nstop\n\nsub_0: assembly {\n        /* \"contracts/8_loops.sol\":212:857  contract Loops {... */\n      mstore(0x40, 0x80)\n      callvalue\n      dup1\n      iszero\n      tag_1\n      jumpi\n      0x00\n      dup1\n      revert\n    tag_1:\n      pop\n      jumpi(tag_2, lt(calldatasize, 0x04))\n      shr(0xe0, calldataload(0x00))\n      dup1\n      0x174c9c7e\n      eq\n      tag_3\n      jumpi\n      dup1\n      0x61bc221a\n      eq\n      tag_4\n      jumpi\n      dup1\n      0xe7c898ef\n      eq\n      tag_5\n      jumpi\n      dup1\n      0xf0ba8440\n      eq\n      tag_6\n      jumpi\n      dup1\n      0xfc0e6008\n      eq\n      tag_7\n      jumpi\n    tag_2:\n      0x00\n      dup1\n      revert\n        /* \"contracts/8_loops.sol\":487:702  function doWhileLoop() public returns (int[] memory){... */\n    tag_3:\n      tag_8\n      tag_9\n      jump\t// in\n    tag_8:\n      mload(0x40)\n      tag_10\n      swap2\n      swap1\n      tag_11\n      jump\t// in\n    tag_10:\n      mload(0x40)\n      dup1\n      swap2\n      sub\n      swap1\n      return\n        /* \"contracts/8_loops.sol\":235:258  uint public counter = 1 */\n    tag_4:\n      tag_12\n      tag_13\n      jump\t// in\n    tag_12:\n      mload(0x40)\n      tag_14\n      swap2\n      swap1\n      tag_15\n      jump\t// in\n    tag_14:\n      mload(0x40)\n      dup1\n      swap2\n      sub\n      swap1\n      return\n        /* \"contracts/8_loops.sol\":288:481  function whileLoop() public returns(int[] memory) {... */\n    tag_5:\n      tag_16\n      tag_17\n      jump\t// in\n    tag_16:\n      mload(0x40)\n      tag_18\n      swap2\n      swap1\n      tag_11\n      jump\t// in\n    tag_18:\n      mload(0x40)\n      dup1\n      swap2\n      sub\n      swap1\n      return\n        /* \"contracts/8_loops.sol\":264:281  int[] public data */\n    tag_6:\n      tag_19\n      0x04\n      dup1\n      calldatasize\n      sub\n      dup2\n      add\n      swap1\n      tag_20\n      swap2\n      swap1\n      tag_21\n      jump\t// in\n    tag_20:\n      tag_22\n      jump\t// in\n    tag_19:\n      mload(0x40)\n      tag_23\n      swap2\n      swap1\n      tag_24\n      jump\t// in\n    tag_23:\n      mload(0x40)\n      dup1\n      swap2\n      sub\n      swap1\n      return\n        /* \"contracts/8_loops.sol\":708:854  function forLoop() public returns (int[] memory) {... */\n    tag_7:\n      tag_25\n      tag_26\n      jump\t// in\n    tag_25:\n      mload(0x40)\n      tag_27\n      swap2\n      swap1\n      tag_11\n      jump\t// in\n    tag_27:\n      mload(0x40)\n      dup1\n      swap2\n      sub\n      swap1\n      return\n        /* \"contracts/8_loops.sol\":487:702  function doWhileLoop() public returns (int[] memory){... */\n    tag_9:\n        /* \"contracts/8_loops.sol\":526:538  int[] memory */\n      0x60\n        /* \"contracts/8_loops.sol\":549:554  int i */\n      0x00\n        /* \"contracts/8_loops.sol\":596:666  do{... */\n    tag_29:\n        /* \"contracts/8_loops.sol\":612:616  data */\n      0x01\n        /* \"contracts/8_loops.sol\":622:623  i */\n      dup2\n        /* \"contracts/8_loops.sol\":612:624  data.push(i) */\n      swap1\n      dup1\n      0x01\n      dup2\n      sload\n      add\n      dup1\n      dup3\n      sstore\n      dup1\n      swap2\n      pop\n      pop\n      0x01\n      swap1\n      sub\n      swap1\n      0x00\n      mstore\n      keccak256(0x00, 0x20)\n      add\n      0x00\n      swap1\n      swap2\n      swap1\n      swap2\n      swap1\n      swap2\n      pop\n      sstore\n        /* \"contracts/8_loops.sol\":638:641  i++ */\n      dup1\n      dup1\n      tag_33\n      swap1\n      tag_34\n      jump\t// in\n    tag_33:\n      swap2\n      pop\n      pop\n        /* \"contracts/8_loops.sol\":662:664  10 */\n      0x0a\n        /* \"contracts/8_loops.sol\":658:659  i */\n      dup2\n        /* \"contracts/8_loops.sol\":658:664  i < 10 */\n      slt\n        /* \"contracts/8_loops.sol\":596:666  do{... */\n      tag_29\n      jumpi\n        /* \"contracts/8_loops.sol\":691:695  data */\n      0x01\n        /* \"contracts/8_loops.sol\":684:695  return data */\n      dup1\n      sload\n      dup1\n      0x20\n      mul\n      0x20\n      add\n      mload(0x40)\n      swap1\n      dup2\n      add\n      0x40\n      mstore\n      dup1\n      swap3\n      swap2\n      swap1\n      dup2\n      dup2\n      mstore\n      0x20\n      add\n      dup3\n      dup1\n      sload\n      dup1\n      iszero\n      tag_35\n      jumpi\n      0x20\n      mul\n      dup3\n      add\n      swap2\n      swap1\n      0x00\n      mstore\n      keccak256(0x00, 0x20)\n      swap1\n    tag_36:\n      dup2\n      sload\n      dup2\n      mstore\n      0x20\n      add\n      swap1\n      0x01\n      add\n      swap1\n      dup1\n      dup4\n      gt\n      tag_36\n      jumpi\n    tag_35:\n      pop\n      pop\n      pop\n      pop\n      pop\n      swap2\n      pop\n      pop\n        /* \"contracts/8_loops.sol\":487:702  function doWhileLoop() public returns (int[] memory){... */\n      swap1\n      jump\t// out\n        /* \"contracts/8_loops.sol\":235:258  uint public counter = 1 */\n    tag_13:\n      sload(0x00)\n      dup2\n      jump\t// out\n        /* \"contracts/8_loops.sol\":288:481  function whileLoop() public returns(int[] memory) {... */\n    tag_17:\n        /* \"contracts/8_loops.sol\":324:336  int[] memory */\n      0x60\n        /* \"contracts/8_loops.sol\":348:353  int i */\n      0x00\n        /* \"contracts/8_loops.sol\":396:454  while (i<10) {... */\n    tag_38:\n        /* \"contracts/8_loops.sol\":405:407  10 */\n      0x0a\n        /* \"contracts/8_loops.sol\":403:404  i */\n      dup2\n        /* \"contracts/8_loops.sol\":403:407  i<10 */\n      slt\n        /* \"contracts/8_loops.sol\":396:454  while (i<10) {... */\n      iszero\n      tag_39\n      jumpi\n        /* \"contracts/8_loops.sol\":423:427  data */\n      0x01\n        /* \"contracts/8_loops.sol\":433:434  i */\n      dup2\n        /* \"contracts/8_loops.sol\":423:435  data.push(i) */\n      swap1\n      dup1\n      0x01\n      dup2\n      sload\n      add\n      dup1\n      dup3\n      sstore\n      dup1\n      swap2\n      pop\n      pop\n      0x01\n      swap1\n      sub\n      swap1\n      0x00\n      mstore\n      keccak256(0x00, 0x20)\n      add\n      0x00\n      swap1\n      swap2\n      swap1\n      swap2\n      swap1\n      swap2\n      pop\n      sstore\n        /* \"contracts/8_loops.sol\":449:452  i++ */\n      dup1\n      dup1\n      tag_41\n      swap1\n      tag_34\n      jump\t// in\n    tag_41:\n      swap2\n      pop\n      pop\n        /* \"contracts/8_loops.sol\":396:454  while (i<10) {... */\n      jump(tag_38)\n    tag_39:\n        /* \"contracts/8_loops.sol\":470:474  data */\n      0x01\n        /* \"contracts/8_loops.sol\":463:474  return data */\n      dup1\n      sload\n      dup1\n      0x20\n      mul\n      0x20\n      add\n      mload(0x40)\n      swap1\n      dup2\n      add\n      0x40\n      mstore\n      dup1\n      swap3\n      swap2\n      swap1\n      dup2\n      dup2\n      mstore\n      0x20\n      add\n      dup3\n      dup1\n      sload\n      dup1\n      iszero\n      tag_42\n      jumpi\n      0x20\n      mul\n      dup3\n      add\n      swap2\n      swap1\n      0x00\n      mstore\n      keccak256(0x00, 0x20)\n      swap1\n    tag_43:\n      dup2\n      sload\n      dup2\n      mstore\n      0x20\n      add\n      swap1\n      0x01\n      add\n      swap1\n      dup1\n      dup4\n      gt\n      tag_43\n      jumpi\n    tag_42:\n      pop\n      pop\n      pop\n      pop\n      pop\n      swap2\n      pop\n      pop\n        /* \"contracts/8_loops.sol\":288:481  function whileLoop() public returns(int[] memory) {... */\n      swap1\n      jump\t// out\n        /* \"contracts/8_loops.sol\":264:281  int[] public data */\n    tag_22:\n      0x01\n      dup2\n      dup2\n      sload\n      dup2\n      lt\n      tag_44\n      jumpi\n      0x00\n      dup1\n      revert\n    tag_44:\n      swap1\n      0x00\n      mstore\n      keccak256(0x00, 0x20)\n      add\n      0x00\n      swap2\n      pop\n      swap1\n      pop\n      sload\n      dup2\n      jump\t// out\n        /* \"contracts/8_loops.sol\":708:854  function forLoop() public returns (int[] memory) {... */\n    tag_26:\n        /* \"contracts/8_loops.sol\":743:755  int[] memory */\n      0x60\n        /* \"contracts/8_loops.sol\":771:776  int i */\n      0x00\n        /* \"contracts/8_loops.sol\":767:827  for(int i=0; i<10; i++){... */\n    tag_47:\n        /* \"contracts/8_loops.sol\":782:784  10 */\n      0x0a\n        /* \"contracts/8_loops.sol\":780:781  i */\n      dup2\n        /* \"contracts/8_loops.sol\":780:784  i<10 */\n      slt\n        /* \"contracts/8_loops.sol\":767:827  for(int i=0; i<10; i++){... */\n      iszero\n      tag_48\n      jumpi\n        /* \"contracts/8_loops.sol\":804:808  data */\n      0x01\n        /* \"contracts/8_loops.sol\":814:815  i */\n      dup2\n        /* \"contracts/8_loops.sol\":804:816  data.push(i) */\n      swap1\n      dup1\n      0x01\n      dup2\n      sload\n      add\n      dup1\n      dup3\n      sstore\n      dup1\n      swap2\n      pop\n      pop\n      0x01\n      swap1\n      sub\n      swap1\n      0x00\n      mstore\n      keccak256(0x00, 0x20)\n      add\n      0x00\n      swap1\n      swap2\n      swap1\n      swap2\n      swap1\n      swap2\n      pop\n      sstore\n        /* \"contracts/8_loops.sol\":786:789  i++ */\n      dup1\n      dup1\n      0x01\n      add\n      swap2\n      pop\n      pop\n        /* \"contracts/8_loops.sol\":767:827  for(int i=0; i<10; i++){... */\n      jump(tag_47)\n    tag_48:\n      pop\n        /* \"contracts/8_loops.sol\":843:847  data */\n      0x01\n        /* \"contracts/8_loops.sol\":836:847  return data */\n      dup1\n      sload\n      dup1\n      0x20\n      mul\n      0x20\n      add\n      mload(0x40)\n      swap1\n      dup2\n      add\n      0x40\n      mstore\n      dup1\n      swap3\n      swap2\n      swap1\n      dup2\n      dup2\n      mstore\n      0x20\n      add\n      dup3\n      dup1\n      sload\n      dup1\n      iszero\n      tag_51\n      jumpi\n      0x20\n      mul\n      dup3\n      add\n      swap2\n      swap1\n      0x00\n      mstore\n      keccak256(0x00, 0x20)\n      swap1\n    tag_52:\n      dup2\n      sload\n      dup2\n      mstore\n      0x20\n      add\n      swap1\n      0x01\n      add\n      swap1\n      dup1\n      dup4\n      gt\n      tag_52\n      jumpi\n    tag_51:\n      pop\n      pop\n      pop\n      pop\n      pop\n      swap1\n      pop\n        /* \"contracts/8_loops.sol\":708:854  function forLoop() public returns (int[] memory) {... */\n      swap1\n      jump\t// out\n        /* \"#utility.yul\":7:120   */\n    tag_53:\n        /* \"#utility.yul\":73:79   */\n      0x00\n        /* \"#utility.yul\":107:112   */\n      dup2\n        /* \"#utility.yul\":101:113   */\n      mload\n        /* \"#utility.yul\":91:113   */\n      swap1\n      pop\n        /* \"#utility.yul\":7:120   */\n      swap2\n      swap1\n      pop\n      jump\t// out\n        /* \"#utility.yul\":126:309   */\n    tag_54:\n        /* \"#utility.yul\":224:235   */\n      0x00\n        /* \"#utility.yul\":258:264   */\n      dup3\n        /* \"#utility.yul\":253:256   */\n      dup3\n        /* \"#utility.yul\":246:265   */\n      mstore\n        /* \"#utility.yul\":298:302   */\n      0x20\n        /* \"#utility.yul\":293:296   */\n      dup3\n        /* \"#utility.yul\":289:303   */\n      add\n        /* \"#utility.yul\":274:303   */\n      swap1\n      pop\n        /* \"#utility.yul\":126:309   */\n      swap3\n      swap2\n      pop\n      pop\n      jump\t// out\n        /* \"#utility.yul\":315:446   */\n    tag_55:\n        /* \"#utility.yul\":381:385   */\n      0x00\n        /* \"#utility.yul\":404:407   */\n      dup2\n        /* \"#utility.yul\":396:407   */\n      swap1\n      pop\n        /* \"#utility.yul\":434:438   */\n      0x20\n        /* \"#utility.yul\":429:432   */\n      dup3\n        /* \"#utility.yul\":425:439   */\n      add\n        /* \"#utility.yul\":417:439   */\n      swap1\n      pop\n        /* \"#utility.yul\":315:446   */\n      swap2\n      swap1\n      pop\n      jump\t// out\n        /* \"#utility.yul\":452:528   */\n    tag_56:\n        /* \"#utility.yul\":488:495   */\n      0x00\n        /* \"#utility.yul\":517:522   */\n      dup2\n        /* \"#utility.yul\":506:522   */\n      swap1\n      pop\n        /* \"#utility.yul\":452:528   */\n      swap2\n      swap1\n      pop\n      jump\t// out\n        /* \"#utility.yul\":534:639   */\n    tag_57:\n        /* \"#utility.yul\":609:632   */\n      tag_76\n        /* \"#utility.yul\":626:631   */\n      dup2\n        /* \"#utility.yul\":609:632   */\n      tag_56\n      jump\t// in\n    tag_76:\n        /* \"#utility.yul\":604:607   */\n      dup3\n        /* \"#utility.yul\":597:633   */\n      mstore\n        /* \"#utility.yul\":534:639   */\n      pop\n      pop\n      jump\t// out\n        /* \"#utility.yul\":645:820   */\n    tag_58:\n        /* \"#utility.yul\":712:722   */\n      0x00\n        /* \"#utility.yul\":733:777   */\n      tag_78\n        /* \"#utility.yul\":773:776   */\n      dup4\n        /* \"#utility.yul\":765:771   */\n      dup4\n        /* \"#utility.yul\":733:777   */\n      tag_57\n      jump\t// in\n    tag_78:\n        /* \"#utility.yul\":809:813   */\n      0x20\n        /* \"#utility.yul\":804:807   */\n      dup4\n        /* \"#utility.yul\":800:814   */\n      add\n        /* \"#utility.yul\":786:814   */\n      swap1\n      pop\n        /* \"#utility.yul\":645:820   */\n      swap3\n      swap2\n      pop\n      pop\n      jump\t// out\n        /* \"#utility.yul\":826:938   */\n    tag_59:\n        /* \"#utility.yul\":895:899   */\n      0x00\n        /* \"#utility.yul\":927:931   */\n      0x20\n        /* \"#utility.yul\":922:925   */\n      dup3\n        /* \"#utility.yul\":918:932   */\n      add\n        /* \"#utility.yul\":910:932   */\n      swap1\n      pop\n        /* \"#utility.yul\":826:938   */\n      swap2\n      swap1\n      pop\n      jump\t// out\n        /* \"#utility.yul\":972:1696   */\n    tag_60:\n        /* \"#utility.yul\":1089:1092   */\n      0x00\n        /* \"#utility.yul\":1118:1171   */\n      tag_81\n        /* \"#utility.yul\":1165:1170   */\n      dup3\n        /* \"#utility.yul\":1118:1171   */\n      tag_53\n      jump\t// in\n    tag_81:\n        /* \"#utility.yul\":1187:1272   */\n      tag_82\n        /* \"#utility.yul\":1265:1271   */\n      dup2\n        /* \"#utility.yul\":1260:1263   */\n      dup6\n        /* \"#utility.yul\":1187:1272   */\n      tag_54\n      jump\t// in\n    tag_82:\n        /* \"#utility.yul\":1180:1272   */\n      swap4\n      pop\n        /* \"#utility.yul\":1296:1351   */\n      tag_83\n        /* \"#utility.yul\":1345:1350   */\n      dup4\n        /* \"#utility.yul\":1296:1351   */\n      tag_55\n      jump\t// in\n    tag_83:\n        /* \"#utility.yul\":1374:1381   */\n      dup1\n        /* \"#utility.yul\":1405:1406   */\n      0x00\n        /* \"#utility.yul\":1390:1671   */\n    tag_84:\n        /* \"#utility.yul\":1415:1421   */\n      dup4\n        /* \"#utility.yul\":1412:1413   */\n      dup2\n        /* \"#utility.yul\":1409:1422   */\n      lt\n        /* \"#utility.yul\":1390:1671   */\n      iszero\n      tag_86\n      jumpi\n        /* \"#utility.yul\":1491:1497   */\n      dup2\n        /* \"#utility.yul\":1485:1498   */\n      mload\n        /* \"#utility.yul\":1518:1579   */\n      tag_87\n        /* \"#utility.yul\":1575:1578   */\n      dup9\n        /* \"#utility.yul\":1560:1573   */\n      dup3\n        /* \"#utility.yul\":1518:1579   */\n      tag_58\n      jump\t// in\n    tag_87:\n        /* \"#utility.yul\":1511:1579   */\n      swap8\n      pop\n        /* \"#utility.yul\":1602:1661   */\n      tag_88\n        /* \"#utility.yul\":1654:1660   */\n      dup4\n        /* \"#utility.yul\":1602:1661   */\n      tag_59\n      jump\t// in\n    tag_88:\n        /* \"#utility.yul\":1592:1661   */\n      swap3\n      pop\n        /* \"#utility.yul\":1450:1671   */\n      pop\n        /* \"#utility.yul\":1437:1438   */\n      0x01\n        /* \"#utility.yul\":1434:1435   */\n      dup2\n        /* \"#utility.yul\":1430:1439   */\n      add\n        /* \"#utility.yul\":1425:1439   */\n      swap1\n      pop\n        /* \"#utility.yul\":1390:1671   */\n      jump(tag_84)\n    tag_86:\n        /* \"#utility.yul\":1394:1408   */\n      pop\n        /* \"#utility.yul\":1687:1690   */\n      dup6\n        /* \"#utility.yul\":1680:1690   */\n      swap4\n      pop\n        /* \"#utility.yul\":1094:1696   */\n      pop\n      pop\n      pop\n        /* \"#utility.yul\":972:1696   */\n      swap3\n      swap2\n      pop\n      pop\n      jump\t// out\n        /* \"#utility.yul\":1702:2071   */\n    tag_11:\n        /* \"#utility.yul\":1843:1847   */\n      0x00\n        /* \"#utility.yul\":1881:1883   */\n      0x20\n        /* \"#utility.yul\":1870:1879   */\n      dup3\n        /* \"#utility.yul\":1866:1884   */\n      add\n        /* \"#utility.yul\":1858:1884   */\n      swap1\n      pop\n        /* \"#utility.yul\":1930:1939   */\n      dup2\n        /* \"#utility.yul\":1924:1928   */\n      dup2\n        /* \"#utility.yul\":1920:1940   */\n      sub\n        /* \"#utility.yul\":1916:1917   */\n      0x00\n        /* \"#utility.yul\":1905:1914   */\n      dup4\n        /* \"#utility.yul\":1901:1918   */\n      add\n        /* \"#utility.yul\":1894:1941   */\n      mstore\n        /* \"#utility.yul\":1958:2064   */\n      tag_90\n        /* \"#utility.yul\":2059:2063   */\n      dup2\n        /* \"#utility.yul\":2050:2056   */\n      dup5\n        /* \"#utility.yul\":1958:2064   */\n      tag_60\n      jump\t// in\n    tag_90:\n        /* \"#utility.yul\":1950:2064   */\n      swap1\n      pop\n        /* \"#utility.yul\":1702:2071   */\n      swap3\n      swap2\n      pop\n      pop\n      jump\t// out\n        /* \"#utility.yul\":2077:2154   */\n    tag_61:\n        /* \"#utility.yul\":2114:2121   */\n      0x00\n        /* \"#utility.yul\":2143:2148   */\n      dup2\n        /* \"#utility.yul\":2132:2148   */\n      swap1\n      pop\n        /* \"#utility.yul\":2077:2154   */\n      swap2\n      swap1\n      pop\n      jump\t// out\n        /* \"#utility.yul\":2160:2278   */\n    tag_62:\n        /* \"#utility.yul\":2247:2271   */\n      tag_93\n        /* \"#utility.yul\":2265:2270   */\n      dup2\n        /* \"#utility.yul\":2247:2271   */\n      tag_61\n      jump\t// in\n    tag_93:\n        /* \"#utility.yul\":2242:2245   */\n      dup3\n        /* \"#utility.yul\":2235:2272   */\n      mstore\n        /* \"#utility.yul\":2160:2278   */\n      pop\n      pop\n      jump\t// out\n        /* \"#utility.yul\":2284:2506   */\n    tag_15:\n        /* \"#utility.yul\":2377:2381   */\n      0x00\n        /* \"#utility.yul\":2415:2417   */\n      0x20\n        /* \"#utility.yul\":2404:2413   */\n      dup3\n        /* \"#utility.yul\":2400:2418   */\n      add\n        /* \"#utility.yul\":2392:2418   */\n      swap1\n      pop\n        /* \"#utility.yul\":2428:2499   */\n      tag_95\n        /* \"#utility.yul\":2496:2497   */\n      0x00\n        /* \"#utility.yul\":2485:2494   */\n      dup4\n        /* \"#utility.yul\":2481:2498   */\n      add\n        /* \"#utility.yul\":2472:2478   */\n      dup5\n        /* \"#utility.yul\":2428:2499   */\n      tag_62\n      jump\t// in\n    tag_95:\n        /* \"#utility.yul\":2284:2506   */\n      swap3\n      swap2\n      pop\n      pop\n      jump\t// out\n        /* \"#utility.yul\":2593:2710   */\n    tag_64:\n        /* \"#utility.yul\":2702:2703   */\n      0x00\n        /* \"#utility.yul\":2699:2700   */\n      dup1\n        /* \"#utility.yul\":2692:2704   */\n      revert\n        /* \"#utility.yul\":2839:2961   */\n    tag_66:\n        /* \"#utility.yul\":2912:2936   */\n      tag_100\n        /* \"#utility.yul\":2930:2935   */\n      dup2\n        /* \"#utility.yul\":2912:2936   */\n      tag_61\n      jump\t// in\n    tag_100:\n        /* \"#utility.yul\":2905:2910   */\n      dup2\n        /* \"#utility.yul\":2902:2937   */\n      eq\n        /* \"#utility.yul\":2892:2955   */\n      tag_101\n      jumpi\n        /* \"#utility.yul\":2951:2952   */\n      0x00\n        /* \"#utility.yul\":2948:2949   */\n      dup1\n        /* \"#utility.yul\":2941:2953   */\n      revert\n        /* \"#utility.yul\":2892:2955   */\n    tag_101:\n        /* \"#utility.yul\":2839:2961   */\n      pop\n      jump\t// out\n        /* \"#utility.yul\":2967:3106   */\n    tag_67:\n        /* \"#utility.yul\":3013:3018   */\n      0x00\n        /* \"#utility.yul\":3051:3057   */\n      dup2\n        /* \"#utility.yul\":3038:3058   */\n      calldataload\n        /* \"#utility.yul\":3029:3058   */\n      swap1\n      pop\n        /* \"#utility.yul\":3067:3100   */\n      tag_103\n        /* \"#utility.yul\":3094:3099   */\n      dup2\n        /* \"#utility.yul\":3067:3100   */\n      tag_66\n      jump\t// in\n    tag_103:\n        /* \"#utility.yul\":2967:3106   */\n      swap3\n      swap2\n      pop\n      pop\n      jump\t// out\n        /* \"#utility.yul\":3112:3441   */\n    tag_21:\n        /* \"#utility.yul\":3171:3177   */\n      0x00\n        /* \"#utility.yul\":3220:3222   */\n      0x20\n        /* \"#utility.yul\":3208:3217   */\n      dup3\n        /* \"#utility.yul\":3199:3206   */\n      dup5\n        /* \"#utility.yul\":3195:3218   */\n      sub\n        /* \"#utility.yul\":3191:3223   */\n      slt\n        /* \"#utility.yul\":3188:3307   */\n      iszero\n      tag_105\n      jumpi\n        /* \"#utility.yul\":3226:3305   */\n      tag_106\n      tag_64\n      jump\t// in\n    tag_106:\n        /* \"#utility.yul\":3188:3307   */\n    tag_105:\n        /* \"#utility.yul\":3346:3347   */\n      0x00\n        /* \"#utility.yul\":3371:3424   */\n      tag_107\n        /* \"#utility.yul\":3416:3423   */\n      dup5\n        /* \"#utility.yul\":3407:3413   */\n      dup3\n        /* \"#utility.yul\":3396:3405   */\n      dup6\n        /* \"#utility.yul\":3392:3414   */\n      add\n        /* \"#utility.yul\":3371:3424   */\n      tag_67\n      jump\t// in\n    tag_107:\n        /* \"#utility.yul\":3361:3424   */\n      swap2\n      pop\n        /* \"#utility.yul\":3317:3434   */\n      pop\n        /* \"#utility.yul\":3112:3441   */\n      swap3\n      swap2\n      pop\n      pop\n      jump\t// out\n        /* \"#utility.yul\":3447:3562   */\n    tag_68:\n        /* \"#utility.yul\":3532:3555   */\n      tag_109\n        /* \"#utility.yul\":3549:3554   */\n      dup2\n        /* \"#utility.yul\":3532:3555   */\n      tag_56\n      jump\t// in\n    tag_109:\n        /* \"#utility.yul\":3527:3530   */\n      dup3\n        /* \"#utility.yul\":3520:3556   */\n      mstore\n        /* \"#utility.yul\":3447:3562   */\n      pop\n      pop\n      jump\t// out\n        /* \"#utility.yul\":3568:3786   */\n    tag_24:\n        /* \"#utility.yul\":3659:3663   */\n      0x00\n        /* \"#utility.yul\":3697:3699   */\n      0x20\n        /* \"#utility.yul\":3686:3695   */\n      dup3\n        /* \"#utility.yul\":3682:3700   */\n      add\n        /* \"#utility.yul\":3674:3700   */\n      swap1\n      pop\n        /* \"#utility.yul\":3710:3779   */\n      tag_111\n        /* \"#utility.yul\":3776:3777   */\n      0x00\n        /* \"#utility.yul\":3765:3774   */\n      dup4\n        /* \"#utility.yul\":3761:3778   */\n      add\n        /* \"#utility.yul\":3752:3758   */\n      dup5\n        /* \"#utility.yul\":3710:3779   */\n      tag_68\n      jump\t// in\n    tag_111:\n        /* \"#utility.yul\":3568:3786   */\n      swap3\n      swap2\n      pop\n      pop\n      jump\t// out\n        /* \"#utility.yul\":3792:3972   */\n    tag_69:\n        /* \"#utility.yul\":3840:3917   */\n      0x4e487b7100000000000000000000000000000000000000000000000000000000\n        /* \"#utility.yul\":3837:3838   */\n      0x00\n        /* \"#utility.yul\":3830:3918   */\n      mstore\n        /* \"#utility.yul\":3937:3941   */\n      0x11\n        /* \"#utility.yul\":3934:3935   */\n      0x04\n        /* \"#utility.yul\":3927:3942   */\n      mstore\n        /* \"#utility.yul\":3961:3965   */\n      0x24\n        /* \"#utility.yul\":3958:3959   */\n      0x00\n        /* \"#utility.yul\":3951:3966   */\n      revert\n        /* \"#utility.yul\":3978:4209   */\n    tag_34:\n        /* \"#utility.yul\":4016:4019   */\n      0x00\n        /* \"#utility.yul\":4039:4062   */\n      tag_114\n        /* \"#utility.yul\":4056:4061   */\n      dup3\n        /* \"#utility.yul\":4039:4062   */\n      tag_56\n      jump\t// in\n    tag_114:\n        /* \"#utility.yul\":4030:4062   */\n      swap2\n      pop\n        /* \"#utility.yul\":4084:4150   */\n      0x7fffffffffffffffffffffffffffffffffffffffffffffffffffffffffffffff\n        /* \"#utility.yul\":4077:4082   */\n      dup3\n        /* \"#utility.yul\":4074:4151   */\n      sub\n        /* \"#utility.yul\":4071:4174   */\n      tag_115\n      jumpi\n        /* \"#utility.yul\":4154:4172   */\n      tag_116\n      tag_69\n      jump\t// in\n    tag_116:\n        /* \"#utility.yul\":4071:4174   */\n    tag_115:\n        /* \"#utility.yul\":4201:4202   */\n      0x01\n        /* \"#utility.yul\":4194:4199   */\n      dup3\n        /* \"#utility.yul\":4190:4203   */\n      add\n        /* \"#utility.yul\":4183:4203   */\n      swap1\n      pop\n        /* \"#utility.yul\":3978:4209   */\n      swap2\n      swap1\n      pop\n      jump\t// out\n\n    auxdata: 0xa264697066735822122037c5ea1866a0e76c465ec1206ae7f1414077fad0233d017b882c297e9fc0162b64736f6c634300081a0033\n}\n",
				"bytecode": {
					"linkReferences": {},
					"object": "608060405260015f553480156012575f80fd5b50610527806100205f395ff3fe608060405234801561000f575f80fd5b5060043610610055575f3560e01c8063174c9c7e1461005957806361bc221a14610077578063e7c898ef14610095578063f0ba8440146100b3578063fc0e6008146100e3575b5f80fd5b610061610101565b60405161006e91906103ab565b60405180910390f35b61007f610196565b60405161008c91906103e3565b60405180910390f35b61009d61019b565b6040516100aa91906103ab565b60405180910390f35b6100cd60048036038101906100c8919061042a565b610236565b6040516100da9190610464565b60405180910390f35b6100eb610256565b6040516100f891906103ab565b60405180910390f35b60605f5b600181908060018154018082558091505060019003905f5260205f20015f90919091909150558080610136906104aa565b915050600a811261010557600180548060200260200160405190810160405280929190818152602001828054801561018b57602002820191905f5260205f20905b815481526020019060010190808311610177575b505050505091505090565b5f5481565b60605f5b600a8112156101e157600181908060018154018082558091505060019003905f5260205f20015f909190919091505580806101d9906104aa565b91505061019f565b600180548060200260200160405190810160405280929190818152602001828054801561022b57602002820191905f5260205f20905b815481526020019060010190808311610217575b505050505091505090565b60018181548110610245575f80fd5b905f5260205f20015f915090505481565b60605f5b600a81121561029657600181908060018154018082558091505060019003905f5260205f20015f9091909190915055808060010191505061025a565b5060018054806020026020016040519081016040528092919081815260200182805480156102e157602002820191905f5260205f20905b8154815260200190600101908083116102cd575b5050505050905090565b5f81519050919050565b5f82825260208201905092915050565b5f819050602082019050919050565b5f819050919050565b61032681610314565b82525050565b5f610337838361031d565b60208301905092915050565b5f602082019050919050565b5f610359826102eb565b61036381856102f5565b935061036e83610305565b805f5b8381101561039e578151610385888261032c565b975061039083610343565b925050600181019050610371565b5085935050505092915050565b5f6020820190508181035f8301526103c3818461034f565b905092915050565b5f819050919050565b6103dd816103cb565b82525050565b5f6020820190506103f65f8301846103d4565b92915050565b5f80fd5b610409816103cb565b8114610413575f80fd5b50565b5f8135905061042481610400565b92915050565b5f6020828403121561043f5761043e6103fc565b5b5f61044c84828501610416565b91505092915050565b61045e81610314565b82525050565b5f6020820190506104775f830184610455565b92915050565b7f4e487b71000000000000000000000000000000000000000000000000000000005f52601160045260245ffd5b5f6104b482610314565b91507f7fffffffffffffffffffffffffffffffffffffffffffffffffffffffffffffff82036104e6576104e561047d565b5b60018201905091905056fea264697066735822122037c5ea1866a0e76c465ec1206ae7f1414077fad0233d017b882c297e9fc0162b64736f6c634300081a0033",
					"opcodes": "PUSH1 0x80 PUSH1 0x40 MSTORE PUSH1 0x1 PUSH0 SSTORE CALLVALUE DUP1 ISZERO PUSH1 0x12 JUMPI PUSH0 DUP1 REVERT JUMPDEST POP PUSH2 0x527 DUP1 PUSH2 0x20 PUSH0 CODECOPY PUSH0 RETURN INVALID PUSH1 0x80 PUSH1 0x40 MSTORE CALLVALUE DUP1 ISZERO PUSH2 0xF JUMPI PUSH0 DUP1 REVERT JUMPDEST POP PUSH1 0x4 CALLDATASIZE LT PUSH2 0x55 JUMPI PUSH0 CALLDATALOAD PUSH1 0xE0 SHR DUP1 PUSH4 0x174C9C7E EQ PUSH2 0x59 JUMPI DUP1 PUSH4 0x61BC221A EQ PUSH2 0x77 JUMPI DUP1 PUSH4 0xE7C898EF EQ PUSH2 0x95 JUMPI DUP1 PUSH4 0xF0BA8440 EQ PUSH2 0xB3 JUMPI DUP1 PUSH4 0xFC0E6008 EQ PUSH2 0xE3 JUMPI JUMPDEST PUSH0 DUP1 REVERT JUMPDEST PUSH2 0x61 PUSH2 0x101 JUMP JUMPDEST PUSH1 0x40 MLOAD PUSH2 0x6E SWAP2 SWAP1 PUSH2 0x3AB JUMP JUMPDEST PUSH1 0x40 MLOAD DUP1 SWAP2 SUB SWAP1 RETURN JUMPDEST PUSH2 0x7F PUSH2 0x196 JUMP JUMPDEST PUSH1 0x40 MLOAD PUSH2 0x8C SWAP2 SWAP1 PUSH2 0x3E3 JUMP JUMPDEST PUSH1 0x40 MLOAD DUP1 SWAP2 SUB SWAP1 RETURN JUMPDEST PUSH2 0x9D PUSH2 0x19B JUMP JUMPDEST PUSH1 0x40 MLOAD PUSH2 0xAA SWAP2 SWAP1 PUSH2 0x3AB JUMP JUMPDEST PUSH1 0x40 MLOAD DUP1 SWAP2 SUB SWAP1 RETURN JUMPDEST PUSH2 0xCD PUSH1 0x4 DUP1 CALLDATASIZE SUB DUP2 ADD SWAP1 PUSH2 0xC8 SWAP2 SWAP1 PUSH2 0x42A JUMP JUMPDEST PUSH2 0x236 JUMP JUMPDEST PUSH1 0x40 MLOAD PUSH2 0xDA SWAP2 SWAP1 PUSH2 0x464 JUMP JUMPDEST PUSH1 0x40 MLOAD DUP1 SWAP2 SUB SWAP1 RETURN JUMPDEST PUSH2 0xEB PUSH2 0x256 JUMP JUMPDEST PUSH1 0x40 MLOAD PUSH2 0xF8 SWAP2 SWAP1 PUSH2 0x3AB JUMP JUMPDEST PUSH1 0x40 MLOAD DUP1 SWAP2 SUB SWAP1 RETURN JUMPDEST PUSH1 0x60 PUSH0 JUMPDEST PUSH1 0x1 DUP2 SWAP1 DUP1 PUSH1 0x1 DUP2 SLOAD ADD DUP1 DUP3 SSTORE DUP1 SWAP2 POP POP PUSH1 0x1 SWAP1 SUB SWAP1 PUSH0 MSTORE PUSH1 0x20 PUSH0 KECCAK256 ADD PUSH0 SWAP1 SWAP2 SWAP1 SWAP2 SWAP1 SWAP2 POP SSTORE DUP1 DUP1 PUSH2 0x136 SWAP1 PUSH2 0x4AA JUMP JUMPDEST SWAP2 POP POP PUSH1 0xA DUP2 SLT PUSH2 0x105 JUMPI PUSH1 0x1 DUP1 SLOAD DUP1 PUSH1 0x20 MUL PUSH1 0x20 ADD PUSH1 0x40 MLOAD SWAP1 DUP2 ADD PUSH1 0x40 MSTORE DUP1 SWAP3 SWAP2 SWAP1 DUP2 DUP2 MSTORE PUSH1 0x20 ADD DUP3 DUP1 SLOAD DUP1 ISZERO PUSH2 0x18B JUMPI PUSH1 0x20 MUL DUP3 ADD SWAP2 SWAP1 PUSH0 MSTORE PUSH1 0x20 PUSH0 KECCAK256 SWAP1 JUMPDEST DUP2 SLOAD DUP2 MSTORE PUSH1 0x20 ADD SWAP1 PUSH1 0x1 ADD SWAP1 DUP1 DUP4 GT PUSH2 0x177 JUMPI JUMPDEST POP POP POP POP POP SWAP2 POP POP SWAP1 JUMP JUMPDEST PUSH0 SLOAD DUP2 JUMP JUMPDEST PUSH1 0x60 PUSH0 JUMPDEST PUSH1 0xA DUP2 SLT ISZERO PUSH2 0x1E1 JUMPI PUSH1 0x1 DUP2 SWAP1 DUP1 PUSH1 0x1 DUP2 SLOAD ADD DUP1 DUP3 SSTORE DUP1 SWAP2 POP POP PUSH1 0x1 SWAP1 SUB SWAP1 PUSH0 MSTORE PUSH1 0x20 PUSH0 KECCAK256 ADD PUSH0 SWAP1 SWAP2 SWAP1 SWAP2 SWAP1 SWAP2 POP SSTORE DUP1 DUP1 PUSH2 0x1D9 SWAP1 PUSH2 0x4AA JUMP JUMPDEST SWAP2 POP POP PUSH2 0x19F JUMP JUMPDEST PUSH1 0x1 DUP1 SLOAD DUP1 PUSH1 0x20 MUL PUSH1 0x20 ADD PUSH1 0x40 MLOAD SWAP1 DUP2 ADD PUSH1 0x40 MSTORE DUP1 SWAP3 SWAP2 SWAP1 DUP2 DUP2 MSTORE PUSH1 0x20 ADD DUP3 DUP1 SLOAD DUP1 ISZERO PUSH2 0x22B JUMPI PUSH1 0x20 MUL DUP3 ADD SWAP2 SWAP1 PUSH0 MSTORE PUSH1 0x20 PUSH0 KECCAK256 SWAP1 JUMPDEST DUP2 SLOAD DUP2 MSTORE PUSH1 0x20 ADD SWAP1 PUSH1 0x1 ADD SWAP1 DUP1 DUP4 GT PUSH2 0x217 JUMPI JUMPDEST POP POP POP POP POP SWAP2 POP POP SWAP1 JUMP JUMPDEST PUSH1 0x1 DUP2 DUP2 SLOAD DUP2 LT PUSH2 0x245 JUMPI PUSH0 DUP1 REVERT JUMPDEST SWAP1 PUSH0 MSTORE PUSH1 0x20 PUSH0 KECCAK256 ADD PUSH0 SWAP2 POP SWAP1 POP SLOAD DUP2 JUMP JUMPDEST PUSH1 0x60 PUSH0 JUMPDEST PUSH1 0xA DUP2 SLT ISZERO PUSH2 0x296 JUMPI PUSH1 0x1 DUP2 SWAP1 DUP1 PUSH1 0x1 DUP2 SLOAD ADD DUP1 DUP3 SSTORE DUP1 SWAP2 POP POP PUSH1 0x1 SWAP1 SUB SWAP1 PUSH0 MSTORE PUSH1 0x20 PUSH0 KECCAK256 ADD PUSH0 SWAP1 SWAP2 SWAP1 SWAP2 SWAP1 SWAP2 POP SSTORE DUP1 DUP1 PUSH1 0x1 ADD SWAP2 POP POP PUSH2 0x25A JUMP JUMPDEST POP PUSH1 0x1 DUP1 SLOAD DUP1 PUSH1 0x20 MUL PUSH1 0x20 ADD PUSH1 0x40 MLOAD SWAP1 DUP2 ADD PUSH1 0x40 MSTORE DUP1 SWAP3 SWAP2 SWAP1 DUP2 DUP2 MSTORE PUSH1 0x20 ADD DUP3 DUP1 SLOAD DUP1 ISZERO PUSH2 0x2E1 JUMPI PUSH1 0x20 MUL DUP3 ADD SWAP2 SWAP1 PUSH0 MSTORE PUSH1 0x20 PUSH0 KECCAK256 SWAP1 JUMPDEST DUP2 SLOAD DUP2 MSTORE PUSH1 0x20 ADD SWAP1 PUSH1 0x1 ADD SWAP1 DUP1 DUP4 GT PUSH2 0x2CD JUMPI JUMPDEST POP POP POP POP POP SWAP1 POP SWAP1 JUMP JUMPDEST PUSH0 DUP2 MLOAD SWAP1 POP SWAP2 SWAP1 POP JUMP JUMPDEST PUSH0 DUP3 DUP3 MSTORE PUSH1 0x20 DUP3 ADD SWAP1 POP SWAP3 SWAP2 POP POP JUMP JUMPDEST PUSH0 DUP2 SWAP1 POP PUSH1 0x20 DUP3 ADD SWAP1 POP SWAP2 SWAP1 POP JUMP JUMPDEST PUSH0 DUP2 SWAP1 POP SWAP2 SWAP1 POP JUMP JUMPDEST PUSH2 0x326 DUP2 PUSH2 0x314 JUMP JUMPDEST DUP3 MSTORE POP POP JUMP JUMPDEST PUSH0 PUSH2 0x337 DUP4 DUP4 PUSH2 0x31D JUMP JUMPDEST PUSH1 0x20 DUP4 ADD SWAP1 POP SWAP3 SWAP2 POP POP JUMP JUMPDEST PUSH0 PUSH1 0x20 DUP3 ADD SWAP1 POP SWAP2 SWAP1 POP JUMP JUMPDEST PUSH0 PUSH2 0x359 DUP3 PUSH2 0x2EB JUMP JUMPDEST PUSH2 0x363 DUP2 DUP6 PUSH2 0x2F5 JUMP JUMPDEST SWAP4 POP PUSH2 0x36E DUP4 PUSH2 0x305 JUMP JUMPDEST DUP1 PUSH0 JUMPDEST DUP4 DUP2 LT ISZERO PUSH2 0x39E JUMPI DUP2 MLOAD PUSH2 0x385 DUP9 DUP3 PUSH2 0x32C JUMP JUMPDEST SWAP8 POP PUSH2 0x390 DUP4 PUSH2 0x343 JUMP JUMPDEST SWAP3 POP POP PUSH1 0x1 DUP2 ADD SWAP1 POP PUSH2 0x371 JUMP JUMPDEST POP DUP6 SWAP4 POP POP POP POP SWAP3 SWAP2 POP POP JUMP JUMPDEST PUSH0 PUSH1 0x20 DUP3 ADD SWAP1 POP DUP2 DUP2 SUB PUSH0 DUP4 ADD MSTORE PUSH2 0x3C3 DUP2 DUP5 PUSH2 0x34F JUMP JUMPDEST SWAP1 POP SWAP3 SWAP2 POP POP JUMP JUMPDEST PUSH0 DUP2 SWAP1 POP SWAP2 SWAP1 POP JUMP JUMPDEST PUSH2 0x3DD DUP2 PUSH2 0x3CB JUMP JUMPDEST DUP3 MSTORE POP POP JUMP JUMPDEST PUSH0 PUSH1 0x20 DUP3 ADD SWAP1 POP PUSH2 0x3F6 PUSH0 DUP4 ADD DUP5 PUSH2 0x3D4 JUMP JUMPDEST SWAP3 SWAP2 POP POP JUMP JUMPDEST PUSH0 DUP1 REVERT JUMPDEST PUSH2 0x409 DUP2 PUSH2 0x3CB JUMP JUMPDEST DUP2 EQ PUSH2 0x413 JUMPI PUSH0 DUP1 REVERT JUMPDEST POP JUMP JUMPDEST PUSH0 DUP2 CALLDATALOAD SWAP1 POP PUSH2 0x424 DUP2 PUSH2 0x400 JUMP JUMPDEST SWAP3 SWAP2 POP POP JUMP JUMPDEST PUSH0 PUSH1 0x20 DUP3 DUP5 SUB SLT ISZERO PUSH2 0x43F JUMPI PUSH2 0x43E PUSH2 0x3FC JUMP JUMPDEST JUMPDEST PUSH0 PUSH2 0x44C DUP5 DUP3 DUP6 ADD PUSH2 0x416 JUMP JUMPDEST SWAP2 POP POP SWAP3 SWAP2 POP POP JUMP JUMPDEST PUSH2 0x45E DUP2 PUSH2 0x314 JUMP JUMPDEST DUP3 MSTORE POP POP JUMP JUMPDEST PUSH0 PUSH1 0x20 DUP3 ADD SWAP1 POP PUSH2 0x477 PUSH0 DUP4 ADD DUP5 PUSH2 0x455 JUMP JUMPDEST SWAP3 SWAP2 POP POP JUMP JUMPDEST PUSH32 0x4E487B7100000000000000000000000000000000000000000000000000000000 PUSH0 MSTORE PUSH1 0x11 PUSH1 0x4 MSTORE PUSH1 0x24 PUSH0 REVERT JUMPDEST PUSH0 PUSH2 0x4B4 DUP3 PUSH2 0x314 JUMP JUMPDEST SWAP2 POP PUSH32 0x7FFFFFFFFFFFFFFFFFFFFFFFFFFFFFFFFFFFFFFFFFFFFFFFFFFFFFFFFFFFFFFF DUP3 SUB PUSH2 0x4E6 JUMPI PUSH2 0x4E5 PUSH2 0x47D JUMP JUMPDEST JUMPDEST PUSH1 0x1 DUP3 ADD SWAP1 POP SWAP2 SWAP1 POP JUMP INVALID LOG2 PUSH5 0x6970667358 0x22 SLT KECCAK256 CALLDATACOPY 0xC5 0xEA XOR PUSH7 0xA0E76C465EC120 PUSH11 0xE7F1414077FAD0233D017B DUP9 0x2C 0x29 PUSH31 0x9FC0162B64736F6C634300081A003300000000000000000000000000000000 "
				},
				"gasEstimates": {
					"creation": {
						"codeDepositCost": "263800",
						"executionCost": "22409",
						"totalCost": "286209"
					},
					"external": {
						"counter()": "2424",
						"data(uint256)": "4915",
						"doWhileLoop()": "infinite",
						"forLoop()": "infinite",
						"whileLoop()": "infinite"
					}
				},
				"methodIdentifiers": {
					"counter()": "61bc221a",
					"data(uint256)": "f0ba8440",
					"doWhileLoop()": "174c9c7e",
					"forLoop()": "fc0e6008",
					"whileLoop()": "e7c898ef"
				}
			},
			"storageLayout": {
				"storage": [
					{
						"astId": 4,
						"contract": "contracts/8_loops.sol:Loops",
						"label": "counter",
						"offset": 0,
						"slot": "0",
						"type": "t_uint256"
					},
					{
						"astId": 7,
						"contract": "contracts/8_loops.sol:Loops",
						"label": "data",
						"offset": 0,
						"slot": "1",
						"type": "t_array(t_int256)dyn_storage"
					}
				],
				"types": {
					"t_array(t_int256)dyn_storage": {
						"base": "t_int256",
						"encoding": "dynamic_array",
						"label": "int256[]",
						"numberOfBytes": "32"
					},
					"t_int256": {
						"encoding": "inplace",
						"label": "int256",
						"numberOfBytes": "32"
					},
					"t_uint256": {
						"encoding": "inplace",
						"label": "uint256",
						"numberOfBytes": "32"
					}
				}
			},
			"userdoc": {
				"kind": "user",
				"methods": {},
				"version": 1
			}
		}
	}
}