{
	"contracts/6_view.sol": {
		"View": {
			"abi": [
				{
					"inputs": [],
					"name": "calculate",
					"outputs": [
						{
							"internalType": "int256",
							"name": "product",
							"type": "int256"
						},
						{
							"internalType": "int256",
							"name": "total",
							"type": "int256"
						}
					],
					"stateMutability": "view",
					"type": "function"
				},
				{
					"inputs": [],
					"name": "checkNums",
					"outputs": [
						{
							"internalType": "int256",
							"name": "",
							"type": "int256"
						},
						{
							"internalType": "int256",
							"name": "",
							"type": "int256"
						}
					],
					"stateMutability": "view",
					"type": "function"
				}
			],
			"devdoc": {
				"kind": "dev",
				"methods": {},
				"version": 1
			},
			"evm": {
				"assembly": "    /* \"contracts/6_view.sol\":212:864  contract View {... */\n  mstore(0x40, 0x80)\n    /* \"contracts/6_view.sol\":241:242  5 */\n  0x05\n    /* \"contracts/6_view.sol\":232:242  int num1=5 */\n  0x00\n  sstore\n    /* \"contracts/6_view.sol\":257:258  6 */\n  0x06\n    /* \"contracts/6_view.sol\":248:258  int num3=6 */\n  0x01\n  sstore\n    /* \"contracts/6_view.sol\":212:864  contract View {... */\n  callvalue\n  dup1\n  iszero\n  tag_1\n  jumpi\n  0x00\n  dup1\n  revert\ntag_1:\n  pop\n  dataSize(sub_0)\n  dup1\n  dataOffset(sub_0)\n  0x00\n  codecopy\n  0x00\n  return\nstop\n\nsub_0: assembly {\n        /* \"contracts/6_view.sol\":212:864  contract View {... */\n      mstore(0x40, 0x80)\n      callvalue\n      dup1\n      iszero\n      tag_1\n      jumpi\n      0x00\n      dup1\n      revert\n    tag_1:\n      pop\n      jumpi(tag_2, lt(calldatasize, 0x04))\n      shr(0xe0, calldataload(0x00))\n      dup1\n      0x55435247\n      eq\n      tag_3\n      jumpi\n      dup1\n      0xca77ab65\n      eq\n      tag_4\n      jumpi\n    tag_2:\n      0x00\n      dup1\n      revert\n        /* \"contracts/6_view.sol\":332:418  function checkNums() public view returns(int,int) {... */\n    tag_3:\n      tag_5\n      tag_6\n      jump\t// in\n    tag_5:\n      mload(0x40)\n      tag_7\n      swap3\n      swap2\n      swap1\n      tag_8\n      jump\t// in\n    tag_7:\n      mload(0x40)\n      dup1\n      swap2\n      sub\n      swap1\n      return\n        /* \"contracts/6_view.sol\":424:862  function calculate() public view returns(int product, int total){... */\n    tag_4:\n      tag_9\n      tag_10\n      jump\t// in\n    tag_9:\n      mload(0x40)\n      tag_11\n      swap3\n      swap2\n      swap1\n      tag_8\n      jump\t// in\n    tag_11:\n      mload(0x40)\n      dup1\n      swap2\n      sub\n      swap1\n      return\n        /* \"contracts/6_view.sol\":332:418  function checkNums() public view returns(int,int) {... */\n    tag_6:\n        /* \"contracts/6_view.sol\":373:376  int */\n      0x00\n        /* \"contracts/6_view.sol\":377:380  int */\n      dup1\n        /* \"contracts/6_view.sol\":400:404  num1 */\n      sload(0x00)\n        /* \"contracts/6_view.sol\":406:410  num3 */\n      sload(0x01)\n        /* \"contracts/6_view.sol\":392:411  return (num1, num3) */\n      swap2\n      pop\n      swap2\n      pop\n        /* \"contracts/6_view.sol\":332:418  function checkNums() public view returns(int,int) {... */\n      swap1\n      swap2\n      jump\t// out\n        /* \"contracts/6_view.sol\":424:862  function calculate() public view returns(int product, int total){... */\n    tag_10:\n        /* \"contracts/6_view.sol\":465:476  int product */\n      0x00\n        /* \"contracts/6_view.sol\":478:487  int total */\n      dup1\n        /* \"contracts/6_view.sol\":791:795  num3 */\n      sload(0x01)\n        /* \"contracts/6_view.sol\":786:790  num1 */\n      sload(0x00)\n        /* \"contracts/6_view.sol\":786:795  num1*num3 */\n      tag_14\n      swap2\n      swap1\n      tag_15\n      jump\t// in\n    tag_14:\n        /* \"contracts/6_view.sol\":776:795  product = num1*num3 */\n      swap2\n      pop\n        /* \"contracts/6_view.sol\":818:822  num3 */\n      sload(0x01)\n        /* \"contracts/6_view.sol\":813:817  num1 */\n      sload(0x00)\n        /* \"contracts/6_view.sol\":813:822  num1+num3 */\n      tag_16\n      swap2\n      swap1\n      tag_17\n      jump\t// in\n    tag_16:\n        /* \"contracts/6_view.sol\":805:822  total = num1+num3 */\n      swap1\n      pop\n        /* \"contracts/6_view.sol\":424:862  function calculate() public view returns(int product, int total){... */\n      swap1\n      swap2\n      jump\t// out\n        /* \"#utility.yul\":7:83   */\n    tag_18:\n        /* \"#utility.yul\":43:50   */\n      0x00\n        /* \"#utility.yul\":72:77   */\n      dup2\n        /* \"#utility.yul\":61:77   */\n      swap1\n      pop\n        /* \"#utility.yul\":7:83   */\n      swap2\n      swap1\n      pop\n      jump\t// out\n        /* \"#utility.yul\":89:204   */\n    tag_19:\n        /* \"#utility.yul\":174:197   */\n      tag_24\n        /* \"#utility.yul\":191:196   */\n      dup2\n        /* \"#utility.yul\":174:197   */\n      tag_18\n      jump\t// in\n    tag_24:\n        /* \"#utility.yul\":169:172   */\n      dup3\n        /* \"#utility.yul\":162:198   */\n      mstore\n        /* \"#utility.yul\":89:204   */\n      pop\n      pop\n      jump\t// out\n        /* \"#utility.yul\":210:534   */\n    tag_8:\n        /* \"#utility.yul\":327:331   */\n      0x00\n        /* \"#utility.yul\":365:367   */\n      0x40\n        /* \"#utility.yul\":354:363   */\n      dup3\n        /* \"#utility.yul\":350:368   */\n      add\n        /* \"#utility.yul\":342:368   */\n      swap1\n      pop\n        /* \"#utility.yul\":378:447   */\n      tag_26\n        /* \"#utility.yul\":444:445   */\n      0x00\n        /* \"#utility.yul\":433:442   */\n      dup4\n        /* \"#utility.yul\":429:446   */\n      add\n        /* \"#utility.yul\":420:426   */\n      dup6\n        /* \"#utility.yul\":378:447   */\n      tag_19\n      jump\t// in\n    tag_26:\n        /* \"#utility.yul\":457:527   */\n      tag_27\n        /* \"#utility.yul\":523:525   */\n      0x20\n        /* \"#utility.yul\":512:521   */\n      dup4\n        /* \"#utility.yul\":508:526   */\n      add\n        /* \"#utility.yul\":499:505   */\n      dup5\n        /* \"#utility.yul\":457:527   */\n      tag_19\n      jump\t// in\n    tag_27:\n        /* \"#utility.yul\":210:534   */\n      swap4\n      swap3\n      pop\n      pop\n      pop\n      jump\t// out\n        /* \"#utility.yul\":540:720   */\n    tag_20:\n        /* \"#utility.yul\":588:665   */\n      0x4e487b7100000000000000000000000000000000000000000000000000000000\n        /* \"#utility.yul\":585:586   */\n      0x00\n        /* \"#utility.yul\":578:666   */\n      mstore\n        /* \"#utility.yul\":685:689   */\n      0x11\n        /* \"#utility.yul\":682:683   */\n      0x04\n        /* \"#utility.yul\":675:690   */\n      mstore\n        /* \"#utility.yul\":709:713   */\n      0x24\n        /* \"#utility.yul\":706:707   */\n      0x00\n        /* \"#utility.yul\":699:714   */\n      revert\n        /* \"#utility.yul\":726:1282   */\n    tag_15:\n        /* \"#utility.yul\":765:772   */\n      0x00\n        /* \"#utility.yul\":788:807   */\n      tag_30\n        /* \"#utility.yul\":805:806   */\n      dup3\n        /* \"#utility.yul\":788:807   */\n      tag_18\n      jump\t// in\n    tag_30:\n        /* \"#utility.yul\":783:807   */\n      swap2\n      pop\n        /* \"#utility.yul\":821:840   */\n      tag_31\n        /* \"#utility.yul\":838:839   */\n      dup4\n        /* \"#utility.yul\":821:840   */\n      tag_18\n      jump\t// in\n    tag_31:\n        /* \"#utility.yul\":816:840   */\n      swap3\n      pop\n        /* \"#utility.yul\":875:876   */\n      dup3\n        /* \"#utility.yul\":872:873   */\n      dup3\n        /* \"#utility.yul\":868:877   */\n      mul\n        /* \"#utility.yul\":897:926   */\n      tag_32\n        /* \"#utility.yul\":914:925   */\n      dup2\n        /* \"#utility.yul\":897:926   */\n      tag_18\n      jump\t// in\n    tag_32:\n        /* \"#utility.yul\":886:926   */\n      swap2\n      pop\n        /* \"#utility.yul\":984:1050   */\n      0x8000000000000000000000000000000000000000000000000000000000000000\n        /* \"#utility.yul\":981:982   */\n      dup5\n        /* \"#utility.yul\":978:1051   */\n      eq\n        /* \"#utility.yul\":974:975   */\n      0x00\n        /* \"#utility.yul\":971:972   */\n      dup5\n        /* \"#utility.yul\":967:976   */\n      slt\n        /* \"#utility.yul\":963:1052   */\n      and\n        /* \"#utility.yul\":960:1075   */\n      iszero\n      tag_33\n      jumpi\n        /* \"#utility.yul\":1055:1073   */\n      tag_34\n      tag_20\n      jump\t// in\n    tag_34:\n        /* \"#utility.yul\":960:1075   */\n    tag_33:\n        /* \"#utility.yul\":1225:1226   */\n      dup3\n        /* \"#utility.yul\":1216:1223   */\n      dup3\n        /* \"#utility.yul\":1211:1227   */\n      sdiv\n        /* \"#utility.yul\":1208:1209   */\n      dup5\n        /* \"#utility.yul\":1205:1228   */\n      eq\n        /* \"#utility.yul\":1185:1186   */\n      dup4\n        /* \"#utility.yul\":1178:1187   */\n      iszero\n        /* \"#utility.yul\":1158:1242   */\n      or\n        /* \"#utility.yul\":1135:1275   */\n      tag_35\n      jumpi\n        /* \"#utility.yul\":1255:1273   */\n      tag_36\n      tag_20\n      jump\t// in\n    tag_36:\n        /* \"#utility.yul\":1135:1275   */\n    tag_35:\n        /* \"#utility.yul\":773:1282   */\n      pop\n        /* \"#utility.yul\":726:1282   */\n      swap3\n      swap2\n      pop\n      pop\n      jump\t// out\n        /* \"#utility.yul\":1288:1663   */\n    tag_17:\n        /* \"#utility.yul\":1327:1330   */\n      0x00\n        /* \"#utility.yul\":1346:1365   */\n      tag_38\n        /* \"#utility.yul\":1363:1364   */\n      dup3\n        /* \"#utility.yul\":1346:1365   */\n      tag_18\n      jump\t// in\n    tag_38:\n        /* \"#utility.yul\":1341:1365   */\n      swap2\n      pop\n        /* \"#utility.yul\":1379:1398   */\n      tag_39\n        /* \"#utility.yul\":1396:1397   */\n      dup4\n        /* \"#utility.yul\":1379:1398   */\n      tag_18\n      jump\t// in\n    tag_39:\n        /* \"#utility.yul\":1374:1398   */\n      swap3\n      pop\n        /* \"#utility.yul\":1421:1422   */\n      dup3\n        /* \"#utility.yul\":1418:1419   */\n      dup3\n        /* \"#utility.yul\":1414:1423   */\n      add\n        /* \"#utility.yul\":1407:1423   */\n      swap1\n      pop\n        /* \"#utility.yul\":1619:1620   */\n      dup3\n        /* \"#utility.yul\":1614:1617   */\n      dup2\n        /* \"#utility.yul\":1610:1621   */\n      slt\n        /* \"#utility.yul\":1603:1622   */\n      iszero\n        /* \"#utility.yul\":1599:1600   */\n      0x00\n        /* \"#utility.yul\":1596:1597   */\n      dup4\n        /* \"#utility.yul\":1592:1601   */\n      slt\n        /* \"#utility.yul\":1588:1623   */\n      and\n        /* \"#utility.yul\":1571:1572   */\n      dup4\n        /* \"#utility.yul\":1566:1569   */\n      dup3\n        /* \"#utility.yul\":1562:1573   */\n      slt\n        /* \"#utility.yul\":1557:1558   */\n      0x00\n        /* \"#utility.yul\":1554:1555   */\n      dup5\n        /* \"#utility.yul\":1550:1559   */\n      slt\n        /* \"#utility.yul\":1543:1560   */\n      iszero\n        /* \"#utility.yul\":1539:1574   */\n      and\n        /* \"#utility.yul\":1523:1633   */\n      or\n        /* \"#utility.yul\":1520:1656   */\n      iszero\n      tag_40\n      jumpi\n        /* \"#utility.yul\":1636:1654   */\n      tag_41\n      tag_20\n      jump\t// in\n    tag_41:\n        /* \"#utility.yul\":1520:1656   */\n    tag_40:\n        /* \"#utility.yul\":1288:1663   */\n      swap3\n      swap2\n      pop\n      pop\n      jump\t// out\n\n    auxdata: 0xa264697066735822122084f9b2cbbaf5a675d21810b0d4c9f6f9c949526d2b3d1b25c6d8d467007774fa64736f6c634300081a0033\n}\n",
				"bytecode": {
					"linkReferences": {},
					"object": "608060405260055f5560066001553480156017575f80fd5b50610206806100255f395ff3fe608060405234801561000f575f80fd5b5060043610610034575f3560e01c80635543524714610038578063ca77ab6514610057575b5f80fd5b610040610076565b60405161004e9291906100c5565b60405180910390f35b61005f610085565b60405161006d9291906100c5565b60405180910390f35b5f805f54600154915091509091565b5f806001545f546100969190610119565b91506001545f546100a7919061018f565b90509091565b5f819050919050565b6100bf816100ad565b82525050565b5f6040820190506100d85f8301856100b6565b6100e560208301846100b6565b9392505050565b7f4e487b71000000000000000000000000000000000000000000000000000000005f52601160045260245ffd5b5f610123826100ad565b915061012e836100ad565b925082820261013c816100ad565b91507f800000000000000000000000000000000000000000000000000000000000000084145f84121615610173576101726100ec565b5b8282058414831517610188576101876100ec565b5b5092915050565b5f610199826100ad565b91506101a4836100ad565b92508282019050828112155f8312168382125f8412151617156101ca576101c96100ec565b5b9291505056fea264697066735822122084f9b2cbbaf5a675d21810b0d4c9f6f9c949526d2b3d1b25c6d8d467007774fa64736f6c634300081a0033",
					"opcodes": "PUSH1 0x80 PUSH1 0x40 MSTORE PUSH1 0x5 PUSH0 SSTORE PUSH1 0x6 PUSH1 0x1 SSTORE CALLVALUE DUP1 ISZERO PUSH1 0x17 JUMPI PUSH0 DUP1 REVERT JUMPDEST POP PUSH2 0x206 DUP1 PUSH2 0x25 PUSH0 CODECOPY PUSH0 RETURN INVALID PUSH1 0x80 PUSH1 0x40 MSTORE CALLVALUE DUP1 ISZERO PUSH2 0xF JUMPI PUSH0 DUP1 REVERT JUMPDEST POP PUSH1 0x4 CALLDATASIZE LT PUSH2 0x34 JUMPI PUSH0 CALLDATALOAD PUSH1 0xE0 SHR DUP1 PUSH4 0x55435247 EQ PUSH2 0x38 JUMPI DUP1 PUSH4 0xCA77AB65 EQ PUSH2 0x57 JUMPI JUMPDEST PUSH0 DUP1 REVERT JUMPDEST PUSH2 0x40 PUSH2 0x76 JUMP JUMPDEST PUSH1 0x40 MLOAD PUSH2 0x4E SWAP3 SWAP2 SWAP1 PUSH2 0xC5 JUMP JUMPDEST PUSH1 0x40 MLOAD DUP1 SWAP2 SUB SWAP1 RETURN JUMPDEST PUSH2 0x5F PUSH2 0x85 JUMP JUMPDEST PUSH1 0x40 MLOAD PUSH2 0x6D SWAP3 SWAP2 SWAP1 PUSH2 0xC5 JUMP JUMPDEST PUSH1 0x40 MLOAD DUP1 SWAP2 SUB SWAP1 RETURN JUMPDEST PUSH0 DUP1 PUSH0 SLOAD PUSH1 0x1 SLOAD SWAP2 POP SWAP2 POP SWAP1 SWAP2 JUMP JUMPDEST PUSH0 DUP1 PUSH1 0x1 SLOAD PUSH0 SLOAD PUSH2 0x96 SWAP2 SWAP1 PUSH2 0x119 JUMP JUMPDEST SWAP2 POP PUSH1 0x1 SLOAD PUSH0 SLOAD PUSH2 0xA7 SWAP2 SWAP1 PUSH2 0x18F JUMP JUMPDEST SWAP1 POP SWAP1 SWAP2 JUMP JUMPDEST PUSH0 DUP2 SWAP1 POP SWAP2 SWAP1 POP JUMP JUMPDEST PUSH2 0xBF DUP2 PUSH2 0xAD JUMP JUMPDEST DUP3 MSTORE POP POP JUMP JUMPDEST PUSH0 PUSH1 0x40 DUP3 ADD SWAP1 POP PUSH2 0xD8 PUSH0 DUP4 ADD DUP6 PUSH2 0xB6 JUMP JUMPDEST PUSH2 0xE5 PUSH1 0x20 DUP4 ADD DUP5 PUSH2 0xB6 JUMP JUMPDEST SWAP4 SWAP3 POP POP POP JUMP JUMPDEST PUSH32 0x4E487B7100000000000000000000000000000000000000000000000000000000 PUSH0 MSTORE PUSH1 0x11 PUSH1 0x4 MSTORE PUSH1 0x24 PUSH0 REVERT JUMPDEST PUSH0 PUSH2 0x123 DUP3 PUSH2 0xAD JUMP JUMPDEST SWAP2 POP PUSH2 0x12E DUP4 PUSH2 0xAD JUMP JUMPDEST SWAP3 POP DUP3 DUP3 MUL PUSH2 0x13C DUP2 PUSH2 0xAD JUMP JUMPDEST SWAP2 POP PUSH32 0x8000000000000000000000000000000000000000000000000000000000000000 DUP5 EQ PUSH0 DUP5 SLT AND ISZERO PUSH2 0x173 JUMPI PUSH2 0x172 PUSH2 0xEC JUMP JUMPDEST JUMPDEST DUP3 DUP3 SDIV DUP5 EQ DUP4 ISZERO OR PUSH2 0x188 JUMPI PUSH2 0x187 PUSH2 0xEC JUMP JUMPDEST JUMPDEST POP SWAP3 SWAP2 POP POP JUMP JUMPDEST PUSH0 PUSH2 0x199 DUP3 PUSH2 0xAD JUMP JUMPDEST SWAP2 POP PUSH2 0x1A4 DUP4 PUSH2 0xAD JUMP JUMPDEST SWAP3 POP DUP3 DUP3 ADD SWAP1 POP DUP3 DUP2 SLT ISZERO PUSH0 DUP4 SLT AND DUP4 DUP3 SLT PUSH0 DUP5 SLT ISZERO AND OR ISZERO PUSH2 0x1CA JUMPI PUSH2 0x1C9 PUSH2 0xEC JUMP JUMPDEST JUMPDEST SWAP3 SWAP2 POP POP JUMP INVALID LOG2 PUSH5 0x6970667358 0x22 SLT KECCAK256 DUP5 0xF9 0xB2 0xCB 0xBA CREATE2 0xA6 PUSH22 0xD21810B0D4C9F6F9C949526D2B3D1B25C6D8D4670077 PUSH21 0xFA64736F6C634300081A0033000000000000000000 "
				},
				"gasEstimates": {
					"creation": {
						"codeDepositCost": "103600",
						"executionCost": "44362",
						"totalCost": "147962"
					},
					"external": {
						"calculate()": "infinite",
						"checkNums()": "infinite"
					}
				},
				"methodIdentifiers": {
					"calculate()": "ca77ab65",
					"checkNums()": "55435247"
				}
			},
			"storageLayout": {
				"storage": [
					{
						"astId": 4,
						"contract": "contracts/6_view.sol:View",
						"label": "num1",
						"offset": 0,
						"slot": "0",
						"type": "t_int256"
					},
					{
						"astId": 7,
						"contract": "contracts/6_view.sol:View",
						"label": "num3",
						"offset": 0,
						"slot": "1",
						"type": "t_int256"
					}
				],
				"types": {
					"t_int256": {
						"encoding": "inplace",
						"label": "int256",
						"numberOfBytes": "32"
					}
				}
			},
			"userdoc": {
				"kind": "user",
				"methods": {},
				"version": 1
			}
		}
	}
}