{
	"contracts/10_modifier.sol": {
		"Modifier": {
			"abi": [
				{
					"inputs": [],
					"stateMutability": "nonpayable",
					"type": "constructor"
				},
				{
					"inputs": [
						{
							"internalType": "address",
							"name": "_newOwner",
							"type": "address"
						}
					],
					"name": "checkOwner",
					"outputs": [],
					"stateMutability": "nonpayable",
					"type": "function"
				},
				{
					"inputs": [],
					"name": "locked",
					"outputs": [
						{
							"internalType": "bool",
							"name": "",
							"type": "bool"
						}
					],
					"stateMutability": "view",
					"type": "function"
				},
				{
					"inputs": [],
					"name": "owner",
					"outputs": [
						{
							"internalType": "address",
							"name": "",
							"type": "address"
						}
					],
					"stateMutability": "view",
					"type": "function"
				},
				{
					"inputs": [],
					"name": "secret_message",
					"outputs": [
						{
							"internalType": "string",
							"name": "",
							"type": "string"
						}
					],
					"stateMutability": "view",
					"type": "function"
				},
				{
					"inputs": [],
					"name": "seeSecretMessage",
					"outputs": [],
					"stateMutability": "nonpayable",
					"type": "function"
				},
				{
					"inputs": [],
					"name": "x",
					"outputs": [
						{
							"internalType": "int256",
							"name": "",
							"type": "int256"
						}
					],
					"stateMutability": "view",
					"type": "function"
				}
			],
			"devdoc": {
				"kind": "dev",
				"methods": {},
				"version": 1
			},
			"evm": {
				"assembly": "    /* \"contracts/10_modifier.sol\":212:1200  contract Modifier {... */\n  mstore(0x40, 0x80)\n    /* \"contracts/10_modifier.sol\":462:464  10 */\n  0x0a\n    /* \"contracts/10_modifier.sol\":449:464  int public x=10 */\n  0x01\n  sstore\n    /* \"contracts/10_modifier.sol\":529:576  constructor(){... */\n  callvalue\n  dup1\n  iszero\n  tag_1\n  jumpi\n  0x00\n  dup1\n  revert\ntag_1:\n  pop\n    /* \"contracts/10_modifier.sol\":559:569  msg.sender */\n  caller\n    /* \"contracts/10_modifier.sol\":552:557  owner */\n  0x00\n  dup1\n    /* \"contracts/10_modifier.sol\":552:569  owner =msg.sender */\n  0x0100\n  exp\n  dup2\n  sload\n  dup2\n  0xffffffffffffffffffffffffffffffffffffffff\n  mul\n  not\n  and\n  swap1\n  dup4\n  0xffffffffffffffffffffffffffffffffffffffff\n  and\n  mul\n  or\n  swap1\n  sstore\n  pop\n    /* \"contracts/10_modifier.sol\":212:1200  contract Modifier {... */\n  dataSize(sub_0)\n  dup1\n  dataOffset(sub_0)\n  0x00\n  codecopy\n  0x00\n  return\nstop\n\nsub_0: assembly {\n        /* \"contracts/10_modifier.sol\":212:1200  contract Modifier {... */\n      mstore(0x40, 0x80)\n      callvalue\n      dup1\n      iszero\n      tag_1\n      jumpi\n      0x00\n      dup1\n      revert\n    tag_1:\n      pop\n      jumpi(tag_2, lt(calldatasize, 0x04))\n      shr(0xe0, calldataload(0x00))\n      dup1\n      0x0c55699c\n      eq\n      tag_3\n      jumpi\n      dup1\n      0x8da5cb5b\n      eq\n      tag_4\n      jumpi\n      dup1\n      0xbdea6938\n      eq\n      tag_5\n      jumpi\n      dup1\n      0xcf309012\n      eq\n      tag_6\n      jumpi\n      dup1\n      0xd73d2361\n      eq\n      tag_7\n      jumpi\n      dup1\n      0xe0e3671c\n      eq\n      tag_8\n      jumpi\n    tag_2:\n      0x00\n      dup1\n      revert\n        /* \"contracts/10_modifier.sol\":449:464  int public x=10 */\n    tag_3:\n      tag_9\n      tag_10\n      jump\t// in\n    tag_9:\n      mload(0x40)\n      tag_11\n      swap2\n      swap1\n      tag_12\n      jump\t// in\n    tag_11:\n      mload(0x40)\n      dup1\n      swap2\n      sub\n      swap1\n      return\n        /* \"contracts/10_modifier.sol\":423:443  address public owner */\n    tag_4:\n      tag_13\n      tag_14\n      jump\t// in\n    tag_13:\n      mload(0x40)\n      tag_15\n      swap2\n      swap1\n      tag_16\n      jump\t// in\n    tag_15:\n      mload(0x40)\n      dup1\n      swap2\n      sub\n      swap1\n      return\n        /* \"contracts/10_modifier.sol\":1087:1196  function seeSecretMessage() public onlyOwner() {... */\n    tag_5:\n      tag_17\n      tag_18\n      jump\t// in\n    tag_17:\n      stop\n        /* \"contracts/10_modifier.sol\":470:488  bool public locked */\n    tag_6:\n      tag_19\n      tag_20\n      jump\t// in\n    tag_19:\n      mload(0x40)\n      tag_21\n      swap2\n      swap1\n      tag_22\n      jump\t// in\n    tag_21:\n      mload(0x40)\n      dup1\n      swap2\n      sub\n      swap1\n      return\n        /* \"contracts/10_modifier.sol\":494:522  string public secret_message */\n    tag_7:\n      tag_23\n      tag_24\n      jump\t// in\n    tag_23:\n      mload(0x40)\n      tag_25\n      swap2\n      swap1\n      tag_26\n      jump\t// in\n    tag_25:\n      mload(0x40)\n      dup1\n      swap2\n      sub\n      swap1\n      return\n        /* \"contracts/10_modifier.sol\":967:1080  function checkOwner(address _newOwner) public onlyOwner() validateData(_newOwner){... */\n    tag_8:\n      tag_27\n      0x04\n      dup1\n      calldatasize\n      sub\n      dup2\n      add\n      swap1\n      tag_28\n      swap2\n      swap1\n      tag_29\n      jump\t// in\n    tag_28:\n      tag_30\n      jump\t// in\n    tag_27:\n      stop\n        /* \"contracts/10_modifier.sol\":449:464  int public x=10 */\n    tag_10:\n      sload(0x01)\n      dup2\n      jump\t// out\n        /* \"contracts/10_modifier.sol\":423:443  address public owner */\n    tag_14:\n      0x00\n      dup1\n      sload\n      swap1\n      0x0100\n      exp\n      swap1\n      div\n      0xffffffffffffffffffffffffffffffffffffffff\n      and\n      dup2\n      jump\t// out\n        /* \"contracts/10_modifier.sol\":1087:1196  function seeSecretMessage() public onlyOwner() {... */\n    tag_18:\n        /* \"contracts/10_modifier.sol\":634:639  owner */\n      0x00\n      dup1\n      sload\n      swap1\n      0x0100\n      exp\n      swap1\n      div\n      0xffffffffffffffffffffffffffffffffffffffff\n      and\n        /* \"contracts/10_modifier.sol\":620:639  msg.sender == owner */\n      0xffffffffffffffffffffffffffffffffffffffff\n      and\n        /* \"contracts/10_modifier.sol\":620:630  msg.sender */\n      caller\n        /* \"contracts/10_modifier.sol\":620:639  msg.sender == owner */\n      0xffffffffffffffffffffffffffffffffffffffff\n      and\n      eq\n        /* \"contracts/10_modifier.sol\":612:652  require(msg.sender == owner,\"Not owner\") */\n      tag_32\n      jumpi\n      mload(0x40)\n      0x08c379a000000000000000000000000000000000000000000000000000000000\n      dup2\n      mstore\n      0x04\n      add\n      tag_33\n      swap1\n      tag_34\n      jump\t// in\n    tag_33:\n      mload(0x40)\n      dup1\n      swap2\n      sub\n      swap1\n      revert\n    tag_32:\n        /* \"contracts/10_modifier.sol\":1144:1189  secret_message = \"This is the secret message\" */\n      mload(0x40)\n      dup1\n      0x40\n      add\n      0x40\n      mstore\n      dup1\n      0x1a\n      dup2\n      mstore\n      0x20\n      add\n      0x546869732069732074686520736563726574206d657373616765000000000000\n      dup2\n      mstore\n      pop\n        /* \"contracts/10_modifier.sol\":1144:1158  secret_message */\n      0x03\n        /* \"contracts/10_modifier.sol\":1144:1189  secret_message = \"This is the secret message\" */\n      swap1\n      dup2\n      tag_36\n      swap2\n      swap1\n      tag_37\n      jump\t// in\n    tag_36:\n      pop\n        /* \"contracts/10_modifier.sol\":1087:1196  function seeSecretMessage() public onlyOwner() {... */\n      jump\t// out\n        /* \"contracts/10_modifier.sol\":470:488  bool public locked */\n    tag_20:\n      0x02\n      0x00\n      swap1\n      sload\n      swap1\n      0x0100\n      exp\n      swap1\n      div\n      0xff\n      and\n      dup2\n      jump\t// out\n        /* \"contracts/10_modifier.sol\":494:522  string public secret_message */\n    tag_24:\n      0x03\n      dup1\n      sload\n      tag_38\n      swap1\n      tag_39\n      jump\t// in\n    tag_38:\n      dup1\n      0x1f\n      add\n      0x20\n      dup1\n      swap2\n      div\n      mul\n      0x20\n      add\n      mload(0x40)\n      swap1\n      dup2\n      add\n      0x40\n      mstore\n      dup1\n      swap3\n      swap2\n      swap1\n      dup2\n      dup2\n      mstore\n      0x20\n      add\n      dup3\n      dup1\n      sload\n      tag_40\n      swap1\n      tag_39\n      jump\t// in\n    tag_40:\n      dup1\n      iszero\n      tag_41\n      jumpi\n      dup1\n      0x1f\n      lt\n      tag_42\n      jumpi\n      0x0100\n      dup1\n      dup4\n      sload\n      div\n      mul\n      dup4\n      mstore\n      swap2\n      0x20\n      add\n      swap2\n      jump(tag_41)\n    tag_42:\n      dup3\n      add\n      swap2\n      swap1\n      0x00\n      mstore\n      keccak256(0x00, 0x20)\n      swap1\n    tag_43:\n      dup2\n      sload\n      dup2\n      mstore\n      swap1\n      0x01\n      add\n      swap1\n      0x20\n      add\n      dup1\n      dup4\n      gt\n      tag_43\n      jumpi\n      dup3\n      swap1\n      sub\n      0x1f\n      and\n      dup3\n      add\n      swap2\n    tag_41:\n      pop\n      pop\n      pop\n      pop\n      pop\n      dup2\n      jump\t// out\n        /* \"contracts/10_modifier.sol\":967:1080  function checkOwner(address _newOwner) public onlyOwner() validateData(_newOwner){... */\n    tag_30:\n        /* \"contracts/10_modifier.sol\":634:639  owner */\n      0x00\n      dup1\n      sload\n      swap1\n      0x0100\n      exp\n      swap1\n      div\n      0xffffffffffffffffffffffffffffffffffffffff\n      and\n        /* \"contracts/10_modifier.sol\":620:639  msg.sender == owner */\n      0xffffffffffffffffffffffffffffffffffffffff\n      and\n        /* \"contracts/10_modifier.sol\":620:630  msg.sender */\n      caller\n        /* \"contracts/10_modifier.sol\":620:639  msg.sender == owner */\n      0xffffffffffffffffffffffffffffffffffffffff\n      and\n      eq\n        /* \"contracts/10_modifier.sol\":612:652  require(msg.sender == owner,\"Not owner\") */\n      tag_45\n      jumpi\n      mload(0x40)\n      0x08c379a000000000000000000000000000000000000000000000000000000000\n      dup2\n      mstore\n      0x04\n      add\n      tag_46\n      swap1\n      tag_34\n      jump\t// in\n    tag_46:\n      mload(0x40)\n      dup1\n      swap2\n      sub\n      swap1\n      revert\n    tag_45:\n        /* \"contracts/10_modifier.sol\":1038:1047  _newOwner */\n      dup1\n        /* \"contracts/10_modifier.sol\":794:795  0 */\n      0x00\n        /* \"contracts/10_modifier.sol\":778:796  _adr != address(0) */\n      0xffffffffffffffffffffffffffffffffffffffff\n      and\n        /* \"contracts/10_modifier.sol\":778:782  _adr */\n      dup2\n        /* \"contracts/10_modifier.sol\":778:796  _adr != address(0) */\n      0xffffffffffffffffffffffffffffffffffffffff\n      and\n      sub\n        /* \"contracts/10_modifier.sol\":770:816  require(_adr != address(0), \"Invalid address\") */\n      tag_48\n      jumpi\n      mload(0x40)\n      0x08c379a000000000000000000000000000000000000000000000000000000000\n      dup2\n      mstore\n      0x04\n      add\n      tag_49\n      swap1\n      tag_50\n      jump\t// in\n    tag_49:\n      mload(0x40)\n      dup1\n      swap2\n      sub\n      swap1\n      revert\n    tag_48:\n        /* \"contracts/10_modifier.sol\":1064:1073  _newOwner */\n      dup2\n        /* \"contracts/10_modifier.sol\":1058:1063  owner */\n      0x00\n      dup1\n        /* \"contracts/10_modifier.sol\":1058:1073  owner=_newOwner */\n      0x0100\n      exp\n      dup2\n      sload\n      dup2\n      0xffffffffffffffffffffffffffffffffffffffff\n      mul\n      not\n      and\n      swap1\n      dup4\n      0xffffffffffffffffffffffffffffffffffffffff\n      and\n      mul\n      or\n      swap1\n      sstore\n      pop\n        /* \"contracts/10_modifier.sol\":662:663  _ */\n      pop\n        /* \"contracts/10_modifier.sol\":967:1080  function checkOwner(address _newOwner) public onlyOwner() validateData(_newOwner){... */\n      pop\n      jump\t// out\n        /* \"#utility.yul\":7:83   */\n    tag_52:\n        /* \"#utility.yul\":43:50   */\n      0x00\n        /* \"#utility.yul\":72:77   */\n      dup2\n        /* \"#utility.yul\":61:77   */\n      swap1\n      pop\n        /* \"#utility.yul\":7:83   */\n      swap2\n      swap1\n      pop\n      jump\t// out\n        /* \"#utility.yul\":89:204   */\n    tag_53:\n        /* \"#utility.yul\":174:197   */\n      tag_94\n        /* \"#utility.yul\":191:196   */\n      dup2\n        /* \"#utility.yul\":174:197   */\n      tag_52\n      jump\t// in\n    tag_94:\n        /* \"#utility.yul\":169:172   */\n      dup3\n        /* \"#utility.yul\":162:198   */\n      mstore\n        /* \"#utility.yul\":89:204   */\n      pop\n      pop\n      jump\t// out\n        /* \"#utility.yul\":210:428   */\n    tag_12:\n        /* \"#utility.yul\":301:305   */\n      0x00\n        /* \"#utility.yul\":339:341   */\n      0x20\n        /* \"#utility.yul\":328:337   */\n      dup3\n        /* \"#utility.yul\":324:342   */\n      add\n        /* \"#utility.yul\":316:342   */\n      swap1\n      pop\n        /* \"#utility.yul\":352:421   */\n      tag_96\n        /* \"#utility.yul\":418:419   */\n      0x00\n        /* \"#utility.yul\":407:416   */\n      dup4\n        /* \"#utility.yul\":403:420   */\n      add\n        /* \"#utility.yul\":394:400   */\n      dup5\n        /* \"#utility.yul\":352:421   */\n      tag_53\n      jump\t// in\n    tag_96:\n        /* \"#utility.yul\":210:428   */\n      swap3\n      swap2\n      pop\n      pop\n      jump\t// out\n        /* \"#utility.yul\":434:560   */\n    tag_54:\n        /* \"#utility.yul\":471:478   */\n      0x00\n        /* \"#utility.yul\":511:553   */\n      0xffffffffffffffffffffffffffffffffffffffff\n        /* \"#utility.yul\":504:509   */\n      dup3\n        /* \"#utility.yul\":500:554   */\n      and\n        /* \"#utility.yul\":489:554   */\n      swap1\n      pop\n        /* \"#utility.yul\":434:560   */\n      swap2\n      swap1\n      pop\n      jump\t// out\n        /* \"#utility.yul\":566:662   */\n    tag_55:\n        /* \"#utility.yul\":603:610   */\n      0x00\n        /* \"#utility.yul\":632:656   */\n      tag_99\n        /* \"#utility.yul\":650:655   */\n      dup3\n        /* \"#utility.yul\":632:656   */\n      tag_54\n      jump\t// in\n    tag_99:\n        /* \"#utility.yul\":621:656   */\n      swap1\n      pop\n        /* \"#utility.yul\":566:662   */\n      swap2\n      swap1\n      pop\n      jump\t// out\n        /* \"#utility.yul\":668:786   */\n    tag_56:\n        /* \"#utility.yul\":755:779   */\n      tag_101\n        /* \"#utility.yul\":773:778   */\n      dup2\n        /* \"#utility.yul\":755:779   */\n      tag_55\n      jump\t// in\n    tag_101:\n        /* \"#utility.yul\":750:753   */\n      dup3\n        /* \"#utility.yul\":743:780   */\n      mstore\n        /* \"#utility.yul\":668:786   */\n      pop\n      pop\n      jump\t// out\n        /* \"#utility.yul\":792:1014   */\n    tag_16:\n        /* \"#utility.yul\":885:889   */\n      0x00\n        /* \"#utility.yul\":923:925   */\n      0x20\n        /* \"#utility.yul\":912:921   */\n      dup3\n        /* \"#utility.yul\":908:926   */\n      add\n        /* \"#utility.yul\":900:926   */\n      swap1\n      pop\n        /* \"#utility.yul\":936:1007   */\n      tag_103\n        /* \"#utility.yul\":1004:1005   */\n      0x00\n        /* \"#utility.yul\":993:1002   */\n      dup4\n        /* \"#utility.yul\":989:1006   */\n      add\n        /* \"#utility.yul\":980:986   */\n      dup5\n        /* \"#utility.yul\":936:1007   */\n      tag_56\n      jump\t// in\n    tag_103:\n        /* \"#utility.yul\":792:1014   */\n      swap3\n      swap2\n      pop\n      pop\n      jump\t// out\n        /* \"#utility.yul\":1020:1110   */\n    tag_57:\n        /* \"#utility.yul\":1054:1061   */\n      0x00\n        /* \"#utility.yul\":1097:1102   */\n      dup2\n        /* \"#utility.yul\":1090:1103   */\n      iszero\n        /* \"#utility.yul\":1083:1104   */\n      iszero\n        /* \"#utility.yul\":1072:1104   */\n      swap1\n      pop\n        /* \"#utility.yul\":1020:1110   */\n      swap2\n      swap1\n      pop\n      jump\t// out\n        /* \"#utility.yul\":1116:1225   */\n    tag_58:\n        /* \"#utility.yul\":1197:1218   */\n      tag_106\n        /* \"#utility.yul\":1212:1217   */\n      dup2\n        /* \"#utility.yul\":1197:1218   */\n      tag_57\n      jump\t// in\n    tag_106:\n        /* \"#utility.yul\":1192:1195   */\n      dup3\n        /* \"#utility.yul\":1185:1219   */\n      mstore\n        /* \"#utility.yul\":1116:1225   */\n      pop\n      pop\n      jump\t// out\n        /* \"#utility.yul\":1231:1441   */\n    tag_22:\n        /* \"#utility.yul\":1318:1322   */\n      0x00\n        /* \"#utility.yul\":1356:1358   */\n      0x20\n        /* \"#utility.yul\":1345:1354   */\n      dup3\n        /* \"#utility.yul\":1341:1359   */\n      add\n        /* \"#utility.yul\":1333:1359   */\n      swap1\n      pop\n        /* \"#utility.yul\":1369:1434   */\n      tag_108\n        /* \"#utility.yul\":1431:1432   */\n      0x00\n        /* \"#utility.yul\":1420:1429   */\n      dup4\n        /* \"#utility.yul\":1416:1433   */\n      add\n        /* \"#utility.yul\":1407:1413   */\n      dup5\n        /* \"#utility.yul\":1369:1434   */\n      tag_58\n      jump\t// in\n    tag_108:\n        /* \"#utility.yul\":1231:1441   */\n      swap3\n      swap2\n      pop\n      pop\n      jump\t// out\n        /* \"#utility.yul\":1447:1546   */\n    tag_59:\n        /* \"#utility.yul\":1499:1505   */\n      0x00\n        /* \"#utility.yul\":1533:1538   */\n      dup2\n        /* \"#utility.yul\":1527:1539   */\n      mload\n        /* \"#utility.yul\":1517:1539   */\n      swap1\n      pop\n        /* \"#utility.yul\":1447:1546   */\n      swap2\n      swap1\n      pop\n      jump\t// out\n        /* \"#utility.yul\":1552:1721   */\n    tag_60:\n        /* \"#utility.yul\":1636:1647   */\n      0x00\n        /* \"#utility.yul\":1670:1676   */\n      dup3\n        /* \"#utility.yul\":1665:1668   */\n      dup3\n        /* \"#utility.yul\":1658:1677   */\n      mstore\n        /* \"#utility.yul\":1710:1714   */\n      0x20\n        /* \"#utility.yul\":1705:1708   */\n      dup3\n        /* \"#utility.yul\":1701:1715   */\n      add\n        /* \"#utility.yul\":1686:1715   */\n      swap1\n      pop\n        /* \"#utility.yul\":1552:1721   */\n      swap3\n      swap2\n      pop\n      pop\n      jump\t// out\n        /* \"#utility.yul\":1727:1866   */\n    tag_61:\n        /* \"#utility.yul\":1816:1822   */\n      dup3\n        /* \"#utility.yul\":1811:1814   */\n      dup2\n        /* \"#utility.yul\":1806:1809   */\n      dup4\n        /* \"#utility.yul\":1800:1823   */\n      mcopy\n        /* \"#utility.yul\":1857:1858   */\n      0x00\n        /* \"#utility.yul\":1848:1854   */\n      dup4\n        /* \"#utility.yul\":1843:1846   */\n      dup4\n        /* \"#utility.yul\":1839:1855   */\n      add\n        /* \"#utility.yul\":1832:1859   */\n      mstore\n        /* \"#utility.yul\":1727:1866   */\n      pop\n      pop\n      pop\n      jump\t// out\n        /* \"#utility.yul\":1872:1974   */\n    tag_62:\n        /* \"#utility.yul\":1913:1919   */\n      0x00\n        /* \"#utility.yul\":1964:1966   */\n      0x1f\n        /* \"#utility.yul\":1960:1967   */\n      not\n        /* \"#utility.yul\":1955:1957   */\n      0x1f\n        /* \"#utility.yul\":1948:1953   */\n      dup4\n        /* \"#utility.yul\":1944:1958   */\n      add\n        /* \"#utility.yul\":1940:1968   */\n      and\n        /* \"#utility.yul\":1930:1968   */\n      swap1\n      pop\n        /* \"#utility.yul\":1872:1974   */\n      swap2\n      swap1\n      pop\n      jump\t// out\n        /* \"#utility.yul\":1980:2357   */\n    tag_63:\n        /* \"#utility.yul\":2068:2071   */\n      0x00\n        /* \"#utility.yul\":2096:2135   */\n      tag_114\n        /* \"#utility.yul\":2129:2134   */\n      dup3\n        /* \"#utility.yul\":2096:2135   */\n      tag_59\n      jump\t// in\n    tag_114:\n        /* \"#utility.yul\":2151:2222   */\n      tag_115\n        /* \"#utility.yul\":2215:2221   */\n      dup2\n        /* \"#utility.yul\":2210:2213   */\n      dup6\n        /* \"#utility.yul\":2151:2222   */\n      tag_60\n      jump\t// in\n    tag_115:\n        /* \"#utility.yul\":2144:2222   */\n      swap4\n      pop\n        /* \"#utility.yul\":2231:2296   */\n      tag_116\n        /* \"#utility.yul\":2289:2295   */\n      dup2\n        /* \"#utility.yul\":2284:2287   */\n      dup6\n        /* \"#utility.yul\":2277:2281   */\n      0x20\n        /* \"#utility.yul\":2270:2275   */\n      dup7\n        /* \"#utility.yul\":2266:2282   */\n      add\n        /* \"#utility.yul\":2231:2296   */\n      tag_61\n      jump\t// in\n    tag_116:\n        /* \"#utility.yul\":2321:2350   */\n      tag_117\n        /* \"#utility.yul\":2343:2349   */\n      dup2\n        /* \"#utility.yul\":2321:2350   */\n      tag_62\n      jump\t// in\n    tag_117:\n        /* \"#utility.yul\":2316:2319   */\n      dup5\n        /* \"#utility.yul\":2312:2351   */\n      add\n        /* \"#utility.yul\":2305:2351   */\n      swap2\n      pop\n        /* \"#utility.yul\":2072:2357   */\n      pop\n        /* \"#utility.yul\":1980:2357   */\n      swap3\n      swap2\n      pop\n      pop\n      jump\t// out\n        /* \"#utility.yul\":2363:2676   */\n    tag_26:\n        /* \"#utility.yul\":2476:2480   */\n      0x00\n        /* \"#utility.yul\":2514:2516   */\n      0x20\n        /* \"#utility.yul\":2503:2512   */\n      dup3\n        /* \"#utility.yul\":2499:2517   */\n      add\n        /* \"#utility.yul\":2491:2517   */\n      swap1\n      pop\n        /* \"#utility.yul\":2563:2572   */\n      dup2\n        /* \"#utility.yul\":2557:2561   */\n      dup2\n        /* \"#utility.yul\":2553:2573   */\n      sub\n        /* \"#utility.yul\":2549:2550   */\n      0x00\n        /* \"#utility.yul\":2538:2547   */\n      dup4\n        /* \"#utility.yul\":2534:2551   */\n      add\n        /* \"#utility.yul\":2527:2574   */\n      mstore\n        /* \"#utility.yul\":2591:2669   */\n      tag_119\n        /* \"#utility.yul\":2664:2668   */\n      dup2\n        /* \"#utility.yul\":2655:2661   */\n      dup5\n        /* \"#utility.yul\":2591:2669   */\n      tag_63\n      jump\t// in\n    tag_119:\n        /* \"#utility.yul\":2583:2669   */\n      swap1\n      pop\n        /* \"#utility.yul\":2363:2676   */\n      swap3\n      swap2\n      pop\n      pop\n      jump\t// out\n        /* \"#utility.yul\":2763:2880   */\n    tag_65:\n        /* \"#utility.yul\":2872:2873   */\n      0x00\n        /* \"#utility.yul\":2869:2870   */\n      dup1\n        /* \"#utility.yul\":2862:2874   */\n      revert\n        /* \"#utility.yul\":3009:3131   */\n    tag_67:\n        /* \"#utility.yul\":3082:3106   */\n      tag_124\n        /* \"#utility.yul\":3100:3105   */\n      dup2\n        /* \"#utility.yul\":3082:3106   */\n      tag_55\n      jump\t// in\n    tag_124:\n        /* \"#utility.yul\":3075:3080   */\n      dup2\n        /* \"#utility.yul\":3072:3107   */\n      eq\n        /* \"#utility.yul\":3062:3125   */\n      tag_125\n      jumpi\n        /* \"#utility.yul\":3121:3122   */\n      0x00\n        /* \"#utility.yul\":3118:3119   */\n      dup1\n        /* \"#utility.yul\":3111:3123   */\n      revert\n        /* \"#utility.yul\":3062:3125   */\n    tag_125:\n        /* \"#utility.yul\":3009:3131   */\n      pop\n      jump\t// out\n        /* \"#utility.yul\":3137:3276   */\n    tag_68:\n        /* \"#utility.yul\":3183:3188   */\n      0x00\n        /* \"#utility.yul\":3221:3227   */\n      dup2\n        /* \"#utility.yul\":3208:3228   */\n      calldataload\n        /* \"#utility.yul\":3199:3228   */\n      swap1\n      pop\n        /* \"#utility.yul\":3237:3270   */\n      tag_127\n        /* \"#utility.yul\":3264:3269   */\n      dup2\n        /* \"#utility.yul\":3237:3270   */\n      tag_67\n      jump\t// in\n    tag_127:\n        /* \"#utility.yul\":3137:3276   */\n      swap3\n      swap2\n      pop\n      pop\n      jump\t// out\n        /* \"#utility.yul\":3282:3611   */\n    tag_29:\n        /* \"#utility.yul\":3341:3347   */\n      0x00\n        /* \"#utility.yul\":3390:3392   */\n      0x20\n        /* \"#utility.yul\":3378:3387   */\n      dup3\n        /* \"#utility.yul\":3369:3376   */\n      dup5\n        /* \"#utility.yul\":3365:3388   */\n      sub\n        /* \"#utility.yul\":3361:3393   */\n      slt\n        /* \"#utility.yul\":3358:3477   */\n      iszero\n      tag_129\n      jumpi\n        /* \"#utility.yul\":3396:3475   */\n      tag_130\n      tag_65\n      jump\t// in\n    tag_130:\n        /* \"#utility.yul\":3358:3477   */\n    tag_129:\n        /* \"#utility.yul\":3516:3517   */\n      0x00\n        /* \"#utility.yul\":3541:3594   */\n      tag_131\n        /* \"#utility.yul\":3586:3593   */\n      dup5\n        /* \"#utility.yul\":3577:3583   */\n      dup3\n        /* \"#utility.yul\":3566:3575   */\n      dup6\n        /* \"#utility.yul\":3562:3584   */\n      add\n        /* \"#utility.yul\":3541:3594   */\n      tag_68\n      jump\t// in\n    tag_131:\n        /* \"#utility.yul\":3531:3594   */\n      swap2\n      pop\n        /* \"#utility.yul\":3487:3604   */\n      pop\n        /* \"#utility.yul\":3282:3611   */\n      swap3\n      swap2\n      pop\n      pop\n      jump\t// out\n        /* \"#utility.yul\":3617:3776   */\n    tag_69:\n        /* \"#utility.yul\":3757:3768   */\n      0x4e6f74206f776e65720000000000000000000000000000000000000000000000\n        /* \"#utility.yul\":3753:3754   */\n      0x00\n        /* \"#utility.yul\":3745:3751   */\n      dup3\n        /* \"#utility.yul\":3741:3755   */\n      add\n        /* \"#utility.yul\":3734:3769   */\n      mstore\n        /* \"#utility.yul\":3617:3776   */\n      pop\n      jump\t// out\n        /* \"#utility.yul\":3782:4147   */\n    tag_70:\n        /* \"#utility.yul\":3924:3927   */\n      0x00\n        /* \"#utility.yul\":3945:4011   */\n      tag_134\n        /* \"#utility.yul\":4009:4010   */\n      0x09\n        /* \"#utility.yul\":4004:4007   */\n      dup4\n        /* \"#utility.yul\":3945:4011   */\n      tag_60\n      jump\t// in\n    tag_134:\n        /* \"#utility.yul\":3938:4011   */\n      swap2\n      pop\n        /* \"#utility.yul\":4020:4113   */\n      tag_135\n        /* \"#utility.yul\":4109:4112   */\n      dup3\n        /* \"#utility.yul\":4020:4113   */\n      tag_69\n      jump\t// in\n    tag_135:\n        /* \"#utility.yul\":4138:4140   */\n      0x20\n        /* \"#utility.yul\":4133:4136   */\n      dup3\n        /* \"#utility.yul\":4129:4141   */\n      add\n        /* \"#utility.yul\":4122:4141   */\n      swap1\n      pop\n        /* \"#utility.yul\":3782:4147   */\n      swap2\n      swap1\n      pop\n      jump\t// out\n        /* \"#utility.yul\":4153:4572   */\n    tag_34:\n        /* \"#utility.yul\":4319:4323   */\n      0x00\n        /* \"#utility.yul\":4357:4359   */\n      0x20\n        /* \"#utility.yul\":4346:4355   */\n      dup3\n        /* \"#utility.yul\":4342:4360   */\n      add\n        /* \"#utility.yul\":4334:4360   */\n      swap1\n      pop\n        /* \"#utility.yul\":4406:4415   */\n      dup2\n        /* \"#utility.yul\":4400:4404   */\n      dup2\n        /* \"#utility.yul\":4396:4416   */\n      sub\n        /* \"#utility.yul\":4392:4393   */\n      0x00\n        /* \"#utility.yul\":4381:4390   */\n      dup4\n        /* \"#utility.yul\":4377:4394   */\n      add\n        /* \"#utility.yul\":4370:4417   */\n      mstore\n        /* \"#utility.yul\":4434:4565   */\n      tag_137\n        /* \"#utility.yul\":4560:4564   */\n      dup2\n        /* \"#utility.yul\":4434:4565   */\n      tag_70\n      jump\t// in\n    tag_137:\n        /* \"#utility.yul\":4426:4565   */\n      swap1\n      pop\n        /* \"#utility.yul\":4153:4572   */\n      swap2\n      swap1\n      pop\n      jump\t// out\n        /* \"#utility.yul\":4578:4758   */\n    tag_71:\n        /* \"#utility.yul\":4626:4703   */\n      0x4e487b7100000000000000000000000000000000000000000000000000000000\n        /* \"#utility.yul\":4623:4624   */\n      0x00\n        /* \"#utility.yul\":4616:4704   */\n      mstore\n        /* \"#utility.yul\":4723:4727   */\n      0x41\n        /* \"#utility.yul\":4720:4721   */\n      0x04\n        /* \"#utility.yul\":4713:4728   */\n      mstore\n        /* \"#utility.yul\":4747:4751   */\n      0x24\n        /* \"#utility.yul\":4744:4745   */\n      0x00\n        /* \"#utility.yul\":4737:4752   */\n      revert\n        /* \"#utility.yul\":4764:4944   */\n    tag_72:\n        /* \"#utility.yul\":4812:4889   */\n      0x4e487b7100000000000000000000000000000000000000000000000000000000\n        /* \"#utility.yul\":4809:4810   */\n      0x00\n        /* \"#utility.yul\":4802:4890   */\n      mstore\n        /* \"#utility.yul\":4909:4913   */\n      0x22\n        /* \"#utility.yul\":4906:4907   */\n      0x04\n        /* \"#utility.yul\":4899:4914   */\n      mstore\n        /* \"#utility.yul\":4933:4937   */\n      0x24\n        /* \"#utility.yul\":4930:4931   */\n      0x00\n        /* \"#utility.yul\":4923:4938   */\n      revert\n        /* \"#utility.yul\":4950:5270   */\n    tag_39:\n        /* \"#utility.yul\":4994:5000   */\n      0x00\n        /* \"#utility.yul\":5031:5032   */\n      0x02\n        /* \"#utility.yul\":5025:5029   */\n      dup3\n        /* \"#utility.yul\":5021:5033   */\n      div\n        /* \"#utility.yul\":5011:5033   */\n      swap1\n      pop\n        /* \"#utility.yul\":5078:5079   */\n      0x01\n        /* \"#utility.yul\":5072:5076   */\n      dup3\n        /* \"#utility.yul\":5068:5080   */\n      and\n        /* \"#utility.yul\":5099:5117   */\n      dup1\n        /* \"#utility.yul\":5089:5170   */\n      tag_141\n      jumpi\n        /* \"#utility.yul\":5155:5159   */\n      0x7f\n        /* \"#utility.yul\":5147:5153   */\n      dup3\n        /* \"#utility.yul\":5143:5160   */\n      and\n        /* \"#utility.yul\":5133:5160   */\n      swap2\n      pop\n        /* \"#utility.yul\":5089:5170   */\n    tag_141:\n        /* \"#utility.yul\":5217:5219   */\n      0x20\n        /* \"#utility.yul\":5209:5215   */\n      dup3\n        /* \"#utility.yul\":5206:5220   */\n      lt\n        /* \"#utility.yul\":5186:5204   */\n      dup2\n        /* \"#utility.yul\":5183:5221   */\n      sub\n        /* \"#utility.yul\":5180:5264   */\n      tag_142\n      jumpi\n        /* \"#utility.yul\":5236:5254   */\n      tag_143\n      tag_72\n      jump\t// in\n    tag_143:\n        /* \"#utility.yul\":5180:5264   */\n    tag_142:\n        /* \"#utility.yul\":5001:5270   */\n      pop\n        /* \"#utility.yul\":4950:5270   */\n      swap2\n      swap1\n      pop\n      jump\t// out\n        /* \"#utility.yul\":5276:5417   */\n    tag_73:\n        /* \"#utility.yul\":5325:5329   */\n      0x00\n        /* \"#utility.yul\":5348:5351   */\n      dup2\n        /* \"#utility.yul\":5340:5351   */\n      swap1\n      pop\n        /* \"#utility.yul\":5371:5374   */\n      dup2\n        /* \"#utility.yul\":5368:5369   */\n      0x00\n        /* \"#utility.yul\":5361:5375   */\n      mstore\n        /* \"#utility.yul\":5405:5409   */\n      0x20\n        /* \"#utility.yul\":5402:5403   */\n      0x00\n        /* \"#utility.yul\":5392:5410   */\n      keccak256\n        /* \"#utility.yul\":5384:5410   */\n      swap1\n      pop\n        /* \"#utility.yul\":5276:5417   */\n      swap2\n      swap1\n      pop\n      jump\t// out\n        /* \"#utility.yul\":5423:5516   */\n    tag_74:\n        /* \"#utility.yul\":5460:5466   */\n      0x00\n        /* \"#utility.yul\":5507:5509   */\n      0x20\n        /* \"#utility.yul\":5502:5504   */\n      0x1f\n        /* \"#utility.yul\":5495:5500   */\n      dup4\n        /* \"#utility.yul\":5491:5505   */\n      add\n        /* \"#utility.yul\":5487:5510   */\n      div\n        /* \"#utility.yul\":5477:5510   */\n      swap1\n      pop\n        /* \"#utility.yul\":5423:5516   */\n      swap2\n      swap1\n      pop\n      jump\t// out\n        /* \"#utility.yul\":5522:5629   */\n    tag_75:\n        /* \"#utility.yul\":5566:5574   */\n      0x00\n        /* \"#utility.yul\":5616:5621   */\n      dup3\n        /* \"#utility.yul\":5610:5614   */\n      dup3\n        /* \"#utility.yul\":5606:5622   */\n      shl\n        /* \"#utility.yul\":5585:5622   */\n      swap1\n      pop\n        /* \"#utility.yul\":5522:5629   */\n      swap3\n      swap2\n      pop\n      pop\n      jump\t// out\n        /* \"#utility.yul\":5635:6028   */\n    tag_76:\n        /* \"#utility.yul\":5704:5710   */\n      0x00\n        /* \"#utility.yul\":5754:5755   */\n      0x08\n        /* \"#utility.yul\":5742:5752   */\n      dup4\n        /* \"#utility.yul\":5738:5756   */\n      mul\n        /* \"#utility.yul\":5777:5874   */\n      tag_148\n        /* \"#utility.yul\":5807:5873   */\n      0xffffffffffffffffffffffffffffffffffffffffffffffffffffffffffffffff\n        /* \"#utility.yul\":5796:5805   */\n      dup3\n        /* \"#utility.yul\":5777:5874   */\n      tag_75\n      jump\t// in\n    tag_148:\n        /* \"#utility.yul\":5895:5934   */\n      tag_149\n        /* \"#utility.yul\":5925:5933   */\n      dup7\n        /* \"#utility.yul\":5914:5923   */\n      dup4\n        /* \"#utility.yul\":5895:5934   */\n      tag_75\n      jump\t// in\n    tag_149:\n        /* \"#utility.yul\":5883:5934   */\n      swap6\n      pop\n        /* \"#utility.yul\":5967:5971   */\n      dup1\n        /* \"#utility.yul\":5963:5972   */\n      not\n        /* \"#utility.yul\":5956:5961   */\n      dup5\n        /* \"#utility.yul\":5952:5973   */\n      and\n        /* \"#utility.yul\":5943:5973   */\n      swap4\n      pop\n        /* \"#utility.yul\":6016:6020   */\n      dup1\n        /* \"#utility.yul\":6006:6014   */\n      dup7\n        /* \"#utility.yul\":6002:6021   */\n      and\n        /* \"#utility.yul\":5995:6000   */\n      dup5\n        /* \"#utility.yul\":5992:6022   */\n      or\n        /* \"#utility.yul\":5982:6022   */\n      swap3\n      pop\n        /* \"#utility.yul\":5711:6028   */\n      pop\n      pop\n        /* \"#utility.yul\":5635:6028   */\n      swap4\n      swap3\n      pop\n      pop\n      pop\n      jump\t// out\n        /* \"#utility.yul\":6034:6111   */\n    tag_77:\n        /* \"#utility.yul\":6071:6078   */\n      0x00\n        /* \"#utility.yul\":6100:6105   */\n      dup2\n        /* \"#utility.yul\":6089:6105   */\n      swap1\n      pop\n        /* \"#utility.yul\":6034:6111   */\n      swap2\n      swap1\n      pop\n      jump\t// out\n        /* \"#utility.yul\":6117:6177   */\n    tag_78:\n        /* \"#utility.yul\":6145:6148   */\n      0x00\n        /* \"#utility.yul\":6166:6171   */\n      dup2\n        /* \"#utility.yul\":6159:6171   */\n      swap1\n      pop\n        /* \"#utility.yul\":6117:6177   */\n      swap2\n      swap1\n      pop\n      jump\t// out\n        /* \"#utility.yul\":6183:6325   */\n    tag_79:\n        /* \"#utility.yul\":6233:6242   */\n      0x00\n        /* \"#utility.yul\":6266:6319   */\n      tag_153\n        /* \"#utility.yul\":6284:6318   */\n      tag_154\n        /* \"#utility.yul\":6293:6317   */\n      tag_155\n        /* \"#utility.yul\":6311:6316   */\n      dup5\n        /* \"#utility.yul\":6293:6317   */\n      tag_77\n      jump\t// in\n    tag_155:\n        /* \"#utility.yul\":6284:6318   */\n      tag_78\n      jump\t// in\n    tag_154:\n        /* \"#utility.yul\":6266:6319   */\n      tag_77\n      jump\t// in\n    tag_153:\n        /* \"#utility.yul\":6253:6319   */\n      swap1\n      pop\n        /* \"#utility.yul\":6183:6325   */\n      swap2\n      swap1\n      pop\n      jump\t// out\n        /* \"#utility.yul\":6331:6406   */\n    tag_80:\n        /* \"#utility.yul\":6374:6377   */\n      0x00\n        /* \"#utility.yul\":6395:6400   */\n      dup2\n        /* \"#utility.yul\":6388:6400   */\n      swap1\n      pop\n        /* \"#utility.yul\":6331:6406   */\n      swap2\n      swap1\n      pop\n      jump\t// out\n        /* \"#utility.yul\":6412:6681   */\n    tag_81:\n        /* \"#utility.yul\":6522:6561   */\n      tag_158\n        /* \"#utility.yul\":6553:6560   */\n      dup4\n        /* \"#utility.yul\":6522:6561   */\n      tag_79\n      jump\t// in\n    tag_158:\n        /* \"#utility.yul\":6583:6674   */\n      tag_159\n        /* \"#utility.yul\":6632:6673   */\n      tag_160\n        /* \"#utility.yul\":6656:6672   */\n      dup3\n        /* \"#utility.yul\":6632:6673   */\n      tag_80\n      jump\t// in\n    tag_160:\n        /* \"#utility.yul\":6624:6630   */\n      dup5\n        /* \"#utility.yul\":6617:6621   */\n      dup5\n        /* \"#utility.yul\":6611:6622   */\n      sload\n        /* \"#utility.yul\":6583:6674   */\n      tag_76\n      jump\t// in\n    tag_159:\n        /* \"#utility.yul\":6577:6581   */\n      dup3\n        /* \"#utility.yul\":6570:6675   */\n      sstore\n        /* \"#utility.yul\":6488:6681   */\n      pop\n        /* \"#utility.yul\":6412:6681   */\n      pop\n      pop\n      pop\n      jump\t// out\n        /* \"#utility.yul\":6687:6760   */\n    tag_82:\n        /* \"#utility.yul\":6732:6735   */\n      0x00\n        /* \"#utility.yul\":6687:6760   */\n      swap1\n      jump\t// out\n        /* \"#utility.yul\":6766:6955   */\n    tag_83:\n        /* \"#utility.yul\":6843:6875   */\n      tag_163\n      tag_82\n      jump\t// in\n    tag_163:\n        /* \"#utility.yul\":6884:6949   */\n      tag_164\n        /* \"#utility.yul\":6942:6948   */\n      dup2\n        /* \"#utility.yul\":6934:6940   */\n      dup5\n        /* \"#utility.yul\":6928:6932   */\n      dup5\n        /* \"#utility.yul\":6884:6949   */\n      tag_81\n      jump\t// in\n    tag_164:\n        /* \"#utility.yul\":6819:6955   */\n      pop\n        /* \"#utility.yul\":6766:6955   */\n      pop\n      pop\n      jump\t// out\n        /* \"#utility.yul\":6961:7147   */\n    tag_84:\n        /* \"#utility.yul\":7021:7141   */\n    tag_166:\n        /* \"#utility.yul\":7038:7041   */\n      dup2\n        /* \"#utility.yul\":7031:7036   */\n      dup2\n        /* \"#utility.yul\":7028:7042   */\n      lt\n        /* \"#utility.yul\":7021:7141   */\n      iszero\n      tag_168\n      jumpi\n        /* \"#utility.yul\":7092:7131   */\n      tag_169\n        /* \"#utility.yul\":7129:7130   */\n      0x00\n        /* \"#utility.yul\":7122:7127   */\n      dup3\n        /* \"#utility.yul\":7092:7131   */\n      tag_83\n      jump\t// in\n    tag_169:\n        /* \"#utility.yul\":7065:7066   */\n      0x01\n        /* \"#utility.yul\":7058:7063   */\n      dup2\n        /* \"#utility.yul\":7054:7067   */\n      add\n        /* \"#utility.yul\":7045:7067   */\n      swap1\n      pop\n        /* \"#utility.yul\":7021:7141   */\n      jump(tag_166)\n    tag_168:\n        /* \"#utility.yul\":6961:7147   */\n      pop\n      pop\n      jump\t// out\n        /* \"#utility.yul\":7153:7696   */\n    tag_85:\n        /* \"#utility.yul\":7254:7256   */\n      0x1f\n        /* \"#utility.yul\":7249:7252   */\n      dup3\n        /* \"#utility.yul\":7246:7257   */\n      gt\n        /* \"#utility.yul\":7243:7689   */\n      iszero\n      tag_171\n      jumpi\n        /* \"#utility.yul\":7288:7326   */\n      tag_172\n        /* \"#utility.yul\":7320:7325   */\n      dup2\n        /* \"#utility.yul\":7288:7326   */\n      tag_73\n      jump\t// in\n    tag_172:\n        /* \"#utility.yul\":7372:7401   */\n      tag_173\n        /* \"#utility.yul\":7390:7400   */\n      dup5\n        /* \"#utility.yul\":7372:7401   */\n      tag_74\n      jump\t// in\n    tag_173:\n        /* \"#utility.yul\":7362:7370   */\n      dup2\n        /* \"#utility.yul\":7358:7402   */\n      add\n        /* \"#utility.yul\":7555:7557   */\n      0x20\n        /* \"#utility.yul\":7543:7553   */\n      dup6\n        /* \"#utility.yul\":7540:7558   */\n      lt\n        /* \"#utility.yul\":7537:7586   */\n      iszero\n      tag_174\n      jumpi\n        /* \"#utility.yul\":7576:7584   */\n      dup2\n        /* \"#utility.yul\":7561:7584   */\n      swap1\n      pop\n        /* \"#utility.yul\":7537:7586   */\n    tag_174:\n        /* \"#utility.yul\":7599:7679   */\n      tag_175\n        /* \"#utility.yul\":7655:7677   */\n      tag_176\n        /* \"#utility.yul\":7673:7676   */\n      dup6\n        /* \"#utility.yul\":7655:7677   */\n      tag_74\n      jump\t// in\n    tag_176:\n        /* \"#utility.yul\":7645:7653   */\n      dup4\n        /* \"#utility.yul\":7641:7678   */\n      add\n        /* \"#utility.yul\":7628:7639   */\n      dup3\n        /* \"#utility.yul\":7599:7679   */\n      tag_84\n      jump\t// in\n    tag_175:\n        /* \"#utility.yul\":7258:7689   */\n      pop\n      pop\n        /* \"#utility.yul\":7243:7689   */\n    tag_171:\n        /* \"#utility.yul\":7153:7696   */\n      pop\n      pop\n      pop\n      jump\t// out\n        /* \"#utility.yul\":7702:7819   */\n    tag_86:\n        /* \"#utility.yul\":7756:7764   */\n      0x00\n        /* \"#utility.yul\":7806:7811   */\n      dup3\n        /* \"#utility.yul\":7800:7804   */\n      dup3\n        /* \"#utility.yul\":7796:7812   */\n      shr\n        /* \"#utility.yul\":7775:7812   */\n      swap1\n      pop\n        /* \"#utility.yul\":7702:7819   */\n      swap3\n      swap2\n      pop\n      pop\n      jump\t// out\n        /* \"#utility.yul\":7825:7994   */\n    tag_87:\n        /* \"#utility.yul\":7869:7875   */\n      0x00\n        /* \"#utility.yul\":7902:7953   */\n      tag_179\n        /* \"#utility.yul\":7950:7951   */\n      0x00\n        /* \"#utility.yul\":7946:7952   */\n      not\n        /* \"#utility.yul\":7938:7943   */\n      dup5\n        /* \"#utility.yul\":7935:7936   */\n      0x08\n        /* \"#utility.yul\":7931:7944   */\n      mul\n        /* \"#utility.yul\":7902:7953   */\n      tag_86\n      jump\t// in\n    tag_179:\n        /* \"#utility.yul\":7898:7954   */\n      not\n        /* \"#utility.yul\":7983:7987   */\n      dup1\n        /* \"#utility.yul\":7977:7981   */\n      dup4\n        /* \"#utility.yul\":7973:7988   */\n      and\n        /* \"#utility.yul\":7963:7988   */\n      swap2\n      pop\n        /* \"#utility.yul\":7876:7994   */\n      pop\n        /* \"#utility.yul\":7825:7994   */\n      swap3\n      swap2\n      pop\n      pop\n      jump\t// out\n        /* \"#utility.yul\":7999:8294   */\n    tag_88:\n        /* \"#utility.yul\":8075:8079   */\n      0x00\n        /* \"#utility.yul\":8221:8250   */\n      tag_181\n        /* \"#utility.yul\":8246:8249   */\n      dup4\n        /* \"#utility.yul\":8240:8244   */\n      dup4\n        /* \"#utility.yul\":8221:8250   */\n      tag_87\n      jump\t// in\n    tag_181:\n        /* \"#utility.yul\":8213:8250   */\n      swap2\n      pop\n        /* \"#utility.yul\":8283:8286   */\n      dup3\n        /* \"#utility.yul\":8280:8281   */\n      0x02\n        /* \"#utility.yul\":8276:8287   */\n      mul\n        /* \"#utility.yul\":8270:8274   */\n      dup3\n        /* \"#utility.yul\":8267:8288   */\n      or\n        /* \"#utility.yul\":8259:8288   */\n      swap1\n      pop\n        /* \"#utility.yul\":7999:8294   */\n      swap3\n      swap2\n      pop\n      pop\n      jump\t// out\n        /* \"#utility.yul\":8299:9694   */\n    tag_37:\n        /* \"#utility.yul\":8416:8453   */\n      tag_183\n        /* \"#utility.yul\":8449:8452   */\n      dup3\n        /* \"#utility.yul\":8416:8453   */\n      tag_59\n      jump\t// in\n    tag_183:\n        /* \"#utility.yul\":8518:8536   */\n      0xffffffffffffffff\n        /* \"#utility.yul\":8510:8516   */\n      dup2\n        /* \"#utility.yul\":8507:8537   */\n      gt\n        /* \"#utility.yul\":8504:8560   */\n      iszero\n      tag_184\n      jumpi\n        /* \"#utility.yul\":8540:8558   */\n      tag_185\n      tag_71\n      jump\t// in\n    tag_185:\n        /* \"#utility.yul\":8504:8560   */\n    tag_184:\n        /* \"#utility.yul\":8584:8622   */\n      tag_186\n        /* \"#utility.yul\":8616:8620   */\n      dup3\n        /* \"#utility.yul\":8610:8621   */\n      sload\n        /* \"#utility.yul\":8584:8622   */\n      tag_39\n      jump\t// in\n    tag_186:\n        /* \"#utility.yul\":8669:8736   */\n      tag_187\n        /* \"#utility.yul\":8729:8735   */\n      dup3\n        /* \"#utility.yul\":8721:8727   */\n      dup3\n        /* \"#utility.yul\":8715:8719   */\n      dup6\n        /* \"#utility.yul\":8669:8736   */\n      tag_85\n      jump\t// in\n    tag_187:\n        /* \"#utility.yul\":8763:8764   */\n      0x00\n        /* \"#utility.yul\":8787:8791   */\n      0x20\n        /* \"#utility.yul\":8774:8791   */\n      swap1\n      pop\n        /* \"#utility.yul\":8819:8821   */\n      0x1f\n        /* \"#utility.yul\":8811:8817   */\n      dup4\n        /* \"#utility.yul\":8808:8822   */\n      gt\n        /* \"#utility.yul\":8836:8837   */\n      0x01\n        /* \"#utility.yul\":8831:9449   */\n      dup2\n      eq\n      tag_189\n      jumpi\n        /* \"#utility.yul\":9493:9494   */\n      0x00\n        /* \"#utility.yul\":9510:9516   */\n      dup5\n        /* \"#utility.yul\":9507:9584   */\n      iszero\n      tag_190\n      jumpi\n        /* \"#utility.yul\":9559:9568   */\n      dup3\n        /* \"#utility.yul\":9554:9557   */\n      dup8\n        /* \"#utility.yul\":9550:9569   */\n      add\n        /* \"#utility.yul\":9544:9570   */\n      mload\n        /* \"#utility.yul\":9535:9570   */\n      swap1\n      pop\n        /* \"#utility.yul\":9507:9584   */\n    tag_190:\n        /* \"#utility.yul\":9610:9677   */\n      tag_191\n        /* \"#utility.yul\":9670:9676   */\n      dup6\n        /* \"#utility.yul\":9663:9668   */\n      dup3\n        /* \"#utility.yul\":9610:9677   */\n      tag_88\n      jump\t// in\n    tag_191:\n        /* \"#utility.yul\":9604:9608   */\n      dup7\n        /* \"#utility.yul\":9597:9678   */\n      sstore\n        /* \"#utility.yul\":9466:9688   */\n      pop\n        /* \"#utility.yul\":8801:9688   */\n      jump(tag_188)\n        /* \"#utility.yul\":8831:9449   */\n    tag_189:\n        /* \"#utility.yul\":8883:8887   */\n      0x1f\n        /* \"#utility.yul\":8879:8888   */\n      not\n        /* \"#utility.yul\":8871:8877   */\n      dup5\n        /* \"#utility.yul\":8867:8889   */\n      and\n        /* \"#utility.yul\":8917:8954   */\n      tag_192\n        /* \"#utility.yul\":8949:8953   */\n      dup7\n        /* \"#utility.yul\":8917:8954   */\n      tag_73\n      jump\t// in\n    tag_192:\n        /* \"#utility.yul\":8976:8977   */\n      0x00\n        /* \"#utility.yul\":8990:9198   */\n    tag_193:\n        /* \"#utility.yul\":9004:9011   */\n      dup3\n        /* \"#utility.yul\":9001:9002   */\n      dup2\n        /* \"#utility.yul\":8998:9012   */\n      lt\n        /* \"#utility.yul\":8990:9198   */\n      iszero\n      tag_195\n      jumpi\n        /* \"#utility.yul\":9083:9092   */\n      dup5\n        /* \"#utility.yul\":9078:9081   */\n      dup10\n        /* \"#utility.yul\":9074:9093   */\n      add\n        /* \"#utility.yul\":9068:9094   */\n      mload\n        /* \"#utility.yul\":9060:9066   */\n      dup3\n        /* \"#utility.yul\":9053:9095   */\n      sstore\n        /* \"#utility.yul\":9134:9135   */\n      0x01\n        /* \"#utility.yul\":9126:9132   */\n      dup3\n        /* \"#utility.yul\":9122:9136   */\n      add\n        /* \"#utility.yul\":9112:9136   */\n      swap2\n      pop\n        /* \"#utility.yul\":9181:9183   */\n      0x20\n        /* \"#utility.yul\":9170:9179   */\n      dup6\n        /* \"#utility.yul\":9166:9184   */\n      add\n        /* \"#utility.yul\":9153:9184   */\n      swap5\n      pop\n        /* \"#utility.yul\":9027:9031   */\n      0x20\n        /* \"#utility.yul\":9024:9025   */\n      dup2\n        /* \"#utility.yul\":9020:9032   */\n      add\n        /* \"#utility.yul\":9015:9032   */\n      swap1\n      pop\n        /* \"#utility.yul\":8990:9198   */\n      jump(tag_193)\n    tag_195:\n        /* \"#utility.yul\":9226:9232   */\n      dup7\n        /* \"#utility.yul\":9217:9224   */\n      dup4\n        /* \"#utility.yul\":9214:9233   */\n      lt\n        /* \"#utility.yul\":9211:9390   */\n      iszero\n      tag_196\n      jumpi\n        /* \"#utility.yul\":9284:9293   */\n      dup5\n        /* \"#utility.yul\":9279:9282   */\n      dup10\n        /* \"#utility.yul\":9275:9294   */\n      add\n        /* \"#utility.yul\":9269:9295   */\n      mload\n        /* \"#utility.yul\":9327:9375   */\n      tag_197\n        /* \"#utility.yul\":9369:9373   */\n      0x1f\n        /* \"#utility.yul\":9361:9367   */\n      dup10\n        /* \"#utility.yul\":9357:9374   */\n      and\n        /* \"#utility.yul\":9346:9355   */\n      dup3\n        /* \"#utility.yul\":9327:9375   */\n      tag_87\n      jump\t// in\n    tag_197:\n        /* \"#utility.yul\":9319:9325   */\n      dup4\n        /* \"#utility.yul\":9312:9376   */\n      sstore\n        /* \"#utility.yul\":9234:9390   */\n      pop\n        /* \"#utility.yul\":9211:9390   */\n    tag_196:\n        /* \"#utility.yul\":9436:9437   */\n      0x01\n        /* \"#utility.yul\":9432:9433   */\n      0x02\n        /* \"#utility.yul\":9424:9430   */\n      dup9\n        /* \"#utility.yul\":9420:9434   */\n      mul\n        /* \"#utility.yul\":9416:9438   */\n      add\n        /* \"#utility.yul\":9410:9414   */\n      dup9\n        /* \"#utility.yul\":9403:9439   */\n      sstore\n        /* \"#utility.yul\":8838:9449   */\n      pop\n      pop\n      pop\n        /* \"#utility.yul\":8801:9688   */\n    tag_188:\n      pop\n        /* \"#utility.yul\":8391:9694   */\n      pop\n      pop\n      pop\n        /* \"#utility.yul\":8299:9694   */\n      pop\n      pop\n      jump\t// out\n        /* \"#utility.yul\":9700:9865   */\n    tag_89:\n        /* \"#utility.yul\":9840:9857   */\n      0x496e76616c696420616464726573730000000000000000000000000000000000\n        /* \"#utility.yul\":9836:9837   */\n      0x00\n        /* \"#utility.yul\":9828:9834   */\n      dup3\n        /* \"#utility.yul\":9824:9838   */\n      add\n        /* \"#utility.yul\":9817:9858   */\n      mstore\n        /* \"#utility.yul\":9700:9865   */\n      pop\n      jump\t// out\n        /* \"#utility.yul\":9871:10237   */\n    tag_90:\n        /* \"#utility.yul\":10013:10016   */\n      0x00\n        /* \"#utility.yul\":10034:10101   */\n      tag_200\n        /* \"#utility.yul\":10098:10100   */\n      0x0f\n        /* \"#utility.yul\":10093:10096   */\n      dup4\n        /* \"#utility.yul\":10034:10101   */\n      tag_60\n      jump\t// in\n    tag_200:\n        /* \"#utility.yul\":10027:10101   */\n      swap2\n      pop\n        /* \"#utility.yul\":10110:10203   */\n      tag_201\n        /* \"#utility.yul\":10199:10202   */\n      dup3\n        /* \"#utility.yul\":10110:10203   */\n      tag_89\n      jump\t// in\n    tag_201:\n        /* \"#utility.yul\":10228:10230   */\n      0x20\n        /* \"#utility.yul\":10223:10226   */\n      dup3\n        /* \"#utility.yul\":10219:10231   */\n      add\n        /* \"#utility.yul\":10212:10231   */\n      swap1\n      pop\n        /* \"#utility.yul\":9871:10237   */\n      swap2\n      swap1\n      pop\n      jump\t// out\n        /* \"#utility.yul\":10243:10662   */\n    tag_50:\n        /* \"#utility.yul\":10409:10413   */\n      0x00\n        /* \"#utility.yul\":10447:10449   */\n      0x20\n        /* \"#utility.yul\":10436:10445   */\n      dup3\n        /* \"#utility.yul\":10432:10450   */\n      add\n        /* \"#utility.yul\":10424:10450   */\n      swap1\n      pop\n        /* \"#utility.yul\":10496:10505   */\n      dup2\n        /* \"#utility.yul\":10490:10494   */\n      dup2\n        /* \"#utility.yul\":10486:10506   */\n      sub\n        /* \"#utility.yul\":10482:10483   */\n      0x00\n        /* \"#utility.yul\":10471:10480   */\n      dup4\n        /* \"#utility.yul\":10467:10484   */\n      add\n        /* \"#utility.yul\":10460:10507   */\n      mstore\n        /* \"#utility.yul\":10524:10655   */\n      tag_203\n        /* \"#utility.yul\":10650:10654   */\n      dup2\n        /* \"#utility.yul\":10524:10655   */\n      tag_90\n      jump\t// in\n    tag_203:\n        /* \"#utility.yul\":10516:10655   */\n      swap1\n      pop\n        /* \"#utility.yul\":10243:10662   */\n      swap2\n      swap1\n      pop\n      jump\t// out\n\n    auxdata: 0xa26469706673582212206008edc3db7ed934fd12b06321348e1c86ca317be29e2b3bae03f42d28c5a3e864736f6c634300081a0033\n}\n",
				"bytecode": {
					"linkReferences": {},
					"object": "6080604052600a6001553480156013575f80fd5b50335f806101000a81548173ffffffffffffffffffffffffffffffffffffffff021916908373ffffffffffffffffffffffffffffffffffffffff160217905550610986806100605f395ff3fe608060405234801561000f575f80fd5b5060043610610060575f3560e01c80630c55699c146100645780638da5cb5b14610082578063bdea6938146100a0578063cf309012146100aa578063d73d2361146100c8578063e0e3671c146100e6575b5f80fd5b61006c610102565b60405161007991906103f4565b60405180910390f35b61008a610108565b604051610097919061044c565b60405180910390f35b6100a861012b565b005b6100b26101ff565b6040516100bf919061047f565b60405180910390f35b6100d0610211565b6040516100dd9190610508565b60405180910390f35b61010060048036038101906100fb9190610556565b61029d565b005b60015481565b5f8054906101000a900473ffffffffffffffffffffffffffffffffffffffff1681565b5f8054906101000a900473ffffffffffffffffffffffffffffffffffffffff1673ffffffffffffffffffffffffffffffffffffffff163373ffffffffffffffffffffffffffffffffffffffff16146101b8576040517f08c379a00000000000000000000000000000000000000000000000000000000081526004016101af906105cb565b60405180910390fd5b6040518060400160405280601a81526020017f546869732069732074686520736563726574206d657373616765000000000000815250600390816101fc9190610819565b50565b60025f9054906101000a900460ff1681565b6003805461021e90610643565b80601f016020809104026020016040519081016040528092919081815260200182805461024a90610643565b80156102955780601f1061026c57610100808354040283529160200191610295565b820191905f5260205f20905b81548152906001019060200180831161027857829003601f168201915b505050505081565b5f8054906101000a900473ffffffffffffffffffffffffffffffffffffffff1673ffffffffffffffffffffffffffffffffffffffff163373ffffffffffffffffffffffffffffffffffffffff161461032a576040517f08c379a0000000000000000000000000000000000000000000000000000000008152600401610321906105cb565b60405180910390fd5b805f73ffffffffffffffffffffffffffffffffffffffff168173ffffffffffffffffffffffffffffffffffffffff1603610399576040517f08c379a000000000000000000000000000000000000000000000000000000000815260040161039090610932565b60405180910390fd5b815f806101000a81548173ffffffffffffffffffffffffffffffffffffffff021916908373ffffffffffffffffffffffffffffffffffffffff1602179055505050565b5f819050919050565b6103ee816103dc565b82525050565b5f6020820190506104075f8301846103e5565b92915050565b5f73ffffffffffffffffffffffffffffffffffffffff82169050919050565b5f6104368261040d565b9050919050565b6104468161042c565b82525050565b5f60208201905061045f5f83018461043d565b92915050565b5f8115159050919050565b61047981610465565b82525050565b5f6020820190506104925f830184610470565b92915050565b5f81519050919050565b5f82825260208201905092915050565b8281835e5f83830152505050565b5f601f19601f8301169050919050565b5f6104da82610498565b6104e481856104a2565b93506104f48185602086016104b2565b6104fd816104c0565b840191505092915050565b5f6020820190508181035f83015261052081846104d0565b905092915050565b5f80fd5b6105358161042c565b811461053f575f80fd5b50565b5f813590506105508161052c565b92915050565b5f6020828403121561056b5761056a610528565b5b5f61057884828501610542565b91505092915050565b7f4e6f74206f776e657200000000000000000000000000000000000000000000005f82015250565b5f6105b56009836104a2565b91506105c082610581565b602082019050919050565b5f6020820190508181035f8301526105e2816105a9565b9050919050565b7f4e487b71000000000000000000000000000000000000000000000000000000005f52604160045260245ffd5b7f4e487b71000000000000000000000000000000000000000000000000000000005f52602260045260245ffd5b5f600282049050600182168061065a57607f821691505b60208210810361066d5761066c610616565b5b50919050565b5f819050815f5260205f209050919050565b5f6020601f8301049050919050565b5f82821b905092915050565b5f600883026106cf7fffffffffffffffffffffffffffffffffffffffffffffffffffffffffffffffff82610694565b6106d98683610694565b95508019841693508086168417925050509392505050565b5f819050919050565b5f819050919050565b5f61071d610718610713846106f1565b6106fa565b6106f1565b9050919050565b5f819050919050565b61073683610703565b61074a61074282610724565b8484546106a0565b825550505050565b5f90565b61075e610752565b61076981848461072d565b505050565b5b8181101561078c576107815f82610756565b60018101905061076f565b5050565b601f8211156107d1576107a281610673565b6107ab84610685565b810160208510156107ba578190505b6107ce6107c685610685565b83018261076e565b50505b505050565b5f82821c905092915050565b5f6107f15f19846008026107d6565b1980831691505092915050565b5f61080983836107e2565b9150826002028217905092915050565b61082282610498565b67ffffffffffffffff81111561083b5761083a6105e9565b5b6108458254610643565b610850828285610790565b5f60209050601f831160018114610881575f841561086f578287015190505b61087985826107fe565b8655506108e0565b601f19841661088f86610673565b5f5b828110156108b657848901518255600182019150602085019450602081019050610891565b868310156108d357848901516108cf601f8916826107e2565b8355505b6001600288020188555050505b505050505050565b7f496e76616c6964206164647265737300000000000000000000000000000000005f82015250565b5f61091c600f836104a2565b9150610927826108e8565b602082019050919050565b5f6020820190508181035f83015261094981610910565b905091905056fea26469706673582212206008edc3db7ed934fd12b06321348e1c86ca317be29e2b3bae03f42d28c5a3e864736f6c634300081a0033",
					"opcodes": "PUSH1 0x80 PUSH1 0x40 MSTORE PUSH1 0xA PUSH1 0x1 SSTORE CALLVALUE DUP1 ISZERO PUSH1 0x13 JUMPI PUSH0 DUP1 REVERT JUMPDEST POP CALLER PUSH0 DUP1 PUSH2 0x100 EXP DUP2 SLOAD DUP2 PUSH20 0xFFFFFFFFFFFFFFFFFFFFFFFFFFFFFFFFFFFFFFFF MUL NOT AND SWAP1 DUP4 PUSH20 0xFFFFFFFFFFFFFFFFFFFFFFFFFFFFFFFFFFFFFFFF AND MUL OR SWAP1 SSTORE POP PUSH2 0x986 DUP1 PUSH2 0x60 PUSH0 CODECOPY PUSH0 RETURN INVALID PUSH1 0x80 PUSH1 0x40 MSTORE CALLVALUE DUP1 ISZERO PUSH2 0xF JUMPI PUSH0 DUP1 REVERT JUMPDEST POP PUSH1 0x4 CALLDATASIZE LT PUSH2 0x60 JUMPI PUSH0 CALLDATALOAD PUSH1 0xE0 SHR DUP1 PUSH4 0xC55699C EQ PUSH2 0x64 JUMPI DUP1 PUSH4 0x8DA5CB5B EQ PUSH2 0x82 JUMPI DUP1 PUSH4 0xBDEA6938 EQ PUSH2 0xA0 JUMPI DUP1 PUSH4 0xCF309012 EQ PUSH2 0xAA JUMPI DUP1 PUSH4 0xD73D2361 EQ PUSH2 0xC8 JUMPI DUP1 PUSH4 0xE0E3671C EQ PUSH2 0xE6 JUMPI JUMPDEST PUSH0 DUP1 REVERT JUMPDEST PUSH2 0x6C PUSH2 0x102 JUMP JUMPDEST PUSH1 0x40 MLOAD PUSH2 0x79 SWAP2 SWAP1 PUSH2 0x3F4 JUMP JUMPDEST PUSH1 0x40 MLOAD DUP1 SWAP2 SUB SWAP1 RETURN JUMPDEST PUSH2 0x8A PUSH2 0x108 JUMP JUMPDEST PUSH1 0x40 MLOAD PUSH2 0x97 SWAP2 SWAP1 PUSH2 0x44C JUMP JUMPDEST PUSH1 0x40 MLOAD DUP1 SWAP2 SUB SWAP1 RETURN JUMPDEST PUSH2 0xA8 PUSH2 0x12B JUMP JUMPDEST STOP JUMPDEST PUSH2 0xB2 PUSH2 0x1FF JUMP JUMPDEST PUSH1 0x40 MLOAD PUSH2 0xBF SWAP2 SWAP1 PUSH2 0x47F JUMP JUMPDEST PUSH1 0x40 MLOAD DUP1 SWAP2 SUB SWAP1 RETURN JUMPDEST PUSH2 0xD0 PUSH2 0x211 JUMP JUMPDEST PUSH1 0x40 MLOAD PUSH2 0xDD SWAP2 SWAP1 PUSH2 0x508 JUMP JUMPDEST PUSH1 0x40 MLOAD DUP1 SWAP2 SUB SWAP1 RETURN JUMPDEST PUSH2 0x100 PUSH1 0x4 DUP1 CALLDATASIZE SUB DUP2 ADD SWAP1 PUSH2 0xFB SWAP2 SWAP1 PUSH2 0x556 JUMP JUMPDEST PUSH2 0x29D JUMP JUMPDEST STOP JUMPDEST PUSH1 0x1 SLOAD DUP2 JUMP JUMPDEST PUSH0 DUP1 SLOAD SWAP1 PUSH2 0x100 EXP SWAP1 DIV PUSH20 0xFFFFFFFFFFFFFFFFFFFFFFFFFFFFFFFFFFFFFFFF AND DUP2 JUMP JUMPDEST PUSH0 DUP1 SLOAD SWAP1 PUSH2 0x100 EXP SWAP1 DIV PUSH20 0xFFFFFFFFFFFFFFFFFFFFFFFFFFFFFFFFFFFFFFFF AND PUSH20 0xFFFFFFFFFFFFFFFFFFFFFFFFFFFFFFFFFFFFFFFF AND CALLER PUSH20 0xFFFFFFFFFFFFFFFFFFFFFFFFFFFFFFFFFFFFFFFF AND EQ PUSH2 0x1B8 JUMPI PUSH1 0x40 MLOAD PUSH32 0x8C379A000000000000000000000000000000000000000000000000000000000 DUP2 MSTORE PUSH1 0x4 ADD PUSH2 0x1AF SWAP1 PUSH2 0x5CB JUMP JUMPDEST PUSH1 0x40 MLOAD DUP1 SWAP2 SUB SWAP1 REVERT JUMPDEST PUSH1 0x40 MLOAD DUP1 PUSH1 0x40 ADD PUSH1 0x40 MSTORE DUP1 PUSH1 0x1A DUP2 MSTORE PUSH1 0x20 ADD PUSH32 0x546869732069732074686520736563726574206D657373616765000000000000 DUP2 MSTORE POP PUSH1 0x3 SWAP1 DUP2 PUSH2 0x1FC SWAP2 SWAP1 PUSH2 0x819 JUMP JUMPDEST POP JUMP JUMPDEST PUSH1 0x2 PUSH0 SWAP1 SLOAD SWAP1 PUSH2 0x100 EXP SWAP1 DIV PUSH1 0xFF AND DUP2 JUMP JUMPDEST PUSH1 0x3 DUP1 SLOAD PUSH2 0x21E SWAP1 PUSH2 0x643 JUMP JUMPDEST DUP1 PUSH1 0x1F ADD PUSH1 0x20 DUP1 SWAP2 DIV MUL PUSH1 0x20 ADD PUSH1 0x40 MLOAD SWAP1 DUP2 ADD PUSH1 0x40 MSTORE DUP1 SWAP3 SWAP2 SWAP1 DUP2 DUP2 MSTORE PUSH1 0x20 ADD DUP3 DUP1 SLOAD PUSH2 0x24A SWAP1 PUSH2 0x643 JUMP JUMPDEST DUP1 ISZERO PUSH2 0x295 JUMPI DUP1 PUSH1 0x1F LT PUSH2 0x26C JUMPI PUSH2 0x100 DUP1 DUP4 SLOAD DIV MUL DUP4 MSTORE SWAP2 PUSH1 0x20 ADD SWAP2 PUSH2 0x295 JUMP JUMPDEST DUP3 ADD SWAP2 SWAP1 PUSH0 MSTORE PUSH1 0x20 PUSH0 KECCAK256 SWAP1 JUMPDEST DUP2 SLOAD DUP2 MSTORE SWAP1 PUSH1 0x1 ADD SWAP1 PUSH1 0x20 ADD DUP1 DUP4 GT PUSH2 0x278 JUMPI DUP3 SWAP1 SUB PUSH1 0x1F AND DUP3 ADD SWAP2 JUMPDEST POP POP POP POP POP DUP2 JUMP JUMPDEST PUSH0 DUP1 SLOAD SWAP1 PUSH2 0x100 EXP SWAP1 DIV PUSH20 0xFFFFFFFFFFFFFFFFFFFFFFFFFFFFFFFFFFFFFFFF AND PUSH20 0xFFFFFFFFFFFFFFFFFFFFFFFFFFFFFFFFFFFFFFFF AND CALLER PUSH20 0xFFFFFFFFFFFFFFFFFFFFFFFFFFFFFFFFFFFFFFFF AND EQ PUSH2 0x32A JUMPI PUSH1 0x40 MLOAD PUSH32 0x8C379A000000000000000000000000000000000000000000000000000000000 DUP2 MSTORE PUSH1 0x4 ADD PUSH2 0x321 SWAP1 PUSH2 0x5CB JUMP JUMPDEST PUSH1 0x40 MLOAD DUP1 SWAP2 SUB SWAP1 REVERT JUMPDEST DUP1 PUSH0 PUSH20 0xFFFFFFFFFFFFFFFFFFFFFFFFFFFFFFFFFFFFFFFF AND DUP2 PUSH20 0xFFFFFFFFFFFFFFFFFFFFFFFFFFFFFFFFFFFFFFFF AND SUB PUSH2 0x399 JUMPI PUSH1 0x40 MLOAD PUSH32 0x8C379A000000000000000000000000000000000000000000000000000000000 DUP2 MSTORE PUSH1 0x4 ADD PUSH2 0x390 SWAP1 PUSH2 0x932 JUMP JUMPDEST PUSH1 0x40 MLOAD DUP1 SWAP2 SUB SWAP1 REVERT JUMPDEST DUP2 PUSH0 DUP1 PUSH2 0x100 EXP DUP2 SLOAD DUP2 PUSH20 0xFFFFFFFFFFFFFFFFFFFFFFFFFFFFFFFFFFFFFFFF MUL NOT AND SWAP1 DUP4 PUSH20 0xFFFFFFFFFFFFFFFFFFFFFFFFFFFFFFFFFFFFFFFF AND MUL OR SWAP1 SSTORE POP POP POP JUMP JUMPDEST PUSH0 DUP2 SWAP1 POP SWAP2 SWAP1 POP JUMP JUMPDEST PUSH2 0x3EE DUP2 PUSH2 0x3DC JUMP JUMPDEST DUP3 MSTORE POP POP JUMP JUMPDEST PUSH0 PUSH1 0x20 DUP3 ADD SWAP1 POP PUSH2 0x407 PUSH0 DUP4 ADD DUP5 PUSH2 0x3E5 JUMP JUMPDEST SWAP3 SWAP2 POP POP JUMP JUMPDEST PUSH0 PUSH20 0xFFFFFFFFFFFFFFFFFFFFFFFFFFFFFFFFFFFFFFFF DUP3 AND SWAP1 POP SWAP2 SWAP1 POP JUMP JUMPDEST PUSH0 PUSH2 0x436 DUP3 PUSH2 0x40D JUMP JUMPDEST SWAP1 POP SWAP2 SWAP1 POP JUMP JUMPDEST PUSH2 0x446 DUP2 PUSH2 0x42C JUMP JUMPDEST DUP3 MSTORE POP POP JUMP JUMPDEST PUSH0 PUSH1 0x20 DUP3 ADD SWAP1 POP PUSH2 0x45F PUSH0 DUP4 ADD DUP5 PUSH2 0x43D JUMP JUMPDEST SWAP3 SWAP2 POP POP JUMP JUMPDEST PUSH0 DUP2 ISZERO ISZERO SWAP1 POP SWAP2 SWAP1 POP JUMP JUMPDEST PUSH2 0x479 DUP2 PUSH2 0x465 JUMP JUMPDEST DUP3 MSTORE POP POP JUMP JUMPDEST PUSH0 PUSH1 0x20 DUP3 ADD SWAP1 POP PUSH2 0x492 PUSH0 DUP4 ADD DUP5 PUSH2 0x470 JUMP JUMPDEST SWAP3 SWAP2 POP POP JUMP JUMPDEST PUSH0 DUP2 MLOAD SWAP1 POP SWAP2 SWAP1 POP JUMP JUMPDEST PUSH0 DUP3 DUP3 MSTORE PUSH1 0x20 DUP3 ADD SWAP1 POP SWAP3 SWAP2 POP POP JUMP JUMPDEST DUP3 DUP2 DUP4 MCOPY PUSH0 DUP4 DUP4 ADD MSTORE POP POP POP JUMP JUMPDEST PUSH0 PUSH1 0x1F NOT PUSH1 0x1F DUP4 ADD AND SWAP1 POP SWAP2 SWAP1 POP JUMP JUMPDEST PUSH0 PUSH2 0x4DA DUP3 PUSH2 0x498 JUMP JUMPDEST PUSH2 0x4E4 DUP2 DUP6 PUSH2 0x4A2 JUMP JUMPDEST SWAP4 POP PUSH2 0x4F4 DUP2 DUP6 PUSH1 0x20 DUP7 ADD PUSH2 0x4B2 JUMP JUMPDEST PUSH2 0x4FD DUP2 PUSH2 0x4C0 JUMP JUMPDEST DUP5 ADD SWAP2 POP POP SWAP3 SWAP2 POP POP JUMP JUMPDEST PUSH0 PUSH1 0x20 DUP3 ADD SWAP1 POP DUP2 DUP2 SUB PUSH0 DUP4 ADD MSTORE PUSH2 0x520 DUP2 DUP5 PUSH2 0x4D0 JUMP JUMPDEST SWAP1 POP SWAP3 SWAP2 POP POP JUMP JUMPDEST PUSH0 DUP1 REVERT JUMPDEST PUSH2 0x535 DUP2 PUSH2 0x42C JUMP JUMPDEST DUP2 EQ PUSH2 0x53F JUMPI PUSH0 DUP1 REVERT JUMPDEST POP JUMP JUMPDEST PUSH0 DUP2 CALLDATALOAD SWAP1 POP PUSH2 0x550 DUP2 PUSH2 0x52C JUMP JUMPDEST SWAP3 SWAP2 POP POP JUMP JUMPDEST PUSH0 PUSH1 0x20 DUP3 DUP5 SUB SLT ISZERO PUSH2 0x56B JUMPI PUSH2 0x56A PUSH2 0x528 JUMP JUMPDEST JUMPDEST PUSH0 PUSH2 0x578 DUP5 DUP3 DUP6 ADD PUSH2 0x542 JUMP JUMPDEST SWAP2 POP POP SWAP3 SWAP2 POP POP JUMP JUMPDEST PUSH32 0x4E6F74206F776E65720000000000000000000000000000000000000000000000 PUSH0 DUP3 ADD MSTORE POP JUMP JUMPDEST PUSH0 PUSH2 0x5B5 PUSH1 0x9 DUP4 PUSH2 0x4A2 JUMP JUMPDEST SWAP2 POP PUSH2 0x5C0 DUP3 PUSH2 0x581 JUMP JUMPDEST PUSH1 0x20 DUP3 ADD SWAP1 POP SWAP2 SWAP1 POP JUMP JUMPDEST PUSH0 PUSH1 0x20 DUP3 ADD SWAP1 POP DUP2 DUP2 SUB PUSH0 DUP4 ADD MSTORE PUSH2 0x5E2 DUP2 PUSH2 0x5A9 JUMP JUMPDEST SWAP1 POP SWAP2 SWAP1 POP JUMP JUMPDEST PUSH32 0x4E487B7100000000000000000000000000000000000000000000000000000000 PUSH0 MSTORE PUSH1 0x41 PUSH1 0x4 MSTORE PUSH1 0x24 PUSH0 REVERT JUMPDEST PUSH32 0x4E487B7100000000000000000000000000000000000000000000000000000000 PUSH0 MSTORE PUSH1 0x22 PUSH1 0x4 MSTORE PUSH1 0x24 PUSH0 REVERT JUMPDEST PUSH0 PUSH1 0x2 DUP3 DIV SWAP1 POP PUSH1 0x1 DUP3 AND DUP1 PUSH2 0x65A JUMPI PUSH1 0x7F DUP3 AND SWAP2 POP JUMPDEST PUSH1 0x20 DUP3 LT DUP2 SUB PUSH2 0x66D JUMPI PUSH2 0x66C PUSH2 0x616 JUMP JUMPDEST JUMPDEST POP SWAP2 SWAP1 POP JUMP JUMPDEST PUSH0 DUP2 SWAP1 POP DUP2 PUSH0 MSTORE PUSH1 0x20 PUSH0 KECCAK256 SWAP1 POP SWAP2 SWAP1 POP JUMP JUMPDEST PUSH0 PUSH1 0x20 PUSH1 0x1F DUP4 ADD DIV SWAP1 POP SWAP2 SWAP1 POP JUMP JUMPDEST PUSH0 DUP3 DUP3 SHL SWAP1 POP SWAP3 SWAP2 POP POP JUMP JUMPDEST PUSH0 PUSH1 0x8 DUP4 MUL PUSH2 0x6CF PUSH32 0xFFFFFFFFFFFFFFFFFFFFFFFFFFFFFFFFFFFFFFFFFFFFFFFFFFFFFFFFFFFFFFFF DUP3 PUSH2 0x694 JUMP JUMPDEST PUSH2 0x6D9 DUP7 DUP4 PUSH2 0x694 JUMP JUMPDEST SWAP6 POP DUP1 NOT DUP5 AND SWAP4 POP DUP1 DUP7 AND DUP5 OR SWAP3 POP POP POP SWAP4 SWAP3 POP POP POP JUMP JUMPDEST PUSH0 DUP2 SWAP1 POP SWAP2 SWAP1 POP JUMP JUMPDEST PUSH0 DUP2 SWAP1 POP SWAP2 SWAP1 POP JUMP JUMPDEST PUSH0 PUSH2 0x71D PUSH2 0x718 PUSH2 0x713 DUP5 PUSH2 0x6F1 JUMP JUMPDEST PUSH2 0x6FA JUMP JUMPDEST PUSH2 0x6F1 JUMP JUMPDEST SWAP1 POP SWAP2 SWAP1 POP JUMP JUMPDEST PUSH0 DUP2 SWAP1 POP SWAP2 SWAP1 POP JUMP JUMPDEST PUSH2 0x736 DUP4 PUSH2 0x703 JUMP JUMPDEST PUSH2 0x74A PUSH2 0x742 DUP3 PUSH2 0x724 JUMP JUMPDEST DUP5 DUP5 SLOAD PUSH2 0x6A0 JUMP JUMPDEST DUP3 SSTORE POP POP POP POP JUMP JUMPDEST PUSH0 SWAP1 JUMP JUMPDEST PUSH2 0x75E PUSH2 0x752 JUMP JUMPDEST PUSH2 0x769 DUP2 DUP5 DUP5 PUSH2 0x72D JUMP JUMPDEST POP POP POP JUMP JUMPDEST JUMPDEST DUP2 DUP2 LT ISZERO PUSH2 0x78C JUMPI PUSH2 0x781 PUSH0 DUP3 PUSH2 0x756 JUMP JUMPDEST PUSH1 0x1 DUP2 ADD SWAP1 POP PUSH2 0x76F JUMP JUMPDEST POP POP JUMP JUMPDEST PUSH1 0x1F DUP3 GT ISZERO PUSH2 0x7D1 JUMPI PUSH2 0x7A2 DUP2 PUSH2 0x673 JUMP JUMPDEST PUSH2 0x7AB DUP5 PUSH2 0x685 JUMP JUMPDEST DUP2 ADD PUSH1 0x20 DUP6 LT ISZERO PUSH2 0x7BA JUMPI DUP2 SWAP1 POP JUMPDEST PUSH2 0x7CE PUSH2 0x7C6 DUP6 PUSH2 0x685 JUMP JUMPDEST DUP4 ADD DUP3 PUSH2 0x76E JUMP JUMPDEST POP POP JUMPDEST POP POP POP JUMP JUMPDEST PUSH0 DUP3 DUP3 SHR SWAP1 POP SWAP3 SWAP2 POP POP JUMP JUMPDEST PUSH0 PUSH2 0x7F1 PUSH0 NOT DUP5 PUSH1 0x8 MUL PUSH2 0x7D6 JUMP JUMPDEST NOT DUP1 DUP4 AND SWAP2 POP POP SWAP3 SWAP2 POP POP JUMP JUMPDEST PUSH0 PUSH2 0x809 DUP4 DUP4 PUSH2 0x7E2 JUMP JUMPDEST SWAP2 POP DUP3 PUSH1 0x2 MUL DUP3 OR SWAP1 POP SWAP3 SWAP2 POP POP JUMP JUMPDEST PUSH2 0x822 DUP3 PUSH2 0x498 JUMP JUMPDEST PUSH8 0xFFFFFFFFFFFFFFFF DUP2 GT ISZERO PUSH2 0x83B JUMPI PUSH2 0x83A PUSH2 0x5E9 JUMP JUMPDEST JUMPDEST PUSH2 0x845 DUP3 SLOAD PUSH2 0x643 JUMP JUMPDEST PUSH2 0x850 DUP3 DUP3 DUP6 PUSH2 0x790 JUMP JUMPDEST PUSH0 PUSH1 0x20 SWAP1 POP PUSH1 0x1F DUP4 GT PUSH1 0x1 DUP2 EQ PUSH2 0x881 JUMPI PUSH0 DUP5 ISZERO PUSH2 0x86F JUMPI DUP3 DUP8 ADD MLOAD SWAP1 POP JUMPDEST PUSH2 0x879 DUP6 DUP3 PUSH2 0x7FE JUMP JUMPDEST DUP7 SSTORE POP PUSH2 0x8E0 JUMP JUMPDEST PUSH1 0x1F NOT DUP5 AND PUSH2 0x88F DUP7 PUSH2 0x673 JUMP JUMPDEST PUSH0 JUMPDEST DUP3 DUP2 LT ISZERO PUSH2 0x8B6 JUMPI DUP5 DUP10 ADD MLOAD DUP3 SSTORE PUSH1 0x1 DUP3 ADD SWAP2 POP PUSH1 0x20 DUP6 ADD SWAP5 POP PUSH1 0x20 DUP2 ADD SWAP1 POP PUSH2 0x891 JUMP JUMPDEST DUP7 DUP4 LT ISZERO PUSH2 0x8D3 JUMPI DUP5 DUP10 ADD MLOAD PUSH2 0x8CF PUSH1 0x1F DUP10 AND DUP3 PUSH2 0x7E2 JUMP JUMPDEST DUP4 SSTORE POP JUMPDEST PUSH1 0x1 PUSH1 0x2 DUP9 MUL ADD DUP9 SSTORE POP POP POP JUMPDEST POP POP POP POP POP POP JUMP JUMPDEST PUSH32 0x496E76616C696420616464726573730000000000000000000000000000000000 PUSH0 DUP3 ADD MSTORE POP JUMP JUMPDEST PUSH0 PUSH2 0x91C PUSH1 0xF DUP4 PUSH2 0x4A2 JUMP JUMPDEST SWAP2 POP PUSH2 0x927 DUP3 PUSH2 0x8E8 JUMP JUMPDEST PUSH1 0x20 DUP3 ADD SWAP1 POP SWAP2 SWAP1 POP JUMP JUMPDEST PUSH0 PUSH1 0x20 DUP3 ADD SWAP1 POP DUP2 DUP2 SUB PUSH0 DUP4 ADD MSTORE PUSH2 0x949 DUP2 PUSH2 0x910 JUMP JUMPDEST SWAP1 POP SWAP2 SWAP1 POP JUMP INVALID LOG2 PUSH5 0x6970667358 0x22 SLT KECCAK256 PUSH1 0x8 0xED 0xC3 0xDB PUSH31 0xD934FD12B06321348E1C86CA317BE29E2B3BAE03F42D28C5A3E864736F6C63 NUMBER STOP ADDMOD BYTE STOP CALLER "
				},
				"gasEstimates": {
					"creation": {
						"codeDepositCost": "487600",
						"executionCost": "46893",
						"totalCost": "534493"
					},
					"external": {
						"checkOwner(address)": "27008",
						"locked()": "2510",
						"owner()": "2505",
						"secret_message()": "infinite",
						"seeSecretMessage()": "infinite",
						"x()": "2403"
					}
				},
				"methodIdentifiers": {
					"checkOwner(address)": "e0e3671c",
					"locked()": "cf309012",
					"owner()": "8da5cb5b",
					"secret_message()": "d73d2361",
					"seeSecretMessage()": "bdea6938",
					"x()": "0c55699c"
				}
			},
			"storageLayout": {
				"storage": [
					{
						"astId": 3,
						"contract": "contracts/10_modifier.sol:Modifier",
						"label": "owner",
						"offset": 0,
						"slot": "0",
						"type": "t_address"
					},
					{
						"astId": 6,
						"contract": "contracts/10_modifier.sol:Modifier",
						"label": "x",
						"offset": 0,
						"slot": "1",
						"type": "t_int256"
					},
					{
						"astId": 8,
						"contract": "contracts/10_modifier.sol:Modifier",
						"label": "locked",
						"offset": 0,
						"slot": "2",
						"type": "t_bool"
					},
					{
						"astId": 10,
						"contract": "contracts/10_modifier.sol:Modifier",
						"label": "secret_message",
						"offset": 0,
						"slot": "3",
						"type": "t_string_storage"
					}
				],
				"types": {
					"t_address": {
						"encoding": "inplace",
						"label": "address",
						"numberOfBytes": "20"
					},
					"t_bool": {
						"encoding": "inplace",
						"label": "bool",
						"numberOfBytes": "1"
					},
					"t_int256": {
						"encoding": "inplace",
						"label": "int256",
						"numberOfBytes": "32"
					},
					"t_string_storage": {
						"encoding": "bytes",
						"label": "string",
						"numberOfBytes": "32"
					}
				}
			},
			"userdoc": {
				"kind": "user",
				"methods": {},
				"version": 1
			}
		}
	}
}