{
	"contracts/NFTCounter.sol": {
		"NFTCounter": {
			"abi": [
				{
					"inputs": [],
					"name": "addNFT",
					"outputs": [],
					"stateMutability": "nonpayable",
					"type": "function"
				},
				{
					"inputs": [],
					"name": "deleteNFT",
					"outputs": [],
					"stateMutability": "nonpayable",
					"type": "function"
				},
				{
					"inputs": [],
					"name": "getTotalNFT",
					"outputs": [
						{
							"internalType": "int256",
							"name": "",
							"type": "int256"
						}
					],
					"stateMutability": "view",
					"type": "function"
				},
				{
					"inputs": [],
					"name": "numberOfNFT",
					"outputs": [
						{
							"internalType": "int256",
							"name": "",
							"type": "int256"
						}
					],
					"stateMutability": "view",
					"type": "function"
				}
			],
			"devdoc": {
				"kind": "dev",
				"methods": {},
				"version": 1
			},
			"evm": {
				"assembly": "    /* \"contracts/NFTCounter.sol\":160:625  contract NFTCounter {... */\n  mstore(0x40, 0x80)\n    /* \"contracts/NFTCounter.sol\":215:216  0 */\n  0x00\n    /* \"contracts/NFTCounter.sol\":192:216  int public numberOfNFT=0 */\n  dup1\n  sstore\n    /* \"contracts/NFTCounter.sol\":160:625  contract NFTCounter {... */\n  callvalue\n  dup1\n  iszero\n  tag_1\n  jumpi\n  0x00\n  dup1\n  revert\ntag_1:\n  pop\n  dataSize(sub_0)\n  dup1\n  dataOffset(sub_0)\n  0x00\n  codecopy\n  0x00\n  return\nstop\n\nsub_0: assembly {\n        /* \"contracts/NFTCounter.sol\":160:625  contract NFTCounter {... */\n      mstore(0x40, 0x80)\n      callvalue\n      dup1\n      iszero\n      tag_1\n      jumpi\n      0x00\n      dup1\n      revert\n    tag_1:\n      pop\n      jumpi(tag_2, lt(calldatasize, 0x04))\n      shr(0xe0, calldataload(0x00))\n      dup1\n      0x3748a5c2\n      eq\n      tag_3\n      jumpi\n      dup1\n      0x8acc7b47\n      eq\n      tag_4\n      jumpi\n      dup1\n      0xbcf16f2d\n      eq\n      tag_5\n      jumpi\n      dup1\n      0xe02b87bb\n      eq\n      tag_6\n      jumpi\n    tag_2:\n      0x00\n      dup1\n      revert\n        /* \"contracts/NFTCounter.sol\":192:216  int public numberOfNFT=0 */\n    tag_3:\n      tag_7\n      tag_8\n      jump\t// in\n    tag_7:\n      mload(0x40)\n      tag_9\n      swap2\n      swap1\n      tag_10\n      jump\t// in\n    tag_9:\n      mload(0x40)\n      dup1\n      swap2\n      sub\n      swap1\n      return\n        /* \"contracts/NFTCounter.sol\":247:302  function addNFT() public {... */\n    tag_4:\n      tag_11\n      tag_12\n      jump\t// in\n    tag_11:\n      stop\n        /* \"contracts/NFTCounter.sol\":431:622  function getTotalNFT() public view returns (int) {... */\n    tag_5:\n      tag_13\n      tag_14\n      jump\t// in\n    tag_13:\n      mload(0x40)\n      tag_15\n      swap2\n      swap1\n      tag_10\n      jump\t// in\n    tag_15:\n      mload(0x40)\n      dup1\n      swap2\n      sub\n      swap1\n      return\n        /* \"contracts/NFTCounter.sol\":335:392  function deleteNFT() public{... */\n    tag_6:\n      tag_16\n      tag_17\n      jump\t// in\n    tag_16:\n      stop\n        /* \"contracts/NFTCounter.sol\":192:216  int public numberOfNFT=0 */\n    tag_8:\n      sload(0x00)\n      dup2\n      jump\t// out\n        /* \"contracts/NFTCounter.sol\":247:302  function addNFT() public {... */\n    tag_12:\n        /* \"contracts/NFTCounter.sol\":282:293  numberOfNFT */\n      0x00\n      dup1\n        /* \"contracts/NFTCounter.sol\":282:295  numberOfNFT++ */\n      dup2\n      sload\n      dup1\n      swap3\n      swap2\n      swap1\n      tag_19\n      swap1\n      tag_20\n      jump\t// in\n    tag_19:\n      swap2\n      swap1\n      pop\n      sstore\n      pop\n        /* \"contracts/NFTCounter.sol\":247:302  function addNFT() public {... */\n      jump\t// out\n        /* \"contracts/NFTCounter.sol\":431:622  function getTotalNFT() public view returns (int) {... */\n    tag_14:\n        /* \"contracts/NFTCounter.sol\":475:478  int */\n      0x00\n        /* \"contracts/NFTCounter.sol\":604:615  numberOfNFT */\n      dup1\n      sload\n        /* \"contracts/NFTCounter.sol\":597:615  return numberOfNFT */\n      swap1\n      pop\n        /* \"contracts/NFTCounter.sol\":431:622  function getTotalNFT() public view returns (int) {... */\n      swap1\n      jump\t// out\n        /* \"contracts/NFTCounter.sol\":335:392  function deleteNFT() public{... */\n    tag_17:\n        /* \"contracts/NFTCounter.sol\":372:383  numberOfNFT */\n      0x00\n      dup1\n        /* \"contracts/NFTCounter.sol\":372:385  numberOfNFT-- */\n      dup2\n      sload\n      dup1\n      swap3\n      swap2\n      swap1\n      tag_23\n      swap1\n      tag_24\n      jump\t// in\n    tag_23:\n      swap2\n      swap1\n      pop\n      sstore\n      pop\n        /* \"contracts/NFTCounter.sol\":335:392  function deleteNFT() public{... */\n      jump\t// out\n        /* \"#utility.yul\":7:83   */\n    tag_25:\n        /* \"#utility.yul\":43:50   */\n      0x00\n        /* \"#utility.yul\":72:77   */\n      dup2\n        /* \"#utility.yul\":61:77   */\n      swap1\n      pop\n        /* \"#utility.yul\":7:83   */\n      swap2\n      swap1\n      pop\n      jump\t// out\n        /* \"#utility.yul\":89:204   */\n    tag_26:\n        /* \"#utility.yul\":174:197   */\n      tag_31\n        /* \"#utility.yul\":191:196   */\n      dup2\n        /* \"#utility.yul\":174:197   */\n      tag_25\n      jump\t// in\n    tag_31:\n        /* \"#utility.yul\":169:172   */\n      dup3\n        /* \"#utility.yul\":162:198   */\n      mstore\n        /* \"#utility.yul\":89:204   */\n      pop\n      pop\n      jump\t// out\n        /* \"#utility.yul\":210:428   */\n    tag_10:\n        /* \"#utility.yul\":301:305   */\n      0x00\n        /* \"#utility.yul\":339:341   */\n      0x20\n        /* \"#utility.yul\":328:337   */\n      dup3\n        /* \"#utility.yul\":324:342   */\n      add\n        /* \"#utility.yul\":316:342   */\n      swap1\n      pop\n        /* \"#utility.yul\":352:421   */\n      tag_33\n        /* \"#utility.yul\":418:419   */\n      0x00\n        /* \"#utility.yul\":407:416   */\n      dup4\n        /* \"#utility.yul\":403:420   */\n      add\n        /* \"#utility.yul\":394:400   */\n      dup5\n        /* \"#utility.yul\":352:421   */\n      tag_26\n      jump\t// in\n    tag_33:\n        /* \"#utility.yul\":210:428   */\n      swap3\n      swap2\n      pop\n      pop\n      jump\t// out\n        /* \"#utility.yul\":434:614   */\n    tag_27:\n        /* \"#utility.yul\":482:559   */\n      0x4e487b7100000000000000000000000000000000000000000000000000000000\n        /* \"#utility.yul\":479:480   */\n      0x00\n        /* \"#utility.yul\":472:560   */\n      mstore\n        /* \"#utility.yul\":579:583   */\n      0x11\n        /* \"#utility.yul\":576:577   */\n      0x04\n        /* \"#utility.yul\":569:584   */\n      mstore\n        /* \"#utility.yul\":603:607   */\n      0x24\n        /* \"#utility.yul\":600:601   */\n      0x00\n        /* \"#utility.yul\":593:608   */\n      revert\n        /* \"#utility.yul\":620:851   */\n    tag_20:\n        /* \"#utility.yul\":658:661   */\n      0x00\n        /* \"#utility.yul\":681:704   */\n      tag_36\n        /* \"#utility.yul\":698:703   */\n      dup3\n        /* \"#utility.yul\":681:704   */\n      tag_25\n      jump\t// in\n    tag_36:\n        /* \"#utility.yul\":672:704   */\n      swap2\n      pop\n        /* \"#utility.yul\":726:792   */\n      0x7fffffffffffffffffffffffffffffffffffffffffffffffffffffffffffffff\n        /* \"#utility.yul\":719:724   */\n      dup3\n        /* \"#utility.yul\":716:793   */\n      sub\n        /* \"#utility.yul\":713:816   */\n      tag_37\n      jumpi\n        /* \"#utility.yul\":796:814   */\n      tag_38\n      tag_27\n      jump\t// in\n    tag_38:\n        /* \"#utility.yul\":713:816   */\n    tag_37:\n        /* \"#utility.yul\":843:844   */\n      0x01\n        /* \"#utility.yul\":836:841   */\n      dup3\n        /* \"#utility.yul\":832:845   */\n      add\n        /* \"#utility.yul\":825:845   */\n      swap1\n      pop\n        /* \"#utility.yul\":620:851   */\n      swap2\n      swap1\n      pop\n      jump\t// out\n        /* \"#utility.yul\":857:1088   */\n    tag_24:\n        /* \"#utility.yul\":895:898   */\n      0x00\n        /* \"#utility.yul\":918:941   */\n      tag_40\n        /* \"#utility.yul\":935:940   */\n      dup3\n        /* \"#utility.yul\":918:941   */\n      tag_25\n      jump\t// in\n    tag_40:\n        /* \"#utility.yul\":909:941   */\n      swap2\n      pop\n        /* \"#utility.yul\":963:1029   */\n      0x8000000000000000000000000000000000000000000000000000000000000000\n        /* \"#utility.yul\":956:961   */\n      dup3\n        /* \"#utility.yul\":953:1030   */\n      sub\n        /* \"#utility.yul\":950:1053   */\n      tag_41\n      jumpi\n        /* \"#utility.yul\":1033:1051   */\n      tag_42\n      tag_27\n      jump\t// in\n    tag_42:\n        /* \"#utility.yul\":950:1053   */\n    tag_41:\n        /* \"#utility.yul\":1080:1081   */\n      0x01\n        /* \"#utility.yul\":1073:1078   */\n      dup3\n        /* \"#utility.yul\":1069:1082   */\n      sub\n        /* \"#utility.yul\":1062:1082   */\n      swap1\n      pop\n        /* \"#utility.yul\":857:1088   */\n      swap2\n      swap1\n      pop\n      jump\t// out\n\n    auxdata: 0xa2646970667358221220d35a69fda0d21418c98b91b794d8192b7399abf9c8b062c16baa7fc93363fd2c64736f6c634300081a0033\n}\n",
				"bytecode": {
					"linkReferences": {},
					"object": "60806040525f80553480156011575f80fd5b506101fd8061001f5f395ff3fe608060405234801561000f575f80fd5b506004361061004a575f3560e01c80633748a5c21461004e5780638acc7b471461006c578063bcf16f2d14610076578063e02b87bb14610094575b5f80fd5b61005661009e565b60405161006391906100f3565b60405180910390f35b6100746100a3565b005b61007e6100bb565b60405161008b91906100f3565b60405180910390f35b61009c6100c3565b005b5f5481565b5f808154809291906100b490610139565b9190505550565b5f8054905090565b5f808154809291906100d490610180565b9190505550565b5f819050919050565b6100ed816100db565b82525050565b5f6020820190506101065f8301846100e4565b92915050565b7f4e487b71000000000000000000000000000000000000000000000000000000005f52601160045260245ffd5b5f610143826100db565b91507f7fffffffffffffffffffffffffffffffffffffffffffffffffffffffffffffff82036101755761017461010c565b5b600182019050919050565b5f61018a826100db565b91507f800000000000000000000000000000000000000000000000000000000000000082036101bc576101bb61010c565b5b60018203905091905056fea2646970667358221220d35a69fda0d21418c98b91b794d8192b7399abf9c8b062c16baa7fc93363fd2c64736f6c634300081a0033",
					"opcodes": "PUSH1 0x80 PUSH1 0x40 MSTORE PUSH0 DUP1 SSTORE CALLVALUE DUP1 ISZERO PUSH1 0x11 JUMPI PUSH0 DUP1 REVERT JUMPDEST POP PUSH2 0x1FD DUP1 PUSH2 0x1F PUSH0 CODECOPY PUSH0 RETURN INVALID PUSH1 0x80 PUSH1 0x40 MSTORE CALLVALUE DUP1 ISZERO PUSH2 0xF JUMPI PUSH0 DUP1 REVERT JUMPDEST POP PUSH1 0x4 CALLDATASIZE LT PUSH2 0x4A JUMPI PUSH0 CALLDATALOAD PUSH1 0xE0 SHR DUP1 PUSH4 0x3748A5C2 EQ PUSH2 0x4E JUMPI DUP1 PUSH4 0x8ACC7B47 EQ PUSH2 0x6C JUMPI DUP1 PUSH4 0xBCF16F2D EQ PUSH2 0x76 JUMPI DUP1 PUSH4 0xE02B87BB EQ PUSH2 0x94 JUMPI JUMPDEST PUSH0 DUP1 REVERT JUMPDEST PUSH2 0x56 PUSH2 0x9E JUMP JUMPDEST PUSH1 0x40 MLOAD PUSH2 0x63 SWAP2 SWAP1 PUSH2 0xF3 JUMP JUMPDEST PUSH1 0x40 MLOAD DUP1 SWAP2 SUB SWAP1 RETURN JUMPDEST PUSH2 0x74 PUSH2 0xA3 JUMP JUMPDEST STOP JUMPDEST PUSH2 0x7E PUSH2 0xBB JUMP JUMPDEST PUSH1 0x40 MLOAD PUSH2 0x8B SWAP2 SWAP1 PUSH2 0xF3 JUMP JUMPDEST PUSH1 0x40 MLOAD DUP1 SWAP2 SUB SWAP1 RETURN JUMPDEST PUSH2 0x9C PUSH2 0xC3 JUMP JUMPDEST STOP JUMPDEST PUSH0 SLOAD DUP2 JUMP JUMPDEST PUSH0 DUP1 DUP2 SLOAD DUP1 SWAP3 SWAP2 SWAP1 PUSH2 0xB4 SWAP1 PUSH2 0x139 JUMP JUMPDEST SWAP2 SWAP1 POP SSTORE POP JUMP JUMPDEST PUSH0 DUP1 SLOAD SWAP1 POP SWAP1 JUMP JUMPDEST PUSH0 DUP1 DUP2 SLOAD DUP1 SWAP3 SWAP2 SWAP1 PUSH2 0xD4 SWAP1 PUSH2 0x180 JUMP JUMPDEST SWAP2 SWAP1 POP SSTORE POP JUMP JUMPDEST PUSH0 DUP2 SWAP1 POP SWAP2 SWAP1 POP JUMP JUMPDEST PUSH2 0xED DUP2 PUSH2 0xDB JUMP JUMPDEST DUP3 MSTORE POP POP JUMP JUMPDEST PUSH0 PUSH1 0x20 DUP3 ADD SWAP1 POP PUSH2 0x106 PUSH0 DUP4 ADD DUP5 PUSH2 0xE4 JUMP JUMPDEST SWAP3 SWAP2 POP POP JUMP JUMPDEST PUSH32 0x4E487B7100000000000000000000000000000000000000000000000000000000 PUSH0 MSTORE PUSH1 0x11 PUSH1 0x4 MSTORE PUSH1 0x24 PUSH0 REVERT JUMPDEST PUSH0 PUSH2 0x143 DUP3 PUSH2 0xDB JUMP JUMPDEST SWAP2 POP PUSH32 0x7FFFFFFFFFFFFFFFFFFFFFFFFFFFFFFFFFFFFFFFFFFFFFFFFFFFFFFFFFFFFFFF DUP3 SUB PUSH2 0x175 JUMPI PUSH2 0x174 PUSH2 0x10C JUMP JUMPDEST JUMPDEST PUSH1 0x1 DUP3 ADD SWAP1 POP SWAP2 SWAP1 POP JUMP JUMPDEST PUSH0 PUSH2 0x18A DUP3 PUSH2 0xDB JUMP JUMPDEST SWAP2 POP PUSH32 0x8000000000000000000000000000000000000000000000000000000000000000 DUP3 SUB PUSH2 0x1BC JUMPI PUSH2 0x1BB PUSH2 0x10C JUMP JUMPDEST JUMPDEST PUSH1 0x1 DUP3 SUB SWAP1 POP SWAP2 SWAP1 POP JUMP INVALID LOG2 PUSH5 0x6970667358 0x22 SLT KECCAK256 0xD3 GAS PUSH10 0xFDA0D21418C98B91B794 0xD8 NOT 0x2B PUSH20 0x99ABF9C8B062C16BAA7FC93363FD2C64736F6C63 NUMBER STOP ADDMOD BYTE STOP CALLER "
				},
				"gasEstimates": {
					"creation": {
						"codeDepositCost": "101800",
						"executionCost": "5150",
						"totalCost": "106950"
					},
					"external": {
						"addNFT()": "24497",
						"deleteNFT()": "24541",
						"getTotalNFT()": "2454",
						"numberOfNFT()": "2402"
					}
				},
				"methodIdentifiers": {
					"addNFT()": "8acc7b47",
					"deleteNFT()": "e02b87bb",
					"getTotalNFT()": "bcf16f2d",
					"numberOfNFT()": "3748a5c2"
				}
			},
			"storageLayout": {
				"storage": [
					{
						"astId": 4,
						"contract": "contracts/NFTCounter.sol:NFTCounter",
						"label": "numberOfNFT",
						"offset": 0,
						"slot": "0",
						"type": "t_int256"
					}
				],
				"types": {
					"t_int256": {
						"encoding": "inplace",
						"label": "int256",
						"numberOfBytes": "32"
					}
				}
			},
			"userdoc": {
				"kind": "user",
				"methods": {},
				"version": 1
			}
		}
	}
}