{
	"contracts/functions.sol": {
		"LearnFunction": {
			"abi": [
				{
					"inputs": [
						{
							"internalType": "int256",
							"name": "a",
							"type": "int256"
						},
						{
							"internalType": "int256",
							"name": "b",
							"type": "int256"
						}
					],
					"name": "changeAndAdd",
					"outputs": [],
					"stateMutability": "nonpayable",
					"type": "function"
				},
				{
					"inputs": [],
					"name": "getValueOfhe",
					"outputs": [
						{
							"internalType": "int256",
							"name": "",
							"type": "int256"
						}
					],
					"stateMutability": "view",
					"type": "function"
				},
				{
					"inputs": [],
					"name": "hey",
					"outputs": [
						{
							"internalType": "int256",
							"name": "",
							"type": "int256"
						}
					],
					"stateMutability": "view",
					"type": "function"
				},
				{
					"inputs": [
						{
							"internalType": "int256",
							"name": "a",
							"type": "int256"
						},
						{
							"internalType": "int256",
							"name": "b",
							"type": "int256"
						}
					],
					"name": "justAdd2Numbers",
					"outputs": [
						{
							"internalType": "int256",
							"name": "",
							"type": "int256"
						}
					],
					"stateMutability": "view",
					"type": "function"
				},
				{
					"inputs": [
						{
							"internalType": "int256",
							"name": "number",
							"type": "int256"
						}
					],
					"name": "updateData",
					"outputs": [],
					"stateMutability": "nonpayable",
					"type": "function"
				}
			],
			"devdoc": {
				"kind": "dev",
				"methods": {},
				"version": 1
			},
			"evm": {
				"assembly": "    /* \"contracts/functions.sol\":212:703  contract LearnFunction{ ... */\n  mstore(0x40, 0x80)\n    /* \"contracts/functions.sol\":256:258  10 */\n  0x0a\n    /* \"contracts/functions.sol\":241:258  int public hey=10 */\n  0x00\n  sstore\n    /* \"contracts/functions.sol\":212:703  contract LearnFunction{ ... */\n  callvalue\n  dup1\n  iszero\n  tag_1\n  jumpi\n  0x00\n  dup1\n  revert\ntag_1:\n  pop\n  dataSize(sub_0)\n  dup1\n  dataOffset(sub_0)\n  0x00\n  codecopy\n  0x00\n  return\nstop\n\nsub_0: assembly {\n        /* \"contracts/functions.sol\":212:703  contract LearnFunction{ ... */\n      mstore(0x40, 0x80)\n      callvalue\n      dup1\n      iszero\n      tag_1\n      jumpi\n      0x00\n      dup1\n      revert\n    tag_1:\n      pop\n      jumpi(tag_2, lt(calldatasize, 0x04))\n      shr(0xe0, calldataload(0x00))\n      dup1\n      0x2d5518a3\n      eq\n      tag_3\n      jumpi\n      dup1\n      0x75281636\n      eq\n      tag_4\n      jumpi\n      dup1\n      0xa40f1c64\n      eq\n      tag_5\n      jumpi\n      dup1\n      0xbde2b573\n      eq\n      tag_6\n      jumpi\n      dup1\n      0xccf5d57a\n      eq\n      tag_7\n      jumpi\n    tag_2:\n      0x00\n      dup1\n      revert\n        /* \"contracts/functions.sol\":347:415  function updateData(int number) public {... */\n    tag_3:\n      tag_8\n      0x04\n      dup1\n      calldatasize\n      sub\n      dup2\n      add\n      swap1\n      tag_9\n      swap2\n      swap1\n      tag_10\n      jump\t// in\n    tag_9:\n      tag_11\n      jump\t// in\n    tag_8:\n      stop\n        /* \"contracts/functions.sol\":421:490  function changeAndAdd(int a, int b)  public{... */\n    tag_4:\n      tag_12\n      0x04\n      dup1\n      calldatasize\n      sub\n      dup2\n      add\n      swap1\n      tag_13\n      swap2\n      swap1\n      tag_14\n      jump\t// in\n    tag_13:\n      tag_15\n      jump\t// in\n    tag_12:\n      stop\n        /* \"contracts/functions.sol\":496:701  function justAdd2Numbers(int a, int b) public view returns (int) {... */\n    tag_5:\n      tag_16\n      0x04\n      dup1\n      calldatasize\n      sub\n      dup2\n      add\n      swap1\n      tag_17\n      swap2\n      swap1\n      tag_14\n      jump\t// in\n    tag_17:\n      tag_18\n      jump\t// in\n    tag_16:\n      mload(0x40)\n      tag_19\n      swap2\n      swap1\n      tag_20\n      jump\t// in\n    tag_19:\n      mload(0x40)\n      dup1\n      swap2\n      sub\n      swap1\n      return\n        /* \"contracts/functions.sol\":241:258  int public hey=10 */\n    tag_6:\n      tag_21\n      tag_22\n      jump\t// in\n    tag_21:\n      mload(0x40)\n      tag_23\n      swap2\n      swap1\n      tag_20\n      jump\t// in\n    tag_23:\n      mload(0x40)\n      dup1\n      swap2\n      sub\n      swap1\n      return\n        /* \"contracts/functions.sol\":265:341  function getValueOfhe() public view returns (int){... */\n    tag_7:\n      tag_24\n      tag_25\n      jump\t// in\n    tag_24:\n      mload(0x40)\n      tag_26\n      swap2\n      swap1\n      tag_20\n      jump\t// in\n    tag_26:\n      mload(0x40)\n      dup1\n      swap2\n      sub\n      swap1\n      return\n        /* \"contracts/functions.sol\":347:415  function updateData(int number) public {... */\n    tag_11:\n        /* \"contracts/functions.sol\":402:408  number */\n      dup1\n        /* \"contracts/functions.sol\":396:399  hey */\n      0x00\n        /* \"contracts/functions.sol\":396:408  hey = number */\n      dup2\n      swap1\n      sstore\n      pop\n        /* \"contracts/functions.sol\":347:415  function updateData(int number) public {... */\n      pop\n      jump\t// out\n        /* \"contracts/functions.sol\":421:490  function changeAndAdd(int a, int b)  public{... */\n    tag_15:\n        /* \"contracts/functions.sol\":482:483  b */\n      dup1\n        /* \"contracts/functions.sol\":480:481  a */\n      dup3\n        /* \"contracts/functions.sol\":480:483  a+b */\n      tag_29\n      swap2\n      swap1\n      tag_30\n      jump\t// in\n    tag_29:\n        /* \"contracts/functions.sol\":474:477  hey */\n      0x00\n        /* \"contracts/functions.sol\":474:483  hey = a+b */\n      dup2\n      swap1\n      sstore\n      pop\n        /* \"contracts/functions.sol\":421:490  function changeAndAdd(int a, int b)  public{... */\n      pop\n      pop\n      jump\t// out\n        /* \"contracts/functions.sol\":496:701  function justAdd2Numbers(int a, int b) public view returns (int) {... */\n    tag_18:\n        /* \"contracts/functions.sol\":556:559  int */\n      0x00\n        /* \"contracts/functions.sol\":693:694  b */\n      dup2\n        /* \"contracts/functions.sol\":691:692  a */\n      dup4\n        /* \"contracts/functions.sol\":691:694  a+b */\n      tag_32\n      swap2\n      swap1\n      tag_30\n      jump\t// in\n    tag_32:\n        /* \"contracts/functions.sol\":684:694  return a+b */\n      swap1\n      pop\n        /* \"contracts/functions.sol\":496:701  function justAdd2Numbers(int a, int b) public view returns (int) {... */\n      swap3\n      swap2\n      pop\n      pop\n      jump\t// out\n        /* \"contracts/functions.sol\":241:258  int public hey=10 */\n    tag_22:\n      sload(0x00)\n      dup2\n      jump\t// out\n        /* \"contracts/functions.sol\":265:341  function getValueOfhe() public view returns (int){... */\n    tag_25:\n        /* \"contracts/functions.sol\":310:313  int */\n      0x00\n        /* \"contracts/functions.sol\":331:334  hey */\n      dup1\n      sload\n        /* \"contracts/functions.sol\":324:334  return hey */\n      swap1\n      pop\n        /* \"contracts/functions.sol\":265:341  function getValueOfhe() public view returns (int){... */\n      swap1\n      jump\t// out\n        /* \"#utility.yul\":88:205   */\n    tag_35:\n        /* \"#utility.yul\":197:198   */\n      0x00\n        /* \"#utility.yul\":194:195   */\n      dup1\n        /* \"#utility.yul\":187:199   */\n      revert\n        /* \"#utility.yul\":334:410   */\n    tag_37:\n        /* \"#utility.yul\":370:377   */\n      0x00\n        /* \"#utility.yul\":399:404   */\n      dup2\n        /* \"#utility.yul\":388:404   */\n      swap1\n      pop\n        /* \"#utility.yul\":334:410   */\n      swap2\n      swap1\n      pop\n      jump\t// out\n        /* \"#utility.yul\":416:536   */\n    tag_38:\n        /* \"#utility.yul\":488:511   */\n      tag_48\n        /* \"#utility.yul\":505:510   */\n      dup2\n        /* \"#utility.yul\":488:511   */\n      tag_37\n      jump\t// in\n    tag_48:\n        /* \"#utility.yul\":481:486   */\n      dup2\n        /* \"#utility.yul\":478:512   */\n      eq\n        /* \"#utility.yul\":468:530   */\n      tag_49\n      jumpi\n        /* \"#utility.yul\":526:527   */\n      0x00\n        /* \"#utility.yul\":523:524   */\n      dup1\n        /* \"#utility.yul\":516:528   */\n      revert\n        /* \"#utility.yul\":468:530   */\n    tag_49:\n        /* \"#utility.yul\":416:536   */\n      pop\n      jump\t// out\n        /* \"#utility.yul\":542:679   */\n    tag_39:\n        /* \"#utility.yul\":587:592   */\n      0x00\n        /* \"#utility.yul\":625:631   */\n      dup2\n        /* \"#utility.yul\":612:632   */\n      calldataload\n        /* \"#utility.yul\":603:632   */\n      swap1\n      pop\n        /* \"#utility.yul\":641:673   */\n      tag_51\n        /* \"#utility.yul\":667:672   */\n      dup2\n        /* \"#utility.yul\":641:673   */\n      tag_38\n      jump\t// in\n    tag_51:\n        /* \"#utility.yul\":542:679   */\n      swap3\n      swap2\n      pop\n      pop\n      jump\t// out\n        /* \"#utility.yul\":685:1012   */\n    tag_10:\n        /* \"#utility.yul\":743:749   */\n      0x00\n        /* \"#utility.yul\":792:794   */\n      0x20\n        /* \"#utility.yul\":780:789   */\n      dup3\n        /* \"#utility.yul\":771:778   */\n      dup5\n        /* \"#utility.yul\":767:790   */\n      sub\n        /* \"#utility.yul\":763:795   */\n      slt\n        /* \"#utility.yul\":760:879   */\n      iszero\n      tag_53\n      jumpi\n        /* \"#utility.yul\":798:877   */\n      tag_54\n      tag_35\n      jump\t// in\n    tag_54:\n        /* \"#utility.yul\":760:879   */\n    tag_53:\n        /* \"#utility.yul\":918:919   */\n      0x00\n        /* \"#utility.yul\":943:995   */\n      tag_55\n        /* \"#utility.yul\":987:994   */\n      dup5\n        /* \"#utility.yul\":978:984   */\n      dup3\n        /* \"#utility.yul\":967:976   */\n      dup6\n        /* \"#utility.yul\":963:985   */\n      add\n        /* \"#utility.yul\":943:995   */\n      tag_39\n      jump\t// in\n    tag_55:\n        /* \"#utility.yul\":933:995   */\n      swap2\n      pop\n        /* \"#utility.yul\":889:1005   */\n      pop\n        /* \"#utility.yul\":685:1012   */\n      swap3\n      swap2\n      pop\n      pop\n      jump\t// out\n        /* \"#utility.yul\":1018:1488   */\n    tag_14:\n        /* \"#utility.yul\":1084:1090   */\n      0x00\n        /* \"#utility.yul\":1092:1098   */\n      dup1\n        /* \"#utility.yul\":1141:1143   */\n      0x40\n        /* \"#utility.yul\":1129:1138   */\n      dup4\n        /* \"#utility.yul\":1120:1127   */\n      dup6\n        /* \"#utility.yul\":1116:1139   */\n      sub\n        /* \"#utility.yul\":1112:1144   */\n      slt\n        /* \"#utility.yul\":1109:1228   */\n      iszero\n      tag_57\n      jumpi\n        /* \"#utility.yul\":1147:1226   */\n      tag_58\n      tag_35\n      jump\t// in\n    tag_58:\n        /* \"#utility.yul\":1109:1228   */\n    tag_57:\n        /* \"#utility.yul\":1267:1268   */\n      0x00\n        /* \"#utility.yul\":1292:1344   */\n      tag_59\n        /* \"#utility.yul\":1336:1343   */\n      dup6\n        /* \"#utility.yul\":1327:1333   */\n      dup3\n        /* \"#utility.yul\":1316:1325   */\n      dup7\n        /* \"#utility.yul\":1312:1334   */\n      add\n        /* \"#utility.yul\":1292:1344   */\n      tag_39\n      jump\t// in\n    tag_59:\n        /* \"#utility.yul\":1282:1344   */\n      swap3\n      pop\n        /* \"#utility.yul\":1238:1354   */\n      pop\n        /* \"#utility.yul\":1393:1395   */\n      0x20\n        /* \"#utility.yul\":1419:1471   */\n      tag_60\n        /* \"#utility.yul\":1463:1470   */\n      dup6\n        /* \"#utility.yul\":1454:1460   */\n      dup3\n        /* \"#utility.yul\":1443:1452   */\n      dup7\n        /* \"#utility.yul\":1439:1461   */\n      add\n        /* \"#utility.yul\":1419:1471   */\n      tag_39\n      jump\t// in\n    tag_60:\n        /* \"#utility.yul\":1409:1471   */\n      swap2\n      pop\n        /* \"#utility.yul\":1364:1481   */\n      pop\n        /* \"#utility.yul\":1018:1488   */\n      swap3\n      pop\n      swap3\n      swap1\n      pop\n      jump\t// out\n        /* \"#utility.yul\":1494:1609   */\n    tag_40:\n        /* \"#utility.yul\":1579:1602   */\n      tag_62\n        /* \"#utility.yul\":1596:1601   */\n      dup2\n        /* \"#utility.yul\":1579:1602   */\n      tag_37\n      jump\t// in\n    tag_62:\n        /* \"#utility.yul\":1574:1577   */\n      dup3\n        /* \"#utility.yul\":1567:1603   */\n      mstore\n        /* \"#utility.yul\":1494:1609   */\n      pop\n      pop\n      jump\t// out\n        /* \"#utility.yul\":1615:1833   */\n    tag_20:\n        /* \"#utility.yul\":1706:1710   */\n      0x00\n        /* \"#utility.yul\":1744:1746   */\n      0x20\n        /* \"#utility.yul\":1733:1742   */\n      dup3\n        /* \"#utility.yul\":1729:1747   */\n      add\n        /* \"#utility.yul\":1721:1747   */\n      swap1\n      pop\n        /* \"#utility.yul\":1757:1826   */\n      tag_64\n        /* \"#utility.yul\":1823:1824   */\n      0x00\n        /* \"#utility.yul\":1812:1821   */\n      dup4\n        /* \"#utility.yul\":1808:1825   */\n      add\n        /* \"#utility.yul\":1799:1805   */\n      dup5\n        /* \"#utility.yul\":1757:1826   */\n      tag_40\n      jump\t// in\n    tag_64:\n        /* \"#utility.yul\":1615:1833   */\n      swap3\n      swap2\n      pop\n      pop\n      jump\t// out\n        /* \"#utility.yul\":1839:2019   */\n    tag_41:\n        /* \"#utility.yul\":1887:1964   */\n      0x4e487b7100000000000000000000000000000000000000000000000000000000\n        /* \"#utility.yul\":1884:1885   */\n      0x00\n        /* \"#utility.yul\":1877:1965   */\n      mstore\n        /* \"#utility.yul\":1984:1988   */\n      0x11\n        /* \"#utility.yul\":1981:1982   */\n      0x04\n        /* \"#utility.yul\":1974:1989   */\n      mstore\n        /* \"#utility.yul\":2008:2012   */\n      0x24\n        /* \"#utility.yul\":2005:2006   */\n      0x00\n        /* \"#utility.yul\":1998:2013   */\n      revert\n        /* \"#utility.yul\":2025:2400   */\n    tag_30:\n        /* \"#utility.yul\":2064:2067   */\n      0x00\n        /* \"#utility.yul\":2083:2102   */\n      tag_67\n        /* \"#utility.yul\":2100:2101   */\n      dup3\n        /* \"#utility.yul\":2083:2102   */\n      tag_37\n      jump\t// in\n    tag_67:\n        /* \"#utility.yul\":2078:2102   */\n      swap2\n      pop\n        /* \"#utility.yul\":2116:2135   */\n      tag_68\n        /* \"#utility.yul\":2133:2134   */\n      dup4\n        /* \"#utility.yul\":2116:2135   */\n      tag_37\n      jump\t// in\n    tag_68:\n        /* \"#utility.yul\":2111:2135   */\n      swap3\n      pop\n        /* \"#utility.yul\":2158:2159   */\n      dup3\n        /* \"#utility.yul\":2155:2156   */\n      dup3\n        /* \"#utility.yul\":2151:2160   */\n      add\n        /* \"#utility.yul\":2144:2160   */\n      swap1\n      pop\n        /* \"#utility.yul\":2356:2357   */\n      dup3\n        /* \"#utility.yul\":2351:2354   */\n      dup2\n        /* \"#utility.yul\":2347:2358   */\n      slt\n        /* \"#utility.yul\":2340:2359   */\n      iszero\n        /* \"#utility.yul\":2336:2337   */\n      0x00\n        /* \"#utility.yul\":2333:2334   */\n      dup4\n        /* \"#utility.yul\":2329:2338   */\n      slt\n        /* \"#utility.yul\":2325:2360   */\n      and\n        /* \"#utility.yul\":2308:2309   */\n      dup4\n        /* \"#utility.yul\":2303:2306   */\n      dup3\n        /* \"#utility.yul\":2299:2310   */\n      slt\n        /* \"#utility.yul\":2294:2295   */\n      0x00\n        /* \"#utility.yul\":2291:2292   */\n      dup5\n        /* \"#utility.yul\":2287:2296   */\n      slt\n        /* \"#utility.yul\":2280:2297   */\n      iszero\n        /* \"#utility.yul\":2276:2311   */\n      and\n        /* \"#utility.yul\":2260:2370   */\n      or\n        /* \"#utility.yul\":2257:2393   */\n      iszero\n      tag_69\n      jumpi\n        /* \"#utility.yul\":2373:2391   */\n      tag_70\n      tag_41\n      jump\t// in\n    tag_70:\n        /* \"#utility.yul\":2257:2393   */\n    tag_69:\n        /* \"#utility.yul\":2025:2400   */\n      swap3\n      swap2\n      pop\n      pop\n      jump\t// out\n\n    auxdata: 0xa26469706673582212207a4d70e4b8c421a6f9aa269bf33942047a183ec297376330f40e68f858b941a264736f6c634300081a0033\n}\n",
				"bytecode": {
					"linkReferences": {},
					"object": "6080604052600a5f553480156012575f80fd5b506102a9806100205f395ff3fe608060405234801561000f575f80fd5b5060043610610055575f3560e01c80632d5518a3146100595780637528163614610075578063a40f1c6414610091578063bde2b573146100c1578063ccf5d57a146100df575b5f80fd5b610073600480360381019061006e9190610174565b6100fd565b005b61008f600480360381019061008a919061019f565b610106565b005b6100ab60048036038101906100a6919061019f565b61011b565b6040516100b891906101ec565b60405180910390f35b6100c9610130565b6040516100d691906101ec565b60405180910390f35b6100e7610135565b6040516100f491906101ec565b60405180910390f35b805f8190555050565b80826101129190610232565b5f819055505050565b5f81836101289190610232565b905092915050565b5f5481565b5f8054905090565b5f80fd5b5f819050919050565b61015381610141565b811461015d575f80fd5b50565b5f8135905061016e8161014a565b92915050565b5f602082840312156101895761018861013d565b5b5f61019684828501610160565b91505092915050565b5f80604083850312156101b5576101b461013d565b5b5f6101c285828601610160565b92505060206101d385828601610160565b9150509250929050565b6101e681610141565b82525050565b5f6020820190506101ff5f8301846101dd565b92915050565b7f4e487b71000000000000000000000000000000000000000000000000000000005f52601160045260245ffd5b5f61023c82610141565b915061024783610141565b92508282019050828112155f8312168382125f84121516171561026d5761026c610205565b5b9291505056fea26469706673582212207a4d70e4b8c421a6f9aa269bf33942047a183ec297376330f40e68f858b941a264736f6c634300081a0033",
					"opcodes": "PUSH1 0x80 PUSH1 0x40 MSTORE PUSH1 0xA PUSH0 SSTORE CALLVALUE DUP1 ISZERO PUSH1 0x12 JUMPI PUSH0 DUP1 REVERT JUMPDEST POP PUSH2 0x2A9 DUP1 PUSH2 0x20 PUSH0 CODECOPY PUSH0 RETURN INVALID PUSH1 0x80 PUSH1 0x40 MSTORE CALLVALUE DUP1 ISZERO PUSH2 0xF JUMPI PUSH0 DUP1 REVERT JUMPDEST POP PUSH1 0x4 CALLDATASIZE LT PUSH2 0x55 JUMPI PUSH0 CALLDATALOAD PUSH1 0xE0 SHR DUP1 PUSH4 0x2D5518A3 EQ PUSH2 0x59 JUMPI DUP1 PUSH4 0x75281636 EQ PUSH2 0x75 JUMPI DUP1 PUSH4 0xA40F1C64 EQ PUSH2 0x91 JUMPI DUP1 PUSH4 0xBDE2B573 EQ PUSH2 0xC1 JUMPI DUP1 PUSH4 0xCCF5D57A EQ PUSH2 0xDF JUMPI JUMPDEST PUSH0 DUP1 REVERT JUMPDEST PUSH2 0x73 PUSH1 0x4 DUP1 CALLDATASIZE SUB DUP2 ADD SWAP1 PUSH2 0x6E SWAP2 SWAP1 PUSH2 0x174 JUMP JUMPDEST PUSH2 0xFD JUMP JUMPDEST STOP JUMPDEST PUSH2 0x8F PUSH1 0x4 DUP1 CALLDATASIZE SUB DUP2 ADD SWAP1 PUSH2 0x8A SWAP2 SWAP1 PUSH2 0x19F JUMP JUMPDEST PUSH2 0x106 JUMP JUMPDEST STOP JUMPDEST PUSH2 0xAB PUSH1 0x4 DUP1 CALLDATASIZE SUB DUP2 ADD SWAP1 PUSH2 0xA6 SWAP2 SWAP1 PUSH2 0x19F JUMP JUMPDEST PUSH2 0x11B JUMP JUMPDEST PUSH1 0x40 MLOAD PUSH2 0xB8 SWAP2 SWAP1 PUSH2 0x1EC JUMP JUMPDEST PUSH1 0x40 MLOAD DUP1 SWAP2 SUB SWAP1 RETURN JUMPDEST PUSH2 0xC9 PUSH2 0x130 JUMP JUMPDEST PUSH1 0x40 MLOAD PUSH2 0xD6 SWAP2 SWAP1 PUSH2 0x1EC JUMP JUMPDEST PUSH1 0x40 MLOAD DUP1 SWAP2 SUB SWAP1 RETURN JUMPDEST PUSH2 0xE7 PUSH2 0x135 JUMP JUMPDEST PUSH1 0x40 MLOAD PUSH2 0xF4 SWAP2 SWAP1 PUSH2 0x1EC JUMP JUMPDEST PUSH1 0x40 MLOAD DUP1 SWAP2 SUB SWAP1 RETURN JUMPDEST DUP1 PUSH0 DUP2 SWAP1 SSTORE POP POP JUMP JUMPDEST DUP1 DUP3 PUSH2 0x112 SWAP2 SWAP1 PUSH2 0x232 JUMP JUMPDEST PUSH0 DUP2 SWAP1 SSTORE POP POP POP JUMP JUMPDEST PUSH0 DUP2 DUP4 PUSH2 0x128 SWAP2 SWAP1 PUSH2 0x232 JUMP JUMPDEST SWAP1 POP SWAP3 SWAP2 POP POP JUMP JUMPDEST PUSH0 SLOAD DUP2 JUMP JUMPDEST PUSH0 DUP1 SLOAD SWAP1 POP SWAP1 JUMP JUMPDEST PUSH0 DUP1 REVERT JUMPDEST PUSH0 DUP2 SWAP1 POP SWAP2 SWAP1 POP JUMP JUMPDEST PUSH2 0x153 DUP2 PUSH2 0x141 JUMP JUMPDEST DUP2 EQ PUSH2 0x15D JUMPI PUSH0 DUP1 REVERT JUMPDEST POP JUMP JUMPDEST PUSH0 DUP2 CALLDATALOAD SWAP1 POP PUSH2 0x16E DUP2 PUSH2 0x14A JUMP JUMPDEST SWAP3 SWAP2 POP POP JUMP JUMPDEST PUSH0 PUSH1 0x20 DUP3 DUP5 SUB SLT ISZERO PUSH2 0x189 JUMPI PUSH2 0x188 PUSH2 0x13D JUMP JUMPDEST JUMPDEST PUSH0 PUSH2 0x196 DUP5 DUP3 DUP6 ADD PUSH2 0x160 JUMP JUMPDEST SWAP2 POP POP SWAP3 SWAP2 POP POP JUMP JUMPDEST PUSH0 DUP1 PUSH1 0x40 DUP4 DUP6 SUB SLT ISZERO PUSH2 0x1B5 JUMPI PUSH2 0x1B4 PUSH2 0x13D JUMP JUMPDEST JUMPDEST PUSH0 PUSH2 0x1C2 DUP6 DUP3 DUP7 ADD PUSH2 0x160 JUMP JUMPDEST SWAP3 POP POP PUSH1 0x20 PUSH2 0x1D3 DUP6 DUP3 DUP7 ADD PUSH2 0x160 JUMP JUMPDEST SWAP2 POP POP SWAP3 POP SWAP3 SWAP1 POP JUMP JUMPDEST PUSH2 0x1E6 DUP2 PUSH2 0x141 JUMP JUMPDEST DUP3 MSTORE POP POP JUMP JUMPDEST PUSH0 PUSH1 0x20 DUP3 ADD SWAP1 POP PUSH2 0x1FF PUSH0 DUP4 ADD DUP5 PUSH2 0x1DD JUMP JUMPDEST SWAP3 SWAP2 POP POP JUMP JUMPDEST PUSH32 0x4E487B7100000000000000000000000000000000000000000000000000000000 PUSH0 MSTORE PUSH1 0x11 PUSH1 0x4 MSTORE PUSH1 0x24 PUSH0 REVERT JUMPDEST PUSH0 PUSH2 0x23C DUP3 PUSH2 0x141 JUMP JUMPDEST SWAP2 POP PUSH2 0x247 DUP4 PUSH2 0x141 JUMP JUMPDEST SWAP3 POP DUP3 DUP3 ADD SWAP1 POP DUP3 DUP2 SLT ISZERO PUSH0 DUP4 SLT AND DUP4 DUP3 SLT PUSH0 DUP5 SLT ISZERO AND OR ISZERO PUSH2 0x26D JUMPI PUSH2 0x26C PUSH2 0x205 JUMP JUMPDEST JUMPDEST SWAP3 SWAP2 POP POP JUMP INVALID LOG2 PUSH5 0x6970667358 0x22 SLT KECCAK256 PUSH27 0x4D70E4B8C421A6F9AA269BF33942047A183EC297376330F40E68F8 PC 0xB9 COINBASE LOG2 PUSH5 0x736F6C6343 STOP ADDMOD BYTE STOP CALLER "
				},
				"gasEstimates": {
					"creation": {
						"codeDepositCost": "136200",
						"executionCost": "22286",
						"totalCost": "158486"
					},
					"external": {
						"changeAndAdd(int256,int256)": "infinite",
						"getValueOfhe()": "2498",
						"hey()": "2468",
						"justAdd2Numbers(int256,int256)": "infinite",
						"updateData(int256)": "22492"
					}
				},
				"methodIdentifiers": {
					"changeAndAdd(int256,int256)": "75281636",
					"getValueOfhe()": "ccf5d57a",
					"hey()": "bde2b573",
					"justAdd2Numbers(int256,int256)": "a40f1c64",
					"updateData(int256)": "2d5518a3"
				}
			},
			"storageLayout": {
				"storage": [
					{
						"astId": 4,
						"contract": "contracts/functions.sol:LearnFunction",
						"label": "hey",
						"offset": 0,
						"slot": "0",
						"type": "t_int256"
					}
				],
				"types": {
					"t_int256": {
						"encoding": "inplace",
						"label": "int256",
						"numberOfBytes": "32"
					}
				}
			},
			"userdoc": {
				"kind": "user",
				"methods": {},
				"version": 1
			}
		}
	}
}