{
	"contracts/5_globalvar.sol": {
		"GlobalVariables": {
			"abi": [
				{
					"inputs": [],
					"stateMutability": "payable",
					"type": "constructor"
				},
				{
					"inputs": [],
					"name": "FirstFour",
					"outputs": [
						{
							"internalType": "bytes4",
							"name": "",
							"type": "bytes4"
						}
					],
					"stateMutability": "view",
					"type": "function"
				},
				{
					"inputs": [],
					"name": "callData",
					"outputs": [
						{
							"internalType": "bytes",
							"name": "",
							"type": "bytes"
						}
					],
					"stateMutability": "view",
					"type": "function"
				},
				{
					"inputs": [],
					"name": "difficulty",
					"outputs": [
						{
							"internalType": "int256",
							"name": "",
							"type": "int256"
						}
					],
					"stateMutability": "view",
					"type": "function"
				},
				{
					"inputs": [],
					"name": "gasLimit",
					"outputs": [
						{
							"internalType": "uint256",
							"name": "",
							"type": "uint256"
						}
					],
					"stateMutability": "view",
					"type": "function"
				},
				{
					"inputs": [],
					"name": "gasPrice",
					"outputs": [
						{
							"internalType": "int256",
							"name": "",
							"type": "int256"
						}
					],
					"stateMutability": "view",
					"type": "function"
				},
				{
					"inputs": [],
					"name": "myBlockHash",
					"outputs": [
						{
							"internalType": "address",
							"name": "",
							"type": "address"
						}
					],
					"stateMutability": "view",
					"type": "function"
				},
				{
					"inputs": [],
					"name": "nowOn",
					"outputs": [
						{
							"internalType": "int256",
							"name": "",
							"type": "int256"
						}
					],
					"stateMutability": "view",
					"type": "function"
				},
				{
					"inputs": [],
					"name": "number",
					"outputs": [
						{
							"internalType": "uint256",
							"name": "",
							"type": "uint256"
						}
					],
					"stateMutability": "view",
					"type": "function"
				},
				{
					"inputs": [],
					"name": "origin",
					"outputs": [
						{
							"internalType": "address",
							"name": "",
							"type": "address"
						}
					],
					"stateMutability": "view",
					"type": "function"
				},
				{
					"inputs": [],
					"name": "owner",
					"outputs": [
						{
							"internalType": "address",
							"name": "",
							"type": "address"
						}
					],
					"stateMutability": "view",
					"type": "function"
				},
				{
					"inputs": [],
					"name": "timestamp",
					"outputs": [
						{
							"internalType": "uint256",
							"name": "",
							"type": "uint256"
						}
					],
					"stateMutability": "view",
					"type": "function"
				},
				{
					"inputs": [],
					"name": "value",
					"outputs": [
						{
							"internalType": "uint256",
							"name": "",
							"type": "uint256"
						}
					],
					"stateMutability": "view",
					"type": "function"
				}
			],
			"devdoc": {
				"kind": "dev",
				"methods": {},
				"version": 1
			},
			"evm": {
				"assembly": "    /* \"contracts/5_globalvar.sol\":212:1152  contract GlobalVariables {... */\n  mstore(0x40, 0x80)\n    /* \"contracts/5_globalvar.sol\":835:845  msg.sender */\n  caller\n    /* \"contracts/5_globalvar.sol\":827:832  owner */\n  0x00\n  dup1\n    /* \"contracts/5_globalvar.sol\":827:845  owner = msg.sender */\n  0x0100\n  exp\n  dup2\n  sload\n  dup2\n  0xffffffffffffffffffffffffffffffffffffffff\n  mul\n  not\n  and\n  swap1\n  dup4\n  0xffffffffffffffffffffffffffffffffffffffff\n  and\n  mul\n  or\n  swap1\n  sstore\n  pop\n    /* \"contracts/5_globalvar.sol\":870:884  block.coinbase */\n  coinbase\n    /* \"contracts/5_globalvar.sol\":856:867  myBlockHash */\n  0x01\n  0x00\n    /* \"contracts/5_globalvar.sol\":856:884  myBlockHash = block.coinbase */\n  0x0100\n  exp\n  dup2\n  sload\n  dup2\n  0xffffffffffffffffffffffffffffffffffffffff\n  mul\n  not\n  and\n  swap1\n  dup4\n  0xffffffffffffffffffffffffffffffffffffffff\n  and\n  mul\n  or\n  swap1\n  sstore\n  pop\n    /* \"contracts/5_globalvar.sol\":946:960  block.gaslimit */\n  gaslimit\n    /* \"contracts/5_globalvar.sol\":935:943  gasLimit */\n  0x03\n    /* \"contracts/5_globalvar.sol\":935:960  gasLimit = block.gaslimit */\n  dup2\n  swap1\n  sstore\n  pop\n    /* \"contracts/5_globalvar.sol\":979:991  block.number */\n  number\n    /* \"contracts/5_globalvar.sol\":970:976  number */\n  0x04\n    /* \"contracts/5_globalvar.sol\":970:991  number = block.number */\n  dup2\n  swap1\n  sstore\n  pop\n    /* \"contracts/5_globalvar.sol\":1013:1028  block.timestamp */\n  timestamp\n    /* \"contracts/5_globalvar.sol\":1001:1010  timestamp */\n  0x05\n    /* \"contracts/5_globalvar.sol\":1001:1028  timestamp = block.timestamp */\n  dup2\n  swap1\n  sstore\n  pop\n    /* \"contracts/5_globalvar.sol\":1047:1056  tx.origin */\n  origin\n    /* \"contracts/5_globalvar.sol\":1038:1044  origin */\n  0x08\n  0x00\n    /* \"contracts/5_globalvar.sol\":1038:1056  origin = tx.origin */\n  0x0100\n  exp\n  dup2\n  sload\n  dup2\n  0xffffffffffffffffffffffffffffffffffffffff\n  mul\n  not\n  and\n  swap1\n  dup4\n  0xffffffffffffffffffffffffffffffffffffffff\n  and\n  mul\n  or\n  swap1\n  sstore\n  pop\n    /* \"contracts/5_globalvar.sol\":1077:1085  msg.data */\n  0x00\n  calldatasize\n    /* \"contracts/5_globalvar.sol\":1066:1074  callData */\n  0x0a\n    /* \"contracts/5_globalvar.sol\":1066:1085  callData = msg.data */\n  swap2\n  dup3\n  tag_3\n  swap3\n  swap2\n  swap1\n  tag_4\n  jump\t// in\ntag_3:\n  pop\n    /* \"contracts/5_globalvar.sol\":1107:1114  msg.sig */\n  and(0xffffffff00000000000000000000000000000000000000000000000000000000, calldataload(0x00))\n    /* \"contracts/5_globalvar.sol\":1095:1104  FirstFour */\n  0x0b\n  0x00\n    /* \"contracts/5_globalvar.sol\":1095:1114  FirstFour = msg.sig */\n  0x0100\n  exp\n  dup2\n  sload\n  dup2\n  0xffffffff\n  mul\n  not\n  and\n  swap1\n  dup4\n  0xe0\n  shr\n  mul\n  or\n  swap1\n  sstore\n  pop\n    /* \"contracts/5_globalvar.sol\":1132:1141  msg.value */\n  callvalue\n    /* \"contracts/5_globalvar.sol\":1124:1129  value */\n  0x06\n    /* \"contracts/5_globalvar.sol\":1124:1141  value = msg.value */\n  dup2\n  swap1\n  sstore\n  pop\n    /* \"contracts/5_globalvar.sol\":212:1152  contract GlobalVariables {... */\n  jump(tag_5)\n    /* \"#utility.yul\":7:103   */\ntag_6:\n    /* \"#utility.yul\":65:71   */\n  0x00\n    /* \"#utility.yul\":93:96   */\n  dup3\n    /* \"#utility.yul\":83:96   */\n  swap1\n  pop\n    /* \"#utility.yul\":7:103   */\n  swap3\n  swap2\n  pop\n  pop\n  jump\t// out\n    /* \"#utility.yul\":109:289   */\ntag_7:\n    /* \"#utility.yul\":157:234   */\n  0x4e487b7100000000000000000000000000000000000000000000000000000000\n    /* \"#utility.yul\":154:155   */\n  0x00\n    /* \"#utility.yul\":147:235   */\n  mstore\n    /* \"#utility.yul\":254:258   */\n  0x41\n    /* \"#utility.yul\":251:252   */\n  0x04\n    /* \"#utility.yul\":244:259   */\n  mstore\n    /* \"#utility.yul\":278:282   */\n  0x24\n    /* \"#utility.yul\":275:276   */\n  0x00\n    /* \"#utility.yul\":268:283   */\n  revert\n    /* \"#utility.yul\":295:475   */\ntag_8:\n    /* \"#utility.yul\":343:420   */\n  0x4e487b7100000000000000000000000000000000000000000000000000000000\n    /* \"#utility.yul\":340:341   */\n  0x00\n    /* \"#utility.yul\":333:421   */\n  mstore\n    /* \"#utility.yul\":440:444   */\n  0x22\n    /* \"#utility.yul\":437:438   */\n  0x04\n    /* \"#utility.yul\":430:445   */\n  mstore\n    /* \"#utility.yul\":464:468   */\n  0x24\n    /* \"#utility.yul\":461:462   */\n  0x00\n    /* \"#utility.yul\":454:469   */\n  revert\n    /* \"#utility.yul\":481:801   */\ntag_9:\n    /* \"#utility.yul\":525:531   */\n  0x00\n    /* \"#utility.yul\":562:563   */\n  0x02\n    /* \"#utility.yul\":556:560   */\n  dup3\n    /* \"#utility.yul\":552:564   */\n  div\n    /* \"#utility.yul\":542:564   */\n  swap1\n  pop\n    /* \"#utility.yul\":609:610   */\n  0x01\n    /* \"#utility.yul\":603:607   */\n  dup3\n    /* \"#utility.yul\":599:611   */\n  and\n    /* \"#utility.yul\":630:648   */\n  dup1\n    /* \"#utility.yul\":620:701   */\n  tag_31\n  jumpi\n    /* \"#utility.yul\":686:690   */\n  0x7f\n    /* \"#utility.yul\":678:684   */\n  dup3\n    /* \"#utility.yul\":674:691   */\n  and\n    /* \"#utility.yul\":664:691   */\n  swap2\n  pop\n    /* \"#utility.yul\":620:701   */\ntag_31:\n    /* \"#utility.yul\":748:750   */\n  0x20\n    /* \"#utility.yul\":740:746   */\n  dup3\n    /* \"#utility.yul\":737:751   */\n  lt\n    /* \"#utility.yul\":717:735   */\n  dup2\n    /* \"#utility.yul\":714:752   */\n  sub\n    /* \"#utility.yul\":711:795   */\n  tag_32\n  jumpi\n    /* \"#utility.yul\":767:785   */\n  tag_33\n  tag_8\n  jump\t// in\ntag_33:\n    /* \"#utility.yul\":711:795   */\ntag_32:\n    /* \"#utility.yul\":532:801   */\n  pop\n    /* \"#utility.yul\":481:801   */\n  swap2\n  swap1\n  pop\n  jump\t// out\n    /* \"#utility.yul\":807:947   */\ntag_10:\n    /* \"#utility.yul\":855:859   */\n  0x00\n    /* \"#utility.yul\":878:881   */\n  dup2\n    /* \"#utility.yul\":870:881   */\n  swap1\n  pop\n    /* \"#utility.yul\":901:904   */\n  dup2\n    /* \"#utility.yul\":898:899   */\n  0x00\n    /* \"#utility.yul\":891:905   */\n  mstore\n    /* \"#utility.yul\":935:939   */\n  0x20\n    /* \"#utility.yul\":932:933   */\n  0x00\n    /* \"#utility.yul\":922:940   */\n  keccak256\n    /* \"#utility.yul\":914:940   */\n  swap1\n  pop\n    /* \"#utility.yul\":807:947   */\n  swap2\n  swap1\n  pop\n  jump\t// out\n    /* \"#utility.yul\":953:1046   */\ntag_11:\n    /* \"#utility.yul\":990:996   */\n  0x00\n    /* \"#utility.yul\":1037:1039   */\n  0x20\n    /* \"#utility.yul\":1032:1034   */\n  0x1f\n    /* \"#utility.yul\":1025:1030   */\n  dup4\n    /* \"#utility.yul\":1021:1035   */\n  add\n    /* \"#utility.yul\":1017:1040   */\n  div\n    /* \"#utility.yul\":1007:1040   */\n  swap1\n  pop\n    /* \"#utility.yul\":953:1046   */\n  swap2\n  swap1\n  pop\n  jump\t// out\n    /* \"#utility.yul\":1052:1159   */\ntag_12:\n    /* \"#utility.yul\":1096:1104   */\n  0x00\n    /* \"#utility.yul\":1146:1151   */\n  dup3\n    /* \"#utility.yul\":1140:1144   */\n  dup3\n    /* \"#utility.yul\":1136:1152   */\n  shl\n    /* \"#utility.yul\":1115:1152   */\n  swap1\n  pop\n    /* \"#utility.yul\":1052:1159   */\n  swap3\n  swap2\n  pop\n  pop\n  jump\t// out\n    /* \"#utility.yul\":1165:1558   */\ntag_13:\n    /* \"#utility.yul\":1234:1240   */\n  0x00\n    /* \"#utility.yul\":1284:1285   */\n  0x08\n    /* \"#utility.yul\":1272:1282   */\n  dup4\n    /* \"#utility.yul\":1268:1286   */\n  mul\n    /* \"#utility.yul\":1307:1404   */\n  tag_38\n    /* \"#utility.yul\":1337:1403   */\n  0xffffffffffffffffffffffffffffffffffffffffffffffffffffffffffffffff\n    /* \"#utility.yul\":1326:1335   */\n  dup3\n    /* \"#utility.yul\":1307:1404   */\n  tag_12\n  jump\t// in\ntag_38:\n    /* \"#utility.yul\":1425:1464   */\n  tag_39\n    /* \"#utility.yul\":1455:1463   */\n  dup7\n    /* \"#utility.yul\":1444:1453   */\n  dup4\n    /* \"#utility.yul\":1425:1464   */\n  tag_12\n  jump\t// in\ntag_39:\n    /* \"#utility.yul\":1413:1464   */\n  swap6\n  pop\n    /* \"#utility.yul\":1497:1501   */\n  dup1\n    /* \"#utility.yul\":1493:1502   */\n  not\n    /* \"#utility.yul\":1486:1491   */\n  dup5\n    /* \"#utility.yul\":1482:1503   */\n  and\n    /* \"#utility.yul\":1473:1503   */\n  swap4\n  pop\n    /* \"#utility.yul\":1546:1550   */\n  dup1\n    /* \"#utility.yul\":1536:1544   */\n  dup7\n    /* \"#utility.yul\":1532:1551   */\n  and\n    /* \"#utility.yul\":1525:1530   */\n  dup5\n    /* \"#utility.yul\":1522:1552   */\n  or\n    /* \"#utility.yul\":1512:1552   */\n  swap3\n  pop\n    /* \"#utility.yul\":1241:1558   */\n  pop\n  pop\n    /* \"#utility.yul\":1165:1558   */\n  swap4\n  swap3\n  pop\n  pop\n  pop\n  jump\t// out\n    /* \"#utility.yul\":1564:1641   */\ntag_14:\n    /* \"#utility.yul\":1601:1608   */\n  0x00\n    /* \"#utility.yul\":1630:1635   */\n  dup2\n    /* \"#utility.yul\":1619:1635   */\n  swap1\n  pop\n    /* \"#utility.yul\":1564:1641   */\n  swap2\n  swap1\n  pop\n  jump\t// out\n    /* \"#utility.yul\":1647:1707   */\ntag_15:\n    /* \"#utility.yul\":1675:1678   */\n  0x00\n    /* \"#utility.yul\":1696:1701   */\n  dup2\n    /* \"#utility.yul\":1689:1701   */\n  swap1\n  pop\n    /* \"#utility.yul\":1647:1707   */\n  swap2\n  swap1\n  pop\n  jump\t// out\n    /* \"#utility.yul\":1713:1855   */\ntag_16:\n    /* \"#utility.yul\":1763:1772   */\n  0x00\n    /* \"#utility.yul\":1796:1849   */\n  tag_43\n    /* \"#utility.yul\":1814:1848   */\n  tag_44\n    /* \"#utility.yul\":1823:1847   */\n  tag_45\n    /* \"#utility.yul\":1841:1846   */\n  dup5\n    /* \"#utility.yul\":1823:1847   */\n  tag_14\n  jump\t// in\ntag_45:\n    /* \"#utility.yul\":1814:1848   */\n  tag_15\n  jump\t// in\ntag_44:\n    /* \"#utility.yul\":1796:1849   */\n  tag_14\n  jump\t// in\ntag_43:\n    /* \"#utility.yul\":1783:1849   */\n  swap1\n  pop\n    /* \"#utility.yul\":1713:1855   */\n  swap2\n  swap1\n  pop\n  jump\t// out\n    /* \"#utility.yul\":1861:1936   */\ntag_17:\n    /* \"#utility.yul\":1904:1907   */\n  0x00\n    /* \"#utility.yul\":1925:1930   */\n  dup2\n    /* \"#utility.yul\":1918:1930   */\n  swap1\n  pop\n    /* \"#utility.yul\":1861:1936   */\n  swap2\n  swap1\n  pop\n  jump\t// out\n    /* \"#utility.yul\":1942:2211   */\ntag_18:\n    /* \"#utility.yul\":2052:2091   */\n  tag_48\n    /* \"#utility.yul\":2083:2090   */\n  dup4\n    /* \"#utility.yul\":2052:2091   */\n  tag_16\n  jump\t// in\ntag_48:\n    /* \"#utility.yul\":2113:2204   */\n  tag_49\n    /* \"#utility.yul\":2162:2203   */\n  tag_50\n    /* \"#utility.yul\":2186:2202   */\n  dup3\n    /* \"#utility.yul\":2162:2203   */\n  tag_17\n  jump\t// in\ntag_50:\n    /* \"#utility.yul\":2154:2160   */\n  dup5\n    /* \"#utility.yul\":2147:2151   */\n  dup5\n    /* \"#utility.yul\":2141:2152   */\n  sload\n    /* \"#utility.yul\":2113:2204   */\n  tag_13\n  jump\t// in\ntag_49:\n    /* \"#utility.yul\":2107:2111   */\n  dup3\n    /* \"#utility.yul\":2100:2205   */\n  sstore\n    /* \"#utility.yul\":2018:2211   */\n  pop\n    /* \"#utility.yul\":1942:2211   */\n  pop\n  pop\n  pop\n  jump\t// out\n    /* \"#utility.yul\":2217:2290   */\ntag_19:\n    /* \"#utility.yul\":2262:2265   */\n  0x00\n    /* \"#utility.yul\":2217:2290   */\n  swap1\n  jump\t// out\n    /* \"#utility.yul\":2296:2485   */\ntag_20:\n    /* \"#utility.yul\":2373:2405   */\n  tag_53\n  tag_19\n  jump\t// in\ntag_53:\n    /* \"#utility.yul\":2414:2479   */\n  tag_54\n    /* \"#utility.yul\":2472:2478   */\n  dup2\n    /* \"#utility.yul\":2464:2470   */\n  dup5\n    /* \"#utility.yul\":2458:2462   */\n  dup5\n    /* \"#utility.yul\":2414:2479   */\n  tag_18\n  jump\t// in\ntag_54:\n    /* \"#utility.yul\":2349:2485   */\n  pop\n    /* \"#utility.yul\":2296:2485   */\n  pop\n  pop\n  jump\t// out\n    /* \"#utility.yul\":2491:2677   */\ntag_21:\n    /* \"#utility.yul\":2551:2671   */\ntag_56:\n    /* \"#utility.yul\":2568:2571   */\n  dup2\n    /* \"#utility.yul\":2561:2566   */\n  dup2\n    /* \"#utility.yul\":2558:2572   */\n  lt\n    /* \"#utility.yul\":2551:2671   */\n  iszero\n  tag_58\n  jumpi\n    /* \"#utility.yul\":2622:2661   */\n  tag_59\n    /* \"#utility.yul\":2659:2660   */\n  0x00\n    /* \"#utility.yul\":2652:2657   */\n  dup3\n    /* \"#utility.yul\":2622:2661   */\n  tag_20\n  jump\t// in\ntag_59:\n    /* \"#utility.yul\":2595:2596   */\n  0x01\n    /* \"#utility.yul\":2588:2593   */\n  dup2\n    /* \"#utility.yul\":2584:2597   */\n  add\n    /* \"#utility.yul\":2575:2597   */\n  swap1\n  pop\n    /* \"#utility.yul\":2551:2671   */\n  jump(tag_56)\ntag_58:\n    /* \"#utility.yul\":2491:2677   */\n  pop\n  pop\n  jump\t// out\n    /* \"#utility.yul\":2683:3224   */\ntag_22:\n    /* \"#utility.yul\":2783:2785   */\n  0x1f\n    /* \"#utility.yul\":2778:2781   */\n  dup3\n    /* \"#utility.yul\":2775:2786   */\n  gt\n    /* \"#utility.yul\":2772:3217   */\n  iszero\n  tag_61\n  jumpi\n    /* \"#utility.yul\":2817:2854   */\n  tag_62\n    /* \"#utility.yul\":2848:2853   */\n  dup2\n    /* \"#utility.yul\":2817:2854   */\n  tag_10\n  jump\t// in\ntag_62:\n    /* \"#utility.yul\":2900:2929   */\n  tag_63\n    /* \"#utility.yul\":2918:2928   */\n  dup5\n    /* \"#utility.yul\":2900:2929   */\n  tag_11\n  jump\t// in\ntag_63:\n    /* \"#utility.yul\":2890:2898   */\n  dup2\n    /* \"#utility.yul\":2886:2930   */\n  add\n    /* \"#utility.yul\":3083:3085   */\n  0x20\n    /* \"#utility.yul\":3071:3081   */\n  dup6\n    /* \"#utility.yul\":3068:3086   */\n  lt\n    /* \"#utility.yul\":3065:3114   */\n  iszero\n  tag_64\n  jumpi\n    /* \"#utility.yul\":3104:3112   */\n  dup2\n    /* \"#utility.yul\":3089:3112   */\n  swap1\n  pop\n    /* \"#utility.yul\":3065:3114   */\ntag_64:\n    /* \"#utility.yul\":3127:3207   */\n  tag_65\n    /* \"#utility.yul\":3183:3205   */\n  tag_66\n    /* \"#utility.yul\":3201:3204   */\n  dup6\n    /* \"#utility.yul\":3183:3205   */\n  tag_11\n  jump\t// in\ntag_66:\n    /* \"#utility.yul\":3173:3181   */\n  dup4\n    /* \"#utility.yul\":3169:3206   */\n  add\n    /* \"#utility.yul\":3156:3167   */\n  dup3\n    /* \"#utility.yul\":3127:3207   */\n  tag_21\n  jump\t// in\ntag_65:\n    /* \"#utility.yul\":2787:3217   */\n  pop\n  pop\n    /* \"#utility.yul\":2772:3217   */\ntag_61:\n    /* \"#utility.yul\":2683:3224   */\n  pop\n  pop\n  pop\n  jump\t// out\n    /* \"#utility.yul\":3230:3347   */\ntag_23:\n    /* \"#utility.yul\":3284:3292   */\n  0x00\n    /* \"#utility.yul\":3334:3339   */\n  dup3\n    /* \"#utility.yul\":3328:3332   */\n  dup3\n    /* \"#utility.yul\":3324:3340   */\n  shr\n    /* \"#utility.yul\":3303:3340   */\n  swap1\n  pop\n    /* \"#utility.yul\":3230:3347   */\n  swap3\n  swap2\n  pop\n  pop\n  jump\t// out\n    /* \"#utility.yul\":3353:3522   */\ntag_24:\n    /* \"#utility.yul\":3397:3403   */\n  0x00\n    /* \"#utility.yul\":3430:3481   */\n  tag_69\n    /* \"#utility.yul\":3478:3479   */\n  0x00\n    /* \"#utility.yul\":3474:3480   */\n  not\n    /* \"#utility.yul\":3466:3471   */\n  dup5\n    /* \"#utility.yul\":3463:3464   */\n  0x08\n    /* \"#utility.yul\":3459:3472   */\n  mul\n    /* \"#utility.yul\":3430:3481   */\n  tag_23\n  jump\t// in\ntag_69:\n    /* \"#utility.yul\":3426:3482   */\n  not\n    /* \"#utility.yul\":3511:3515   */\n  dup1\n    /* \"#utility.yul\":3505:3509   */\n  dup4\n    /* \"#utility.yul\":3501:3516   */\n  and\n    /* \"#utility.yul\":3491:3516   */\n  swap2\n  pop\n    /* \"#utility.yul\":3404:3522   */\n  pop\n    /* \"#utility.yul\":3353:3522   */\n  swap3\n  swap2\n  pop\n  pop\n  jump\t// out\n    /* \"#utility.yul\":3527:3822   */\ntag_25:\n    /* \"#utility.yul\":3603:3607   */\n  0x00\n    /* \"#utility.yul\":3749:3778   */\n  tag_71\n    /* \"#utility.yul\":3774:3777   */\n  dup4\n    /* \"#utility.yul\":3768:3772   */\n  dup4\n    /* \"#utility.yul\":3749:3778   */\n  tag_24\n  jump\t// in\ntag_71:\n    /* \"#utility.yul\":3741:3778   */\n  swap2\n  pop\n    /* \"#utility.yul\":3811:3814   */\n  dup3\n    /* \"#utility.yul\":3808:3809   */\n  0x02\n    /* \"#utility.yul\":3804:3815   */\n  mul\n    /* \"#utility.yul\":3798:3802   */\n  dup3\n    /* \"#utility.yul\":3795:3816   */\n  or\n    /* \"#utility.yul\":3787:3816   */\n  swap1\n  pop\n    /* \"#utility.yul\":3527:3822   */\n  swap3\n  swap2\n  pop\n  pop\n  jump\t// out\n    /* \"#utility.yul\":3827:5225   */\ntag_4:\n    /* \"#utility.yul\":3949:3992   */\n  tag_73\n    /* \"#utility.yul\":3988:3991   */\n  dup4\n    /* \"#utility.yul\":3983:3986   */\n  dup4\n    /* \"#utility.yul\":3949:3992   */\n  tag_6\n  jump\t// in\ntag_73:\n    /* \"#utility.yul\":4057:4075   */\n  0xffffffffffffffff\n    /* \"#utility.yul\":4049:4055   */\n  dup2\n    /* \"#utility.yul\":4046:4076   */\n  gt\n    /* \"#utility.yul\":4043:4099   */\n  iszero\n  tag_74\n  jumpi\n    /* \"#utility.yul\":4079:4097   */\n  tag_75\n  tag_7\n  jump\t// in\ntag_75:\n    /* \"#utility.yul\":4043:4099   */\ntag_74:\n    /* \"#utility.yul\":4123:4161   */\n  tag_76\n    /* \"#utility.yul\":4155:4159   */\n  dup3\n    /* \"#utility.yul\":4149:4160   */\n  sload\n    /* \"#utility.yul\":4123:4161   */\n  tag_9\n  jump\t// in\ntag_76:\n    /* \"#utility.yul\":4208:4274   */\n  tag_77\n    /* \"#utility.yul\":4267:4273   */\n  dup3\n    /* \"#utility.yul\":4259:4265   */\n  dup3\n    /* \"#utility.yul\":4253:4257   */\n  dup6\n    /* \"#utility.yul\":4208:4274   */\n  tag_22\n  jump\t// in\ntag_77:\n    /* \"#utility.yul\":4301:4302   */\n  0x00\n    /* \"#utility.yul\":4330:4332   */\n  0x1f\n    /* \"#utility.yul\":4322:4328   */\n  dup4\n    /* \"#utility.yul\":4319:4333   */\n  gt\n    /* \"#utility.yul\":4347:4348   */\n  0x01\n    /* \"#utility.yul\":4342:4973   */\n  dup2\n  eq\n  tag_79\n  jumpi\n    /* \"#utility.yul\":5017:5018   */\n  0x00\n    /* \"#utility.yul\":5034:5040   */\n  dup5\n    /* \"#utility.yul\":5031:5115   */\n  iszero\n  tag_80\n  jumpi\n    /* \"#utility.yul\":5090:5099   */\n  dup3\n    /* \"#utility.yul\":5085:5088   */\n  dup8\n    /* \"#utility.yul\":5081:5100   */\n  add\n    /* \"#utility.yul\":5068:5101   */\n  calldataload\n    /* \"#utility.yul\":5059:5101   */\n  swap1\n  pop\n    /* \"#utility.yul\":5031:5115   */\ntag_80:\n    /* \"#utility.yul\":5141:5208   */\n  tag_81\n    /* \"#utility.yul\":5201:5207   */\n  dup6\n    /* \"#utility.yul\":5194:5199   */\n  dup3\n    /* \"#utility.yul\":5141:5208   */\n  tag_25\n  jump\t// in\ntag_81:\n    /* \"#utility.yul\":5135:5139   */\n  dup7\n    /* \"#utility.yul\":5128:5209   */\n  sstore\n    /* \"#utility.yul\":4990:5219   */\n  pop\n    /* \"#utility.yul\":4312:5219   */\n  jump(tag_78)\n    /* \"#utility.yul\":4342:4973   */\ntag_79:\n    /* \"#utility.yul\":4394:4398   */\n  0x1f\n    /* \"#utility.yul\":4390:4399   */\n  not\n    /* \"#utility.yul\":4382:4388   */\n  dup5\n    /* \"#utility.yul\":4378:4400   */\n  and\n    /* \"#utility.yul\":4428:4464   */\n  tag_82\n    /* \"#utility.yul\":4459:4463   */\n  dup7\n    /* \"#utility.yul\":4428:4464   */\n  tag_10\n  jump\t// in\ntag_82:\n    /* \"#utility.yul\":4486:4487   */\n  0x00\n    /* \"#utility.yul\":4500:4715   */\ntag_83:\n    /* \"#utility.yul\":4514:4521   */\n  dup3\n    /* \"#utility.yul\":4511:4512   */\n  dup2\n    /* \"#utility.yul\":4508:4522   */\n  lt\n    /* \"#utility.yul\":4500:4715   */\n  iszero\n  tag_85\n  jumpi\n    /* \"#utility.yul\":4600:4609   */\n  dup5\n    /* \"#utility.yul\":4595:4598   */\n  dup10\n    /* \"#utility.yul\":4591:4610   */\n  add\n    /* \"#utility.yul\":4578:4611   */\n  calldataload\n    /* \"#utility.yul\":4570:4576   */\n  dup3\n    /* \"#utility.yul\":4563:4612   */\n  sstore\n    /* \"#utility.yul\":4651:4652   */\n  0x01\n    /* \"#utility.yul\":4643:4649   */\n  dup3\n    /* \"#utility.yul\":4639:4653   */\n  add\n    /* \"#utility.yul\":4629:4653   */\n  swap2\n  pop\n    /* \"#utility.yul\":4698:4700   */\n  0x20\n    /* \"#utility.yul\":4687:4696   */\n  dup6\n    /* \"#utility.yul\":4683:4701   */\n  add\n    /* \"#utility.yul\":4670:4701   */\n  swap5\n  pop\n    /* \"#utility.yul\":4537:4541   */\n  0x20\n    /* \"#utility.yul\":4534:4535   */\n  dup2\n    /* \"#utility.yul\":4530:4542   */\n  add\n    /* \"#utility.yul\":4525:4542   */\n  swap1\n  pop\n    /* \"#utility.yul\":4500:4715   */\n  jump(tag_83)\ntag_85:\n    /* \"#utility.yul\":4743:4749   */\n  dup7\n    /* \"#utility.yul\":4734:4741   */\n  dup4\n    /* \"#utility.yul\":4731:4750   */\n  lt\n    /* \"#utility.yul\":4728:4914   */\n  iszero\n  tag_86\n  jumpi\n    /* \"#utility.yul\":4808:4817   */\n  dup5\n    /* \"#utility.yul\":4803:4806   */\n  dup10\n    /* \"#utility.yul\":4799:4818   */\n  add\n    /* \"#utility.yul\":4786:4819   */\n  calldataload\n    /* \"#utility.yul\":4851:4899   */\n  tag_87\n    /* \"#utility.yul\":4893:4897   */\n  0x1f\n    /* \"#utility.yul\":4885:4891   */\n  dup10\n    /* \"#utility.yul\":4881:4898   */\n  and\n    /* \"#utility.yul\":4870:4879   */\n  dup3\n    /* \"#utility.yul\":4851:4899   */\n  tag_24\n  jump\t// in\ntag_87:\n    /* \"#utility.yul\":4843:4849   */\n  dup4\n    /* \"#utility.yul\":4836:4900   */\n  sstore\n    /* \"#utility.yul\":4751:4914   */\n  pop\n    /* \"#utility.yul\":4728:4914   */\ntag_86:\n    /* \"#utility.yul\":4960:4961   */\n  0x01\n    /* \"#utility.yul\":4956:4957   */\n  0x02\n    /* \"#utility.yul\":4948:4954   */\n  dup9\n    /* \"#utility.yul\":4944:4958   */\n  mul\n    /* \"#utility.yul\":4940:4962   */\n  add\n    /* \"#utility.yul\":4934:4938   */\n  dup9\n    /* \"#utility.yul\":4927:4963   */\n  sstore\n    /* \"#utility.yul\":4349:4973   */\n  pop\n  pop\n  pop\n    /* \"#utility.yul\":4312:5219   */\ntag_78:\n  pop\n    /* \"#utility.yul\":3924:5225   */\n  pop\n  pop\n  pop\n    /* \"#utility.yul\":3827:5225   */\n  pop\n  pop\n  pop\n  jump\t// out\n    /* \"contracts/5_globalvar.sol\":212:1152  contract GlobalVariables {... */\ntag_5:\n  dataSize(sub_0)\n  dup1\n  dataOffset(sub_0)\n  0x00\n  codecopy\n  0x00\n  return\nstop\n\nsub_0: assembly {\n        /* \"contracts/5_globalvar.sol\":212:1152  contract GlobalVariables {... */\n      mstore(0x40, 0x80)\n      callvalue\n      dup1\n      iszero\n      tag_1\n      jumpi\n      0x00\n      dup1\n      revert\n    tag_1:\n      pop\n      jumpi(tag_2, lt(calldatasize, 0x04))\n      shr(0xe0, calldataload(0x00))\n      dup1\n      0x8da5cb5b\n      gt\n      tag_15\n      jumpi\n      dup1\n      0x8da5cb5b\n      eq\n      tag_9\n      jumpi\n      dup1\n      0x938b5f32\n      eq\n      tag_10\n      jumpi\n      dup1\n      0xb28a9682\n      eq\n      tag_11\n      jumpi\n      dup1\n      0xb80777ea\n      eq\n      tag_12\n      jumpi\n      dup1\n      0xf68016b7\n      eq\n      tag_13\n      jumpi\n      dup1\n      0xfe173b97\n      eq\n      tag_14\n      jumpi\n      jump(tag_2)\n    tag_15:\n      dup1\n      0x19cae462\n      eq\n      tag_3\n      jumpi\n      dup1\n      0x22b22ce8\n      eq\n      tag_4\n      jumpi\n      dup1\n      0x30e284df\n      eq\n      tag_5\n      jumpi\n      dup1\n      0x3fa4f245\n      eq\n      tag_6\n      jumpi\n      dup1\n      0x4e417a98\n      eq\n      tag_7\n      jumpi\n      dup1\n      0x8381f58a\n      eq\n      tag_8\n      jumpi\n    tag_2:\n      0x00\n      dup1\n      revert\n        /* \"contracts/5_globalvar.sol\":302:323  int public difficulty */\n    tag_3:\n      tag_16\n      tag_17\n      jump\t// in\n    tag_16:\n      mload(0x40)\n      tag_18\n      swap2\n      swap1\n      tag_19\n      jump\t// in\n    tag_18:\n      mload(0x40)\n      dup1\n      swap2\n      sub\n      swap1\n      return\n        /* \"contracts/5_globalvar.sol\":441:457  int public nowOn */\n    tag_4:\n      tag_20\n      tag_21\n      jump\t// in\n    tag_20:\n      mload(0x40)\n      tag_22\n      swap2\n      swap1\n      tag_19\n      jump\t// in\n    tag_22:\n      mload(0x40)\n      dup1\n      swap2\n      sub\n      swap1\n      return\n        /* \"contracts/5_globalvar.sol\":270:296  address public myBlockHash */\n    tag_5:\n      tag_23\n      tag_24\n      jump\t// in\n    tag_23:\n      mload(0x40)\n      tag_25\n      swap2\n      swap1\n      tag_26\n      jump\t// in\n    tag_25:\n      mload(0x40)\n      dup1\n      swap2\n      sub\n      swap1\n      return\n        /* \"contracts/5_globalvar.sol\":415:435  uint256 public value */\n    tag_6:\n      tag_27\n      tag_28\n      jump\t// in\n    tag_27:\n      mload(0x40)\n      tag_29\n      swap2\n      swap1\n      tag_30\n      jump\t// in\n    tag_29:\n      mload(0x40)\n      dup1\n      swap2\n      sub\n      swap1\n      return\n        /* \"contracts/5_globalvar.sol\":515:536  bytes public callData */\n    tag_7:\n      tag_31\n      tag_32\n      jump\t// in\n    tag_31:\n      mload(0x40)\n      tag_33\n      swap2\n      swap1\n      tag_34\n      jump\t// in\n    tag_33:\n      mload(0x40)\n      dup1\n      swap2\n      sub\n      swap1\n      return\n        /* \"contracts/5_globalvar.sol\":358:379  uint256 public number */\n    tag_8:\n      tag_35\n      tag_36\n      jump\t// in\n    tag_35:\n      mload(0x40)\n      tag_37\n      swap2\n      swap1\n      tag_30\n      jump\t// in\n    tag_37:\n      mload(0x40)\n      dup1\n      swap2\n      sub\n      swap1\n      return\n        /* \"contracts/5_globalvar.sol\":244:264  address public owner */\n    tag_9:\n      tag_38\n      tag_39\n      jump\t// in\n    tag_38:\n      mload(0x40)\n      tag_40\n      swap2\n      swap1\n      tag_26\n      jump\t// in\n    tag_40:\n      mload(0x40)\n      dup1\n      swap2\n      sub\n      swap1\n      return\n        /* \"contracts/5_globalvar.sol\":463:484  address public origin */\n    tag_10:\n      tag_41\n      tag_42\n      jump\t// in\n    tag_41:\n      mload(0x40)\n      tag_43\n      swap2\n      swap1\n      tag_26\n      jump\t// in\n    tag_43:\n      mload(0x40)\n      dup1\n      swap2\n      sub\n      swap1\n      return\n        /* \"contracts/5_globalvar.sol\":542:565  bytes4 public FirstFour */\n    tag_11:\n      tag_44\n      tag_45\n      jump\t// in\n    tag_44:\n      mload(0x40)\n      tag_46\n      swap2\n      swap1\n      tag_47\n      jump\t// in\n    tag_46:\n      mload(0x40)\n      dup1\n      swap2\n      sub\n      swap1\n      return\n        /* \"contracts/5_globalvar.sol\":385:409  uint256 public timestamp */\n    tag_12:\n      tag_48\n      tag_49\n      jump\t// in\n    tag_48:\n      mload(0x40)\n      tag_50\n      swap2\n      swap1\n      tag_30\n      jump\t// in\n    tag_50:\n      mload(0x40)\n      dup1\n      swap2\n      sub\n      swap1\n      return\n        /* \"contracts/5_globalvar.sol\":329:352  uint256 public gasLimit */\n    tag_13:\n      tag_51\n      tag_52\n      jump\t// in\n    tag_51:\n      mload(0x40)\n      tag_53\n      swap2\n      swap1\n      tag_30\n      jump\t// in\n    tag_53:\n      mload(0x40)\n      dup1\n      swap2\n      sub\n      swap1\n      return\n        /* \"contracts/5_globalvar.sol\":490:509  int public gasPrice */\n    tag_14:\n      tag_54\n      tag_55\n      jump\t// in\n    tag_54:\n      mload(0x40)\n      tag_56\n      swap2\n      swap1\n      tag_19\n      jump\t// in\n    tag_56:\n      mload(0x40)\n      dup1\n      swap2\n      sub\n      swap1\n      return\n        /* \"contracts/5_globalvar.sol\":302:323  int public difficulty */\n    tag_17:\n      sload(0x02)\n      dup2\n      jump\t// out\n        /* \"contracts/5_globalvar.sol\":441:457  int public nowOn */\n    tag_21:\n      sload(0x07)\n      dup2\n      jump\t// out\n        /* \"contracts/5_globalvar.sol\":270:296  address public myBlockHash */\n    tag_24:\n      0x01\n      0x00\n      swap1\n      sload\n      swap1\n      0x0100\n      exp\n      swap1\n      div\n      0xffffffffffffffffffffffffffffffffffffffff\n      and\n      dup2\n      jump\t// out\n        /* \"contracts/5_globalvar.sol\":415:435  uint256 public value */\n    tag_28:\n      sload(0x06)\n      dup2\n      jump\t// out\n        /* \"contracts/5_globalvar.sol\":515:536  bytes public callData */\n    tag_32:\n      0x0a\n      dup1\n      sload\n      tag_57\n      swap1\n      tag_58\n      jump\t// in\n    tag_57:\n      dup1\n      0x1f\n      add\n      0x20\n      dup1\n      swap2\n      div\n      mul\n      0x20\n      add\n      mload(0x40)\n      swap1\n      dup2\n      add\n      0x40\n      mstore\n      dup1\n      swap3\n      swap2\n      swap1\n      dup2\n      dup2\n      mstore\n      0x20\n      add\n      dup3\n      dup1\n      sload\n      tag_59\n      swap1\n      tag_58\n      jump\t// in\n    tag_59:\n      dup1\n      iszero\n      tag_60\n      jumpi\n      dup1\n      0x1f\n      lt\n      tag_61\n      jumpi\n      0x0100\n      dup1\n      dup4\n      sload\n      div\n      mul\n      dup4\n      mstore\n      swap2\n      0x20\n      add\n      swap2\n      jump(tag_60)\n    tag_61:\n      dup3\n      add\n      swap2\n      swap1\n      0x00\n      mstore\n      keccak256(0x00, 0x20)\n      swap1\n    tag_62:\n      dup2\n      sload\n      dup2\n      mstore\n      swap1\n      0x01\n      add\n      swap1\n      0x20\n      add\n      dup1\n      dup4\n      gt\n      tag_62\n      jumpi\n      dup3\n      swap1\n      sub\n      0x1f\n      and\n      dup3\n      add\n      swap2\n    tag_60:\n      pop\n      pop\n      pop\n      pop\n      pop\n      dup2\n      jump\t// out\n        /* \"contracts/5_globalvar.sol\":358:379  uint256 public number */\n    tag_36:\n      sload(0x04)\n      dup2\n      jump\t// out\n        /* \"contracts/5_globalvar.sol\":244:264  address public owner */\n    tag_39:\n      0x00\n      dup1\n      sload\n      swap1\n      0x0100\n      exp\n      swap1\n      div\n      0xffffffffffffffffffffffffffffffffffffffff\n      and\n      dup2\n      jump\t// out\n        /* \"contracts/5_globalvar.sol\":463:484  address public origin */\n    tag_42:\n      0x08\n      0x00\n      swap1\n      sload\n      swap1\n      0x0100\n      exp\n      swap1\n      div\n      0xffffffffffffffffffffffffffffffffffffffff\n      and\n      dup2\n      jump\t// out\n        /* \"contracts/5_globalvar.sol\":542:565  bytes4 public FirstFour */\n    tag_45:\n      0x0b\n      0x00\n      swap1\n      sload\n      swap1\n      0x0100\n      exp\n      swap1\n      div\n      0xe0\n      shl\n      dup2\n      jump\t// out\n        /* \"contracts/5_globalvar.sol\":385:409  uint256 public timestamp */\n    tag_49:\n      sload(0x05)\n      dup2\n      jump\t// out\n        /* \"contracts/5_globalvar.sol\":329:352  uint256 public gasLimit */\n    tag_52:\n      sload(0x03)\n      dup2\n      jump\t// out\n        /* \"contracts/5_globalvar.sol\":490:509  int public gasPrice */\n    tag_55:\n      sload(0x09)\n      dup2\n      jump\t// out\n        /* \"#utility.yul\":7:83   */\n    tag_63:\n        /* \"#utility.yul\":43:50   */\n      0x00\n        /* \"#utility.yul\":72:77   */\n      dup2\n        /* \"#utility.yul\":61:77   */\n      swap1\n      pop\n        /* \"#utility.yul\":7:83   */\n      swap2\n      swap1\n      pop\n      jump\t// out\n        /* \"#utility.yul\":89:204   */\n    tag_64:\n        /* \"#utility.yul\":174:197   */\n      tag_81\n        /* \"#utility.yul\":191:196   */\n      dup2\n        /* \"#utility.yul\":174:197   */\n      tag_63\n      jump\t// in\n    tag_81:\n        /* \"#utility.yul\":169:172   */\n      dup3\n        /* \"#utility.yul\":162:198   */\n      mstore\n        /* \"#utility.yul\":89:204   */\n      pop\n      pop\n      jump\t// out\n        /* \"#utility.yul\":210:428   */\n    tag_19:\n        /* \"#utility.yul\":301:305   */\n      0x00\n        /* \"#utility.yul\":339:341   */\n      0x20\n        /* \"#utility.yul\":328:337   */\n      dup3\n        /* \"#utility.yul\":324:342   */\n      add\n        /* \"#utility.yul\":316:342   */\n      swap1\n      pop\n        /* \"#utility.yul\":352:421   */\n      tag_83\n        /* \"#utility.yul\":418:419   */\n      0x00\n        /* \"#utility.yul\":407:416   */\n      dup4\n        /* \"#utility.yul\":403:420   */\n      add\n        /* \"#utility.yul\":394:400   */\n      dup5\n        /* \"#utility.yul\":352:421   */\n      tag_64\n      jump\t// in\n    tag_83:\n        /* \"#utility.yul\":210:428   */\n      swap3\n      swap2\n      pop\n      pop\n      jump\t// out\n        /* \"#utility.yul\":434:560   */\n    tag_65:\n        /* \"#utility.yul\":471:478   */\n      0x00\n        /* \"#utility.yul\":511:553   */\n      0xffffffffffffffffffffffffffffffffffffffff\n        /* \"#utility.yul\":504:509   */\n      dup3\n        /* \"#utility.yul\":500:554   */\n      and\n        /* \"#utility.yul\":489:554   */\n      swap1\n      pop\n        /* \"#utility.yul\":434:560   */\n      swap2\n      swap1\n      pop\n      jump\t// out\n        /* \"#utility.yul\":566:662   */\n    tag_66:\n        /* \"#utility.yul\":603:610   */\n      0x00\n        /* \"#utility.yul\":632:656   */\n      tag_86\n        /* \"#utility.yul\":650:655   */\n      dup3\n        /* \"#utility.yul\":632:656   */\n      tag_65\n      jump\t// in\n    tag_86:\n        /* \"#utility.yul\":621:656   */\n      swap1\n      pop\n        /* \"#utility.yul\":566:662   */\n      swap2\n      swap1\n      pop\n      jump\t// out\n        /* \"#utility.yul\":668:786   */\n    tag_67:\n        /* \"#utility.yul\":755:779   */\n      tag_88\n        /* \"#utility.yul\":773:778   */\n      dup2\n        /* \"#utility.yul\":755:779   */\n      tag_66\n      jump\t// in\n    tag_88:\n        /* \"#utility.yul\":750:753   */\n      dup3\n        /* \"#utility.yul\":743:780   */\n      mstore\n        /* \"#utility.yul\":668:786   */\n      pop\n      pop\n      jump\t// out\n        /* \"#utility.yul\":792:1014   */\n    tag_26:\n        /* \"#utility.yul\":885:889   */\n      0x00\n        /* \"#utility.yul\":923:925   */\n      0x20\n        /* \"#utility.yul\":912:921   */\n      dup3\n        /* \"#utility.yul\":908:926   */\n      add\n        /* \"#utility.yul\":900:926   */\n      swap1\n      pop\n        /* \"#utility.yul\":936:1007   */\n      tag_90\n        /* \"#utility.yul\":1004:1005   */\n      0x00\n        /* \"#utility.yul\":993:1002   */\n      dup4\n        /* \"#utility.yul\":989:1006   */\n      add\n        /* \"#utility.yul\":980:986   */\n      dup5\n        /* \"#utility.yul\":936:1007   */\n      tag_67\n      jump\t// in\n    tag_90:\n        /* \"#utility.yul\":792:1014   */\n      swap3\n      swap2\n      pop\n      pop\n      jump\t// out\n        /* \"#utility.yul\":1020:1097   */\n    tag_68:\n        /* \"#utility.yul\":1057:1064   */\n      0x00\n        /* \"#utility.yul\":1086:1091   */\n      dup2\n        /* \"#utility.yul\":1075:1091   */\n      swap1\n      pop\n        /* \"#utility.yul\":1020:1097   */\n      swap2\n      swap1\n      pop\n      jump\t// out\n        /* \"#utility.yul\":1103:1221   */\n    tag_69:\n        /* \"#utility.yul\":1190:1214   */\n      tag_93\n        /* \"#utility.yul\":1208:1213   */\n      dup2\n        /* \"#utility.yul\":1190:1214   */\n      tag_68\n      jump\t// in\n    tag_93:\n        /* \"#utility.yul\":1185:1188   */\n      dup3\n        /* \"#utility.yul\":1178:1215   */\n      mstore\n        /* \"#utility.yul\":1103:1221   */\n      pop\n      pop\n      jump\t// out\n        /* \"#utility.yul\":1227:1449   */\n    tag_30:\n        /* \"#utility.yul\":1320:1324   */\n      0x00\n        /* \"#utility.yul\":1358:1360   */\n      0x20\n        /* \"#utility.yul\":1347:1356   */\n      dup3\n        /* \"#utility.yul\":1343:1361   */\n      add\n        /* \"#utility.yul\":1335:1361   */\n      swap1\n      pop\n        /* \"#utility.yul\":1371:1442   */\n      tag_95\n        /* \"#utility.yul\":1439:1440   */\n      0x00\n        /* \"#utility.yul\":1428:1437   */\n      dup4\n        /* \"#utility.yul\":1424:1441   */\n      add\n        /* \"#utility.yul\":1415:1421   */\n      dup5\n        /* \"#utility.yul\":1371:1442   */\n      tag_69\n      jump\t// in\n    tag_95:\n        /* \"#utility.yul\":1227:1449   */\n      swap3\n      swap2\n      pop\n      pop\n      jump\t// out\n        /* \"#utility.yul\":1455:1553   */\n    tag_70:\n        /* \"#utility.yul\":1506:1512   */\n      0x00\n        /* \"#utility.yul\":1540:1545   */\n      dup2\n        /* \"#utility.yul\":1534:1546   */\n      mload\n        /* \"#utility.yul\":1524:1546   */\n      swap1\n      pop\n        /* \"#utility.yul\":1455:1553   */\n      swap2\n      swap1\n      pop\n      jump\t// out\n        /* \"#utility.yul\":1559:1727   */\n    tag_71:\n        /* \"#utility.yul\":1642:1653   */\n      0x00\n        /* \"#utility.yul\":1676:1682   */\n      dup3\n        /* \"#utility.yul\":1671:1674   */\n      dup3\n        /* \"#utility.yul\":1664:1683   */\n      mstore\n        /* \"#utility.yul\":1716:1720   */\n      0x20\n        /* \"#utility.yul\":1711:1714   */\n      dup3\n        /* \"#utility.yul\":1707:1721   */\n      add\n        /* \"#utility.yul\":1692:1721   */\n      swap1\n      pop\n        /* \"#utility.yul\":1559:1727   */\n      swap3\n      swap2\n      pop\n      pop\n      jump\t// out\n        /* \"#utility.yul\":1733:1872   */\n    tag_72:\n        /* \"#utility.yul\":1822:1828   */\n      dup3\n        /* \"#utility.yul\":1817:1820   */\n      dup2\n        /* \"#utility.yul\":1812:1815   */\n      dup4\n        /* \"#utility.yul\":1806:1829   */\n      mcopy\n        /* \"#utility.yul\":1863:1864   */\n      0x00\n        /* \"#utility.yul\":1854:1860   */\n      dup4\n        /* \"#utility.yul\":1849:1852   */\n      dup4\n        /* \"#utility.yul\":1845:1861   */\n      add\n        /* \"#utility.yul\":1838:1865   */\n      mstore\n        /* \"#utility.yul\":1733:1872   */\n      pop\n      pop\n      pop\n      jump\t// out\n        /* \"#utility.yul\":1878:1980   */\n    tag_73:\n        /* \"#utility.yul\":1919:1925   */\n      0x00\n        /* \"#utility.yul\":1970:1972   */\n      0x1f\n        /* \"#utility.yul\":1966:1973   */\n      not\n        /* \"#utility.yul\":1961:1963   */\n      0x1f\n        /* \"#utility.yul\":1954:1959   */\n      dup4\n        /* \"#utility.yul\":1950:1964   */\n      add\n        /* \"#utility.yul\":1946:1974   */\n      and\n        /* \"#utility.yul\":1936:1974   */\n      swap1\n      pop\n        /* \"#utility.yul\":1878:1980   */\n      swap2\n      swap1\n      pop\n      jump\t// out\n        /* \"#utility.yul\":1986:2359   */\n    tag_74:\n        /* \"#utility.yul\":2072:2075   */\n      0x00\n        /* \"#utility.yul\":2100:2138   */\n      tag_101\n        /* \"#utility.yul\":2132:2137   */\n      dup3\n        /* \"#utility.yul\":2100:2138   */\n      tag_70\n      jump\t// in\n    tag_101:\n        /* \"#utility.yul\":2154:2224   */\n      tag_102\n        /* \"#utility.yul\":2217:2223   */\n      dup2\n        /* \"#utility.yul\":2212:2215   */\n      dup6\n        /* \"#utility.yul\":2154:2224   */\n      tag_71\n      jump\t// in\n    tag_102:\n        /* \"#utility.yul\":2147:2224   */\n      swap4\n      pop\n        /* \"#utility.yul\":2233:2298   */\n      tag_103\n        /* \"#utility.yul\":2291:2297   */\n      dup2\n        /* \"#utility.yul\":2286:2289   */\n      dup6\n        /* \"#utility.yul\":2279:2283   */\n      0x20\n        /* \"#utility.yul\":2272:2277   */\n      dup7\n        /* \"#utility.yul\":2268:2284   */\n      add\n        /* \"#utility.yul\":2233:2298   */\n      tag_72\n      jump\t// in\n    tag_103:\n        /* \"#utility.yul\":2323:2352   */\n      tag_104\n        /* \"#utility.yul\":2345:2351   */\n      dup2\n        /* \"#utility.yul\":2323:2352   */\n      tag_73\n      jump\t// in\n    tag_104:\n        /* \"#utility.yul\":2318:2321   */\n      dup5\n        /* \"#utility.yul\":2314:2353   */\n      add\n        /* \"#utility.yul\":2307:2353   */\n      swap2\n      pop\n        /* \"#utility.yul\":2076:2359   */\n      pop\n        /* \"#utility.yul\":1986:2359   */\n      swap3\n      swap2\n      pop\n      pop\n      jump\t// out\n        /* \"#utility.yul\":2365:2674   */\n    tag_34:\n        /* \"#utility.yul\":2476:2480   */\n      0x00\n        /* \"#utility.yul\":2514:2516   */\n      0x20\n        /* \"#utility.yul\":2503:2512   */\n      dup3\n        /* \"#utility.yul\":2499:2517   */\n      add\n        /* \"#utility.yul\":2491:2517   */\n      swap1\n      pop\n        /* \"#utility.yul\":2563:2572   */\n      dup2\n        /* \"#utility.yul\":2557:2561   */\n      dup2\n        /* \"#utility.yul\":2553:2573   */\n      sub\n        /* \"#utility.yul\":2549:2550   */\n      0x00\n        /* \"#utility.yul\":2538:2547   */\n      dup4\n        /* \"#utility.yul\":2534:2551   */\n      add\n        /* \"#utility.yul\":2527:2574   */\n      mstore\n        /* \"#utility.yul\":2591:2667   */\n      tag_106\n        /* \"#utility.yul\":2662:2666   */\n      dup2\n        /* \"#utility.yul\":2653:2659   */\n      dup5\n        /* \"#utility.yul\":2591:2667   */\n      tag_74\n      jump\t// in\n    tag_106:\n        /* \"#utility.yul\":2583:2667   */\n      swap1\n      pop\n        /* \"#utility.yul\":2365:2674   */\n      swap3\n      swap2\n      pop\n      pop\n      jump\t// out\n        /* \"#utility.yul\":2680:2829   */\n    tag_75:\n        /* \"#utility.yul\":2716:2723   */\n      0x00\n        /* \"#utility.yul\":2756:2822   */\n      0xffffffff00000000000000000000000000000000000000000000000000000000\n        /* \"#utility.yul\":2749:2754   */\n      dup3\n        /* \"#utility.yul\":2745:2823   */\n      and\n        /* \"#utility.yul\":2734:2823   */\n      swap1\n      pop\n        /* \"#utility.yul\":2680:2829   */\n      swap2\n      swap1\n      pop\n      jump\t// out\n        /* \"#utility.yul\":2835:2950   */\n    tag_76:\n        /* \"#utility.yul\":2920:2943   */\n      tag_109\n        /* \"#utility.yul\":2937:2942   */\n      dup2\n        /* \"#utility.yul\":2920:2943   */\n      tag_75\n      jump\t// in\n    tag_109:\n        /* \"#utility.yul\":2915:2918   */\n      dup3\n        /* \"#utility.yul\":2908:2944   */\n      mstore\n        /* \"#utility.yul\":2835:2950   */\n      pop\n      pop\n      jump\t// out\n        /* \"#utility.yul\":2956:3174   */\n    tag_47:\n        /* \"#utility.yul\":3047:3051   */\n      0x00\n        /* \"#utility.yul\":3085:3087   */\n      0x20\n        /* \"#utility.yul\":3074:3083   */\n      dup3\n        /* \"#utility.yul\":3070:3088   */\n      add\n        /* \"#utility.yul\":3062:3088   */\n      swap1\n      pop\n        /* \"#utility.yul\":3098:3167   */\n      tag_111\n        /* \"#utility.yul\":3164:3165   */\n      0x00\n        /* \"#utility.yul\":3153:3162   */\n      dup4\n        /* \"#utility.yul\":3149:3166   */\n      add\n        /* \"#utility.yul\":3140:3146   */\n      dup5\n        /* \"#utility.yul\":3098:3167   */\n      tag_76\n      jump\t// in\n    tag_111:\n        /* \"#utility.yul\":2956:3174   */\n      swap3\n      swap2\n      pop\n      pop\n      jump\t// out\n        /* \"#utility.yul\":3180:3360   */\n    tag_77:\n        /* \"#utility.yul\":3228:3305   */\n      0x4e487b7100000000000000000000000000000000000000000000000000000000\n        /* \"#utility.yul\":3225:3226   */\n      0x00\n        /* \"#utility.yul\":3218:3306   */\n      mstore\n        /* \"#utility.yul\":3325:3329   */\n      0x22\n        /* \"#utility.yul\":3322:3323   */\n      0x04\n        /* \"#utility.yul\":3315:3330   */\n      mstore\n        /* \"#utility.yul\":3349:3353   */\n      0x24\n        /* \"#utility.yul\":3346:3347   */\n      0x00\n        /* \"#utility.yul\":3339:3354   */\n      revert\n        /* \"#utility.yul\":3366:3686   */\n    tag_58:\n        /* \"#utility.yul\":3410:3416   */\n      0x00\n        /* \"#utility.yul\":3447:3448   */\n      0x02\n        /* \"#utility.yul\":3441:3445   */\n      dup3\n        /* \"#utility.yul\":3437:3449   */\n      div\n        /* \"#utility.yul\":3427:3449   */\n      swap1\n      pop\n        /* \"#utility.yul\":3494:3495   */\n      0x01\n        /* \"#utility.yul\":3488:3492   */\n      dup3\n        /* \"#utility.yul\":3484:3496   */\n      and\n        /* \"#utility.yul\":3515:3533   */\n      dup1\n        /* \"#utility.yul\":3505:3586   */\n      tag_114\n      jumpi\n        /* \"#utility.yul\":3571:3575   */\n      0x7f\n        /* \"#utility.yul\":3563:3569   */\n      dup3\n        /* \"#utility.yul\":3559:3576   */\n      and\n        /* \"#utility.yul\":3549:3576   */\n      swap2\n      pop\n        /* \"#utility.yul\":3505:3586   */\n    tag_114:\n        /* \"#utility.yul\":3633:3635   */\n      0x20\n        /* \"#utility.yul\":3625:3631   */\n      dup3\n        /* \"#utility.yul\":3622:3636   */\n      lt\n        /* \"#utility.yul\":3602:3620   */\n      dup2\n        /* \"#utility.yul\":3599:3637   */\n      sub\n        /* \"#utility.yul\":3596:3680   */\n      tag_115\n      jumpi\n        /* \"#utility.yul\":3652:3670   */\n      tag_116\n      tag_77\n      jump\t// in\n    tag_116:\n        /* \"#utility.yul\":3596:3680   */\n    tag_115:\n        /* \"#utility.yul\":3417:3686   */\n      pop\n        /* \"#utility.yul\":3366:3686   */\n      swap2\n      swap1\n      pop\n      jump\t// out\n\n    auxdata: 0xa2646970667358221220157d4f0bf56388751abc8c591bf8dda32f30565f4f729a139798ff8b0167ad5264736f6c634300081a0033\n}\n",
				"bytecode": {
					"linkReferences": {},
					"object": "6080604052335f806101000a81548173ffffffffffffffffffffffffffffffffffffffff021916908373ffffffffffffffffffffffffffffffffffffffff1602179055504160015f6101000a81548173ffffffffffffffffffffffffffffffffffffffff021916908373ffffffffffffffffffffffffffffffffffffffff1602179055504560038190555043600481905550426005819055503260085f6101000a81548173ffffffffffffffffffffffffffffffffffffffff021916908373ffffffffffffffffffffffffffffffffffffffff1602179055505f36600a91826100e9929190610370565b505f357fffffffff0000000000000000000000000000000000000000000000000000000016600b5f6101000a81548163ffffffff021916908360e01c02179055503460068190555061043d565b5f82905092915050565b7f4e487b71000000000000000000000000000000000000000000000000000000005f52604160045260245ffd5b7f4e487b71000000000000000000000000000000000000000000000000000000005f52602260045260245ffd5b5f60028204905060018216806101b157607f821691505b6020821081036101c4576101c361016d565b5b50919050565b5f819050815f5260205f209050919050565b5f6020601f8301049050919050565b5f82821b905092915050565b5f600883026102267fffffffffffffffffffffffffffffffffffffffffffffffffffffffffffffffff826101eb565b61023086836101eb565b95508019841693508086168417925050509392505050565b5f819050919050565b5f819050919050565b5f61027461026f61026a84610248565b610251565b610248565b9050919050565b5f819050919050565b61028d8361025a565b6102a16102998261027b565b8484546101f7565b825550505050565b5f90565b6102b56102a9565b6102c0818484610284565b505050565b5b818110156102e3576102d85f826102ad565b6001810190506102c6565b5050565b601f821115610328576102f9816101ca565b610302846101dc565b81016020851015610311578190505b61032561031d856101dc565b8301826102c5565b50505b505050565b5f82821c905092915050565b5f6103485f198460080261032d565b1980831691505092915050565b5f6103608383610339565b9150826002028217905092915050565b61037a8383610136565b67ffffffffffffffff81111561039357610392610140565b5b61039d825461019a565b6103a88282856102e7565b5f601f8311600181146103d5575f84156103c3578287013590505b6103cd8582610355565b865550610434565b601f1984166103e3866101ca565b5f5b8281101561040a578489013582556001820191506020850194506020810190506103e5565b868310156104275784890135610423601f891682610339565b8355505b6001600288020188555050505b50505050505050565b6105838061044a5f395ff3fe608060405234801561000f575f80fd5b50600436106100b2575f3560e01c80638da5cb5b1161006f5780638da5cb5b1461016a578063938b5f3214610188578063b28a9682146101a6578063b80777ea146101c4578063f68016b7146101e2578063fe173b9714610200576100b2565b806319cae462146100b657806322b22ce8146100d457806330e284df146100f25780633fa4f245146101105780634e417a981461012e5780638381f58a1461014c575b5f80fd5b6100be61021e565b6040516100cb919061036b565b60405180910390f35b6100dc610224565b6040516100e9919061036b565b60405180910390f35b6100fa61022a565b60405161010791906103c3565b60405180910390f35b61011861024f565b60405161012591906103f4565b60405180910390f35b610136610255565b604051610143919061047d565b60405180910390f35b6101546102e1565b60405161016191906103f4565b60405180910390f35b6101726102e7565b60405161017f91906103c3565b60405180910390f35b61019061030a565b60405161019d91906103c3565b60405180910390f35b6101ae61032f565b6040516101bb91906104d7565b60405180910390f35b6101cc610341565b6040516101d991906103f4565b60405180910390f35b6101ea610347565b6040516101f791906103f4565b60405180910390f35b61020861034d565b604051610215919061036b565b60405180910390f35b60025481565b60075481565b60015f9054906101000a900473ffffffffffffffffffffffffffffffffffffffff1681565b60065481565b600a80546102629061051d565b80601f016020809104026020016040519081016040528092919081815260200182805461028e9061051d565b80156102d95780601f106102b0576101008083540402835291602001916102d9565b820191905f5260205f20905b8154815290600101906020018083116102bc57829003601f168201915b505050505081565b60045481565b5f8054906101000a900473ffffffffffffffffffffffffffffffffffffffff1681565b60085f9054906101000a900473ffffffffffffffffffffffffffffffffffffffff1681565b600b5f9054906101000a900460e01b81565b60055481565b60035481565b60095481565b5f819050919050565b61036581610353565b82525050565b5f60208201905061037e5f83018461035c565b92915050565b5f73ffffffffffffffffffffffffffffffffffffffff82169050919050565b5f6103ad82610384565b9050919050565b6103bd816103a3565b82525050565b5f6020820190506103d65f8301846103b4565b92915050565b5f819050919050565b6103ee816103dc565b82525050565b5f6020820190506104075f8301846103e5565b92915050565b5f81519050919050565b5f82825260208201905092915050565b8281835e5f83830152505050565b5f601f19601f8301169050919050565b5f61044f8261040d565b6104598185610417565b9350610469818560208601610427565b61047281610435565b840191505092915050565b5f6020820190508181035f8301526104958184610445565b905092915050565b5f7fffffffff0000000000000000000000000000000000000000000000000000000082169050919050565b6104d18161049d565b82525050565b5f6020820190506104ea5f8301846104c8565b92915050565b7f4e487b71000000000000000000000000000000000000000000000000000000005f52602260045260245ffd5b5f600282049050600182168061053457607f821691505b602082108103610547576105466104f0565b5b5091905056fea2646970667358221220157d4f0bf56388751abc8c591bf8dda32f30565f4f729a139798ff8b0167ad5264736f6c634300081a0033",
					"opcodes": "PUSH1 0x80 PUSH1 0x40 MSTORE CALLER PUSH0 DUP1 PUSH2 0x100 EXP DUP2 SLOAD DUP2 PUSH20 0xFFFFFFFFFFFFFFFFFFFFFFFFFFFFFFFFFFFFFFFF MUL NOT AND SWAP1 DUP4 PUSH20 0xFFFFFFFFFFFFFFFFFFFFFFFFFFFFFFFFFFFFFFFF AND MUL OR SWAP1 SSTORE POP COINBASE PUSH1 0x1 PUSH0 PUSH2 0x100 EXP DUP2 SLOAD DUP2 PUSH20 0xFFFFFFFFFFFFFFFFFFFFFFFFFFFFFFFFFFFFFFFF MUL NOT AND SWAP1 DUP4 PUSH20 0xFFFFFFFFFFFFFFFFFFFFFFFFFFFFFFFFFFFFFFFF AND MUL OR SWAP1 SSTORE POP GASLIMIT PUSH1 0x3 DUP2 SWAP1 SSTORE POP NUMBER PUSH1 0x4 DUP2 SWAP1 SSTORE POP TIMESTAMP PUSH1 0x5 DUP2 SWAP1 SSTORE POP ORIGIN PUSH1 0x8 PUSH0 PUSH2 0x100 EXP DUP2 SLOAD DUP2 PUSH20 0xFFFFFFFFFFFFFFFFFFFFFFFFFFFFFFFFFFFFFFFF MUL NOT AND SWAP1 DUP4 PUSH20 0xFFFFFFFFFFFFFFFFFFFFFFFFFFFFFFFFFFFFFFFF AND MUL OR SWAP1 SSTORE POP PUSH0 CALLDATASIZE PUSH1 0xA SWAP2 DUP3 PUSH2 0xE9 SWAP3 SWAP2 SWAP1 PUSH2 0x370 JUMP JUMPDEST POP PUSH0 CALLDATALOAD PUSH32 0xFFFFFFFF00000000000000000000000000000000000000000000000000000000 AND PUSH1 0xB PUSH0 PUSH2 0x100 EXP DUP2 SLOAD DUP2 PUSH4 0xFFFFFFFF MUL NOT AND SWAP1 DUP4 PUSH1 0xE0 SHR MUL OR SWAP1 SSTORE POP CALLVALUE PUSH1 0x6 DUP2 SWAP1 SSTORE POP PUSH2 0x43D JUMP JUMPDEST PUSH0 DUP3 SWAP1 POP SWAP3 SWAP2 POP POP JUMP JUMPDEST PUSH32 0x4E487B7100000000000000000000000000000000000000000000000000000000 PUSH0 MSTORE PUSH1 0x41 PUSH1 0x4 MSTORE PUSH1 0x24 PUSH0 REVERT JUMPDEST PUSH32 0x4E487B7100000000000000000000000000000000000000000000000000000000 PUSH0 MSTORE PUSH1 0x22 PUSH1 0x4 MSTORE PUSH1 0x24 PUSH0 REVERT JUMPDEST PUSH0 PUSH1 0x2 DUP3 DIV SWAP1 POP PUSH1 0x1 DUP3 AND DUP1 PUSH2 0x1B1 JUMPI PUSH1 0x7F DUP3 AND SWAP2 POP JUMPDEST PUSH1 0x20 DUP3 LT DUP2 SUB PUSH2 0x1C4 JUMPI PUSH2 0x1C3 PUSH2 0x16D JUMP JUMPDEST JUMPDEST POP SWAP2 SWAP1 POP JUMP JUMPDEST PUSH0 DUP2 SWAP1 POP DUP2 PUSH0 MSTORE PUSH1 0x20 PUSH0 KECCAK256 SWAP1 POP SWAP2 SWAP1 POP JUMP JUMPDEST PUSH0 PUSH1 0x20 PUSH1 0x1F DUP4 ADD DIV SWAP1 POP SWAP2 SWAP1 POP JUMP JUMPDEST PUSH0 DUP3 DUP3 SHL SWAP1 POP SWAP3 SWAP2 POP POP JUMP JUMPDEST PUSH0 PUSH1 0x8 DUP4 MUL PUSH2 0x226 PUSH32 0xFFFFFFFFFFFFFFFFFFFFFFFFFFFFFFFFFFFFFFFFFFFFFFFFFFFFFFFFFFFFFFFF DUP3 PUSH2 0x1EB JUMP JUMPDEST PUSH2 0x230 DUP7 DUP4 PUSH2 0x1EB JUMP JUMPDEST SWAP6 POP DUP1 NOT DUP5 AND SWAP4 POP DUP1 DUP7 AND DUP5 OR SWAP3 POP POP POP SWAP4 SWAP3 POP POP POP JUMP JUMPDEST PUSH0 DUP2 SWAP1 POP SWAP2 SWAP1 POP JUMP JUMPDEST PUSH0 DUP2 SWAP1 POP SWAP2 SWAP1 POP JUMP JUMPDEST PUSH0 PUSH2 0x274 PUSH2 0x26F PUSH2 0x26A DUP5 PUSH2 0x248 JUMP JUMPDEST PUSH2 0x251 JUMP JUMPDEST PUSH2 0x248 JUMP JUMPDEST SWAP1 POP SWAP2 SWAP1 POP JUMP JUMPDEST PUSH0 DUP2 SWAP1 POP SWAP2 SWAP1 POP JUMP JUMPDEST PUSH2 0x28D DUP4 PUSH2 0x25A JUMP JUMPDEST PUSH2 0x2A1 PUSH2 0x299 DUP3 PUSH2 0x27B JUMP JUMPDEST DUP5 DUP5 SLOAD PUSH2 0x1F7 JUMP JUMPDEST DUP3 SSTORE POP POP POP POP JUMP JUMPDEST PUSH0 SWAP1 JUMP JUMPDEST PUSH2 0x2B5 PUSH2 0x2A9 JUMP JUMPDEST PUSH2 0x2C0 DUP2 DUP5 DUP5 PUSH2 0x284 JUMP JUMPDEST POP POP POP JUMP JUMPDEST JUMPDEST DUP2 DUP2 LT ISZERO PUSH2 0x2E3 JUMPI PUSH2 0x2D8 PUSH0 DUP3 PUSH2 0x2AD JUMP JUMPDEST PUSH1 0x1 DUP2 ADD SWAP1 POP PUSH2 0x2C6 JUMP JUMPDEST POP POP JUMP JUMPDEST PUSH1 0x1F DUP3 GT ISZERO PUSH2 0x328 JUMPI PUSH2 0x2F9 DUP2 PUSH2 0x1CA JUMP JUMPDEST PUSH2 0x302 DUP5 PUSH2 0x1DC JUMP JUMPDEST DUP2 ADD PUSH1 0x20 DUP6 LT ISZERO PUSH2 0x311 JUMPI DUP2 SWAP1 POP JUMPDEST PUSH2 0x325 PUSH2 0x31D DUP6 PUSH2 0x1DC JUMP JUMPDEST DUP4 ADD DUP3 PUSH2 0x2C5 JUMP JUMPDEST POP POP JUMPDEST POP POP POP JUMP JUMPDEST PUSH0 DUP3 DUP3 SHR SWAP1 POP SWAP3 SWAP2 POP POP JUMP JUMPDEST PUSH0 PUSH2 0x348 PUSH0 NOT DUP5 PUSH1 0x8 MUL PUSH2 0x32D JUMP JUMPDEST NOT DUP1 DUP4 AND SWAP2 POP POP SWAP3 SWAP2 POP POP JUMP JUMPDEST PUSH0 PUSH2 0x360 DUP4 DUP4 PUSH2 0x339 JUMP JUMPDEST SWAP2 POP DUP3 PUSH1 0x2 MUL DUP3 OR SWAP1 POP SWAP3 SWAP2 POP POP JUMP JUMPDEST PUSH2 0x37A DUP4 DUP4 PUSH2 0x136 JUMP JUMPDEST PUSH8 0xFFFFFFFFFFFFFFFF DUP2 GT ISZERO PUSH2 0x393 JUMPI PUSH2 0x392 PUSH2 0x140 JUMP JUMPDEST JUMPDEST PUSH2 0x39D DUP3 SLOAD PUSH2 0x19A JUMP JUMPDEST PUSH2 0x3A8 DUP3 DUP3 DUP6 PUSH2 0x2E7 JUMP JUMPDEST PUSH0 PUSH1 0x1F DUP4 GT PUSH1 0x1 DUP2 EQ PUSH2 0x3D5 JUMPI PUSH0 DUP5 ISZERO PUSH2 0x3C3 JUMPI DUP3 DUP8 ADD CALLDATALOAD SWAP1 POP JUMPDEST PUSH2 0x3CD DUP6 DUP3 PUSH2 0x355 JUMP JUMPDEST DUP7 SSTORE POP PUSH2 0x434 JUMP JUMPDEST PUSH1 0x1F NOT DUP5 AND PUSH2 0x3E3 DUP7 PUSH2 0x1CA JUMP JUMPDEST PUSH0 JUMPDEST DUP3 DUP2 LT ISZERO PUSH2 0x40A JUMPI DUP5 DUP10 ADD CALLDATALOAD DUP3 SSTORE PUSH1 0x1 DUP3 ADD SWAP2 POP PUSH1 0x20 DUP6 ADD SWAP5 POP PUSH1 0x20 DUP2 ADD SWAP1 POP PUSH2 0x3E5 JUMP JUMPDEST DUP7 DUP4 LT ISZERO PUSH2 0x427 JUMPI DUP5 DUP10 ADD CALLDATALOAD PUSH2 0x423 PUSH1 0x1F DUP10 AND DUP3 PUSH2 0x339 JUMP JUMPDEST DUP4 SSTORE POP JUMPDEST PUSH1 0x1 PUSH1 0x2 DUP9 MUL ADD DUP9 SSTORE POP POP POP JUMPDEST POP POP POP POP POP POP POP JUMP JUMPDEST PUSH2 0x583 DUP1 PUSH2 0x44A PUSH0 CODECOPY PUSH0 RETURN INVALID PUSH1 0x80 PUSH1 0x40 MSTORE CALLVALUE DUP1 ISZERO PUSH2 0xF JUMPI PUSH0 DUP1 REVERT JUMPDEST POP PUSH1 0x4 CALLDATASIZE LT PUSH2 0xB2 JUMPI PUSH0 CALLDATALOAD PUSH1 0xE0 SHR DUP1 PUSH4 0x8DA5CB5B GT PUSH2 0x6F JUMPI DUP1 PUSH4 0x8DA5CB5B EQ PUSH2 0x16A JUMPI DUP1 PUSH4 0x938B5F32 EQ PUSH2 0x188 JUMPI DUP1 PUSH4 0xB28A9682 EQ PUSH2 0x1A6 JUMPI DUP1 PUSH4 0xB80777EA EQ PUSH2 0x1C4 JUMPI DUP1 PUSH4 0xF68016B7 EQ PUSH2 0x1E2 JUMPI DUP1 PUSH4 0xFE173B97 EQ PUSH2 0x200 JUMPI PUSH2 0xB2 JUMP JUMPDEST DUP1 PUSH4 0x19CAE462 EQ PUSH2 0xB6 JUMPI DUP1 PUSH4 0x22B22CE8 EQ PUSH2 0xD4 JUMPI DUP1 PUSH4 0x30E284DF EQ PUSH2 0xF2 JUMPI DUP1 PUSH4 0x3FA4F245 EQ PUSH2 0x110 JUMPI DUP1 PUSH4 0x4E417A98 EQ PUSH2 0x12E JUMPI DUP1 PUSH4 0x8381F58A EQ PUSH2 0x14C JUMPI JUMPDEST PUSH0 DUP1 REVERT JUMPDEST PUSH2 0xBE PUSH2 0x21E JUMP JUMPDEST PUSH1 0x40 MLOAD PUSH2 0xCB SWAP2 SWAP1 PUSH2 0x36B JUMP JUMPDEST PUSH1 0x40 MLOAD DUP1 SWAP2 SUB SWAP1 RETURN JUMPDEST PUSH2 0xDC PUSH2 0x224 JUMP JUMPDEST PUSH1 0x40 MLOAD PUSH2 0xE9 SWAP2 SWAP1 PUSH2 0x36B JUMP JUMPDEST PUSH1 0x40 MLOAD DUP1 SWAP2 SUB SWAP1 RETURN JUMPDEST PUSH2 0xFA PUSH2 0x22A JUMP JUMPDEST PUSH1 0x40 MLOAD PUSH2 0x107 SWAP2 SWAP1 PUSH2 0x3C3 JUMP JUMPDEST PUSH1 0x40 MLOAD DUP1 SWAP2 SUB SWAP1 RETURN JUMPDEST PUSH2 0x118 PUSH2 0x24F JUMP JUMPDEST PUSH1 0x40 MLOAD PUSH2 0x125 SWAP2 SWAP1 PUSH2 0x3F4 JUMP JUMPDEST PUSH1 0x40 MLOAD DUP1 SWAP2 SUB SWAP1 RETURN JUMPDEST PUSH2 0x136 PUSH2 0x255 JUMP JUMPDEST PUSH1 0x40 MLOAD PUSH2 0x143 SWAP2 SWAP1 PUSH2 0x47D JUMP JUMPDEST PUSH1 0x40 MLOAD DUP1 SWAP2 SUB SWAP1 RETURN JUMPDEST PUSH2 0x154 PUSH2 0x2E1 JUMP JUMPDEST PUSH1 0x40 MLOAD PUSH2 0x161 SWAP2 SWAP1 PUSH2 0x3F4 JUMP JUMPDEST PUSH1 0x40 MLOAD DUP1 SWAP2 SUB SWAP1 RETURN JUMPDEST PUSH2 0x172 PUSH2 0x2E7 JUMP JUMPDEST PUSH1 0x40 MLOAD PUSH2 0x17F SWAP2 SWAP1 PUSH2 0x3C3 JUMP JUMPDEST PUSH1 0x40 MLOAD DUP1 SWAP2 SUB SWAP1 RETURN JUMPDEST PUSH2 0x190 PUSH2 0x30A JUMP JUMPDEST PUSH1 0x40 MLOAD PUSH2 0x19D SWAP2 SWAP1 PUSH2 0x3C3 JUMP JUMPDEST PUSH1 0x40 MLOAD DUP1 SWAP2 SUB SWAP1 RETURN JUMPDEST PUSH2 0x1AE PUSH2 0x32F JUMP JUMPDEST PUSH1 0x40 MLOAD PUSH2 0x1BB SWAP2 SWAP1 PUSH2 0x4D7 JUMP JUMPDEST PUSH1 0x40 MLOAD DUP1 SWAP2 SUB SWAP1 RETURN JUMPDEST PUSH2 0x1CC PUSH2 0x341 JUMP JUMPDEST PUSH1 0x40 MLOAD PUSH2 0x1D9 SWAP2 SWAP1 PUSH2 0x3F4 JUMP JUMPDEST PUSH1 0x40 MLOAD DUP1 SWAP2 SUB SWAP1 RETURN JUMPDEST PUSH2 0x1EA PUSH2 0x347 JUMP JUMPDEST PUSH1 0x40 MLOAD PUSH2 0x1F7 SWAP2 SWAP1 PUSH2 0x3F4 JUMP JUMPDEST PUSH1 0x40 MLOAD DUP1 SWAP2 SUB SWAP1 RETURN JUMPDEST PUSH2 0x208 PUSH2 0x34D JUMP JUMPDEST PUSH1 0x40 MLOAD PUSH2 0x215 SWAP2 SWAP1 PUSH2 0x36B JUMP JUMPDEST PUSH1 0x40 MLOAD DUP1 SWAP2 SUB SWAP1 RETURN JUMPDEST PUSH1 0x2 SLOAD DUP2 JUMP JUMPDEST PUSH1 0x7 SLOAD DUP2 JUMP JUMPDEST PUSH1 0x1 PUSH0 SWAP1 SLOAD SWAP1 PUSH2 0x100 EXP SWAP1 DIV PUSH20 0xFFFFFFFFFFFFFFFFFFFFFFFFFFFFFFFFFFFFFFFF AND DUP2 JUMP JUMPDEST PUSH1 0x6 SLOAD DUP2 JUMP JUMPDEST PUSH1 0xA DUP1 SLOAD PUSH2 0x262 SWAP1 PUSH2 0x51D JUMP JUMPDEST DUP1 PUSH1 0x1F ADD PUSH1 0x20 DUP1 SWAP2 DIV MUL PUSH1 0x20 ADD PUSH1 0x40 MLOAD SWAP1 DUP2 ADD PUSH1 0x40 MSTORE DUP1 SWAP3 SWAP2 SWAP1 DUP2 DUP2 MSTORE PUSH1 0x20 ADD DUP3 DUP1 SLOAD PUSH2 0x28E SWAP1 PUSH2 0x51D JUMP JUMPDEST DUP1 ISZERO PUSH2 0x2D9 JUMPI DUP1 PUSH1 0x1F LT PUSH2 0x2B0 JUMPI PUSH2 0x100 DUP1 DUP4 SLOAD DIV MUL DUP4 MSTORE SWAP2 PUSH1 0x20 ADD SWAP2 PUSH2 0x2D9 JUMP JUMPDEST DUP3 ADD SWAP2 SWAP1 PUSH0 MSTORE PUSH1 0x20 PUSH0 KECCAK256 SWAP1 JUMPDEST DUP2 SLOAD DUP2 MSTORE SWAP1 PUSH1 0x1 ADD SWAP1 PUSH1 0x20 ADD DUP1 DUP4 GT PUSH2 0x2BC JUMPI DUP3 SWAP1 SUB PUSH1 0x1F AND DUP3 ADD SWAP2 JUMPDEST POP POP POP POP POP DUP2 JUMP JUMPDEST PUSH1 0x4 SLOAD DUP2 JUMP JUMPDEST PUSH0 DUP1 SLOAD SWAP1 PUSH2 0x100 EXP SWAP1 DIV PUSH20 0xFFFFFFFFFFFFFFFFFFFFFFFFFFFFFFFFFFFFFFFF AND DUP2 JUMP JUMPDEST PUSH1 0x8 PUSH0 SWAP1 SLOAD SWAP1 PUSH2 0x100 EXP SWAP1 DIV PUSH20 0xFFFFFFFFFFFFFFFFFFFFFFFFFFFFFFFFFFFFFFFF AND DUP2 JUMP JUMPDEST PUSH1 0xB PUSH0 SWAP1 SLOAD SWAP1 PUSH2 0x100 EXP SWAP1 DIV PUSH1 0xE0 SHL DUP2 JUMP JUMPDEST PUSH1 0x5 SLOAD DUP2 JUMP JUMPDEST PUSH1 0x3 SLOAD DUP2 JUMP JUMPDEST PUSH1 0x9 SLOAD DUP2 JUMP JUMPDEST PUSH0 DUP2 SWAP1 POP SWAP2 SWAP1 POP JUMP JUMPDEST PUSH2 0x365 DUP2 PUSH2 0x353 JUMP JUMPDEST DUP3 MSTORE POP POP JUMP JUMPDEST PUSH0 PUSH1 0x20 DUP3 ADD SWAP1 POP PUSH2 0x37E PUSH0 DUP4 ADD DUP5 PUSH2 0x35C JUMP JUMPDEST SWAP3 SWAP2 POP POP JUMP JUMPDEST PUSH0 PUSH20 0xFFFFFFFFFFFFFFFFFFFFFFFFFFFFFFFFFFFFFFFF DUP3 AND SWAP1 POP SWAP2 SWAP1 POP JUMP JUMPDEST PUSH0 PUSH2 0x3AD DUP3 PUSH2 0x384 JUMP JUMPDEST SWAP1 POP SWAP2 SWAP1 POP JUMP JUMPDEST PUSH2 0x3BD DUP2 PUSH2 0x3A3 JUMP JUMPDEST DUP3 MSTORE POP POP JUMP JUMPDEST PUSH0 PUSH1 0x20 DUP3 ADD SWAP1 POP PUSH2 0x3D6 PUSH0 DUP4 ADD DUP5 PUSH2 0x3B4 JUMP JUMPDEST SWAP3 SWAP2 POP POP JUMP JUMPDEST PUSH0 DUP2 SWAP1 POP SWAP2 SWAP1 POP JUMP JUMPDEST PUSH2 0x3EE DUP2 PUSH2 0x3DC JUMP JUMPDEST DUP3 MSTORE POP POP JUMP JUMPDEST PUSH0 PUSH1 0x20 DUP3 ADD SWAP1 POP PUSH2 0x407 PUSH0 DUP4 ADD DUP5 PUSH2 0x3E5 JUMP JUMPDEST SWAP3 SWAP2 POP POP JUMP JUMPDEST PUSH0 DUP2 MLOAD SWAP1 POP SWAP2 SWAP1 POP JUMP JUMPDEST PUSH0 DUP3 DUP3 MSTORE PUSH1 0x20 DUP3 ADD SWAP1 POP SWAP3 SWAP2 POP POP JUMP JUMPDEST DUP3 DUP2 DUP4 MCOPY PUSH0 DUP4 DUP4 ADD MSTORE POP POP POP JUMP JUMPDEST PUSH0 PUSH1 0x1F NOT PUSH1 0x1F DUP4 ADD AND SWAP1 POP SWAP2 SWAP1 POP JUMP JUMPDEST PUSH0 PUSH2 0x44F DUP3 PUSH2 0x40D JUMP JUMPDEST PUSH2 0x459 DUP2 DUP6 PUSH2 0x417 JUMP JUMPDEST SWAP4 POP PUSH2 0x469 DUP2 DUP6 PUSH1 0x20 DUP7 ADD PUSH2 0x427 JUMP JUMPDEST PUSH2 0x472 DUP2 PUSH2 0x435 JUMP JUMPDEST DUP5 ADD SWAP2 POP POP SWAP3 SWAP2 POP POP JUMP JUMPDEST PUSH0 PUSH1 0x20 DUP3 ADD SWAP1 POP DUP2 DUP2 SUB PUSH0 DUP4 ADD MSTORE PUSH2 0x495 DUP2 DUP5 PUSH2 0x445 JUMP JUMPDEST SWAP1 POP SWAP3 SWAP2 POP POP JUMP JUMPDEST PUSH0 PUSH32 0xFFFFFFFF00000000000000000000000000000000000000000000000000000000 DUP3 AND SWAP1 POP SWAP2 SWAP1 POP JUMP JUMPDEST PUSH2 0x4D1 DUP2 PUSH2 0x49D JUMP JUMPDEST DUP3 MSTORE POP POP JUMP JUMPDEST PUSH0 PUSH1 0x20 DUP3 ADD SWAP1 POP PUSH2 0x4EA PUSH0 DUP4 ADD DUP5 PUSH2 0x4C8 JUMP JUMPDEST SWAP3 SWAP2 POP POP JUMP JUMPDEST PUSH32 0x4E487B7100000000000000000000000000000000000000000000000000000000 PUSH0 MSTORE PUSH1 0x22 PUSH1 0x4 MSTORE PUSH1 0x24 PUSH0 REVERT JUMPDEST PUSH0 PUSH1 0x2 DUP3 DIV SWAP1 POP PUSH1 0x1 DUP3 AND DUP1 PUSH2 0x534 JUMPI PUSH1 0x7F DUP3 AND SWAP2 POP JUMPDEST PUSH1 0x20 DUP3 LT DUP2 SUB PUSH2 0x547 JUMPI PUSH2 0x546 PUSH2 0x4F0 JUMP JUMPDEST JUMPDEST POP SWAP2 SWAP1 POP JUMP INVALID LOG2 PUSH5 0x6970667358 0x22 SLT KECCAK256 ISZERO PUSH30 0x4F0BF56388751ABC8C591BF8DDA32F30565F4F729A139798FF8B0167AD52 PUSH5 0x736F6C6343 STOP ADDMOD BYTE STOP CALLER "
				},
				"gasEstimates": {
					"creation": {
						"codeDepositCost": "282200",
						"executionCost": "infinite",
						"totalCost": "infinite"
					},
					"external": {
						"FirstFour()": "2510",
						"callData()": "infinite",
						"difficulty()": "2426",
						"gasLimit()": "2513",
						"gasPrice()": "2535",
						"myBlockHash()": "2553",
						"nowOn()": "2448",
						"number()": "2536",
						"origin()": "2530",
						"owner()": "2505",
						"timestamp()": "2491",
						"value()": "2492"
					}
				},
				"methodIdentifiers": {
					"FirstFour()": "b28a9682",
					"callData()": "4e417a98",
					"difficulty()": "19cae462",
					"gasLimit()": "f68016b7",
					"gasPrice()": "fe173b97",
					"myBlockHash()": "30e284df",
					"nowOn()": "22b22ce8",
					"number()": "8381f58a",
					"origin()": "938b5f32",
					"owner()": "8da5cb5b",
					"timestamp()": "b80777ea",
					"value()": "3fa4f245"
				}
			},
			"storageLayout": {
				"storage": [
					{
						"astId": 3,
						"contract": "contracts/5_globalvar.sol:GlobalVariables",
						"label": "owner",
						"offset": 0,
						"slot": "0",
						"type": "t_address"
					},
					{
						"astId": 5,
						"contract": "contracts/5_globalvar.sol:GlobalVariables",
						"label": "myBlockHash",
						"offset": 0,
						"slot": "1",
						"type": "t_address"
					},
					{
						"astId": 7,
						"contract": "contracts/5_globalvar.sol:GlobalVariables",
						"label": "difficulty",
						"offset": 0,
						"slot": "2",
						"type": "t_int256"
					},
					{
						"astId": 9,
						"contract": "contracts/5_globalvar.sol:GlobalVariables",
						"label": "gasLimit",
						"offset": 0,
						"slot": "3",
						"type": "t_uint256"
					},
					{
						"astId": 11,
						"contract": "contracts/5_globalvar.sol:GlobalVariables",
						"label": "number",
						"offset": 0,
						"slot": "4",
						"type": "t_uint256"
					},
					{
						"astId": 13,
						"contract": "contracts/5_globalvar.sol:GlobalVariables",
						"label": "timestamp",
						"offset": 0,
						"slot": "5",
						"type": "t_uint256"
					},
					{
						"astId": 15,
						"contract": "contracts/5_globalvar.sol:GlobalVariables",
						"label": "value",
						"offset": 0,
						"slot": "6",
						"type": "t_uint256"
					},
					{
						"astId": 17,
						"contract": "contracts/5_globalvar.sol:GlobalVariables",
						"label": "nowOn",
						"offset": 0,
						"slot": "7",
						"type": "t_int256"
					},
					{
						"astId": 19,
						"contract": "contracts/5_globalvar.sol:GlobalVariables",
						"label": "origin",
						"offset": 0,
						"slot": "8",
						"type": "t_address"
					},
					{
						"astId": 21,
						"contract": "contracts/5_globalvar.sol:GlobalVariables",
						"label": "gasPrice",
						"offset": 0,
						"slot": "9",
						"type": "t_int256"
					},
					{
						"astId": 23,
						"contract": "contracts/5_globalvar.sol:GlobalVariables",
						"label": "callData",
						"offset": 0,
						"slot": "10",
						"type": "t_bytes_storage"
					},
					{
						"astId": 25,
						"contract": "contracts/5_globalvar.sol:GlobalVariables",
						"label": "FirstFour",
						"offset": 0,
						"slot": "11",
						"type": "t_bytes4"
					}
				],
				"types": {
					"t_address": {
						"encoding": "inplace",
						"label": "address",
						"numberOfBytes": "20"
					},
					"t_bytes4": {
						"encoding": "inplace",
						"label": "bytes4",
						"numberOfBytes": "4"
					},
					"t_bytes_storage": {
						"encoding": "bytes",
						"label": "bytes",
						"numberOfBytes": "32"
					},
					"t_int256": {
						"encoding": "inplace",
						"label": "int256",
						"numberOfBytes": "32"
					},
					"t_uint256": {
						"encoding": "inplace",
						"label": "uint256",
						"numberOfBytes": "32"
					}
				}
			},
			"userdoc": {
				"kind": "user",
				"methods": {},
				"version": 1
			}
		}
	}
}