{
	"contracts/7_eventtickets.sol": {
		"EventTickets": {
			"abi": [
				{
					"inputs": [
						{
							"internalType": "uint256",
							"name": "_ticketPrice",
							"type": "uint256"
						}
					],
					"stateMutability": "nonpayable",
					"type": "constructor"
				},
				{
					"inputs": [
						{
							"internalType": "uint256",
							"name": "_value",
							"type": "uint256"
						}
					],
					"name": "buyTicket",
					"outputs": [
						{
							"internalType": "uint256",
							"name": "ticketID",
							"type": "uint256"
						}
					],
					"stateMutability": "nonpayable",
					"type": "function"
				},
				{
					"inputs": [],
					"name": "endAt",
					"outputs": [
						{
							"internalType": "uint256",
							"name": "",
							"type": "uint256"
						}
					],
					"stateMutability": "view",
					"type": "function"
				},
				{
					"inputs": [],
					"name": "message",
					"outputs": [
						{
							"internalType": "string",
							"name": "",
							"type": "string"
						}
					],
					"stateMutability": "view",
					"type": "function"
				},
				{
					"inputs": [],
					"name": "numberOfTickets",
					"outputs": [
						{
							"internalType": "uint256",
							"name": "",
							"type": "uint256"
						}
					],
					"stateMutability": "view",
					"type": "function"
				},
				{
					"inputs": [],
					"name": "startAt",
					"outputs": [
						{
							"internalType": "uint256",
							"name": "",
							"type": "uint256"
						}
					],
					"stateMutability": "view",
					"type": "function"
				},
				{
					"inputs": [],
					"name": "ticketPrice",
					"outputs": [
						{
							"internalType": "uint256",
							"name": "",
							"type": "uint256"
						}
					],
					"stateMutability": "view",
					"type": "function"
				},
				{
					"inputs": [],
					"name": "timeRange",
					"outputs": [
						{
							"internalType": "uint256",
							"name": "",
							"type": "uint256"
						}
					],
					"stateMutability": "view",
					"type": "function"
				},
				{
					"inputs": [],
					"name": "totalAmount",
					"outputs": [
						{
							"internalType": "uint256",
							"name": "",
							"type": "uint256"
						}
					],
					"stateMutability": "view",
					"type": "function"
				}
			],
			"devdoc": {
				"kind": "dev",
				"methods": {},
				"version": 1
			},
			"evm": {
				"assembly": "    /* \"contracts/7_eventtickets.sol\":212:1014  contract EventTickets {... */\n  mstore(0x40, 0x80)\n    /* \"contracts/7_eventtickets.sol\":424:477  string public message = \"Buy your first event ticket\" */\n  mload(0x40)\n  dup1\n  0x40\n  add\n  0x40\n  mstore\n  dup1\n  0x1b\n  dup2\n  mstore\n  0x20\n  add\n  0x42757920796f7572206669727374206576656e74207469636b65740000000000\n  dup2\n  mstore\n  pop\n  0x06\n  swap1\n  dup2\n  tag_1\n  swap2\n  swap1\n  tag_2\n  jump\t// in\ntag_1:\n  pop\n    /* \"contracts/7_eventtickets.sol\":484:687  constructor(uint256 _ticketPrice)  {... */\n  callvalue\n  dup1\n  iszero\n  tag_3\n  jumpi\n  0x00\n  dup1\n  revert\ntag_3:\n  pop\n  mload(0x40)\n  sub(codesize, bytecodeSize)\n  dup1\n  bytecodeSize\n  dup4\n  codecopy\n  dup2\n  dup2\n  add\n  0x40\n  mstore\n  dup2\n  add\n  swap1\n  tag_4\n  swap2\n  swap1\n  tag_5\n  jump\t// in\ntag_4:\n    /* \"contracts/7_eventtickets.sol\":543:555  _ticketPrice */\n  dup1\n    /* \"contracts/7_eventtickets.sol\":529:540  ticketPrice */\n  0x01\n    /* \"contracts/7_eventtickets.sol\":529:555  ticketPrice = _ticketPrice */\n  dup2\n  swap1\n  sstore\n  pop\n    /* \"contracts/7_eventtickets.sol\":575:590  block.timestamp */\n  timestamp\n    /* \"contracts/7_eventtickets.sol\":565:572  startAt */\n  0x03\n    /* \"contracts/7_eventtickets.sol\":565:590  startAt = block.timestamp */\n  dup2\n  swap1\n  sstore\n  pop\n    /* \"contracts/7_eventtickets.sol\":626:632  7 days */\n  0x093a80\n    /* \"contracts/7_eventtickets.sol\":608:623  block.timestamp */\n  timestamp\n    /* \"contracts/7_eventtickets.sol\":608:632  block.timestamp + 7 days */\n  tag_8\n  swap2\n  swap1\n  tag_9\n  jump\t// in\ntag_8:\n    /* \"contracts/7_eventtickets.sol\":600:605  endAt */\n  0x04\n    /* \"contracts/7_eventtickets.sol\":600:632  endAt = block.timestamp + 7 days */\n  dup2\n  swap1\n  sstore\n  pop\n    /* \"contracts/7_eventtickets.sol\":678:680  24 */\n  0x18\n    /* \"contracts/7_eventtickets.sol\":675:677  60 */\n  0x3c\n    /* \"contracts/7_eventtickets.sol\":672:674  60 */\n  dup1\n    /* \"contracts/7_eventtickets.sol\":663:670  startAt */\n  sload(0x03)\n    /* \"contracts/7_eventtickets.sol\":655:660  endAt */\n  sload(0x04)\n    /* \"contracts/7_eventtickets.sol\":655:670  endAt - startAt */\n  tag_10\n  swap2\n  swap1\n  tag_11\n  jump\t// in\ntag_10:\n    /* \"contracts/7_eventtickets.sol\":654:674  (endAt - startAt)/60 */\n  tag_12\n  swap2\n  swap1\n  tag_13\n  jump\t// in\ntag_12:\n    /* \"contracts/7_eventtickets.sol\":654:677  (endAt - startAt)/60/60 */\n  tag_14\n  swap2\n  swap1\n  tag_13\n  jump\t// in\ntag_14:\n    /* \"contracts/7_eventtickets.sol\":654:680  (endAt - startAt)/60/60/24 */\n  tag_15\n  swap2\n  swap1\n  tag_13\n  jump\t// in\ntag_15:\n    /* \"contracts/7_eventtickets.sol\":642:651  timeRange */\n  0x05\n    /* \"contracts/7_eventtickets.sol\":642:680  timeRange = (endAt - startAt)/60/60/24 */\n  dup2\n  swap1\n  sstore\n  pop\n    /* \"contracts/7_eventtickets.sol\":484:687  constructor(uint256 _ticketPrice)  {... */\n  pop\n    /* \"contracts/7_eventtickets.sol\":212:1014  contract EventTickets {... */\n  jump(tag_16)\n    /* \"#utility.yul\":7:106   */\ntag_17:\n    /* \"#utility.yul\":59:65   */\n  0x00\n    /* \"#utility.yul\":93:98   */\n  dup2\n    /* \"#utility.yul\":87:99   */\n  mload\n    /* \"#utility.yul\":77:99   */\n  swap1\n  pop\n    /* \"#utility.yul\":7:106   */\n  swap2\n  swap1\n  pop\n  jump\t// out\n    /* \"#utility.yul\":112:292   */\ntag_18:\n    /* \"#utility.yul\":160:237   */\n  0x4e487b7100000000000000000000000000000000000000000000000000000000\n    /* \"#utility.yul\":157:158   */\n  0x00\n    /* \"#utility.yul\":150:238   */\n  mstore\n    /* \"#utility.yul\":257:261   */\n  0x41\n    /* \"#utility.yul\":254:255   */\n  0x04\n    /* \"#utility.yul\":247:262   */\n  mstore\n    /* \"#utility.yul\":281:285   */\n  0x24\n    /* \"#utility.yul\":278:279   */\n  0x00\n    /* \"#utility.yul\":271:286   */\n  revert\n    /* \"#utility.yul\":298:478   */\ntag_19:\n    /* \"#utility.yul\":346:423   */\n  0x4e487b7100000000000000000000000000000000000000000000000000000000\n    /* \"#utility.yul\":343:344   */\n  0x00\n    /* \"#utility.yul\":336:424   */\n  mstore\n    /* \"#utility.yul\":443:447   */\n  0x22\n    /* \"#utility.yul\":440:441   */\n  0x04\n    /* \"#utility.yul\":433:448   */\n  mstore\n    /* \"#utility.yul\":467:471   */\n  0x24\n    /* \"#utility.yul\":464:465   */\n  0x00\n    /* \"#utility.yul\":457:472   */\n  revert\n    /* \"#utility.yul\":484:804   */\ntag_20:\n    /* \"#utility.yul\":528:534   */\n  0x00\n    /* \"#utility.yul\":565:566   */\n  0x02\n    /* \"#utility.yul\":559:563   */\n  dup3\n    /* \"#utility.yul\":555:567   */\n  div\n    /* \"#utility.yul\":545:567   */\n  swap1\n  pop\n    /* \"#utility.yul\":612:613   */\n  0x01\n    /* \"#utility.yul\":606:610   */\n  dup3\n    /* \"#utility.yul\":602:614   */\n  and\n    /* \"#utility.yul\":633:651   */\n  dup1\n    /* \"#utility.yul\":623:704   */\n  tag_49\n  jumpi\n    /* \"#utility.yul\":689:693   */\n  0x7f\n    /* \"#utility.yul\":681:687   */\n  dup3\n    /* \"#utility.yul\":677:694   */\n  and\n    /* \"#utility.yul\":667:694   */\n  swap2\n  pop\n    /* \"#utility.yul\":623:704   */\ntag_49:\n    /* \"#utility.yul\":751:753   */\n  0x20\n    /* \"#utility.yul\":743:749   */\n  dup3\n    /* \"#utility.yul\":740:754   */\n  lt\n    /* \"#utility.yul\":720:738   */\n  dup2\n    /* \"#utility.yul\":717:755   */\n  sub\n    /* \"#utility.yul\":714:798   */\n  tag_50\n  jumpi\n    /* \"#utility.yul\":770:788   */\n  tag_51\n  tag_19\n  jump\t// in\ntag_51:\n    /* \"#utility.yul\":714:798   */\ntag_50:\n    /* \"#utility.yul\":535:804   */\n  pop\n    /* \"#utility.yul\":484:804   */\n  swap2\n  swap1\n  pop\n  jump\t// out\n    /* \"#utility.yul\":810:951   */\ntag_21:\n    /* \"#utility.yul\":859:863   */\n  0x00\n    /* \"#utility.yul\":882:885   */\n  dup2\n    /* \"#utility.yul\":874:885   */\n  swap1\n  pop\n    /* \"#utility.yul\":905:908   */\n  dup2\n    /* \"#utility.yul\":902:903   */\n  0x00\n    /* \"#utility.yul\":895:909   */\n  mstore\n    /* \"#utility.yul\":939:943   */\n  0x20\n    /* \"#utility.yul\":936:937   */\n  0x00\n    /* \"#utility.yul\":926:944   */\n  keccak256\n    /* \"#utility.yul\":918:944   */\n  swap1\n  pop\n    /* \"#utility.yul\":810:951   */\n  swap2\n  swap1\n  pop\n  jump\t// out\n    /* \"#utility.yul\":957:1050   */\ntag_22:\n    /* \"#utility.yul\":994:1000   */\n  0x00\n    /* \"#utility.yul\":1041:1043   */\n  0x20\n    /* \"#utility.yul\":1036:1038   */\n  0x1f\n    /* \"#utility.yul\":1029:1034   */\n  dup4\n    /* \"#utility.yul\":1025:1039   */\n  add\n    /* \"#utility.yul\":1021:1044   */\n  div\n    /* \"#utility.yul\":1011:1044   */\n  swap1\n  pop\n    /* \"#utility.yul\":957:1050   */\n  swap2\n  swap1\n  pop\n  jump\t// out\n    /* \"#utility.yul\":1056:1163   */\ntag_23:\n    /* \"#utility.yul\":1100:1108   */\n  0x00\n    /* \"#utility.yul\":1150:1155   */\n  dup3\n    /* \"#utility.yul\":1144:1148   */\n  dup3\n    /* \"#utility.yul\":1140:1156   */\n  shl\n    /* \"#utility.yul\":1119:1156   */\n  swap1\n  pop\n    /* \"#utility.yul\":1056:1163   */\n  swap3\n  swap2\n  pop\n  pop\n  jump\t// out\n    /* \"#utility.yul\":1169:1562   */\ntag_24:\n    /* \"#utility.yul\":1238:1244   */\n  0x00\n    /* \"#utility.yul\":1288:1289   */\n  0x08\n    /* \"#utility.yul\":1276:1286   */\n  dup4\n    /* \"#utility.yul\":1272:1290   */\n  mul\n    /* \"#utility.yul\":1311:1408   */\n  tag_56\n    /* \"#utility.yul\":1341:1407   */\n  0xffffffffffffffffffffffffffffffffffffffffffffffffffffffffffffffff\n    /* \"#utility.yul\":1330:1339   */\n  dup3\n    /* \"#utility.yul\":1311:1408   */\n  tag_23\n  jump\t// in\ntag_56:\n    /* \"#utility.yul\":1429:1468   */\n  tag_57\n    /* \"#utility.yul\":1459:1467   */\n  dup7\n    /* \"#utility.yul\":1448:1457   */\n  dup4\n    /* \"#utility.yul\":1429:1468   */\n  tag_23\n  jump\t// in\ntag_57:\n    /* \"#utility.yul\":1417:1468   */\n  swap6\n  pop\n    /* \"#utility.yul\":1501:1505   */\n  dup1\n    /* \"#utility.yul\":1497:1506   */\n  not\n    /* \"#utility.yul\":1490:1495   */\n  dup5\n    /* \"#utility.yul\":1486:1507   */\n  and\n    /* \"#utility.yul\":1477:1507   */\n  swap4\n  pop\n    /* \"#utility.yul\":1550:1554   */\n  dup1\n    /* \"#utility.yul\":1540:1548   */\n  dup7\n    /* \"#utility.yul\":1536:1555   */\n  and\n    /* \"#utility.yul\":1529:1534   */\n  dup5\n    /* \"#utility.yul\":1526:1556   */\n  or\n    /* \"#utility.yul\":1516:1556   */\n  swap3\n  pop\n    /* \"#utility.yul\":1245:1562   */\n  pop\n  pop\n    /* \"#utility.yul\":1169:1562   */\n  swap4\n  swap3\n  pop\n  pop\n  pop\n  jump\t// out\n    /* \"#utility.yul\":1568:1645   */\ntag_25:\n    /* \"#utility.yul\":1605:1612   */\n  0x00\n    /* \"#utility.yul\":1634:1639   */\n  dup2\n    /* \"#utility.yul\":1623:1639   */\n  swap1\n  pop\n    /* \"#utility.yul\":1568:1645   */\n  swap2\n  swap1\n  pop\n  jump\t// out\n    /* \"#utility.yul\":1651:1711   */\ntag_26:\n    /* \"#utility.yul\":1679:1682   */\n  0x00\n    /* \"#utility.yul\":1700:1705   */\n  dup2\n    /* \"#utility.yul\":1693:1705   */\n  swap1\n  pop\n    /* \"#utility.yul\":1651:1711   */\n  swap2\n  swap1\n  pop\n  jump\t// out\n    /* \"#utility.yul\":1717:1859   */\ntag_27:\n    /* \"#utility.yul\":1767:1776   */\n  0x00\n    /* \"#utility.yul\":1800:1853   */\n  tag_61\n    /* \"#utility.yul\":1818:1852   */\n  tag_62\n    /* \"#utility.yul\":1827:1851   */\n  tag_63\n    /* \"#utility.yul\":1845:1850   */\n  dup5\n    /* \"#utility.yul\":1827:1851   */\n  tag_25\n  jump\t// in\ntag_63:\n    /* \"#utility.yul\":1818:1852   */\n  tag_26\n  jump\t// in\ntag_62:\n    /* \"#utility.yul\":1800:1853   */\n  tag_25\n  jump\t// in\ntag_61:\n    /* \"#utility.yul\":1787:1853   */\n  swap1\n  pop\n    /* \"#utility.yul\":1717:1859   */\n  swap2\n  swap1\n  pop\n  jump\t// out\n    /* \"#utility.yul\":1865:1940   */\ntag_28:\n    /* \"#utility.yul\":1908:1911   */\n  0x00\n    /* \"#utility.yul\":1929:1934   */\n  dup2\n    /* \"#utility.yul\":1922:1934   */\n  swap1\n  pop\n    /* \"#utility.yul\":1865:1940   */\n  swap2\n  swap1\n  pop\n  jump\t// out\n    /* \"#utility.yul\":1946:2215   */\ntag_29:\n    /* \"#utility.yul\":2056:2095   */\n  tag_66\n    /* \"#utility.yul\":2087:2094   */\n  dup4\n    /* \"#utility.yul\":2056:2095   */\n  tag_27\n  jump\t// in\ntag_66:\n    /* \"#utility.yul\":2117:2208   */\n  tag_67\n    /* \"#utility.yul\":2166:2207   */\n  tag_68\n    /* \"#utility.yul\":2190:2206   */\n  dup3\n    /* \"#utility.yul\":2166:2207   */\n  tag_28\n  jump\t// in\ntag_68:\n    /* \"#utility.yul\":2158:2164   */\n  dup5\n    /* \"#utility.yul\":2151:2155   */\n  dup5\n    /* \"#utility.yul\":2145:2156   */\n  sload\n    /* \"#utility.yul\":2117:2208   */\n  tag_24\n  jump\t// in\ntag_67:\n    /* \"#utility.yul\":2111:2115   */\n  dup3\n    /* \"#utility.yul\":2104:2209   */\n  sstore\n    /* \"#utility.yul\":2022:2215   */\n  pop\n    /* \"#utility.yul\":1946:2215   */\n  pop\n  pop\n  pop\n  jump\t// out\n    /* \"#utility.yul\":2221:2294   */\ntag_30:\n    /* \"#utility.yul\":2266:2269   */\n  0x00\n    /* \"#utility.yul\":2221:2294   */\n  swap1\n  jump\t// out\n    /* \"#utility.yul\":2300:2489   */\ntag_31:\n    /* \"#utility.yul\":2377:2409   */\n  tag_71\n  tag_30\n  jump\t// in\ntag_71:\n    /* \"#utility.yul\":2418:2483   */\n  tag_72\n    /* \"#utility.yul\":2476:2482   */\n  dup2\n    /* \"#utility.yul\":2468:2474   */\n  dup5\n    /* \"#utility.yul\":2462:2466   */\n  dup5\n    /* \"#utility.yul\":2418:2483   */\n  tag_29\n  jump\t// in\ntag_72:\n    /* \"#utility.yul\":2353:2489   */\n  pop\n    /* \"#utility.yul\":2300:2489   */\n  pop\n  pop\n  jump\t// out\n    /* \"#utility.yul\":2495:2681   */\ntag_32:\n    /* \"#utility.yul\":2555:2675   */\ntag_74:\n    /* \"#utility.yul\":2572:2575   */\n  dup2\n    /* \"#utility.yul\":2565:2570   */\n  dup2\n    /* \"#utility.yul\":2562:2576   */\n  lt\n    /* \"#utility.yul\":2555:2675   */\n  iszero\n  tag_76\n  jumpi\n    /* \"#utility.yul\":2626:2665   */\n  tag_77\n    /* \"#utility.yul\":2663:2664   */\n  0x00\n    /* \"#utility.yul\":2656:2661   */\n  dup3\n    /* \"#utility.yul\":2626:2665   */\n  tag_31\n  jump\t// in\ntag_77:\n    /* \"#utility.yul\":2599:2600   */\n  0x01\n    /* \"#utility.yul\":2592:2597   */\n  dup2\n    /* \"#utility.yul\":2588:2601   */\n  add\n    /* \"#utility.yul\":2579:2601   */\n  swap1\n  pop\n    /* \"#utility.yul\":2555:2675   */\n  jump(tag_74)\ntag_76:\n    /* \"#utility.yul\":2495:2681   */\n  pop\n  pop\n  jump\t// out\n    /* \"#utility.yul\":2687:3230   */\ntag_33:\n    /* \"#utility.yul\":2788:2790   */\n  0x1f\n    /* \"#utility.yul\":2783:2786   */\n  dup3\n    /* \"#utility.yul\":2780:2791   */\n  gt\n    /* \"#utility.yul\":2777:3223   */\n  iszero\n  tag_79\n  jumpi\n    /* \"#utility.yul\":2822:2860   */\n  tag_80\n    /* \"#utility.yul\":2854:2859   */\n  dup2\n    /* \"#utility.yul\":2822:2860   */\n  tag_21\n  jump\t// in\ntag_80:\n    /* \"#utility.yul\":2906:2935   */\n  tag_81\n    /* \"#utility.yul\":2924:2934   */\n  dup5\n    /* \"#utility.yul\":2906:2935   */\n  tag_22\n  jump\t// in\ntag_81:\n    /* \"#utility.yul\":2896:2904   */\n  dup2\n    /* \"#utility.yul\":2892:2936   */\n  add\n    /* \"#utility.yul\":3089:3091   */\n  0x20\n    /* \"#utility.yul\":3077:3087   */\n  dup6\n    /* \"#utility.yul\":3074:3092   */\n  lt\n    /* \"#utility.yul\":3071:3120   */\n  iszero\n  tag_82\n  jumpi\n    /* \"#utility.yul\":3110:3118   */\n  dup2\n    /* \"#utility.yul\":3095:3118   */\n  swap1\n  pop\n    /* \"#utility.yul\":3071:3120   */\ntag_82:\n    /* \"#utility.yul\":3133:3213   */\n  tag_83\n    /* \"#utility.yul\":3189:3211   */\n  tag_84\n    /* \"#utility.yul\":3207:3210   */\n  dup6\n    /* \"#utility.yul\":3189:3211   */\n  tag_22\n  jump\t// in\ntag_84:\n    /* \"#utility.yul\":3179:3187   */\n  dup4\n    /* \"#utility.yul\":3175:3212   */\n  add\n    /* \"#utility.yul\":3162:3173   */\n  dup3\n    /* \"#utility.yul\":3133:3213   */\n  tag_32\n  jump\t// in\ntag_83:\n    /* \"#utility.yul\":2792:3223   */\n  pop\n  pop\n    /* \"#utility.yul\":2777:3223   */\ntag_79:\n    /* \"#utility.yul\":2687:3230   */\n  pop\n  pop\n  pop\n  jump\t// out\n    /* \"#utility.yul\":3236:3353   */\ntag_34:\n    /* \"#utility.yul\":3290:3298   */\n  0x00\n    /* \"#utility.yul\":3340:3345   */\n  dup3\n    /* \"#utility.yul\":3334:3338   */\n  dup3\n    /* \"#utility.yul\":3330:3346   */\n  shr\n    /* \"#utility.yul\":3309:3346   */\n  swap1\n  pop\n    /* \"#utility.yul\":3236:3353   */\n  swap3\n  swap2\n  pop\n  pop\n  jump\t// out\n    /* \"#utility.yul\":3359:3528   */\ntag_35:\n    /* \"#utility.yul\":3403:3409   */\n  0x00\n    /* \"#utility.yul\":3436:3487   */\n  tag_87\n    /* \"#utility.yul\":3484:3485   */\n  0x00\n    /* \"#utility.yul\":3480:3486   */\n  not\n    /* \"#utility.yul\":3472:3477   */\n  dup5\n    /* \"#utility.yul\":3469:3470   */\n  0x08\n    /* \"#utility.yul\":3465:3478   */\n  mul\n    /* \"#utility.yul\":3436:3487   */\n  tag_34\n  jump\t// in\ntag_87:\n    /* \"#utility.yul\":3432:3488   */\n  not\n    /* \"#utility.yul\":3517:3521   */\n  dup1\n    /* \"#utility.yul\":3511:3515   */\n  dup4\n    /* \"#utility.yul\":3507:3522   */\n  and\n    /* \"#utility.yul\":3497:3522   */\n  swap2\n  pop\n    /* \"#utility.yul\":3410:3528   */\n  pop\n    /* \"#utility.yul\":3359:3528   */\n  swap3\n  swap2\n  pop\n  pop\n  jump\t// out\n    /* \"#utility.yul\":3533:3828   */\ntag_36:\n    /* \"#utility.yul\":3609:3613   */\n  0x00\n    /* \"#utility.yul\":3755:3784   */\n  tag_89\n    /* \"#utility.yul\":3780:3783   */\n  dup4\n    /* \"#utility.yul\":3774:3778   */\n  dup4\n    /* \"#utility.yul\":3755:3784   */\n  tag_35\n  jump\t// in\ntag_89:\n    /* \"#utility.yul\":3747:3784   */\n  swap2\n  pop\n    /* \"#utility.yul\":3817:3820   */\n  dup3\n    /* \"#utility.yul\":3814:3815   */\n  0x02\n    /* \"#utility.yul\":3810:3821   */\n  mul\n    /* \"#utility.yul\":3804:3808   */\n  dup3\n    /* \"#utility.yul\":3801:3822   */\n  or\n    /* \"#utility.yul\":3793:3822   */\n  swap1\n  pop\n    /* \"#utility.yul\":3533:3828   */\n  swap3\n  swap2\n  pop\n  pop\n  jump\t// out\n    /* \"#utility.yul\":3833:5228   */\ntag_2:\n    /* \"#utility.yul\":3950:3987   */\n  tag_91\n    /* \"#utility.yul\":3983:3986   */\n  dup3\n    /* \"#utility.yul\":3950:3987   */\n  tag_17\n  jump\t// in\ntag_91:\n    /* \"#utility.yul\":4052:4070   */\n  0xffffffffffffffff\n    /* \"#utility.yul\":4044:4050   */\n  dup2\n    /* \"#utility.yul\":4041:4071   */\n  gt\n    /* \"#utility.yul\":4038:4094   */\n  iszero\n  tag_92\n  jumpi\n    /* \"#utility.yul\":4074:4092   */\n  tag_93\n  tag_18\n  jump\t// in\ntag_93:\n    /* \"#utility.yul\":4038:4094   */\ntag_92:\n    /* \"#utility.yul\":4118:4156   */\n  tag_94\n    /* \"#utility.yul\":4150:4154   */\n  dup3\n    /* \"#utility.yul\":4144:4155   */\n  sload\n    /* \"#utility.yul\":4118:4156   */\n  tag_20\n  jump\t// in\ntag_94:\n    /* \"#utility.yul\":4203:4270   */\n  tag_95\n    /* \"#utility.yul\":4263:4269   */\n  dup3\n    /* \"#utility.yul\":4255:4261   */\n  dup3\n    /* \"#utility.yul\":4249:4253   */\n  dup6\n    /* \"#utility.yul\":4203:4270   */\n  tag_33\n  jump\t// in\ntag_95:\n    /* \"#utility.yul\":4297:4298   */\n  0x00\n    /* \"#utility.yul\":4321:4325   */\n  0x20\n    /* \"#utility.yul\":4308:4325   */\n  swap1\n  pop\n    /* \"#utility.yul\":4353:4355   */\n  0x1f\n    /* \"#utility.yul\":4345:4351   */\n  dup4\n    /* \"#utility.yul\":4342:4356   */\n  gt\n    /* \"#utility.yul\":4370:4371   */\n  0x01\n    /* \"#utility.yul\":4365:4983   */\n  dup2\n  eq\n  tag_97\n  jumpi\n    /* \"#utility.yul\":5027:5028   */\n  0x00\n    /* \"#utility.yul\":5044:5050   */\n  dup5\n    /* \"#utility.yul\":5041:5118   */\n  iszero\n  tag_98\n  jumpi\n    /* \"#utility.yul\":5093:5102   */\n  dup3\n    /* \"#utility.yul\":5088:5091   */\n  dup8\n    /* \"#utility.yul\":5084:5103   */\n  add\n    /* \"#utility.yul\":5078:5104   */\n  mload\n    /* \"#utility.yul\":5069:5104   */\n  swap1\n  pop\n    /* \"#utility.yul\":5041:5118   */\ntag_98:\n    /* \"#utility.yul\":5144:5211   */\n  tag_99\n    /* \"#utility.yul\":5204:5210   */\n  dup6\n    /* \"#utility.yul\":5197:5202   */\n  dup3\n    /* \"#utility.yul\":5144:5211   */\n  tag_36\n  jump\t// in\ntag_99:\n    /* \"#utility.yul\":5138:5142   */\n  dup7\n    /* \"#utility.yul\":5131:5212   */\n  sstore\n    /* \"#utility.yul\":5000:5222   */\n  pop\n    /* \"#utility.yul\":4335:5222   */\n  jump(tag_96)\n    /* \"#utility.yul\":4365:4983   */\ntag_97:\n    /* \"#utility.yul\":4417:4421   */\n  0x1f\n    /* \"#utility.yul\":4413:4422   */\n  not\n    /* \"#utility.yul\":4405:4411   */\n  dup5\n    /* \"#utility.yul\":4401:4423   */\n  and\n    /* \"#utility.yul\":4451:4488   */\n  tag_100\n    /* \"#utility.yul\":4483:4487   */\n  dup7\n    /* \"#utility.yul\":4451:4488   */\n  tag_21\n  jump\t// in\ntag_100:\n    /* \"#utility.yul\":4510:4511   */\n  0x00\n    /* \"#utility.yul\":4524:4732   */\ntag_101:\n    /* \"#utility.yul\":4538:4545   */\n  dup3\n    /* \"#utility.yul\":4535:4536   */\n  dup2\n    /* \"#utility.yul\":4532:4546   */\n  lt\n    /* \"#utility.yul\":4524:4732   */\n  iszero\n  tag_103\n  jumpi\n    /* \"#utility.yul\":4617:4626   */\n  dup5\n    /* \"#utility.yul\":4612:4615   */\n  dup10\n    /* \"#utility.yul\":4608:4627   */\n  add\n    /* \"#utility.yul\":4602:4628   */\n  mload\n    /* \"#utility.yul\":4594:4600   */\n  dup3\n    /* \"#utility.yul\":4587:4629   */\n  sstore\n    /* \"#utility.yul\":4668:4669   */\n  0x01\n    /* \"#utility.yul\":4660:4666   */\n  dup3\n    /* \"#utility.yul\":4656:4670   */\n  add\n    /* \"#utility.yul\":4646:4670   */\n  swap2\n  pop\n    /* \"#utility.yul\":4715:4717   */\n  0x20\n    /* \"#utility.yul\":4704:4713   */\n  dup6\n    /* \"#utility.yul\":4700:4718   */\n  add\n    /* \"#utility.yul\":4687:4718   */\n  swap5\n  pop\n    /* \"#utility.yul\":4561:4565   */\n  0x20\n    /* \"#utility.yul\":4558:4559   */\n  dup2\n    /* \"#utility.yul\":4554:4566   */\n  add\n    /* \"#utility.yul\":4549:4566   */\n  swap1\n  pop\n    /* \"#utility.yul\":4524:4732   */\n  jump(tag_101)\ntag_103:\n    /* \"#utility.yul\":4760:4766   */\n  dup7\n    /* \"#utility.yul\":4751:4758   */\n  dup4\n    /* \"#utility.yul\":4748:4767   */\n  lt\n    /* \"#utility.yul\":4745:4924   */\n  iszero\n  tag_104\n  jumpi\n    /* \"#utility.yul\":4818:4827   */\n  dup5\n    /* \"#utility.yul\":4813:4816   */\n  dup10\n    /* \"#utility.yul\":4809:4828   */\n  add\n    /* \"#utility.yul\":4803:4829   */\n  mload\n    /* \"#utility.yul\":4861:4909   */\n  tag_105\n    /* \"#utility.yul\":4903:4907   */\n  0x1f\n    /* \"#utility.yul\":4895:4901   */\n  dup10\n    /* \"#utility.yul\":4891:4908   */\n  and\n    /* \"#utility.yul\":4880:4889   */\n  dup3\n    /* \"#utility.yul\":4861:4909   */\n  tag_35\n  jump\t// in\ntag_105:\n    /* \"#utility.yul\":4853:4859   */\n  dup4\n    /* \"#utility.yul\":4846:4910   */\n  sstore\n    /* \"#utility.yul\":4768:4924   */\n  pop\n    /* \"#utility.yul\":4745:4924   */\ntag_104:\n    /* \"#utility.yul\":4970:4971   */\n  0x01\n    /* \"#utility.yul\":4966:4967   */\n  0x02\n    /* \"#utility.yul\":4958:4964   */\n  dup9\n    /* \"#utility.yul\":4954:4968   */\n  mul\n    /* \"#utility.yul\":4950:4972   */\n  add\n    /* \"#utility.yul\":4944:4948   */\n  dup9\n    /* \"#utility.yul\":4937:4973   */\n  sstore\n    /* \"#utility.yul\":4372:4983   */\n  pop\n  pop\n  pop\n    /* \"#utility.yul\":4335:5222   */\ntag_96:\n  pop\n    /* \"#utility.yul\":3925:5228   */\n  pop\n  pop\n  pop\n    /* \"#utility.yul\":3833:5228   */\n  pop\n  pop\n  jump\t// out\n    /* \"#utility.yul\":5315:5432   */\ntag_38:\n    /* \"#utility.yul\":5424:5425   */\n  0x00\n    /* \"#utility.yul\":5421:5422   */\n  dup1\n    /* \"#utility.yul\":5414:5426   */\n  revert\n    /* \"#utility.yul\":5561:5683   */\ntag_40:\n    /* \"#utility.yul\":5634:5658   */\n  tag_110\n    /* \"#utility.yul\":5652:5657   */\n  dup2\n    /* \"#utility.yul\":5634:5658   */\n  tag_25\n  jump\t// in\ntag_110:\n    /* \"#utility.yul\":5627:5632   */\n  dup2\n    /* \"#utility.yul\":5624:5659   */\n  eq\n    /* \"#utility.yul\":5614:5677   */\n  tag_111\n  jumpi\n    /* \"#utility.yul\":5673:5674   */\n  0x00\n    /* \"#utility.yul\":5670:5671   */\n  dup1\n    /* \"#utility.yul\":5663:5675   */\n  revert\n    /* \"#utility.yul\":5614:5677   */\ntag_111:\n    /* \"#utility.yul\":5561:5683   */\n  pop\n  jump\t// out\n    /* \"#utility.yul\":5689:5832   */\ntag_41:\n    /* \"#utility.yul\":5746:5751   */\n  0x00\n    /* \"#utility.yul\":5777:5783   */\n  dup2\n    /* \"#utility.yul\":5771:5784   */\n  mload\n    /* \"#utility.yul\":5762:5784   */\n  swap1\n  pop\n    /* \"#utility.yul\":5793:5826   */\n  tag_113\n    /* \"#utility.yul\":5820:5825   */\n  dup2\n    /* \"#utility.yul\":5793:5826   */\n  tag_40\n  jump\t// in\ntag_113:\n    /* \"#utility.yul\":5689:5832   */\n  swap3\n  swap2\n  pop\n  pop\n  jump\t// out\n    /* \"#utility.yul\":5838:6189   */\ntag_5:\n    /* \"#utility.yul\":5908:5914   */\n  0x00\n    /* \"#utility.yul\":5957:5959   */\n  0x20\n    /* \"#utility.yul\":5945:5954   */\n  dup3\n    /* \"#utility.yul\":5936:5943   */\n  dup5\n    /* \"#utility.yul\":5932:5955   */\n  sub\n    /* \"#utility.yul\":5928:5960   */\n  slt\n    /* \"#utility.yul\":5925:6044   */\n  iszero\n  tag_115\n  jumpi\n    /* \"#utility.yul\":5963:6042   */\n  tag_116\n  tag_38\n  jump\t// in\ntag_116:\n    /* \"#utility.yul\":5925:6044   */\ntag_115:\n    /* \"#utility.yul\":6083:6084   */\n  0x00\n    /* \"#utility.yul\":6108:6172   */\n  tag_117\n    /* \"#utility.yul\":6164:6171   */\n  dup5\n    /* \"#utility.yul\":6155:6161   */\n  dup3\n    /* \"#utility.yul\":6144:6153   */\n  dup6\n    /* \"#utility.yul\":6140:6162   */\n  add\n    /* \"#utility.yul\":6108:6172   */\n  tag_41\n  jump\t// in\ntag_117:\n    /* \"#utility.yul\":6098:6172   */\n  swap2\n  pop\n    /* \"#utility.yul\":6054:6182   */\n  pop\n    /* \"#utility.yul\":5838:6189   */\n  swap3\n  swap2\n  pop\n  pop\n  jump\t// out\n    /* \"#utility.yul\":6195:6375   */\ntag_42:\n    /* \"#utility.yul\":6243:6320   */\n  0x4e487b7100000000000000000000000000000000000000000000000000000000\n    /* \"#utility.yul\":6240:6241   */\n  0x00\n    /* \"#utility.yul\":6233:6321   */\n  mstore\n    /* \"#utility.yul\":6340:6344   */\n  0x11\n    /* \"#utility.yul\":6337:6338   */\n  0x04\n    /* \"#utility.yul\":6330:6345   */\n  mstore\n    /* \"#utility.yul\":6364:6368   */\n  0x24\n    /* \"#utility.yul\":6361:6362   */\n  0x00\n    /* \"#utility.yul\":6354:6369   */\n  revert\n    /* \"#utility.yul\":6381:6572   */\ntag_9:\n    /* \"#utility.yul\":6421:6424   */\n  0x00\n    /* \"#utility.yul\":6440:6460   */\n  tag_120\n    /* \"#utility.yul\":6458:6459   */\n  dup3\n    /* \"#utility.yul\":6440:6460   */\n  tag_25\n  jump\t// in\ntag_120:\n    /* \"#utility.yul\":6435:6460   */\n  swap2\n  pop\n    /* \"#utility.yul\":6474:6494   */\n  tag_121\n    /* \"#utility.yul\":6492:6493   */\n  dup4\n    /* \"#utility.yul\":6474:6494   */\n  tag_25\n  jump\t// in\ntag_121:\n    /* \"#utility.yul\":6469:6494   */\n  swap3\n  pop\n    /* \"#utility.yul\":6517:6518   */\n  dup3\n    /* \"#utility.yul\":6514:6515   */\n  dup3\n    /* \"#utility.yul\":6510:6519   */\n  add\n    /* \"#utility.yul\":6503:6519   */\n  swap1\n  pop\n    /* \"#utility.yul\":6538:6541   */\n  dup1\n    /* \"#utility.yul\":6535:6536   */\n  dup3\n    /* \"#utility.yul\":6532:6542   */\n  gt\n    /* \"#utility.yul\":6529:6565   */\n  iszero\n  tag_122\n  jumpi\n    /* \"#utility.yul\":6545:6563   */\n  tag_123\n  tag_42\n  jump\t// in\ntag_123:\n    /* \"#utility.yul\":6529:6565   */\ntag_122:\n    /* \"#utility.yul\":6381:6572   */\n  swap3\n  swap2\n  pop\n  pop\n  jump\t// out\n    /* \"#utility.yul\":6578:6772   */\ntag_11:\n    /* \"#utility.yul\":6618:6622   */\n  0x00\n    /* \"#utility.yul\":6638:6658   */\n  tag_125\n    /* \"#utility.yul\":6656:6657   */\n  dup3\n    /* \"#utility.yul\":6638:6658   */\n  tag_25\n  jump\t// in\ntag_125:\n    /* \"#utility.yul\":6633:6658   */\n  swap2\n  pop\n    /* \"#utility.yul\":6672:6692   */\n  tag_126\n    /* \"#utility.yul\":6690:6691   */\n  dup4\n    /* \"#utility.yul\":6672:6692   */\n  tag_25\n  jump\t// in\ntag_126:\n    /* \"#utility.yul\":6667:6692   */\n  swap3\n  pop\n    /* \"#utility.yul\":6716:6717   */\n  dup3\n    /* \"#utility.yul\":6713:6714   */\n  dup3\n    /* \"#utility.yul\":6709:6718   */\n  sub\n    /* \"#utility.yul\":6701:6718   */\n  swap1\n  pop\n    /* \"#utility.yul\":6740:6741   */\n  dup2\n    /* \"#utility.yul\":6734:6738   */\n  dup2\n    /* \"#utility.yul\":6731:6742   */\n  gt\n    /* \"#utility.yul\":6728:6765   */\n  iszero\n  tag_127\n  jumpi\n    /* \"#utility.yul\":6745:6763   */\n  tag_128\n  tag_42\n  jump\t// in\ntag_128:\n    /* \"#utility.yul\":6728:6765   */\ntag_127:\n    /* \"#utility.yul\":6578:6772   */\n  swap3\n  swap2\n  pop\n  pop\n  jump\t// out\n    /* \"#utility.yul\":6778:6958   */\ntag_43:\n    /* \"#utility.yul\":6826:6903   */\n  0x4e487b7100000000000000000000000000000000000000000000000000000000\n    /* \"#utility.yul\":6823:6824   */\n  0x00\n    /* \"#utility.yul\":6816:6904   */\n  mstore\n    /* \"#utility.yul\":6923:6927   */\n  0x12\n    /* \"#utility.yul\":6920:6921   */\n  0x04\n    /* \"#utility.yul\":6913:6928   */\n  mstore\n    /* \"#utility.yul\":6947:6951   */\n  0x24\n    /* \"#utility.yul\":6944:6945   */\n  0x00\n    /* \"#utility.yul\":6937:6952   */\n  revert\n    /* \"#utility.yul\":6964:7149   */\ntag_13:\n    /* \"#utility.yul\":7004:7005   */\n  0x00\n    /* \"#utility.yul\":7021:7041   */\n  tag_131\n    /* \"#utility.yul\":7039:7040   */\n  dup3\n    /* \"#utility.yul\":7021:7041   */\n  tag_25\n  jump\t// in\ntag_131:\n    /* \"#utility.yul\":7016:7041   */\n  swap2\n  pop\n    /* \"#utility.yul\":7055:7075   */\n  tag_132\n    /* \"#utility.yul\":7073:7074   */\n  dup4\n    /* \"#utility.yul\":7055:7075   */\n  tag_25\n  jump\t// in\ntag_132:\n    /* \"#utility.yul\":7050:7075   */\n  swap3\n  pop\n    /* \"#utility.yul\":7094:7095   */\n  dup3\n    /* \"#utility.yul\":7084:7119   */\n  tag_133\n  jumpi\n    /* \"#utility.yul\":7099:7117   */\n  tag_134\n  tag_43\n  jump\t// in\ntag_134:\n    /* \"#utility.yul\":7084:7119   */\ntag_133:\n    /* \"#utility.yul\":7141:7142   */\n  dup3\n    /* \"#utility.yul\":7138:7139   */\n  dup3\n    /* \"#utility.yul\":7134:7143   */\n  div\n    /* \"#utility.yul\":7129:7143   */\n  swap1\n  pop\n    /* \"#utility.yul\":6964:7149   */\n  swap3\n  swap2\n  pop\n  pop\n  jump\t// out\n    /* \"contracts/7_eventtickets.sol\":212:1014  contract EventTickets {... */\ntag_16:\n  dataSize(sub_0)\n  dup1\n  dataOffset(sub_0)\n  0x00\n  codecopy\n  0x00\n  return\nstop\n\nsub_0: assembly {\n        /* \"contracts/7_eventtickets.sol\":212:1014  contract EventTickets {... */\n      mstore(0x40, 0x80)\n      callvalue\n      dup1\n      iszero\n      tag_1\n      jumpi\n      0x00\n      dup1\n      revert\n    tag_1:\n      pop\n      jumpi(tag_2, lt(calldatasize, 0x04))\n      shr(0xe0, calldataload(0x00))\n      dup1\n      0x67dd74ca\n      gt\n      tag_11\n      jumpi\n      dup1\n      0x67dd74ca\n      eq\n      tag_7\n      jumpi\n      dup1\n      0x7cc3ae8c\n      eq\n      tag_8\n      jumpi\n      dup1\n      0xc7446565\n      eq\n      tag_9\n      jumpi\n      dup1\n      0xe21f37ce\n      eq\n      tag_10\n      jumpi\n      jump(tag_2)\n    tag_11:\n      dup1\n      0x1209b1f6\n      eq\n      tag_3\n      jumpi\n      dup1\n      0x1a39d8ef\n      eq\n      tag_4\n      jumpi\n      dup1\n      0x45745c10\n      eq\n      tag_5\n      jumpi\n      dup1\n      0x6284568a\n      eq\n      tag_6\n      jumpi\n    tag_2:\n      0x00\n      dup1\n      revert\n        /* \"contracts/7_eventtickets.sol\":276:302  uint256 public ticketPrice */\n    tag_3:\n      tag_12\n      tag_13\n      jump\t// in\n    tag_12:\n      mload(0x40)\n      tag_14\n      swap2\n      swap1\n      tag_15\n      jump\t// in\n    tag_14:\n      mload(0x40)\n      dup1\n      swap2\n      sub\n      swap1\n      return\n        /* \"contracts/7_eventtickets.sol\":308:334  uint256 public totalAmount */\n    tag_4:\n      tag_16\n      tag_17\n      jump\t// in\n    tag_16:\n      mload(0x40)\n      tag_18\n      swap2\n      swap1\n      tag_15\n      jump\t// in\n    tag_18:\n      mload(0x40)\n      dup1\n      swap2\n      sub\n      swap1\n      return\n        /* \"contracts/7_eventtickets.sol\":240:270  uint256 public numberOfTickets */\n    tag_5:\n      tag_19\n      tag_20\n      jump\t// in\n    tag_19:\n      mload(0x40)\n      tag_21\n      swap2\n      swap1\n      tag_15\n      jump\t// in\n    tag_21:\n      mload(0x40)\n      dup1\n      swap2\n      sub\n      swap1\n      return\n        /* \"contracts/7_eventtickets.sol\":394:418  uint256 public timeRange */\n    tag_6:\n      tag_22\n      tag_23\n      jump\t// in\n    tag_22:\n      mload(0x40)\n      tag_24\n      swap2\n      swap1\n      tag_15\n      jump\t// in\n    tag_24:\n      mload(0x40)\n      dup1\n      swap2\n      sub\n      swap1\n      return\n        /* \"contracts/7_eventtickets.sol\":693:1011  function buyTicket (uint256 _value) public returns (uint256 ticketID){... */\n    tag_7:\n      tag_25\n      0x04\n      dup1\n      calldatasize\n      sub\n      dup2\n      add\n      swap1\n      tag_26\n      swap2\n      swap1\n      tag_27\n      jump\t// in\n    tag_26:\n      tag_28\n      jump\t// in\n    tag_25:\n      mload(0x40)\n      tag_29\n      swap2\n      swap1\n      tag_15\n      jump\t// in\n    tag_29:\n      mload(0x40)\n      dup1\n      swap2\n      sub\n      swap1\n      return\n        /* \"contracts/7_eventtickets.sol\":368:388  uint256 public endAt */\n    tag_8:\n      tag_30\n      tag_31\n      jump\t// in\n    tag_30:\n      mload(0x40)\n      tag_32\n      swap2\n      swap1\n      tag_15\n      jump\t// in\n    tag_32:\n      mload(0x40)\n      dup1\n      swap2\n      sub\n      swap1\n      return\n        /* \"contracts/7_eventtickets.sol\":340:362  uint256 public startAt */\n    tag_9:\n      tag_33\n      tag_34\n      jump\t// in\n    tag_33:\n      mload(0x40)\n      tag_35\n      swap2\n      swap1\n      tag_15\n      jump\t// in\n    tag_35:\n      mload(0x40)\n      dup1\n      swap2\n      sub\n      swap1\n      return\n        /* \"contracts/7_eventtickets.sol\":424:477  string public message = \"Buy your first event ticket\" */\n    tag_10:\n      tag_36\n      tag_37\n      jump\t// in\n    tag_36:\n      mload(0x40)\n      tag_38\n      swap2\n      swap1\n      tag_39\n      jump\t// in\n    tag_38:\n      mload(0x40)\n      dup1\n      swap2\n      sub\n      swap1\n      return\n        /* \"contracts/7_eventtickets.sol\":276:302  uint256 public ticketPrice */\n    tag_13:\n      sload(0x01)\n      dup2\n      jump\t// out\n        /* \"contracts/7_eventtickets.sol\":308:334  uint256 public totalAmount */\n    tag_17:\n      sload(0x02)\n      dup2\n      jump\t// out\n        /* \"contracts/7_eventtickets.sol\":240:270  uint256 public numberOfTickets */\n    tag_20:\n      sload(0x00)\n      dup2\n      jump\t// out\n        /* \"contracts/7_eventtickets.sol\":394:418  uint256 public timeRange */\n    tag_23:\n      sload(0x05)\n      dup2\n      jump\t// out\n        /* \"contracts/7_eventtickets.sol\":693:1011  function buyTicket (uint256 _value) public returns (uint256 ticketID){... */\n    tag_28:\n        /* \"contracts/7_eventtickets.sol\":745:761  uint256 ticketID */\n      0x00\n        /* \"contracts/7_eventtickets.sol\":801:802  5 */\n      0x05\n        /* \"contracts/7_eventtickets.sol\":791:797  _value */\n      dup3\n        /* \"contracts/7_eventtickets.sol\":777:788  totalAmount */\n      sload(0x02)\n        /* \"contracts/7_eventtickets.sol\":777:797  totalAmount + _value */\n      tag_41\n      swap2\n      swap1\n      tag_42\n      jump\t// in\n    tag_41:\n        /* \"contracts/7_eventtickets.sol\":776:802  (totalAmount + _value) < 5 */\n      lt\n        /* \"contracts/7_eventtickets.sol\":772:1005  if ((totalAmount + _value) < 5)... */\n      iszero\n      tag_43\n      jumpi\n        /* \"contracts/7_eventtickets.sol\":826:841  numberOfTickets */\n      0x00\n      dup1\n        /* \"contracts/7_eventtickets.sol\":826:843  numberOfTickets++ */\n      dup2\n      sload\n      dup1\n      swap3\n      swap2\n      swap1\n      tag_44\n      swap1\n      tag_45\n      jump\t// in\n    tag_44:\n      swap2\n      swap1\n      pop\n      sstore\n      pop\n        /* \"contracts/7_eventtickets.sol\":872:878  _value */\n      dup2\n        /* \"contracts/7_eventtickets.sol\":857:868  totalAmount */\n      0x02\n      0x00\n        /* \"contracts/7_eventtickets.sol\":857:878  totalAmount += _value */\n      dup3\n      dup3\n      sload\n      tag_46\n      swap2\n      swap1\n      tag_42\n      jump\t// in\n    tag_46:\n      swap3\n      pop\n      pop\n      dup2\n      swap1\n      sstore\n      pop\n        /* \"contracts/7_eventtickets.sol\":903:918  numberOfTickets */\n      sload(0x00)\n        /* \"contracts/7_eventtickets.sol\":892:918  ticketID = numberOfTickets */\n      swap1\n      pop\n        /* \"contracts/7_eventtickets.sol\":772:1005  if ((totalAmount + _value) < 5)... */\n      jump(tag_47)\n    tag_43:\n        /* \"contracts/7_eventtickets.sol\":956:994  message = \"You can't buy more tickets\" */\n      mload(0x40)\n      dup1\n      0x40\n      add\n      0x40\n      mstore\n      dup1\n      0x1a\n      dup2\n      mstore\n      0x20\n      add\n      0x596f752063616e277420627579206d6f7265207469636b657473000000000000\n      dup2\n      mstore\n      pop\n        /* \"contracts/7_eventtickets.sol\":956:963  message */\n      0x06\n        /* \"contracts/7_eventtickets.sol\":956:994  message = \"You can't buy more tickets\" */\n      swap1\n      dup2\n      tag_48\n      swap2\n      swap1\n      tag_49\n      jump\t// in\n    tag_48:\n      pop\n        /* \"contracts/7_eventtickets.sol\":772:1005  if ((totalAmount + _value) < 5)... */\n    tag_47:\n        /* \"contracts/7_eventtickets.sol\":693:1011  function buyTicket (uint256 _value) public returns (uint256 ticketID){... */\n      swap2\n      swap1\n      pop\n      jump\t// out\n        /* \"contracts/7_eventtickets.sol\":368:388  uint256 public endAt */\n    tag_31:\n      sload(0x04)\n      dup2\n      jump\t// out\n        /* \"contracts/7_eventtickets.sol\":340:362  uint256 public startAt */\n    tag_34:\n      sload(0x03)\n      dup2\n      jump\t// out\n        /* \"contracts/7_eventtickets.sol\":424:477  string public message = \"Buy your first event ticket\" */\n    tag_37:\n      0x06\n      dup1\n      sload\n      tag_50\n      swap1\n      tag_51\n      jump\t// in\n    tag_50:\n      dup1\n      0x1f\n      add\n      0x20\n      dup1\n      swap2\n      div\n      mul\n      0x20\n      add\n      mload(0x40)\n      swap1\n      dup2\n      add\n      0x40\n      mstore\n      dup1\n      swap3\n      swap2\n      swap1\n      dup2\n      dup2\n      mstore\n      0x20\n      add\n      dup3\n      dup1\n      sload\n      tag_52\n      swap1\n      tag_51\n      jump\t// in\n    tag_52:\n      dup1\n      iszero\n      tag_53\n      jumpi\n      dup1\n      0x1f\n      lt\n      tag_54\n      jumpi\n      0x0100\n      dup1\n      dup4\n      sload\n      div\n      mul\n      dup4\n      mstore\n      swap2\n      0x20\n      add\n      swap2\n      jump(tag_53)\n    tag_54:\n      dup3\n      add\n      swap2\n      swap1\n      0x00\n      mstore\n      keccak256(0x00, 0x20)\n      swap1\n    tag_55:\n      dup2\n      sload\n      dup2\n      mstore\n      swap1\n      0x01\n      add\n      swap1\n      0x20\n      add\n      dup1\n      dup4\n      gt\n      tag_55\n      jumpi\n      dup3\n      swap1\n      sub\n      0x1f\n      and\n      dup3\n      add\n      swap2\n    tag_53:\n      pop\n      pop\n      pop\n      pop\n      pop\n      dup2\n      jump\t// out\n        /* \"#utility.yul\":7:84   */\n    tag_56:\n        /* \"#utility.yul\":44:51   */\n      0x00\n        /* \"#utility.yul\":73:78   */\n      dup2\n        /* \"#utility.yul\":62:78   */\n      swap1\n      pop\n        /* \"#utility.yul\":7:84   */\n      swap2\n      swap1\n      pop\n      jump\t// out\n        /* \"#utility.yul\":90:208   */\n    tag_57:\n        /* \"#utility.yul\":177:201   */\n      tag_89\n        /* \"#utility.yul\":195:200   */\n      dup2\n        /* \"#utility.yul\":177:201   */\n      tag_56\n      jump\t// in\n    tag_89:\n        /* \"#utility.yul\":172:175   */\n      dup3\n        /* \"#utility.yul\":165:202   */\n      mstore\n        /* \"#utility.yul\":90:208   */\n      pop\n      pop\n      jump\t// out\n        /* \"#utility.yul\":214:436   */\n    tag_15:\n        /* \"#utility.yul\":307:311   */\n      0x00\n        /* \"#utility.yul\":345:347   */\n      0x20\n        /* \"#utility.yul\":334:343   */\n      dup3\n        /* \"#utility.yul\":330:348   */\n      add\n        /* \"#utility.yul\":322:348   */\n      swap1\n      pop\n        /* \"#utility.yul\":358:429   */\n      tag_91\n        /* \"#utility.yul\":426:427   */\n      0x00\n        /* \"#utility.yul\":415:424   */\n      dup4\n        /* \"#utility.yul\":411:428   */\n      add\n        /* \"#utility.yul\":402:408   */\n      dup5\n        /* \"#utility.yul\":358:429   */\n      tag_57\n      jump\t// in\n    tag_91:\n        /* \"#utility.yul\":214:436   */\n      swap3\n      swap2\n      pop\n      pop\n      jump\t// out\n        /* \"#utility.yul\":523:640   */\n    tag_59:\n        /* \"#utility.yul\":632:633   */\n      0x00\n        /* \"#utility.yul\":629:630   */\n      dup1\n        /* \"#utility.yul\":622:634   */\n      revert\n        /* \"#utility.yul\":769:891   */\n    tag_61:\n        /* \"#utility.yul\":842:866   */\n      tag_96\n        /* \"#utility.yul\":860:865   */\n      dup2\n        /* \"#utility.yul\":842:866   */\n      tag_56\n      jump\t// in\n    tag_96:\n        /* \"#utility.yul\":835:840   */\n      dup2\n        /* \"#utility.yul\":832:867   */\n      eq\n        /* \"#utility.yul\":822:885   */\n      tag_97\n      jumpi\n        /* \"#utility.yul\":881:882   */\n      0x00\n        /* \"#utility.yul\":878:879   */\n      dup1\n        /* \"#utility.yul\":871:883   */\n      revert\n        /* \"#utility.yul\":822:885   */\n    tag_97:\n        /* \"#utility.yul\":769:891   */\n      pop\n      jump\t// out\n        /* \"#utility.yul\":897:1036   */\n    tag_62:\n        /* \"#utility.yul\":943:948   */\n      0x00\n        /* \"#utility.yul\":981:987   */\n      dup2\n        /* \"#utility.yul\":968:988   */\n      calldataload\n        /* \"#utility.yul\":959:988   */\n      swap1\n      pop\n        /* \"#utility.yul\":997:1030   */\n      tag_99\n        /* \"#utility.yul\":1024:1029   */\n      dup2\n        /* \"#utility.yul\":997:1030   */\n      tag_61\n      jump\t// in\n    tag_99:\n        /* \"#utility.yul\":897:1036   */\n      swap3\n      swap2\n      pop\n      pop\n      jump\t// out\n        /* \"#utility.yul\":1042:1371   */\n    tag_27:\n        /* \"#utility.yul\":1101:1107   */\n      0x00\n        /* \"#utility.yul\":1150:1152   */\n      0x20\n        /* \"#utility.yul\":1138:1147   */\n      dup3\n        /* \"#utility.yul\":1129:1136   */\n      dup5\n        /* \"#utility.yul\":1125:1148   */\n      sub\n        /* \"#utility.yul\":1121:1153   */\n      slt\n        /* \"#utility.yul\":1118:1237   */\n      iszero\n      tag_101\n      jumpi\n        /* \"#utility.yul\":1156:1235   */\n      tag_102\n      tag_59\n      jump\t// in\n    tag_102:\n        /* \"#utility.yul\":1118:1237   */\n    tag_101:\n        /* \"#utility.yul\":1276:1277   */\n      0x00\n        /* \"#utility.yul\":1301:1354   */\n      tag_103\n        /* \"#utility.yul\":1346:1353   */\n      dup5\n        /* \"#utility.yul\":1337:1343   */\n      dup3\n        /* \"#utility.yul\":1326:1335   */\n      dup6\n        /* \"#utility.yul\":1322:1344   */\n      add\n        /* \"#utility.yul\":1301:1354   */\n      tag_62\n      jump\t// in\n    tag_103:\n        /* \"#utility.yul\":1291:1354   */\n      swap2\n      pop\n        /* \"#utility.yul\":1247:1364   */\n      pop\n        /* \"#utility.yul\":1042:1371   */\n      swap3\n      swap2\n      pop\n      pop\n      jump\t// out\n        /* \"#utility.yul\":1377:1476   */\n    tag_63:\n        /* \"#utility.yul\":1429:1435   */\n      0x00\n        /* \"#utility.yul\":1463:1468   */\n      dup2\n        /* \"#utility.yul\":1457:1469   */\n      mload\n        /* \"#utility.yul\":1447:1469   */\n      swap1\n      pop\n        /* \"#utility.yul\":1377:1476   */\n      swap2\n      swap1\n      pop\n      jump\t// out\n        /* \"#utility.yul\":1482:1651   */\n    tag_64:\n        /* \"#utility.yul\":1566:1577   */\n      0x00\n        /* \"#utility.yul\":1600:1606   */\n      dup3\n        /* \"#utility.yul\":1595:1598   */\n      dup3\n        /* \"#utility.yul\":1588:1607   */\n      mstore\n        /* \"#utility.yul\":1640:1644   */\n      0x20\n        /* \"#utility.yul\":1635:1638   */\n      dup3\n        /* \"#utility.yul\":1631:1645   */\n      add\n        /* \"#utility.yul\":1616:1645   */\n      swap1\n      pop\n        /* \"#utility.yul\":1482:1651   */\n      swap3\n      swap2\n      pop\n      pop\n      jump\t// out\n        /* \"#utility.yul\":1657:1796   */\n    tag_65:\n        /* \"#utility.yul\":1746:1752   */\n      dup3\n        /* \"#utility.yul\":1741:1744   */\n      dup2\n        /* \"#utility.yul\":1736:1739   */\n      dup4\n        /* \"#utility.yul\":1730:1753   */\n      mcopy\n        /* \"#utility.yul\":1787:1788   */\n      0x00\n        /* \"#utility.yul\":1778:1784   */\n      dup4\n        /* \"#utility.yul\":1773:1776   */\n      dup4\n        /* \"#utility.yul\":1769:1785   */\n      add\n        /* \"#utility.yul\":1762:1789   */\n      mstore\n        /* \"#utility.yul\":1657:1796   */\n      pop\n      pop\n      pop\n      jump\t// out\n        /* \"#utility.yul\":1802:1904   */\n    tag_66:\n        /* \"#utility.yul\":1843:1849   */\n      0x00\n        /* \"#utility.yul\":1894:1896   */\n      0x1f\n        /* \"#utility.yul\":1890:1897   */\n      not\n        /* \"#utility.yul\":1885:1887   */\n      0x1f\n        /* \"#utility.yul\":1878:1883   */\n      dup4\n        /* \"#utility.yul\":1874:1888   */\n      add\n        /* \"#utility.yul\":1870:1898   */\n      and\n        /* \"#utility.yul\":1860:1898   */\n      swap1\n      pop\n        /* \"#utility.yul\":1802:1904   */\n      swap2\n      swap1\n      pop\n      jump\t// out\n        /* \"#utility.yul\":1910:2287   */\n    tag_67:\n        /* \"#utility.yul\":1998:2001   */\n      0x00\n        /* \"#utility.yul\":2026:2065   */\n      tag_109\n        /* \"#utility.yul\":2059:2064   */\n      dup3\n        /* \"#utility.yul\":2026:2065   */\n      tag_63\n      jump\t// in\n    tag_109:\n        /* \"#utility.yul\":2081:2152   */\n      tag_110\n        /* \"#utility.yul\":2145:2151   */\n      dup2\n        /* \"#utility.yul\":2140:2143   */\n      dup6\n        /* \"#utility.yul\":2081:2152   */\n      tag_64\n      jump\t// in\n    tag_110:\n        /* \"#utility.yul\":2074:2152   */\n      swap4\n      pop\n        /* \"#utility.yul\":2161:2226   */\n      tag_111\n        /* \"#utility.yul\":2219:2225   */\n      dup2\n        /* \"#utility.yul\":2214:2217   */\n      dup6\n        /* \"#utility.yul\":2207:2211   */\n      0x20\n        /* \"#utility.yul\":2200:2205   */\n      dup7\n        /* \"#utility.yul\":2196:2212   */\n      add\n        /* \"#utility.yul\":2161:2226   */\n      tag_65\n      jump\t// in\n    tag_111:\n        /* \"#utility.yul\":2251:2280   */\n      tag_112\n        /* \"#utility.yul\":2273:2279   */\n      dup2\n        /* \"#utility.yul\":2251:2280   */\n      tag_66\n      jump\t// in\n    tag_112:\n        /* \"#utility.yul\":2246:2249   */\n      dup5\n        /* \"#utility.yul\":2242:2281   */\n      add\n        /* \"#utility.yul\":2235:2281   */\n      swap2\n      pop\n        /* \"#utility.yul\":2002:2287   */\n      pop\n        /* \"#utility.yul\":1910:2287   */\n      swap3\n      swap2\n      pop\n      pop\n      jump\t// out\n        /* \"#utility.yul\":2293:2606   */\n    tag_39:\n        /* \"#utility.yul\":2406:2410   */\n      0x00\n        /* \"#utility.yul\":2444:2446   */\n      0x20\n        /* \"#utility.yul\":2433:2442   */\n      dup3\n        /* \"#utility.yul\":2429:2447   */\n      add\n        /* \"#utility.yul\":2421:2447   */\n      swap1\n      pop\n        /* \"#utility.yul\":2493:2502   */\n      dup2\n        /* \"#utility.yul\":2487:2491   */\n      dup2\n        /* \"#utility.yul\":2483:2503   */\n      sub\n        /* \"#utility.yul\":2479:2480   */\n      0x00\n        /* \"#utility.yul\":2468:2477   */\n      dup4\n        /* \"#utility.yul\":2464:2481   */\n      add\n        /* \"#utility.yul\":2457:2504   */\n      mstore\n        /* \"#utility.yul\":2521:2599   */\n      tag_114\n        /* \"#utility.yul\":2594:2598   */\n      dup2\n        /* \"#utility.yul\":2585:2591   */\n      dup5\n        /* \"#utility.yul\":2521:2599   */\n      tag_67\n      jump\t// in\n    tag_114:\n        /* \"#utility.yul\":2513:2599   */\n      swap1\n      pop\n        /* \"#utility.yul\":2293:2606   */\n      swap3\n      swap2\n      pop\n      pop\n      jump\t// out\n        /* \"#utility.yul\":2612:2792   */\n    tag_68:\n        /* \"#utility.yul\":2660:2737   */\n      0x4e487b7100000000000000000000000000000000000000000000000000000000\n        /* \"#utility.yul\":2657:2658   */\n      0x00\n        /* \"#utility.yul\":2650:2738   */\n      mstore\n        /* \"#utility.yul\":2757:2761   */\n      0x11\n        /* \"#utility.yul\":2754:2755   */\n      0x04\n        /* \"#utility.yul\":2747:2762   */\n      mstore\n        /* \"#utility.yul\":2781:2785   */\n      0x24\n        /* \"#utility.yul\":2778:2779   */\n      0x00\n        /* \"#utility.yul\":2771:2786   */\n      revert\n        /* \"#utility.yul\":2798:2989   */\n    tag_42:\n        /* \"#utility.yul\":2838:2841   */\n      0x00\n        /* \"#utility.yul\":2857:2877   */\n      tag_117\n        /* \"#utility.yul\":2875:2876   */\n      dup3\n        /* \"#utility.yul\":2857:2877   */\n      tag_56\n      jump\t// in\n    tag_117:\n        /* \"#utility.yul\":2852:2877   */\n      swap2\n      pop\n        /* \"#utility.yul\":2891:2911   */\n      tag_118\n        /* \"#utility.yul\":2909:2910   */\n      dup4\n        /* \"#utility.yul\":2891:2911   */\n      tag_56\n      jump\t// in\n    tag_118:\n        /* \"#utility.yul\":2886:2911   */\n      swap3\n      pop\n        /* \"#utility.yul\":2934:2935   */\n      dup3\n        /* \"#utility.yul\":2931:2932   */\n      dup3\n        /* \"#utility.yul\":2927:2936   */\n      add\n        /* \"#utility.yul\":2920:2936   */\n      swap1\n      pop\n        /* \"#utility.yul\":2955:2958   */\n      dup1\n        /* \"#utility.yul\":2952:2953   */\n      dup3\n        /* \"#utility.yul\":2949:2959   */\n      gt\n        /* \"#utility.yul\":2946:2982   */\n      iszero\n      tag_119\n      jumpi\n        /* \"#utility.yul\":2962:2980   */\n      tag_120\n      tag_68\n      jump\t// in\n    tag_120:\n        /* \"#utility.yul\":2946:2982   */\n    tag_119:\n        /* \"#utility.yul\":2798:2989   */\n      swap3\n      swap2\n      pop\n      pop\n      jump\t// out\n        /* \"#utility.yul\":2995:3228   */\n    tag_45:\n        /* \"#utility.yul\":3034:3037   */\n      0x00\n        /* \"#utility.yul\":3057:3081   */\n      tag_122\n        /* \"#utility.yul\":3075:3080   */\n      dup3\n        /* \"#utility.yul\":3057:3081   */\n      tag_56\n      jump\t// in\n    tag_122:\n        /* \"#utility.yul\":3048:3081   */\n      swap2\n      pop\n        /* \"#utility.yul\":3103:3169   */\n      0xffffffffffffffffffffffffffffffffffffffffffffffffffffffffffffffff\n        /* \"#utility.yul\":3096:3101   */\n      dup3\n        /* \"#utility.yul\":3093:3170   */\n      sub\n        /* \"#utility.yul\":3090:3193   */\n      tag_123\n      jumpi\n        /* \"#utility.yul\":3173:3191   */\n      tag_124\n      tag_68\n      jump\t// in\n    tag_124:\n        /* \"#utility.yul\":3090:3193   */\n    tag_123:\n        /* \"#utility.yul\":3220:3221   */\n      0x01\n        /* \"#utility.yul\":3213:3218   */\n      dup3\n        /* \"#utility.yul\":3209:3222   */\n      add\n        /* \"#utility.yul\":3202:3222   */\n      swap1\n      pop\n        /* \"#utility.yul\":2995:3228   */\n      swap2\n      swap1\n      pop\n      jump\t// out\n        /* \"#utility.yul\":3234:3414   */\n    tag_69:\n        /* \"#utility.yul\":3282:3359   */\n      0x4e487b7100000000000000000000000000000000000000000000000000000000\n        /* \"#utility.yul\":3279:3280   */\n      0x00\n        /* \"#utility.yul\":3272:3360   */\n      mstore\n        /* \"#utility.yul\":3379:3383   */\n      0x41\n        /* \"#utility.yul\":3376:3377   */\n      0x04\n        /* \"#utility.yul\":3369:3384   */\n      mstore\n        /* \"#utility.yul\":3403:3407   */\n      0x24\n        /* \"#utility.yul\":3400:3401   */\n      0x00\n        /* \"#utility.yul\":3393:3408   */\n      revert\n        /* \"#utility.yul\":3420:3600   */\n    tag_70:\n        /* \"#utility.yul\":3468:3545   */\n      0x4e487b7100000000000000000000000000000000000000000000000000000000\n        /* \"#utility.yul\":3465:3466   */\n      0x00\n        /* \"#utility.yul\":3458:3546   */\n      mstore\n        /* \"#utility.yul\":3565:3569   */\n      0x22\n        /* \"#utility.yul\":3562:3563   */\n      0x04\n        /* \"#utility.yul\":3555:3570   */\n      mstore\n        /* \"#utility.yul\":3589:3593   */\n      0x24\n        /* \"#utility.yul\":3586:3587   */\n      0x00\n        /* \"#utility.yul\":3579:3594   */\n      revert\n        /* \"#utility.yul\":3606:3926   */\n    tag_51:\n        /* \"#utility.yul\":3650:3656   */\n      0x00\n        /* \"#utility.yul\":3687:3688   */\n      0x02\n        /* \"#utility.yul\":3681:3685   */\n      dup3\n        /* \"#utility.yul\":3677:3689   */\n      div\n        /* \"#utility.yul\":3667:3689   */\n      swap1\n      pop\n        /* \"#utility.yul\":3734:3735   */\n      0x01\n        /* \"#utility.yul\":3728:3732   */\n      dup3\n        /* \"#utility.yul\":3724:3736   */\n      and\n        /* \"#utility.yul\":3755:3773   */\n      dup1\n        /* \"#utility.yul\":3745:3826   */\n      tag_128\n      jumpi\n        /* \"#utility.yul\":3811:3815   */\n      0x7f\n        /* \"#utility.yul\":3803:3809   */\n      dup3\n        /* \"#utility.yul\":3799:3816   */\n      and\n        /* \"#utility.yul\":3789:3816   */\n      swap2\n      pop\n        /* \"#utility.yul\":3745:3826   */\n    tag_128:\n        /* \"#utility.yul\":3873:3875   */\n      0x20\n        /* \"#utility.yul\":3865:3871   */\n      dup3\n        /* \"#utility.yul\":3862:3876   */\n      lt\n        /* \"#utility.yul\":3842:3860   */\n      dup2\n        /* \"#utility.yul\":3839:3877   */\n      sub\n        /* \"#utility.yul\":3836:3920   */\n      tag_129\n      jumpi\n        /* \"#utility.yul\":3892:3910   */\n      tag_130\n      tag_70\n      jump\t// in\n    tag_130:\n        /* \"#utility.yul\":3836:3920   */\n    tag_129:\n        /* \"#utility.yul\":3657:3926   */\n      pop\n        /* \"#utility.yul\":3606:3926   */\n      swap2\n      swap1\n      pop\n      jump\t// out\n        /* \"#utility.yul\":3932:4073   */\n    tag_71:\n        /* \"#utility.yul\":3981:3985   */\n      0x00\n        /* \"#utility.yul\":4004:4007   */\n      dup2\n        /* \"#utility.yul\":3996:4007   */\n      swap1\n      pop\n        /* \"#utility.yul\":4027:4030   */\n      dup2\n        /* \"#utility.yul\":4024:4025   */\n      0x00\n        /* \"#utility.yul\":4017:4031   */\n      mstore\n        /* \"#utility.yul\":4061:4065   */\n      0x20\n        /* \"#utility.yul\":4058:4059   */\n      0x00\n        /* \"#utility.yul\":4048:4066   */\n      keccak256\n        /* \"#utility.yul\":4040:4066   */\n      swap1\n      pop\n        /* \"#utility.yul\":3932:4073   */\n      swap2\n      swap1\n      pop\n      jump\t// out\n        /* \"#utility.yul\":4079:4172   */\n    tag_72:\n        /* \"#utility.yul\":4116:4122   */\n      0x00\n        /* \"#utility.yul\":4163:4165   */\n      0x20\n        /* \"#utility.yul\":4158:4160   */\n      0x1f\n        /* \"#utility.yul\":4151:4156   */\n      dup4\n        /* \"#utility.yul\":4147:4161   */\n      add\n        /* \"#utility.yul\":4143:4166   */\n      div\n        /* \"#utility.yul\":4133:4166   */\n      swap1\n      pop\n        /* \"#utility.yul\":4079:4172   */\n      swap2\n      swap1\n      pop\n      jump\t// out\n        /* \"#utility.yul\":4178:4285   */\n    tag_73:\n        /* \"#utility.yul\":4222:4230   */\n      0x00\n        /* \"#utility.yul\":4272:4277   */\n      dup3\n        /* \"#utility.yul\":4266:4270   */\n      dup3\n        /* \"#utility.yul\":4262:4278   */\n      shl\n        /* \"#utility.yul\":4241:4278   */\n      swap1\n      pop\n        /* \"#utility.yul\":4178:4285   */\n      swap3\n      swap2\n      pop\n      pop\n      jump\t// out\n        /* \"#utility.yul\":4291:4684   */\n    tag_74:\n        /* \"#utility.yul\":4360:4366   */\n      0x00\n        /* \"#utility.yul\":4410:4411   */\n      0x08\n        /* \"#utility.yul\":4398:4408   */\n      dup4\n        /* \"#utility.yul\":4394:4412   */\n      mul\n        /* \"#utility.yul\":4433:4530   */\n      tag_135\n        /* \"#utility.yul\":4463:4529   */\n      0xffffffffffffffffffffffffffffffffffffffffffffffffffffffffffffffff\n        /* \"#utility.yul\":4452:4461   */\n      dup3\n        /* \"#utility.yul\":4433:4530   */\n      tag_73\n      jump\t// in\n    tag_135:\n        /* \"#utility.yul\":4551:4590   */\n      tag_136\n        /* \"#utility.yul\":4581:4589   */\n      dup7\n        /* \"#utility.yul\":4570:4579   */\n      dup4\n        /* \"#utility.yul\":4551:4590   */\n      tag_73\n      jump\t// in\n    tag_136:\n        /* \"#utility.yul\":4539:4590   */\n      swap6\n      pop\n        /* \"#utility.yul\":4623:4627   */\n      dup1\n        /* \"#utility.yul\":4619:4628   */\n      not\n        /* \"#utility.yul\":4612:4617   */\n      dup5\n        /* \"#utility.yul\":4608:4629   */\n      and\n        /* \"#utility.yul\":4599:4629   */\n      swap4\n      pop\n        /* \"#utility.yul\":4672:4676   */\n      dup1\n        /* \"#utility.yul\":4662:4670   */\n      dup7\n        /* \"#utility.yul\":4658:4677   */\n      and\n        /* \"#utility.yul\":4651:4656   */\n      dup5\n        /* \"#utility.yul\":4648:4678   */\n      or\n        /* \"#utility.yul\":4638:4678   */\n      swap3\n      pop\n        /* \"#utility.yul\":4367:4684   */\n      pop\n      pop\n        /* \"#utility.yul\":4291:4684   */\n      swap4\n      swap3\n      pop\n      pop\n      pop\n      jump\t// out\n        /* \"#utility.yul\":4690:4750   */\n    tag_75:\n        /* \"#utility.yul\":4718:4721   */\n      0x00\n        /* \"#utility.yul\":4739:4744   */\n      dup2\n        /* \"#utility.yul\":4732:4744   */\n      swap1\n      pop\n        /* \"#utility.yul\":4690:4750   */\n      swap2\n      swap1\n      pop\n      jump\t// out\n        /* \"#utility.yul\":4756:4898   */\n    tag_76:\n        /* \"#utility.yul\":4806:4815   */\n      0x00\n        /* \"#utility.yul\":4839:4892   */\n      tag_139\n        /* \"#utility.yul\":4857:4891   */\n      tag_140\n        /* \"#utility.yul\":4866:4890   */\n      tag_141\n        /* \"#utility.yul\":4884:4889   */\n      dup5\n        /* \"#utility.yul\":4866:4890   */\n      tag_56\n      jump\t// in\n    tag_141:\n        /* \"#utility.yul\":4857:4891   */\n      tag_75\n      jump\t// in\n    tag_140:\n        /* \"#utility.yul\":4839:4892   */\n      tag_56\n      jump\t// in\n    tag_139:\n        /* \"#utility.yul\":4826:4892   */\n      swap1\n      pop\n        /* \"#utility.yul\":4756:4898   */\n      swap2\n      swap1\n      pop\n      jump\t// out\n        /* \"#utility.yul\":4904:4979   */\n    tag_77:\n        /* \"#utility.yul\":4947:4950   */\n      0x00\n        /* \"#utility.yul\":4968:4973   */\n      dup2\n        /* \"#utility.yul\":4961:4973   */\n      swap1\n      pop\n        /* \"#utility.yul\":4904:4979   */\n      swap2\n      swap1\n      pop\n      jump\t// out\n        /* \"#utility.yul\":4985:5254   */\n    tag_78:\n        /* \"#utility.yul\":5095:5134   */\n      tag_144\n        /* \"#utility.yul\":5126:5133   */\n      dup4\n        /* \"#utility.yul\":5095:5134   */\n      tag_76\n      jump\t// in\n    tag_144:\n        /* \"#utility.yul\":5156:5247   */\n      tag_145\n        /* \"#utility.yul\":5205:5246   */\n      tag_146\n        /* \"#utility.yul\":5229:5245   */\n      dup3\n        /* \"#utility.yul\":5205:5246   */\n      tag_77\n      jump\t// in\n    tag_146:\n        /* \"#utility.yul\":5197:5203   */\n      dup5\n        /* \"#utility.yul\":5190:5194   */\n      dup5\n        /* \"#utility.yul\":5184:5195   */\n      sload\n        /* \"#utility.yul\":5156:5247   */\n      tag_74\n      jump\t// in\n    tag_145:\n        /* \"#utility.yul\":5150:5154   */\n      dup3\n        /* \"#utility.yul\":5143:5248   */\n      sstore\n        /* \"#utility.yul\":5061:5254   */\n      pop\n        /* \"#utility.yul\":4985:5254   */\n      pop\n      pop\n      pop\n      jump\t// out\n        /* \"#utility.yul\":5260:5333   */\n    tag_79:\n        /* \"#utility.yul\":5305:5308   */\n      0x00\n        /* \"#utility.yul\":5260:5333   */\n      swap1\n      jump\t// out\n        /* \"#utility.yul\":5339:5528   */\n    tag_80:\n        /* \"#utility.yul\":5416:5448   */\n      tag_149\n      tag_79\n      jump\t// in\n    tag_149:\n        /* \"#utility.yul\":5457:5522   */\n      tag_150\n        /* \"#utility.yul\":5515:5521   */\n      dup2\n        /* \"#utility.yul\":5507:5513   */\n      dup5\n        /* \"#utility.yul\":5501:5505   */\n      dup5\n        /* \"#utility.yul\":5457:5522   */\n      tag_78\n      jump\t// in\n    tag_150:\n        /* \"#utility.yul\":5392:5528   */\n      pop\n        /* \"#utility.yul\":5339:5528   */\n      pop\n      pop\n      jump\t// out\n        /* \"#utility.yul\":5534:5720   */\n    tag_81:\n        /* \"#utility.yul\":5594:5714   */\n    tag_152:\n        /* \"#utility.yul\":5611:5614   */\n      dup2\n        /* \"#utility.yul\":5604:5609   */\n      dup2\n        /* \"#utility.yul\":5601:5615   */\n      lt\n        /* \"#utility.yul\":5594:5714   */\n      iszero\n      tag_154\n      jumpi\n        /* \"#utility.yul\":5665:5704   */\n      tag_155\n        /* \"#utility.yul\":5702:5703   */\n      0x00\n        /* \"#utility.yul\":5695:5700   */\n      dup3\n        /* \"#utility.yul\":5665:5704   */\n      tag_80\n      jump\t// in\n    tag_155:\n        /* \"#utility.yul\":5638:5639   */\n      0x01\n        /* \"#utility.yul\":5631:5636   */\n      dup2\n        /* \"#utility.yul\":5627:5640   */\n      add\n        /* \"#utility.yul\":5618:5640   */\n      swap1\n      pop\n        /* \"#utility.yul\":5594:5714   */\n      jump(tag_152)\n    tag_154:\n        /* \"#utility.yul\":5534:5720   */\n      pop\n      pop\n      jump\t// out\n        /* \"#utility.yul\":5726:6269   */\n    tag_82:\n        /* \"#utility.yul\":5827:5829   */\n      0x1f\n        /* \"#utility.yul\":5822:5825   */\n      dup3\n        /* \"#utility.yul\":5819:5830   */\n      gt\n        /* \"#utility.yul\":5816:6262   */\n      iszero\n      tag_157\n      jumpi\n        /* \"#utility.yul\":5861:5899   */\n      tag_158\n        /* \"#utility.yul\":5893:5898   */\n      dup2\n        /* \"#utility.yul\":5861:5899   */\n      tag_71\n      jump\t// in\n    tag_158:\n        /* \"#utility.yul\":5945:5974   */\n      tag_159\n        /* \"#utility.yul\":5963:5973   */\n      dup5\n        /* \"#utility.yul\":5945:5974   */\n      tag_72\n      jump\t// in\n    tag_159:\n        /* \"#utility.yul\":5935:5943   */\n      dup2\n        /* \"#utility.yul\":5931:5975   */\n      add\n        /* \"#utility.yul\":6128:6130   */\n      0x20\n        /* \"#utility.yul\":6116:6126   */\n      dup6\n        /* \"#utility.yul\":6113:6131   */\n      lt\n        /* \"#utility.yul\":6110:6159   */\n      iszero\n      tag_160\n      jumpi\n        /* \"#utility.yul\":6149:6157   */\n      dup2\n        /* \"#utility.yul\":6134:6157   */\n      swap1\n      pop\n        /* \"#utility.yul\":6110:6159   */\n    tag_160:\n        /* \"#utility.yul\":6172:6252   */\n      tag_161\n        /* \"#utility.yul\":6228:6250   */\n      tag_162\n        /* \"#utility.yul\":6246:6249   */\n      dup6\n        /* \"#utility.yul\":6228:6250   */\n      tag_72\n      jump\t// in\n    tag_162:\n        /* \"#utility.yul\":6218:6226   */\n      dup4\n        /* \"#utility.yul\":6214:6251   */\n      add\n        /* \"#utility.yul\":6201:6212   */\n      dup3\n        /* \"#utility.yul\":6172:6252   */\n      tag_81\n      jump\t// in\n    tag_161:\n        /* \"#utility.yul\":5831:6262   */\n      pop\n      pop\n        /* \"#utility.yul\":5816:6262   */\n    tag_157:\n        /* \"#utility.yul\":5726:6269   */\n      pop\n      pop\n      pop\n      jump\t// out\n        /* \"#utility.yul\":6275:6392   */\n    tag_83:\n        /* \"#utility.yul\":6329:6337   */\n      0x00\n        /* \"#utility.yul\":6379:6384   */\n      dup3\n        /* \"#utility.yul\":6373:6377   */\n      dup3\n        /* \"#utility.yul\":6369:6385   */\n      shr\n        /* \"#utility.yul\":6348:6385   */\n      swap1\n      pop\n        /* \"#utility.yul\":6275:6392   */\n      swap3\n      swap2\n      pop\n      pop\n      jump\t// out\n        /* \"#utility.yul\":6398:6567   */\n    tag_84:\n        /* \"#utility.yul\":6442:6448   */\n      0x00\n        /* \"#utility.yul\":6475:6526   */\n      tag_165\n        /* \"#utility.yul\":6523:6524   */\n      0x00\n        /* \"#utility.yul\":6519:6525   */\n      not\n        /* \"#utility.yul\":6511:6516   */\n      dup5\n        /* \"#utility.yul\":6508:6509   */\n      0x08\n        /* \"#utility.yul\":6504:6517   */\n      mul\n        /* \"#utility.yul\":6475:6526   */\n      tag_83\n      jump\t// in\n    tag_165:\n        /* \"#utility.yul\":6471:6527   */\n      not\n        /* \"#utility.yul\":6556:6560   */\n      dup1\n        /* \"#utility.yul\":6550:6554   */\n      dup4\n        /* \"#utility.yul\":6546:6561   */\n      and\n        /* \"#utility.yul\":6536:6561   */\n      swap2\n      pop\n        /* \"#utility.yul\":6449:6567   */\n      pop\n        /* \"#utility.yul\":6398:6567   */\n      swap3\n      swap2\n      pop\n      pop\n      jump\t// out\n        /* \"#utility.yul\":6572:6867   */\n    tag_85:\n        /* \"#utility.yul\":6648:6652   */\n      0x00\n        /* \"#utility.yul\":6794:6823   */\n      tag_167\n        /* \"#utility.yul\":6819:6822   */\n      dup4\n        /* \"#utility.yul\":6813:6817   */\n      dup4\n        /* \"#utility.yul\":6794:6823   */\n      tag_84\n      jump\t// in\n    tag_167:\n        /* \"#utility.yul\":6786:6823   */\n      swap2\n      pop\n        /* \"#utility.yul\":6856:6859   */\n      dup3\n        /* \"#utility.yul\":6853:6854   */\n      0x02\n        /* \"#utility.yul\":6849:6860   */\n      mul\n        /* \"#utility.yul\":6843:6847   */\n      dup3\n        /* \"#utility.yul\":6840:6861   */\n      or\n        /* \"#utility.yul\":6832:6861   */\n      swap1\n      pop\n        /* \"#utility.yul\":6572:6867   */\n      swap3\n      swap2\n      pop\n      pop\n      jump\t// out\n        /* \"#utility.yul\":6872:8267   */\n    tag_49:\n        /* \"#utility.yul\":6989:7026   */\n      tag_169\n        /* \"#utility.yul\":7022:7025   */\n      dup3\n        /* \"#utility.yul\":6989:7026   */\n      tag_63\n      jump\t// in\n    tag_169:\n        /* \"#utility.yul\":7091:7109   */\n      0xffffffffffffffff\n        /* \"#utility.yul\":7083:7089   */\n      dup2\n        /* \"#utility.yul\":7080:7110   */\n      gt\n        /* \"#utility.yul\":7077:7133   */\n      iszero\n      tag_170\n      jumpi\n        /* \"#utility.yul\":7113:7131   */\n      tag_171\n      tag_69\n      jump\t// in\n    tag_171:\n        /* \"#utility.yul\":7077:7133   */\n    tag_170:\n        /* \"#utility.yul\":7157:7195   */\n      tag_172\n        /* \"#utility.yul\":7189:7193   */\n      dup3\n        /* \"#utility.yul\":7183:7194   */\n      sload\n        /* \"#utility.yul\":7157:7195   */\n      tag_51\n      jump\t// in\n    tag_172:\n        /* \"#utility.yul\":7242:7309   */\n      tag_173\n        /* \"#utility.yul\":7302:7308   */\n      dup3\n        /* \"#utility.yul\":7294:7300   */\n      dup3\n        /* \"#utility.yul\":7288:7292   */\n      dup6\n        /* \"#utility.yul\":7242:7309   */\n      tag_82\n      jump\t// in\n    tag_173:\n        /* \"#utility.yul\":7336:7337   */\n      0x00\n        /* \"#utility.yul\":7360:7364   */\n      0x20\n        /* \"#utility.yul\":7347:7364   */\n      swap1\n      pop\n        /* \"#utility.yul\":7392:7394   */\n      0x1f\n        /* \"#utility.yul\":7384:7390   */\n      dup4\n        /* \"#utility.yul\":7381:7395   */\n      gt\n        /* \"#utility.yul\":7409:7410   */\n      0x01\n        /* \"#utility.yul\":7404:8022   */\n      dup2\n      eq\n      tag_175\n      jumpi\n        /* \"#utility.yul\":8066:8067   */\n      0x00\n        /* \"#utility.yul\":8083:8089   */\n      dup5\n        /* \"#utility.yul\":8080:8157   */\n      iszero\n      tag_176\n      jumpi\n        /* \"#utility.yul\":8132:8141   */\n      dup3\n        /* \"#utility.yul\":8127:8130   */\n      dup8\n        /* \"#utility.yul\":8123:8142   */\n      add\n        /* \"#utility.yul\":8117:8143   */\n      mload\n        /* \"#utility.yul\":8108:8143   */\n      swap1\n      pop\n        /* \"#utility.yul\":8080:8157   */\n    tag_176:\n        /* \"#utility.yul\":8183:8250   */\n      tag_177\n        /* \"#utility.yul\":8243:8249   */\n      dup6\n        /* \"#utility.yul\":8236:8241   */\n      dup3\n        /* \"#utility.yul\":8183:8250   */\n      tag_85\n      jump\t// in\n    tag_177:\n        /* \"#utility.yul\":8177:8181   */\n      dup7\n        /* \"#utility.yul\":8170:8251   */\n      sstore\n        /* \"#utility.yul\":8039:8261   */\n      pop\n        /* \"#utility.yul\":7374:8261   */\n      jump(tag_174)\n        /* \"#utility.yul\":7404:8022   */\n    tag_175:\n        /* \"#utility.yul\":7456:7460   */\n      0x1f\n        /* \"#utility.yul\":7452:7461   */\n      not\n        /* \"#utility.yul\":7444:7450   */\n      dup5\n        /* \"#utility.yul\":7440:7462   */\n      and\n        /* \"#utility.yul\":7490:7527   */\n      tag_178\n        /* \"#utility.yul\":7522:7526   */\n      dup7\n        /* \"#utility.yul\":7490:7527   */\n      tag_71\n      jump\t// in\n    tag_178:\n        /* \"#utility.yul\":7549:7550   */\n      0x00\n        /* \"#utility.yul\":7563:7771   */\n    tag_179:\n        /* \"#utility.yul\":7577:7584   */\n      dup3\n        /* \"#utility.yul\":7574:7575   */\n      dup2\n        /* \"#utility.yul\":7571:7585   */\n      lt\n        /* \"#utility.yul\":7563:7771   */\n      iszero\n      tag_181\n      jumpi\n        /* \"#utility.yul\":7656:7665   */\n      dup5\n        /* \"#utility.yul\":7651:7654   */\n      dup10\n        /* \"#utility.yul\":7647:7666   */\n      add\n        /* \"#utility.yul\":7641:7667   */\n      mload\n        /* \"#utility.yul\":7633:7639   */\n      dup3\n        /* \"#utility.yul\":7626:7668   */\n      sstore\n        /* \"#utility.yul\":7707:7708   */\n      0x01\n        /* \"#utility.yul\":7699:7705   */\n      dup3\n        /* \"#utility.yul\":7695:7709   */\n      add\n        /* \"#utility.yul\":7685:7709   */\n      swap2\n      pop\n        /* \"#utility.yul\":7754:7756   */\n      0x20\n        /* \"#utility.yul\":7743:7752   */\n      dup6\n        /* \"#utility.yul\":7739:7757   */\n      add\n        /* \"#utility.yul\":7726:7757   */\n      swap5\n      pop\n        /* \"#utility.yul\":7600:7604   */\n      0x20\n        /* \"#utility.yul\":7597:7598   */\n      dup2\n        /* \"#utility.yul\":7593:7605   */\n      add\n        /* \"#utility.yul\":7588:7605   */\n      swap1\n      pop\n        /* \"#utility.yul\":7563:7771   */\n      jump(tag_179)\n    tag_181:\n        /* \"#utility.yul\":7799:7805   */\n      dup7\n        /* \"#utility.yul\":7790:7797   */\n      dup4\n        /* \"#utility.yul\":7787:7806   */\n      lt\n        /* \"#utility.yul\":7784:7963   */\n      iszero\n      tag_182\n      jumpi\n        /* \"#utility.yul\":7857:7866   */\n      dup5\n        /* \"#utility.yul\":7852:7855   */\n      dup10\n        /* \"#utility.yul\":7848:7867   */\n      add\n        /* \"#utility.yul\":7842:7868   */\n      mload\n        /* \"#utility.yul\":7900:7948   */\n      tag_183\n        /* \"#utility.yul\":7942:7946   */\n      0x1f\n        /* \"#utility.yul\":7934:7940   */\n      dup10\n        /* \"#utility.yul\":7930:7947   */\n      and\n        /* \"#utility.yul\":7919:7928   */\n      dup3\n        /* \"#utility.yul\":7900:7948   */\n      tag_84\n      jump\t// in\n    tag_183:\n        /* \"#utility.yul\":7892:7898   */\n      dup4\n        /* \"#utility.yul\":7885:7949   */\n      sstore\n        /* \"#utility.yul\":7807:7963   */\n      pop\n        /* \"#utility.yul\":7784:7963   */\n    tag_182:\n        /* \"#utility.yul\":8009:8010   */\n      0x01\n        /* \"#utility.yul\":8005:8006   */\n      0x02\n        /* \"#utility.yul\":7997:8003   */\n      dup9\n        /* \"#utility.yul\":7993:8007   */\n      mul\n        /* \"#utility.yul\":7989:8011   */\n      add\n        /* \"#utility.yul\":7983:7987   */\n      dup9\n        /* \"#utility.yul\":7976:8012   */\n      sstore\n        /* \"#utility.yul\":7411:8022   */\n      pop\n      pop\n      pop\n        /* \"#utility.yul\":7374:8261   */\n    tag_174:\n      pop\n        /* \"#utility.yul\":6964:8267   */\n      pop\n      pop\n      pop\n        /* \"#utility.yul\":6872:8267   */\n      pop\n      pop\n      jump\t// out\n\n    auxdata: 0xa26469706673582212209fbd90af008d972e7f297c72f371b3b6169759564ee95c697ce6d0ea2d557f9e64736f6c634300081a0033\n}\n",
				"bytecode": {
					"linkReferences": {},
					"object": "60806040526040518060400160405280601b81526020017f42757920796f7572206669727374206576656e74207469636b65740000000000815250600690816100489190610312565b50348015610054575f80fd5b50604051610cf8380380610cf88339818101604052810190610076919061040f565b806001819055504260038190555062093a80426100939190610467565b6004819055506018603c806003546004546100ae919061049a565b6100b891906104fa565b6100c291906104fa565b6100cc91906104fa565b6005819055505061052a565b5f81519050919050565b7f4e487b71000000000000000000000000000000000000000000000000000000005f52604160045260245ffd5b7f4e487b71000000000000000000000000000000000000000000000000000000005f52602260045260245ffd5b5f600282049050600182168061015357607f821691505b6020821081036101665761016561010f565b5b50919050565b5f819050815f5260205f209050919050565b5f6020601f8301049050919050565b5f82821b905092915050565b5f600883026101c87fffffffffffffffffffffffffffffffffffffffffffffffffffffffffffffffff8261018d565b6101d2868361018d565b95508019841693508086168417925050509392505050565b5f819050919050565b5f819050919050565b5f61021661021161020c846101ea565b6101f3565b6101ea565b9050919050565b5f819050919050565b61022f836101fc565b61024361023b8261021d565b848454610199565b825550505050565b5f90565b61025761024b565b610262818484610226565b505050565b5b818110156102855761027a5f8261024f565b600181019050610268565b5050565b601f8211156102ca5761029b8161016c565b6102a48461017e565b810160208510156102b3578190505b6102c76102bf8561017e565b830182610267565b50505b505050565b5f82821c905092915050565b5f6102ea5f19846008026102cf565b1980831691505092915050565b5f61030283836102db565b9150826002028217905092915050565b61031b826100d8565b67ffffffffffffffff811115610334576103336100e2565b5b61033e825461013c565b610349828285610289565b5f60209050601f83116001811461037a575f8415610368578287015190505b61037285826102f7565b8655506103d9565b601f1984166103888661016c565b5f5b828110156103af5784890151825560018201915060208501945060208101905061038a565b868310156103cc57848901516103c8601f8916826102db565b8355505b6001600288020188555050505b505050505050565b5f80fd5b6103ee816101ea565b81146103f8575f80fd5b50565b5f81519050610409816103e5565b92915050565b5f60208284031215610424576104236103e1565b5b5f610431848285016103fb565b91505092915050565b7f4e487b71000000000000000000000000000000000000000000000000000000005f52601160045260245ffd5b5f610471826101ea565b915061047c836101ea565b92508282019050808211156104945761049361043a565b5b92915050565b5f6104a4826101ea565b91506104af836101ea565b92508282039050818111156104c7576104c661043a565b5b92915050565b7f4e487b71000000000000000000000000000000000000000000000000000000005f52601260045260245ffd5b5f610504826101ea565b915061050f836101ea565b92508261051f5761051e6104cd565b5b828204905092915050565b6107c1806105375f395ff3fe608060405234801561000f575f80fd5b5060043610610086575f3560e01c806367dd74ca1161005957806367dd74ca146101025780637cc3ae8c14610132578063c744656514610150578063e21f37ce1461016e57610086565b80631209b1f61461008a5780631a39d8ef146100a857806345745c10146100c65780636284568a146100e4575b5f80fd5b61009261018c565b60405161009f91906102ec565b60405180910390f35b6100b0610192565b6040516100bd91906102ec565b60405180910390f35b6100ce610198565b6040516100db91906102ec565b60405180910390f35b6100ec61019d565b6040516100f991906102ec565b60405180910390f35b61011c60048036038101906101179190610333565b6101a3565b60405161012991906102ec565b60405180910390f35b61013a61023c565b60405161014791906102ec565b60405180910390f35b610158610242565b60405161016591906102ec565b60405180910390f35b610176610248565b60405161018391906103ce565b60405180910390f35b60015481565b60025481565b5f5481565b60055481565b5f6005826002546101b4919061041b565b10156101f1575f808154809291906101cb9061044e565b91905055508160025f8282546101e1919061041b565b925050819055505f549050610237565b6040518060400160405280601a81526020017f596f752063616e277420627579206d6f7265207469636b6574730000000000008152506006908161023591906106bc565b505b919050565b60045481565b60035481565b60068054610255906104ef565b80601f0160208091040260200160405190810160405280929190818152602001828054610281906104ef565b80156102cc5780601f106102a3576101008083540402835291602001916102cc565b820191905f5260205f20905b8154815290600101906020018083116102af57829003601f168201915b505050505081565b5f819050919050565b6102e6816102d4565b82525050565b5f6020820190506102ff5f8301846102dd565b92915050565b5f80fd5b610312816102d4565b811461031c575f80fd5b50565b5f8135905061032d81610309565b92915050565b5f6020828403121561034857610347610305565b5b5f6103558482850161031f565b91505092915050565b5f81519050919050565b5f82825260208201905092915050565b8281835e5f83830152505050565b5f601f19601f8301169050919050565b5f6103a08261035e565b6103aa8185610368565b93506103ba818560208601610378565b6103c381610386565b840191505092915050565b5f6020820190508181035f8301526103e68184610396565b905092915050565b7f4e487b71000000000000000000000000000000000000000000000000000000005f52601160045260245ffd5b5f610425826102d4565b9150610430836102d4565b9250828201905080821115610448576104476103ee565b5b92915050565b5f610458826102d4565b91507fffffffffffffffffffffffffffffffffffffffffffffffffffffffffffffffff820361048a576104896103ee565b5b600182019050919050565b7f4e487b71000000000000000000000000000000000000000000000000000000005f52604160045260245ffd5b7f4e487b71000000000000000000000000000000000000000000000000000000005f52602260045260245ffd5b5f600282049050600182168061050657607f821691505b602082108103610519576105186104c2565b5b50919050565b5f819050815f5260205f209050919050565b5f6020601f8301049050919050565b5f82821b905092915050565b5f6008830261057b7fffffffffffffffffffffffffffffffffffffffffffffffffffffffffffffffff82610540565b6105858683610540565b95508019841693508086168417925050509392505050565b5f819050919050565b5f6105c06105bb6105b6846102d4565b61059d565b6102d4565b9050919050565b5f819050919050565b6105d9836105a6565b6105ed6105e5826105c7565b84845461054c565b825550505050565b5f90565b6106016105f5565b61060c8184846105d0565b505050565b5b8181101561062f576106245f826105f9565b600181019050610612565b5050565b601f821115610674576106458161051f565b61064e84610531565b8101602085101561065d578190505b61067161066985610531565b830182610611565b50505b505050565b5f82821c905092915050565b5f6106945f1984600802610679565b1980831691505092915050565b5f6106ac8383610685565b9150826002028217905092915050565b6106c58261035e565b67ffffffffffffffff8111156106de576106dd610495565b5b6106e882546104ef565b6106f3828285610633565b5f60209050601f831160018114610724575f8415610712578287015190505b61071c85826106a1565b865550610783565b601f1984166107328661051f565b5f5b8281101561075957848901518255600182019150602085019450602081019050610734565b868310156107765784890151610772601f891682610685565b8355505b6001600288020188555050505b50505050505056fea26469706673582212209fbd90af008d972e7f297c72f371b3b6169759564ee95c697ce6d0ea2d557f9e64736f6c634300081a0033",
					"opcodes": "PUSH1 0x80 PUSH1 0x40 MSTORE PUSH1 0x40 MLOAD DUP1 PUSH1 0x40 ADD PUSH1 0x40 MSTORE DUP1 PUSH1 0x1B DUP2 MSTORE PUSH1 0x20 ADD PUSH32 0x42757920796F7572206669727374206576656E74207469636B65740000000000 DUP2 MSTORE POP PUSH1 0x6 SWAP1 DUP2 PUSH2 0x48 SWAP2 SWAP1 PUSH2 0x312 JUMP JUMPDEST POP CALLVALUE DUP1 ISZERO PUSH2 0x54 JUMPI PUSH0 DUP1 REVERT JUMPDEST POP PUSH1 0x40 MLOAD PUSH2 0xCF8 CODESIZE SUB DUP1 PUSH2 0xCF8 DUP4 CODECOPY DUP2 DUP2 ADD PUSH1 0x40 MSTORE DUP2 ADD SWAP1 PUSH2 0x76 SWAP2 SWAP1 PUSH2 0x40F JUMP JUMPDEST DUP1 PUSH1 0x1 DUP2 SWAP1 SSTORE POP TIMESTAMP PUSH1 0x3 DUP2 SWAP1 SSTORE POP PUSH3 0x93A80 TIMESTAMP PUSH2 0x93 SWAP2 SWAP1 PUSH2 0x467 JUMP JUMPDEST PUSH1 0x4 DUP2 SWAP1 SSTORE POP PUSH1 0x18 PUSH1 0x3C DUP1 PUSH1 0x3 SLOAD PUSH1 0x4 SLOAD PUSH2 0xAE SWAP2 SWAP1 PUSH2 0x49A JUMP JUMPDEST PUSH2 0xB8 SWAP2 SWAP1 PUSH2 0x4FA JUMP JUMPDEST PUSH2 0xC2 SWAP2 SWAP1 PUSH2 0x4FA JUMP JUMPDEST PUSH2 0xCC SWAP2 SWAP1 PUSH2 0x4FA JUMP JUMPDEST PUSH1 0x5 DUP2 SWAP1 SSTORE POP POP PUSH2 0x52A JUMP JUMPDEST PUSH0 DUP2 MLOAD SWAP1 POP SWAP2 SWAP1 POP JUMP JUMPDEST PUSH32 0x4E487B7100000000000000000000000000000000000000000000000000000000 PUSH0 MSTORE PUSH1 0x41 PUSH1 0x4 MSTORE PUSH1 0x24 PUSH0 REVERT JUMPDEST PUSH32 0x4E487B7100000000000000000000000000000000000000000000000000000000 PUSH0 MSTORE PUSH1 0x22 PUSH1 0x4 MSTORE PUSH1 0x24 PUSH0 REVERT JUMPDEST PUSH0 PUSH1 0x2 DUP3 DIV SWAP1 POP PUSH1 0x1 DUP3 AND DUP1 PUSH2 0x153 JUMPI PUSH1 0x7F DUP3 AND SWAP2 POP JUMPDEST PUSH1 0x20 DUP3 LT DUP2 SUB PUSH2 0x166 JUMPI PUSH2 0x165 PUSH2 0x10F JUMP JUMPDEST JUMPDEST POP SWAP2 SWAP1 POP JUMP JUMPDEST PUSH0 DUP2 SWAP1 POP DUP2 PUSH0 MSTORE PUSH1 0x20 PUSH0 KECCAK256 SWAP1 POP SWAP2 SWAP1 POP JUMP JUMPDEST PUSH0 PUSH1 0x20 PUSH1 0x1F DUP4 ADD DIV SWAP1 POP SWAP2 SWAP1 POP JUMP JUMPDEST PUSH0 DUP3 DUP3 SHL SWAP1 POP SWAP3 SWAP2 POP POP JUMP JUMPDEST PUSH0 PUSH1 0x8 DUP4 MUL PUSH2 0x1C8 PUSH32 0xFFFFFFFFFFFFFFFFFFFFFFFFFFFFFFFFFFFFFFFFFFFFFFFFFFFFFFFFFFFFFFFF DUP3 PUSH2 0x18D JUMP JUMPDEST PUSH2 0x1D2 DUP7 DUP4 PUSH2 0x18D JUMP JUMPDEST SWAP6 POP DUP1 NOT DUP5 AND SWAP4 POP DUP1 DUP7 AND DUP5 OR SWAP3 POP POP POP SWAP4 SWAP3 POP POP POP JUMP JUMPDEST PUSH0 DUP2 SWAP1 POP SWAP2 SWAP1 POP JUMP JUMPDEST PUSH0 DUP2 SWAP1 POP SWAP2 SWAP1 POP JUMP JUMPDEST PUSH0 PUSH2 0x216 PUSH2 0x211 PUSH2 0x20C DUP5 PUSH2 0x1EA JUMP JUMPDEST PUSH2 0x1F3 JUMP JUMPDEST PUSH2 0x1EA JUMP JUMPDEST SWAP1 POP SWAP2 SWAP1 POP JUMP JUMPDEST PUSH0 DUP2 SWAP1 POP SWAP2 SWAP1 POP JUMP JUMPDEST PUSH2 0x22F DUP4 PUSH2 0x1FC JUMP JUMPDEST PUSH2 0x243 PUSH2 0x23B DUP3 PUSH2 0x21D JUMP JUMPDEST DUP5 DUP5 SLOAD PUSH2 0x199 JUMP JUMPDEST DUP3 SSTORE POP POP POP POP JUMP JUMPDEST PUSH0 SWAP1 JUMP JUMPDEST PUSH2 0x257 PUSH2 0x24B JUMP JUMPDEST PUSH2 0x262 DUP2 DUP5 DUP5 PUSH2 0x226 JUMP JUMPDEST POP POP POP JUMP JUMPDEST JUMPDEST DUP2 DUP2 LT ISZERO PUSH2 0x285 JUMPI PUSH2 0x27A PUSH0 DUP3 PUSH2 0x24F JUMP JUMPDEST PUSH1 0x1 DUP2 ADD SWAP1 POP PUSH2 0x268 JUMP JUMPDEST POP POP JUMP JUMPDEST PUSH1 0x1F DUP3 GT ISZERO PUSH2 0x2CA JUMPI PUSH2 0x29B DUP2 PUSH2 0x16C JUMP JUMPDEST PUSH2 0x2A4 DUP5 PUSH2 0x17E JUMP JUMPDEST DUP2 ADD PUSH1 0x20 DUP6 LT ISZERO PUSH2 0x2B3 JUMPI DUP2 SWAP1 POP JUMPDEST PUSH2 0x2C7 PUSH2 0x2BF DUP6 PUSH2 0x17E JUMP JUMPDEST DUP4 ADD DUP3 PUSH2 0x267 JUMP JUMPDEST POP POP JUMPDEST POP POP POP JUMP JUMPDEST PUSH0 DUP3 DUP3 SHR SWAP1 POP SWAP3 SWAP2 POP POP JUMP JUMPDEST PUSH0 PUSH2 0x2EA PUSH0 NOT DUP5 PUSH1 0x8 MUL PUSH2 0x2CF JUMP JUMPDEST NOT DUP1 DUP4 AND SWAP2 POP POP SWAP3 SWAP2 POP POP JUMP JUMPDEST PUSH0 PUSH2 0x302 DUP4 DUP4 PUSH2 0x2DB JUMP JUMPDEST SWAP2 POP DUP3 PUSH1 0x2 MUL DUP3 OR SWAP1 POP SWAP3 SWAP2 POP POP JUMP JUMPDEST PUSH2 0x31B DUP3 PUSH2 0xD8 JUMP JUMPDEST PUSH8 0xFFFFFFFFFFFFFFFF DUP2 GT ISZERO PUSH2 0x334 JUMPI PUSH2 0x333 PUSH2 0xE2 JUMP JUMPDEST JUMPDEST PUSH2 0x33E DUP3 SLOAD PUSH2 0x13C JUMP JUMPDEST PUSH2 0x349 DUP3 DUP3 DUP6 PUSH2 0x289 JUMP JUMPDEST PUSH0 PUSH1 0x20 SWAP1 POP PUSH1 0x1F DUP4 GT PUSH1 0x1 DUP2 EQ PUSH2 0x37A JUMPI PUSH0 DUP5 ISZERO PUSH2 0x368 JUMPI DUP3 DUP8 ADD MLOAD SWAP1 POP JUMPDEST PUSH2 0x372 DUP6 DUP3 PUSH2 0x2F7 JUMP JUMPDEST DUP7 SSTORE POP PUSH2 0x3D9 JUMP JUMPDEST PUSH1 0x1F NOT DUP5 AND PUSH2 0x388 DUP7 PUSH2 0x16C JUMP JUMPDEST PUSH0 JUMPDEST DUP3 DUP2 LT ISZERO PUSH2 0x3AF JUMPI DUP5 DUP10 ADD MLOAD DUP3 SSTORE PUSH1 0x1 DUP3 ADD SWAP2 POP PUSH1 0x20 DUP6 ADD SWAP5 POP PUSH1 0x20 DUP2 ADD SWAP1 POP PUSH2 0x38A JUMP JUMPDEST DUP7 DUP4 LT ISZERO PUSH2 0x3CC JUMPI DUP5 DUP10 ADD MLOAD PUSH2 0x3C8 PUSH1 0x1F DUP10 AND DUP3 PUSH2 0x2DB JUMP JUMPDEST DUP4 SSTORE POP JUMPDEST PUSH1 0x1 PUSH1 0x2 DUP9 MUL ADD DUP9 SSTORE POP POP POP JUMPDEST POP POP POP POP POP POP JUMP JUMPDEST PUSH0 DUP1 REVERT JUMPDEST PUSH2 0x3EE DUP2 PUSH2 0x1EA JUMP JUMPDEST DUP2 EQ PUSH2 0x3F8 JUMPI PUSH0 DUP1 REVERT JUMPDEST POP JUMP JUMPDEST PUSH0 DUP2 MLOAD SWAP1 POP PUSH2 0x409 DUP2 PUSH2 0x3E5 JUMP JUMPDEST SWAP3 SWAP2 POP POP JUMP JUMPDEST PUSH0 PUSH1 0x20 DUP3 DUP5 SUB SLT ISZERO PUSH2 0x424 JUMPI PUSH2 0x423 PUSH2 0x3E1 JUMP JUMPDEST JUMPDEST PUSH0 PUSH2 0x431 DUP5 DUP3 DUP6 ADD PUSH2 0x3FB JUMP JUMPDEST SWAP2 POP POP SWAP3 SWAP2 POP POP JUMP JUMPDEST PUSH32 0x4E487B7100000000000000000000000000000000000000000000000000000000 PUSH0 MSTORE PUSH1 0x11 PUSH1 0x4 MSTORE PUSH1 0x24 PUSH0 REVERT JUMPDEST PUSH0 PUSH2 0x471 DUP3 PUSH2 0x1EA JUMP JUMPDEST SWAP2 POP PUSH2 0x47C DUP4 PUSH2 0x1EA JUMP JUMPDEST SWAP3 POP DUP3 DUP3 ADD SWAP1 POP DUP1 DUP3 GT ISZERO PUSH2 0x494 JUMPI PUSH2 0x493 PUSH2 0x43A JUMP JUMPDEST JUMPDEST SWAP3 SWAP2 POP POP JUMP JUMPDEST PUSH0 PUSH2 0x4A4 DUP3 PUSH2 0x1EA JUMP JUMPDEST SWAP2 POP PUSH2 0x4AF DUP4 PUSH2 0x1EA JUMP JUMPDEST SWAP3 POP DUP3 DUP3 SUB SWAP1 POP DUP2 DUP2 GT ISZERO PUSH2 0x4C7 JUMPI PUSH2 0x4C6 PUSH2 0x43A JUMP JUMPDEST JUMPDEST SWAP3 SWAP2 POP POP JUMP JUMPDEST PUSH32 0x4E487B7100000000000000000000000000000000000000000000000000000000 PUSH0 MSTORE PUSH1 0x12 PUSH1 0x4 MSTORE PUSH1 0x24 PUSH0 REVERT JUMPDEST PUSH0 PUSH2 0x504 DUP3 PUSH2 0x1EA JUMP JUMPDEST SWAP2 POP PUSH2 0x50F DUP4 PUSH2 0x1EA JUMP JUMPDEST SWAP3 POP DUP3 PUSH2 0x51F JUMPI PUSH2 0x51E PUSH2 0x4CD JUMP JUMPDEST JUMPDEST DUP3 DUP3 DIV SWAP1 POP SWAP3 SWAP2 POP POP JUMP JUMPDEST PUSH2 0x7C1 DUP1 PUSH2 0x537 PUSH0 CODECOPY PUSH0 RETURN INVALID PUSH1 0x80 PUSH1 0x40 MSTORE CALLVALUE DUP1 ISZERO PUSH2 0xF JUMPI PUSH0 DUP1 REVERT JUMPDEST POP PUSH1 0x4 CALLDATASIZE LT PUSH2 0x86 JUMPI PUSH0 CALLDATALOAD PUSH1 0xE0 SHR DUP1 PUSH4 0x67DD74CA GT PUSH2 0x59 JUMPI DUP1 PUSH4 0x67DD74CA EQ PUSH2 0x102 JUMPI DUP1 PUSH4 0x7CC3AE8C EQ PUSH2 0x132 JUMPI DUP1 PUSH4 0xC7446565 EQ PUSH2 0x150 JUMPI DUP1 PUSH4 0xE21F37CE EQ PUSH2 0x16E JUMPI PUSH2 0x86 JUMP JUMPDEST DUP1 PUSH4 0x1209B1F6 EQ PUSH2 0x8A JUMPI DUP1 PUSH4 0x1A39D8EF EQ PUSH2 0xA8 JUMPI DUP1 PUSH4 0x45745C10 EQ PUSH2 0xC6 JUMPI DUP1 PUSH4 0x6284568A EQ PUSH2 0xE4 JUMPI JUMPDEST PUSH0 DUP1 REVERT JUMPDEST PUSH2 0x92 PUSH2 0x18C JUMP JUMPDEST PUSH1 0x40 MLOAD PUSH2 0x9F SWAP2 SWAP1 PUSH2 0x2EC JUMP JUMPDEST PUSH1 0x40 MLOAD DUP1 SWAP2 SUB SWAP1 RETURN JUMPDEST PUSH2 0xB0 PUSH2 0x192 JUMP JUMPDEST PUSH1 0x40 MLOAD PUSH2 0xBD SWAP2 SWAP1 PUSH2 0x2EC JUMP JUMPDEST PUSH1 0x40 MLOAD DUP1 SWAP2 SUB SWAP1 RETURN JUMPDEST PUSH2 0xCE PUSH2 0x198 JUMP JUMPDEST PUSH1 0x40 MLOAD PUSH2 0xDB SWAP2 SWAP1 PUSH2 0x2EC JUMP JUMPDEST PUSH1 0x40 MLOAD DUP1 SWAP2 SUB SWAP1 RETURN JUMPDEST PUSH2 0xEC PUSH2 0x19D JUMP JUMPDEST PUSH1 0x40 MLOAD PUSH2 0xF9 SWAP2 SWAP1 PUSH2 0x2EC JUMP JUMPDEST PUSH1 0x40 MLOAD DUP1 SWAP2 SUB SWAP1 RETURN JUMPDEST PUSH2 0x11C PUSH1 0x4 DUP1 CALLDATASIZE SUB DUP2 ADD SWAP1 PUSH2 0x117 SWAP2 SWAP1 PUSH2 0x333 JUMP JUMPDEST PUSH2 0x1A3 JUMP JUMPDEST PUSH1 0x40 MLOAD PUSH2 0x129 SWAP2 SWAP1 PUSH2 0x2EC JUMP JUMPDEST PUSH1 0x40 MLOAD DUP1 SWAP2 SUB SWAP1 RETURN JUMPDEST PUSH2 0x13A PUSH2 0x23C JUMP JUMPDEST PUSH1 0x40 MLOAD PUSH2 0x147 SWAP2 SWAP1 PUSH2 0x2EC JUMP JUMPDEST PUSH1 0x40 MLOAD DUP1 SWAP2 SUB SWAP1 RETURN JUMPDEST PUSH2 0x158 PUSH2 0x242 JUMP JUMPDEST PUSH1 0x40 MLOAD PUSH2 0x165 SWAP2 SWAP1 PUSH2 0x2EC JUMP JUMPDEST PUSH1 0x40 MLOAD DUP1 SWAP2 SUB SWAP1 RETURN JUMPDEST PUSH2 0x176 PUSH2 0x248 JUMP JUMPDEST PUSH1 0x40 MLOAD PUSH2 0x183 SWAP2 SWAP1 PUSH2 0x3CE JUMP JUMPDEST PUSH1 0x40 MLOAD DUP1 SWAP2 SUB SWAP1 RETURN JUMPDEST PUSH1 0x1 SLOAD DUP2 JUMP JUMPDEST PUSH1 0x2 SLOAD DUP2 JUMP JUMPDEST PUSH0 SLOAD DUP2 JUMP JUMPDEST PUSH1 0x5 SLOAD DUP2 JUMP JUMPDEST PUSH0 PUSH1 0x5 DUP3 PUSH1 0x2 SLOAD PUSH2 0x1B4 SWAP2 SWAP1 PUSH2 0x41B JUMP JUMPDEST LT ISZERO PUSH2 0x1F1 JUMPI PUSH0 DUP1 DUP2 SLOAD DUP1 SWAP3 SWAP2 SWAP1 PUSH2 0x1CB SWAP1 PUSH2 0x44E JUMP JUMPDEST SWAP2 SWAP1 POP SSTORE POP DUP2 PUSH1 0x2 PUSH0 DUP3 DUP3 SLOAD PUSH2 0x1E1 SWAP2 SWAP1 PUSH2 0x41B JUMP JUMPDEST SWAP3 POP POP DUP2 SWAP1 SSTORE POP PUSH0 SLOAD SWAP1 POP PUSH2 0x237 JUMP JUMPDEST PUSH1 0x40 MLOAD DUP1 PUSH1 0x40 ADD PUSH1 0x40 MSTORE DUP1 PUSH1 0x1A DUP2 MSTORE PUSH1 0x20 ADD PUSH32 0x596F752063616E277420627579206D6F7265207469636B657473000000000000 DUP2 MSTORE POP PUSH1 0x6 SWAP1 DUP2 PUSH2 0x235 SWAP2 SWAP1 PUSH2 0x6BC JUMP JUMPDEST POP JUMPDEST SWAP2 SWAP1 POP JUMP JUMPDEST PUSH1 0x4 SLOAD DUP2 JUMP JUMPDEST PUSH1 0x3 SLOAD DUP2 JUMP JUMPDEST PUSH1 0x6 DUP1 SLOAD PUSH2 0x255 SWAP1 PUSH2 0x4EF JUMP JUMPDEST DUP1 PUSH1 0x1F ADD PUSH1 0x20 DUP1 SWAP2 DIV MUL PUSH1 0x20 ADD PUSH1 0x40 MLOAD SWAP1 DUP2 ADD PUSH1 0x40 MSTORE DUP1 SWAP3 SWAP2 SWAP1 DUP2 DUP2 MSTORE PUSH1 0x20 ADD DUP3 DUP1 SLOAD PUSH2 0x281 SWAP1 PUSH2 0x4EF JUMP JUMPDEST DUP1 ISZERO PUSH2 0x2CC JUMPI DUP1 PUSH1 0x1F LT PUSH2 0x2A3 JUMPI PUSH2 0x100 DUP1 DUP4 SLOAD DIV MUL DUP4 MSTORE SWAP2 PUSH1 0x20 ADD SWAP2 PUSH2 0x2CC JUMP JUMPDEST DUP3 ADD SWAP2 SWAP1 PUSH0 MSTORE PUSH1 0x20 PUSH0 KECCAK256 SWAP1 JUMPDEST DUP2 SLOAD DUP2 MSTORE SWAP1 PUSH1 0x1 ADD SWAP1 PUSH1 0x20 ADD DUP1 DUP4 GT PUSH2 0x2AF JUMPI DUP3 SWAP1 SUB PUSH1 0x1F AND DUP3 ADD SWAP2 JUMPDEST POP POP POP POP POP DUP2 JUMP JUMPDEST PUSH0 DUP2 SWAP1 POP SWAP2 SWAP1 POP JUMP JUMPDEST PUSH2 0x2E6 DUP2 PUSH2 0x2D4 JUMP JUMPDEST DUP3 MSTORE POP POP JUMP JUMPDEST PUSH0 PUSH1 0x20 DUP3 ADD SWAP1 POP PUSH2 0x2FF PUSH0 DUP4 ADD DUP5 PUSH2 0x2DD JUMP JUMPDEST SWAP3 SWAP2 POP POP JUMP JUMPDEST PUSH0 DUP1 REVERT JUMPDEST PUSH2 0x312 DUP2 PUSH2 0x2D4 JUMP JUMPDEST DUP2 EQ PUSH2 0x31C JUMPI PUSH0 DUP1 REVERT JUMPDEST POP JUMP JUMPDEST PUSH0 DUP2 CALLDATALOAD SWAP1 POP PUSH2 0x32D DUP2 PUSH2 0x309 JUMP JUMPDEST SWAP3 SWAP2 POP POP JUMP JUMPDEST PUSH0 PUSH1 0x20 DUP3 DUP5 SUB SLT ISZERO PUSH2 0x348 JUMPI PUSH2 0x347 PUSH2 0x305 JUMP JUMPDEST JUMPDEST PUSH0 PUSH2 0x355 DUP5 DUP3 DUP6 ADD PUSH2 0x31F JUMP JUMPDEST SWAP2 POP POP SWAP3 SWAP2 POP POP JUMP JUMPDEST PUSH0 DUP2 MLOAD SWAP1 POP SWAP2 SWAP1 POP JUMP JUMPDEST PUSH0 DUP3 DUP3 MSTORE PUSH1 0x20 DUP3 ADD SWAP1 POP SWAP3 SWAP2 POP POP JUMP JUMPDEST DUP3 DUP2 DUP4 MCOPY PUSH0 DUP4 DUP4 ADD MSTORE POP POP POP JUMP JUMPDEST PUSH0 PUSH1 0x1F NOT PUSH1 0x1F DUP4 ADD AND SWAP1 POP SWAP2 SWAP1 POP JUMP JUMPDEST PUSH0 PUSH2 0x3A0 DUP3 PUSH2 0x35E JUMP JUMPDEST PUSH2 0x3AA DUP2 DUP6 PUSH2 0x368 JUMP JUMPDEST SWAP4 POP PUSH2 0x3BA DUP2 DUP6 PUSH1 0x20 DUP7 ADD PUSH2 0x378 JUMP JUMPDEST PUSH2 0x3C3 DUP2 PUSH2 0x386 JUMP JUMPDEST DUP5 ADD SWAP2 POP POP SWAP3 SWAP2 POP POP JUMP JUMPDEST PUSH0 PUSH1 0x20 DUP3 ADD SWAP1 POP DUP2 DUP2 SUB PUSH0 DUP4 ADD MSTORE PUSH2 0x3E6 DUP2 DUP5 PUSH2 0x396 JUMP JUMPDEST SWAP1 POP SWAP3 SWAP2 POP POP JUMP JUMPDEST PUSH32 0x4E487B7100000000000000000000000000000000000000000000000000000000 PUSH0 MSTORE PUSH1 0x11 PUSH1 0x4 MSTORE PUSH1 0x24 PUSH0 REVERT JUMPDEST PUSH0 PUSH2 0x425 DUP3 PUSH2 0x2D4 JUMP JUMPDEST SWAP2 POP PUSH2 0x430 DUP4 PUSH2 0x2D4 JUMP JUMPDEST SWAP3 POP DUP3 DUP3 ADD SWAP1 POP DUP1 DUP3 GT ISZERO PUSH2 0x448 JUMPI PUSH2 0x447 PUSH2 0x3EE JUMP JUMPDEST JUMPDEST SWAP3 SWAP2 POP POP JUMP JUMPDEST PUSH0 PUSH2 0x458 DUP3 PUSH2 0x2D4 JUMP JUMPDEST SWAP2 POP PUSH32 0xFFFFFFFFFFFFFFFFFFFFFFFFFFFFFFFFFFFFFFFFFFFFFFFFFFFFFFFFFFFFFFFF DUP3 SUB PUSH2 0x48A JUMPI PUSH2 0x489 PUSH2 0x3EE JUMP JUMPDEST JUMPDEST PUSH1 0x1 DUP3 ADD SWAP1 POP SWAP2 SWAP1 POP JUMP JUMPDEST PUSH32 0x4E487B7100000000000000000000000000000000000000000000000000000000 PUSH0 MSTORE PUSH1 0x41 PUSH1 0x4 MSTORE PUSH1 0x24 PUSH0 REVERT JUMPDEST PUSH32 0x4E487B7100000000000000000000000000000000000000000000000000000000 PUSH0 MSTORE PUSH1 0x22 PUSH1 0x4 MSTORE PUSH1 0x24 PUSH0 REVERT JUMPDEST PUSH0 PUSH1 0x2 DUP3 DIV SWAP1 POP PUSH1 0x1 DUP3 AND DUP1 PUSH2 0x506 JUMPI PUSH1 0x7F DUP3 AND SWAP2 POP JUMPDEST PUSH1 0x20 DUP3 LT DUP2 SUB PUSH2 0x519 JUMPI PUSH2 0x518 PUSH2 0x4C2 JUMP JUMPDEST JUMPDEST POP SWAP2 SWAP1 POP JUMP JUMPDEST PUSH0 DUP2 SWAP1 POP DUP2 PUSH0 MSTORE PUSH1 0x20 PUSH0 KECCAK256 SWAP1 POP SWAP2 SWAP1 POP JUMP JUMPDEST PUSH0 PUSH1 0x20 PUSH1 0x1F DUP4 ADD DIV SWAP1 POP SWAP2 SWAP1 POP JUMP JUMPDEST PUSH0 DUP3 DUP3 SHL SWAP1 POP SWAP3 SWAP2 POP POP JUMP JUMPDEST PUSH0 PUSH1 0x8 DUP4 MUL PUSH2 0x57B PUSH32 0xFFFFFFFFFFFFFFFFFFFFFFFFFFFFFFFFFFFFFFFFFFFFFFFFFFFFFFFFFFFFFFFF DUP3 PUSH2 0x540 JUMP JUMPDEST PUSH2 0x585 DUP7 DUP4 PUSH2 0x540 JUMP JUMPDEST SWAP6 POP DUP1 NOT DUP5 AND SWAP4 POP DUP1 DUP7 AND DUP5 OR SWAP3 POP POP POP SWAP4 SWAP3 POP POP POP JUMP JUMPDEST PUSH0 DUP2 SWAP1 POP SWAP2 SWAP1 POP JUMP JUMPDEST PUSH0 PUSH2 0x5C0 PUSH2 0x5BB PUSH2 0x5B6 DUP5 PUSH2 0x2D4 JUMP JUMPDEST PUSH2 0x59D JUMP JUMPDEST PUSH2 0x2D4 JUMP JUMPDEST SWAP1 POP SWAP2 SWAP1 POP JUMP JUMPDEST PUSH0 DUP2 SWAP1 POP SWAP2 SWAP1 POP JUMP JUMPDEST PUSH2 0x5D9 DUP4 PUSH2 0x5A6 JUMP JUMPDEST PUSH2 0x5ED PUSH2 0x5E5 DUP3 PUSH2 0x5C7 JUMP JUMPDEST DUP5 DUP5 SLOAD PUSH2 0x54C JUMP JUMPDEST DUP3 SSTORE POP POP POP POP JUMP JUMPDEST PUSH0 SWAP1 JUMP JUMPDEST PUSH2 0x601 PUSH2 0x5F5 JUMP JUMPDEST PUSH2 0x60C DUP2 DUP5 DUP5 PUSH2 0x5D0 JUMP JUMPDEST POP POP POP JUMP JUMPDEST JUMPDEST DUP2 DUP2 LT ISZERO PUSH2 0x62F JUMPI PUSH2 0x624 PUSH0 DUP3 PUSH2 0x5F9 JUMP JUMPDEST PUSH1 0x1 DUP2 ADD SWAP1 POP PUSH2 0x612 JUMP JUMPDEST POP POP JUMP JUMPDEST PUSH1 0x1F DUP3 GT ISZERO PUSH2 0x674 JUMPI PUSH2 0x645 DUP2 PUSH2 0x51F JUMP JUMPDEST PUSH2 0x64E DUP5 PUSH2 0x531 JUMP JUMPDEST DUP2 ADD PUSH1 0x20 DUP6 LT ISZERO PUSH2 0x65D JUMPI DUP2 SWAP1 POP JUMPDEST PUSH2 0x671 PUSH2 0x669 DUP6 PUSH2 0x531 JUMP JUMPDEST DUP4 ADD DUP3 PUSH2 0x611 JUMP JUMPDEST POP POP JUMPDEST POP POP POP JUMP JUMPDEST PUSH0 DUP3 DUP3 SHR SWAP1 POP SWAP3 SWAP2 POP POP JUMP JUMPDEST PUSH0 PUSH2 0x694 PUSH0 NOT DUP5 PUSH1 0x8 MUL PUSH2 0x679 JUMP JUMPDEST NOT DUP1 DUP4 AND SWAP2 POP POP SWAP3 SWAP2 POP POP JUMP JUMPDEST PUSH0 PUSH2 0x6AC DUP4 DUP4 PUSH2 0x685 JUMP JUMPDEST SWAP2 POP DUP3 PUSH1 0x2 MUL DUP3 OR SWAP1 POP SWAP3 SWAP2 POP POP JUMP JUMPDEST PUSH2 0x6C5 DUP3 PUSH2 0x35E JUMP JUMPDEST PUSH8 0xFFFFFFFFFFFFFFFF DUP2 GT ISZERO PUSH2 0x6DE JUMPI PUSH2 0x6DD PUSH2 0x495 JUMP JUMPDEST JUMPDEST PUSH2 0x6E8 DUP3 SLOAD PUSH2 0x4EF JUMP JUMPDEST PUSH2 0x6F3 DUP3 DUP3 DUP6 PUSH2 0x633 JUMP JUMPDEST PUSH0 PUSH1 0x20 SWAP1 POP PUSH1 0x1F DUP4 GT PUSH1 0x1 DUP2 EQ PUSH2 0x724 JUMPI PUSH0 DUP5 ISZERO PUSH2 0x712 JUMPI DUP3 DUP8 ADD MLOAD SWAP1 POP JUMPDEST PUSH2 0x71C DUP6 DUP3 PUSH2 0x6A1 JUMP JUMPDEST DUP7 SSTORE POP PUSH2 0x783 JUMP JUMPDEST PUSH1 0x1F NOT DUP5 AND PUSH2 0x732 DUP7 PUSH2 0x51F JUMP JUMPDEST PUSH0 JUMPDEST DUP3 DUP2 LT ISZERO PUSH2 0x759 JUMPI DUP5 DUP10 ADD MLOAD DUP3 SSTORE PUSH1 0x1 DUP3 ADD SWAP2 POP PUSH1 0x20 DUP6 ADD SWAP5 POP PUSH1 0x20 DUP2 ADD SWAP1 POP PUSH2 0x734 JUMP JUMPDEST DUP7 DUP4 LT ISZERO PUSH2 0x776 JUMPI DUP5 DUP10 ADD MLOAD PUSH2 0x772 PUSH1 0x1F DUP10 AND DUP3 PUSH2 0x685 JUMP JUMPDEST DUP4 SSTORE POP JUMPDEST PUSH1 0x1 PUSH1 0x2 DUP9 MUL ADD DUP9 SSTORE POP POP POP JUMPDEST POP POP POP POP POP POP JUMP INVALID LOG2 PUSH5 0x6970667358 0x22 SLT KECCAK256 SWAP16 0xBD SWAP1 0xAF STOP DUP14 SWAP8 0x2E PUSH32 0x297C72F371B3B6169759564EE95C697CE6D0EA2D557F9E64736F6C634300081A STOP CALLER "
				},
				"gasEstimates": {
					"creation": {
						"codeDepositCost": "397000",
						"executionCost": "infinite",
						"totalCost": "infinite"
					},
					"external": {
						"buyTicket(uint256)": "infinite",
						"endAt()": "2447",
						"message()": "infinite",
						"numberOfTickets()": "2469",
						"startAt()": "2469",
						"ticketPrice()": "2426",
						"timeRange()": "2492",
						"totalAmount()": "2448"
					}
				},
				"methodIdentifiers": {
					"buyTicket(uint256)": "67dd74ca",
					"endAt()": "7cc3ae8c",
					"message()": "e21f37ce",
					"numberOfTickets()": "45745c10",
					"startAt()": "c7446565",
					"ticketPrice()": "1209b1f6",
					"timeRange()": "6284568a",
					"totalAmount()": "1a39d8ef"
				}
			},
			"storageLayout": {
				"storage": [
					{
						"astId": 3,
						"contract": "contracts/7_eventtickets.sol:EventTickets",
						"label": "numberOfTickets",
						"offset": 0,
						"slot": "0",
						"type": "t_uint256"
					},
					{
						"astId": 5,
						"contract": "contracts/7_eventtickets.sol:EventTickets",
						"label": "ticketPrice",
						"offset": 0,
						"slot": "1",
						"type": "t_uint256"
					},
					{
						"astId": 7,
						"contract": "contracts/7_eventtickets.sol:EventTickets",
						"label": "totalAmount",
						"offset": 0,
						"slot": "2",
						"type": "t_uint256"
					},
					{
						"astId": 9,
						"contract": "contracts/7_eventtickets.sol:EventTickets",
						"label": "startAt",
						"offset": 0,
						"slot": "3",
						"type": "t_uint256"
					},
					{
						"astId": 11,
						"contract": "contracts/7_eventtickets.sol:EventTickets",
						"label": "endAt",
						"offset": 0,
						"slot": "4",
						"type": "t_uint256"
					},
					{
						"astId": 13,
						"contract": "contracts/7_eventtickets.sol:EventTickets",
						"label": "timeRange",
						"offset": 0,
						"slot": "5",
						"type": "t_uint256"
					},
					{
						"astId": 16,
						"contract": "contracts/7_eventtickets.sol:EventTickets",
						"label": "message",
						"offset": 0,
						"slot": "6",
						"type": "t_string_storage"
					}
				],
				"types": {
					"t_string_storage": {
						"encoding": "bytes",
						"label": "string",
						"numberOfBytes": "32"
					},
					"t_uint256": {
						"encoding": "inplace",
						"label": "uint256",
						"numberOfBytes": "32"
					}
				}
			},
			"userdoc": {
				"kind": "user",
				"methods": {},
				"version": 1
			}
		}
	}
}