{
	"data": {
		"bytecode": {
			"linkReferences": {},
			"object": "608060405260055f5560066001553480156017575f80fd5b50610248806100255f395ff3fe608060405234801561000f575f80fd5b506004361061003f575f3560e01c80633bc5de30146100435780635543524714610062578063ca77ab6514610081575b5f80fd5b61004b6100a0565b604051610059929190610107565b60405180910390f35b61006a6100b8565b604051610078929190610107565b60405180910390f35b6100896100c7565b604051610097929190610107565b60405180910390f35b5f805f601490505f6028905081819350935050509091565b5f805f54600154915091509091565b5f806001545f546100d8919061015b565b91506001545f546100e991906101d1565b90509091565b5f819050919050565b610101816100ef565b82525050565b5f60408201905061011a5f8301856100f8565b61012760208301846100f8565b9392505050565b7f4e487b71000000000000000000000000000000000000000000000000000000005f52601160045260245ffd5b5f610165826100ef565b9150610170836100ef565b925082820261017e816100ef565b91507f800000000000000000000000000000000000000000000000000000000000000084145f841216156101b5576101b461012e565b5b82820584148315176101ca576101c961012e565b5b5092915050565b5f6101db826100ef565b91506101e6836100ef565b92508282019050828112155f8312168382125f84121516171561020c5761020b61012e565b5b9291505056fea26469706673582212201861083fc353339c4d8b578bd4354100794ee7784894bb6f09ed17fe99c02c1a64736f6c634300081a0033",
			"opcodes": "PUSH1 0x80 PUSH1 0x40 MSTORE PUSH1 0x5 PUSH0 SSTORE PUSH1 0x6 PUSH1 0x1 SSTORE CALLVALUE DUP1 ISZERO PUSH1 0x17 JUMPI PUSH0 DUP1 REVERT JUMPDEST POP PUSH2 0x248 DUP1 PUSH2 0x25 PUSH0 CODECOPY PUSH0 RETURN INVALID PUSH1 0x80 PUSH1 0x40 MSTORE CALLVALUE DUP1 ISZERO PUSH2 0xF JUMPI PUSH0 DUP1 REVERT JUMPDEST POP PUSH1 0x4 CALLDATASIZE LT PUSH2 0x3F JUMPI PUSH0 CALLDATALOAD PUSH1 0xE0 SHR DUP1 PUSH4 0x3BC5DE30 EQ PUSH2 0x43 JUMPI DUP1 PUSH4 0x55435247 EQ PUSH2 0x62 JUMPI DUP1 PUSH4 0xCA77AB65 EQ PUSH2 0x81 JUMPI JUMPDEST PUSH0 DUP1 REVERT JUMPDEST PUSH2 0x4B PUSH2 0xA0 JUMP JUMPDEST PUSH1 0x40 MLOAD PUSH2 0x59 SWAP3 SWAP2 SWAP1 PUSH2 0x107 JUMP JUMPDEST PUSH1 0x40 MLOAD DUP1 SWAP2 SUB SWAP1 RETURN JUMPDEST PUSH2 0x6A PUSH2 0xB8 JUMP JUMPDEST PUSH1 0x40 MLOAD PUSH2 0x78 SWAP3 SWAP2 SWAP1 PUSH2 0x107 JUMP JUMPDEST PUSH1 0x40 MLOAD DUP1 SWAP2 SUB SWAP1 RETURN JUMPDEST PUSH2 0x89 PUSH2 0xC7 JUMP JUMPDEST PUSH1 0x40 MLOAD PUSH2 0x97 SWAP3 SWAP2 SWAP1 PUSH2 0x107 JUMP JUMPDEST PUSH1 0x40 MLOAD DUP1 SWAP2 SUB SWAP1 RETURN JUMPDEST PUSH0 DUP1 PUSH0 PUSH1 0x14 SWAP1 POP PUSH0 PUSH1 0x28 SWAP1 POP DUP2 DUP2 SWAP4 POP SWAP4 POP POP POP SWAP1 SWAP2 JUMP JUMPDEST PUSH0 DUP1 PUSH0 SLOAD PUSH1 0x1 SLOAD SWAP2 POP SWAP2 POP SWAP1 SWAP2 JUMP JUMPDEST PUSH0 DUP1 PUSH1 0x1 SLOAD PUSH0 SLOAD PUSH2 0xD8 SWAP2 SWAP1 PUSH2 0x15B JUMP JUMPDEST SWAP2 POP PUSH1 0x1 SLOAD PUSH0 SLOAD PUSH2 0xE9 SWAP2 SWAP1 PUSH2 0x1D1 JUMP JUMPDEST SWAP1 POP SWAP1 SWAP2 JUMP JUMPDEST PUSH0 DUP2 SWAP1 POP SWAP2 SWAP1 POP JUMP JUMPDEST PUSH2 0x101 DUP2 PUSH2 0xEF JUMP JUMPDEST DUP3 MSTORE POP POP JUMP JUMPDEST PUSH0 PUSH1 0x40 DUP3 ADD SWAP1 POP PUSH2 0x11A PUSH0 DUP4 ADD DUP6 PUSH2 0xF8 JUMP JUMPDEST PUSH2 0x127 PUSH1 0x20 DUP4 ADD DUP5 PUSH2 0xF8 JUMP JUMPDEST SWAP4 SWAP3 POP POP POP JUMP JUMPDEST PUSH32 0x4E487B7100000000000000000000000000000000000000000000000000000000 PUSH0 MSTORE PUSH1 0x11 PUSH1 0x4 MSTORE PUSH1 0x24 PUSH0 REVERT JUMPDEST PUSH0 PUSH2 0x165 DUP3 PUSH2 0xEF JUMP JUMPDEST SWAP2 POP PUSH2 0x170 DUP4 PUSH2 0xEF JUMP JUMPDEST SWAP3 POP DUP3 DUP3 MUL PUSH2 0x17E DUP2 PUSH2 0xEF JUMP JUMPDEST SWAP2 POP PUSH32 0x8000000000000000000000000000000000000000000000000000000000000000 DUP5 EQ PUSH0 DUP5 SLT AND ISZERO PUSH2 0x1B5 JUMPI PUSH2 0x1B4 PUSH2 0x12E JUMP JUMPDEST JUMPDEST DUP3 DUP3 SDIV DUP5 EQ DUP4 ISZERO OR PUSH2 0x1CA JUMPI PUSH2 0x1C9 PUSH2 0x12E JUMP JUMPDEST JUMPDEST POP SWAP3 SWAP2 POP POP JUMP JUMPDEST PUSH0 PUSH2 0x1DB DUP3 PUSH2 0xEF JUMP JUMPDEST SWAP2 POP PUSH2 0x1E6 DUP4 PUSH2 0xEF JUMP JUMPDEST SWAP3 POP DUP3 DUP3 ADD SWAP1 POP DUP3 DUP2 SLT ISZERO PUSH0 DUP4 SLT AND DUP4 DUP3 SLT PUSH0 DUP5 SLT ISZERO AND OR ISZERO PUSH2 0x20C JUMPI PUSH2 0x20B PUSH2 0x12E JUMP JUMPDEST JUMPDEST SWAP3 SWAP2 POP POP JUMP INVALID LOG2 PUSH5 0x6970667358 0x22 SLT KECCAK256 XOR PUSH2 0x83F 0xC3 MSTORE8 CALLER SWAP13 0x4D DUP12 JUMPI DUP12 0xD4 CALLDATALOAD COINBASE STOP PUSH26 0x4EE7784894BB6F09ED17FE99C02C1A64736F6C634300081A0033 "
		},
		"gasEstimates": {
			"creation": {
				"codeDepositCost": "116800",
				"executionCost": "44374",
				"totalCost": "161174"
			},
			"external": {
				"calculate()": "infinite",
				"checkNums()": "infinite",
				"getData()": "infinite"
			}
		},
		"methodIdentifiers": {
			"calculate()": "ca77ab65",
			"checkNums()": "55435247",
			"getData()": "3bc5de30"
		}
	},
	"abi": [
		{
			"inputs": [],
			"name": "calculate",
			"outputs": [
				{
					"internalType": "int256",
					"name": "product",
					"type": "int256"
				},
				{
					"internalType": "int256",
					"name": "total",
					"type": "int256"
				}
			],
			"stateMutability": "view",
			"type": "function"
		},
		{
			"inputs": [],
			"name": "checkNums",
			"outputs": [
				{
					"internalType": "int256",
					"name": "",
					"type": "int256"
				},
				{
					"internalType": "int256",
					"name": "",
					"type": "int256"
				}
			],
			"stateMutability": "view",
			"type": "function"
		},
		{
			"inputs": [],
			"name": "getData",
			"outputs": [
				{
					"internalType": "int256",
					"name": "",
					"type": "int256"
				},
				{
					"internalType": "int256",
					"name": "",
					"type": "int256"
				}
			],
			"stateMutability": "pure",
			"type": "function"
		}
	]
}