{
	"data": {
		"bytecode": {
			"linkReferences": {},
			"object": "608060405260055f5560066001553480156017575f80fd5b5060c38060235f395ff3fe6080604052348015600e575f80fd5b50600436106026575f3560e01c80635543524714602a575b5f80fd5b60306045565b604051603c929190606a565b60405180910390f35b5f805f54600154915091509091565b5f819050919050565b6064816054565b82525050565b5f604082019050607b5f830185605d565b60866020830184605d565b939250505056fea2646970667358221220582576fb1440bd10df81852c4de71276e572f51d7782d4150bdaece6074b656164736f6c634300081a0033",
			"opcodes": "PUSH1 0x80 PUSH1 0x40 MSTORE PUSH1 0x5 PUSH0 SSTORE PUSH1 0x6 PUSH1 0x1 SSTORE CALLVALUE DUP1 ISZERO PUSH1 0x17 JUMPI PUSH0 DUP1 REVERT JUMPDEST POP PUSH1 0xC3 DUP1 PUSH1 0x23 PUSH0 CODECOPY PUSH0 RETURN INVALID PUSH1 0x80 PUSH1 0x40 MSTORE CALLVALUE DUP1 ISZERO PUSH1 0xE JUMPI PUSH0 DUP1 REVERT JUMPDEST POP PUSH1 0x4 CALLDATASIZE LT PUSH1 0x26 JUMPI PUSH0 CALLDATALOAD PUSH1 0xE0 SHR DUP1 PUSH4 0x55435247 EQ PUSH1 0x2A JUMPI JUMPDEST PUSH0 DUP1 REVERT JUMPDEST PUSH1 0x30 PUSH1 0x45 JUMP JUMPDEST PUSH1 0x40 MLOAD PUSH1 0x3C SWAP3 SWAP2 SWAP1 PUSH1 0x6A JUMP JUMPDEST PUSH1 0x40 MLOAD DUP1 SWAP2 SUB SWAP1 RETURN JUMPDEST PUSH0 DUP1 PUSH0 SLOAD PUSH1 0x1 SLOAD SWAP2 POP SWAP2 POP SWAP1 SWAP2 JUMP JUMPDEST PUSH0 DUP2 SWAP1 POP SWAP2 SWAP1 POP JUMP JUMPDEST PUSH1 0x64 DUP2 PUSH1 0x54 JUMP JUMPDEST DUP3 MSTORE POP POP JUMP JUMPDEST PUSH0 PUSH1 0x40 DUP3 ADD SWAP1 POP PUSH1 0x7B PUSH0 DUP4 ADD DUP6 PUSH1 0x5D JUMP JUMPDEST PUSH1 0x86 PUSH1 0x20 DUP4 ADD DUP5 PUSH1 0x5D JUMP JUMPDEST SWAP4 SWAP3 POP POP POP JUMP INVALID LOG2 PUSH5 0x6970667358 0x22 SLT KECCAK256 PC 0x25 PUSH23 0xFB1440BD10DF81852C4DE71276E572F51D7782D4150BDA 0xEC 0xE6 SMOD 0x4B PUSH6 0x6164736F6C63 NUMBER STOP ADDMOD BYTE STOP CALLER "
		},
		"gasEstimates": {
			"creation": {
				"codeDepositCost": "39000",
				"executionCost": "44302",
				"totalCost": "83302"
			},
			"external": {
				"checkNums()": "infinite"
			}
		},
		"methodIdentifiers": {
			"checkNums()": "55435247"
		}
	},
	"abi": [
		{
			"inputs": [],
			"name": "checkNums",
			"outputs": [
				{
					"internalType": "int256",
					"name": "",
					"type": "int256"
				},
				{
					"internalType": "int256",
					"name": "",
					"type": "int256"
				}
			],
			"stateMutability": "view",
			"type": "function"
		}
	]
}